:020000041000EA
:1000000000B5324B212058609868022188439860DF
:10001000D860186158612E4B002199600221596106
:100020000121F02299502B49196001219960352056
:1000300000F044F80222904214D00621196600F024
:1000400034F8196E01211966002018661A6600F04E
:100050002CF8196E196E196E052000F02FF8012189
:100060000842F9D1002199601B49196000215960AB
:100070001A491B48016001219960EB211966A021F2
:10008000196600F012F800219960164914480160C1
:100090000121996001BC002800D000471248134993
:1000A000086003C880F30888084703B5996A0420EC
:1000B0000142FBD001200142F8D103BD02B5186610
:1000C0001866FFF7F2FF186E186E02BD00000240BE
:1000D000000000180000070000035F00212200005C
:1000E000F4000018222000A00001001008ED00E03C
:1000F00000000000000000000000000074B24E7A12
:1001000000200420F7010010C3010010C5010010F9
:10011000C1010010C1010010C1010010C101001097
:10012000C1010010C1010010C1010010C701001081
:10013000C1010010C1010010C9010010CB01001065
:10014000CD010010CD010010CD010010CD01001037
:10015000CD010010CD010010CD010010CD01001027
:10016000CD010010CD010010CD010010CD01001017
:10017000CD010010CD010010CD010010CD01001007
:10018000CD010010CD010010CD010010CD010010F7
:10019000CD010010CD010010CD010010CD010010E7
:1001A000CD010010CD010010CD010010CD010010D7
:1001B000CD010010CD010010CD010010CD010010C7
:1001C00000BE00BE00BE00BE00BE00BEEFF3058054
:1001D000103800BEF2EB887194950110B4950110AF
:1001E0003402001090A31AE700201F49086006C8D7
:1001F00081F3088810471D48006800282FD10DA4FE
:100200000ECC002902D000F012F8F9E71849194A7B
:10021000002000E001C19142FCD1174988471749ED
:1002200088471749884700BEFDE701C901C29A42C5
:10023000FBD37047B4950110C0000020B41B002010
:10024000A8B001100000042000000420A8B0011094
:10025000001004200010042000000000704709482E
:1002600006F0CEFE0047000008ED00E0000000D0E0
:10027000B81B0020002F0020115800102D23001063
:10028000395900105756000006005250ABB3605366
:10029000D855011006005250861C0302F855011073
:1002A000060052505422A29D0C56011005005250D7
:1002B000DE65F468A8B00110F8B5C0460448054BE7
:1002C00010B5834203D0044B002B00D0984710BDDB
:1002D000B41B0020B41B00200000000006480749A2
:1002E000091A8B10C90FC91810B5491003D0044B57
:1002F000002B00D0984710BDB41B0020B41B002079
:100300000000000010B5074C2378002B09D1FFF73F
:10031000D5FF054B002B02D0044800E000BF0123AD
:10032000237010BD601E002000000000C0510110AD
:10033000054B10B5002B03D00449054800E000BF71
:10034000FFF7CCFF10BDC04600000000641E002077
:10035000C0510110F8B50600040005000700164B57
:100360003436C36530000CF0F3F9236C60358C37FC
:10037000002B04D001223000E16D0BF091FF8826A4
:100380000E4B2800A3510CF0E3F9E36E002B04D0D0
:1003900001222800A1590BF083FF094B3800BB62F2
:1003A0000CF0D6F9FB68002B05D0B42301223800ED
:1003B000E1580BF075FFF8BDC0510110CC51011090
:1003C000DC510110030070B5050000220600113356
:1003D000FF33E8351A70040028000CF0B9F9EB6817
:1003E0009536FF36002B06D088235B0001222800BB
:1003F000E1580BF055FF23000122BD33FF331A7083
:1004000030000CF0A5F9F368002B06D0DE235B006A
:1004100001223000E1580BF043FF70BD70B50300BE
:100420000500012215353D33FF33FF351A700400F6
:1004300028000CF08DF9EB68002B06D09E235B00A2
:1004400001222800E1580BF02BFF70BD70B50500AC
:10045000036B0C4E5A1CB835026311210A4A040082
:10046000300006F063FD2800AE620CF071F9EB6815
:10047000002B05D0E02301222800E1580BF010FFEB
:1004800070BDC0464C240020EC510110F8B5A023EB
:100490004E4645465746DE465B00C2580D3BFF3B85
:1004A00098462C339946C823E0B5118E05009B0071
:1004B00006008B42BF41040080448144508DC13509
:1004C0008C36FF357F42984202D8908D98425ED993
:1004D000C823128D9B009A4200D972E0994200D93C
:1004E00084E00223AB6228000CF032F9EB68002BA9
:1004F00006D0F4235B0001222800E1580BF0D0FE67
:1005000000239A4601339B46484D3B001121484A3F
:10051000280006F00BFD474F5B461121464A380084
:1005200006F004FD454B11219B46454A534658466B
:1005300006F0FCFC4046E5650CF00AF9236C002B44
:1005400004D001224046E16D0BF0AAFE8825484602
:1005500067510CF0FDF8E36E002B04D001224846F1
:1005600061590BF09DFE5B463000B3620CF0F0F871
:10057000F368002B05D0B42301223000E1580BF0C2
:100580008FFEF0BCBB46B246A946A046F8BDD08D52
:1005900098429DD8128D9A4231D900232800AB622F
:1005A0000CF0D6F8EB68002B24D0F4235B00E15864
:1005B000012228000BF074FE01239A4600239B467B
:1005C000A2E7994214D80123AB6228000CF0C0F8CE
:1005D000EB68002B06D0F4235B0001222800E158D1
:1005E0000BF05EFE01239A469B468DE7032379E7D5
:1005F0000223E9E701239A4600239B4684E79942B8
:1006000012D90423AB6228000CF0A2F8EB68002B8F
:1006100006D0F4235B0001222800E1580BF040FED5
:1006200000239A469B466FE70523EBE760240020F2
:10063000F851011074240020045201108824002075
:1006400010520110A32070B5C0000AF035FC022141
:10065000E4234942C150AC33C150E4239B00C2188B
:10066000C4235B00C250C2182C3BC250BE220023E0
:10067000B024520083507C3AFF3A640002518C341B
:100680000151FB31464CFF3143500839445093240B
:100690000431405048314350043143504149A40093
:1006A000015104340351404D10340251083C0551AE
:1006B00002250434005148340351043403510C34EE
:1006C00001510434035110340551384D083C055193
:1006D00003250434005148340351043403510C34CD
:1006E00001510434035110340551314D083C05517A
:1006F00004250434005148340351043403510C34AC
:10070000015104340351103405512A4D083C055160
:100710000434005148340351043403510C34015162
:10072000FC2189004350244943500539FF394418BE
:100730001131FF3144504418204944500431425093
:100740001F4942541F494350962189004418902163
:10075000C900445044181C494450043142501B49BC
:1007600042541B494350FD39FF3944189921C900AF
:10077000445044181749445004000431425016496B
:10078000F1344254FF346C314450144943500C311D
:1007900044181349445004314250124A835470BDE6
:1007A000550300101C5201104D040010C503001029
:1007B0001D0400108D0400102C0400000C04000027
:1007C0001404000074040000540400005C040000E1
:1007D000BC0400009C040000A40400000405000008
:1007E000E4040000EC0400002823426AD25C083BC9
:1007F000C2547047202370B5C35C0400002B3BD16A
:100800002123C35C002B1CD00EF0F8F82000B4307C
:1008100003001C490B435B071CD18B1CC31A042B20
:1008200018D94A880B8812041A43CB888D881B0478
:100830002B43026043600B89283803860BF088FF46
:1008400070BD0EF0A3F82000B43003000E490B4336
:100850005B07E2D0B42320000A888C30E2524A8839
:100860000233E2528A880233E252CA880233E252E9
:100870000A890233E252E1E70DF0B6FF212301229B
:10088000E254DDE77C2D0020642D00208A2070B525
:1008900080000AF011FB03002C334362343383657C
:1008A00084230065D022C05000239C241E4983501D
:1008B000083A815004328050483283501B49043238
:1008C00083500C32815004328350283AFF3A184D3D
:1008D00064000251083C055104340051483403516E
:1008E000043403510C340151C82104004900435021
:1008F0003C314350C8340C31445044182C394450D6
:1009000004314250183942507C3143500100882351
:1009100031319B00FF31C150C1182C3BC150043311
:10092000C250183BC25070BDE90700101C520110A4
:10093000F50700108823F0B5076AC5583433C4584A
:100940003B7D466D83B0002B0CD1337D002B1AD13B
:100950002B7D002B28D1237D002B36D10DF06CFC94
:1009600003B0F0BD0023802200210020009310334B
:100970000DF0B4FB012300220021B86A0DF088F9C4
:10098000337D002BE4D0002380221021002000932F
:1009900010330DF0A3FB012310220021B06A0DF0EB
:1009A00077F92B7D002BD6D0002380222021002038
:1009B000009310330DF092FB012320220021A86A3E
:1009C0000DF066F9237D002BC8D000238022009310
:1009D0003021002010330DF081FB01233022002153
:1009E000A06A0DF055F9B9E7084B10B51A78002A3E
:1009F00000D010BD01321A700DF0D0F804480DF08F
:100A0000C7F800200DF0D6F8F3E7C046EC2E002022
:100A1000A4730110CA2070B580000AF04DFA0300DB
:100A2000283303623433436502008023C06490326C
:100A3000C0500833C2502C33C05034320833C25037
:100A40002C33C050F8220023B02430498350083A98
:100A5000815004328050483283502D4904328350F3
:100A60000C32815004328350503AFF3A294D6400D1
:100A70000251083C055104340051483403510434F8
:100A800003510C340151DC21040049004350F0347F
:100A9000483144500C3943500C3144182C394450DF
:100AA000043142500431435460314350A83C0C316E
:100AB000445045182C3945500431822542500421B8
:100AC000AD0041517C3543510C35445146192C3D04
:100AD000465104354251183D41517C3543510C3546
:100AE000445146192C3D465104354251183D41515F
:100AF0007C354351C8239B00C450C4182C3BC450C0
:100B00000433C250183BC15070BDC046E909001003
:100B10001C52011035090010D423C3589B6A03638B
:100B20007047C046F8B50700030001220600050023
:100B3000D033A8371A70040038000BF009FEFB68A8
:100B40003136F935FF36FF35002B05D0D023012291
:100B50003800E1580BF0A4FB230001225933FF3386
:100B60001A7030000BF0F4FDF368002B06D0AC23B4
:100B70005B0001223000E1580BF092FB8823012238
:100B80009B00E3181A7028000BF0E2FDEB68002BC5
:100B900006D088239B0001222800E1580BF080FB3F
:100BA000F8BDC046C1239B0070B5C518A93BFF3BEB
:100BB000C35804009B6A2800AB620BF0C9FDEB68C8
:100BC000002B06D0CB239B0001222800E1580BF01C
:100BD00067FB70BDCC239B0070B5C5188D3BFF3BF8
:100BE000C35804009B6A2800AB620BF0B1FDEB68B0
:100BF000002B06D0D6239B0001222800E1580BF0E1
:100C00004FFB70BDF8B59B239B00C358CE46994659
:100C1000AD239B00C35847469846EE239B0080B502
:100C2000C7182C33C6182C33C518ED3BFF3BC358EF
:100C300004009B6A3800BB620BF08AFDFB68002B46
:100C400006D0F8239B0001223800E1580BF028FB66
:100C50004B469B6A3000B3620BF07AFDF368002BC1
:100C600005D00D4B01223000E1580BF019FB434633
:100C70009B6A2800AB620BF06BFDEB68002B06D083
:100C80008723DB0001222800E1580BF009FBC0BCE0
:100C9000B946B046F8BDC0460C040000D7239B00FF
:100CA00070B5C5182C33C618B6231B01C318836151
:100CB00001230377036A0400AB6228000BF048FDB0
:100CC000EB68002B06D0E1239B0001222800E158AD
:100CD0000BF0E6FA616A206A06F0B3FDB0623000FC
:100CE0000BF036FDF368002B06D0EC239B000122AD
:100CF0003000E1580BF0D4FA70BDC046D7239B00FA
:100D000070B5C6182C33C518036A0400B3623000EE
:100D10000BF01EFDF368002B06D0E1239B0001229F
:100D20003000E1580BF0BCFA616A206A06F089FDD8
:100D3000A86228000BF00CFDEB68002B06D0EC231A
:100D40009B0001222800E1580BF0AAFA70BDC046B2
:100D5000D722F8B54746CE46920080B587182C3288
:100D600086183422234B825C0400C358002A3DD1EC
:100D7000214A91469D6A2149281C06F062FD494698
:100D800006F05FFD80231B061C498046E81806F02C
:100D900058FD494606F055FD216A06F03BFDB86254
:100DA00038000BF0D5FCFB68002B06D0E1239B003C
:100DB00001223800E1580BF073FA216A404606F030
:100DC00029FD616A06F03DFDB06230000BF0C0FC09
:100DD000F368002B06D0EC239B0001223000E15881
:100DE0000BF05EFAC0BCB946B046F8BDFE229205D3
:100DF0009146BFE73C040000000080BF0AD7A33B38
:100E000070B53425435D0400002B0FD09123DB0027
:100E1000C358986A06F086FDC317C018584006F0FC
:100E20005FFDE16B06F03CFD002800D170BDD722CC
:100E30009200A618D4230022E3586255802212069D
:100E400094469B6A30002363236A6344B3620BF0C9
:100E50007FFCF368002B06D0E1239B0001223000C9
:100E6000E1580BF01DFAE223616A9B00206AE51845
:100E700006F0E7FCA86228000BF06AFCEB68002B88
:100E800006D0EC239B0001222800E1580BF008FA61
:100E90000223A362B9231B01E318A3610123237773
:100EA000C4E7C04670B5456F0400AB6A052B00D19E
:100EB00070BD8022D723120694469B00C618036A91
:100EC00030006344B3620BF043FCF368002B06D0A0
:100ED000E1239B0001223000E1580BF0E1F9802270
:100EE000E223120694469B00E618236A616A634473
:100EF000180006F0A6FCB06230000BF029FCF36885
:100F0000002B06D0EC239B0001223000E1580BF0AF
:100F1000C7F9AB6AA362034BE318A36101232377EC
:100F2000C6E7C046780B0000436F70B59B6A0400AB
:100F3000052B00D070BDD7239B00C6182C33C518D5
:100F4000836A022B2BD9802212069446036A300052
:100F50006344B3620BF0FCFBF368002B06D0E12383
:100F60009B0001223000E1580BF09AF9616A206A77
:100F700006F067FCA86228000BF0EAFBEB68002B88
:100F800006D0EC239B0001222800E1580BF088F9E1
:100F9000B9231B01E318A36101232377CAE7036A7E
:100FA0003000B3620BF0D4FBF368002B06D0E123D2
:100FB0009B0001223000E1580BF072F980221206EA
:100FC0009446236A616A63441800D1E7836AC26A5F
:100FD0009B0070B50400985806F0A4FC06F080FC55
:100FE000D423E358216B051C986A06F010FC06F028
:100FF00099FCC317C018584006F072FC011C281C4D
:1010000006F054FC002800D170BDD7239B00E518E2
:10101000B6231B01E318A36101232377236A280069
:10102000AB620BF095FBEB68002B06D0E1239B0035
:1010300001222800E1580BF033F9E223616A9B009A
:10104000206AE51806F0FDFBA86228000BF080FB83
:10105000EB68002BD8D0EC239B0001222800E1583C
:101060000BF01EF9D0E7C0469123D0B5DB00C35882
:10107000040082B0986A06F095FC084B0600E3581D
:101080000F00986A06F08EFC3200009001913B0040
:10109000034807F001F802B0D0BDC0463C04000090
:1010A00020520110F0B5D6464F464646FE48C0B520
:1010B00009F002FF0300483303643433436702221C
:1010C000A023C0665242C0508833C250F723DB00D1
:1010D000C1188C235B00C150F44B0326C7188E2324
:1010E0005B00C7509C231B01C11890235B00C150BB
:1010F00001001931FF31343BC150862100234900E2
:1011000043501C3946500131FF314250A921C900DA
:101110004418D0214900445044182C394450BC2470
:10112000203143509439FF3964000151B624E40062
:101130000519F4246400055105192C3C05519A2524
:10114000AD00AC46203403511C3C01514134FF3406
:101150000251C324844489466146E4000419445181
:101160002C3D41514946203543511C3D415170357C
:10117000AC468444614644512C3D4151494620359A
:1011800043511C3D415170354451B3244519A400CD
:101190000551203403511C3C01518221E434025199
:1011A0002534FF340251D022090145189021D20084
:1011B0008218583C0251BE4CC9000551BD4C45181F
:1011C000055102254946BC4C03511C3C055178345D
:1011D0000251BA4A04198750B94ABA4F8450BA4AE0
:1011E000BA4C83501C3A855040328350083A8450A0
:1011F000B74AB84C8050B84A835004328350B74A3B
:1012000002510434035110340151083C0751B44CCD
:10121000B44F0051B44C0331035104340351B34C67
:101220008A4602510434035110340551083C0751D9
:10123000AF4C0051AF4C035104340351AE4C02513A
:101240000434035110340651AC4E083C0651AC4CEA
:10125000AC4E0051AC4C035104340351AB4C025121
:101260000434035110340151083C06510526A84CA2
:10127000A8490051A84C035104340351A74C025112
:101280000434035110340651A54E083C065146184B
:101290000621A44C0051A44C035104340351A34C27
:1012A00002510434065110340151A149083C015146
:1012B000B621A04C090100519F4C03510434035145
:1012C0009E4C02514418F621C900445010318C46FE
:1012D0000721884661464746475008398C46984959
:1012E0008846614647464750964940509649435084
:1012F00096494350964942509649445096498C46E7
:101300000821884661464746475008398C4693492C
:10131000884661464746475091494050914943505D
:1013200004314350904942500431445010318C46AE
:10133000092188466146474647505C498C468B499F
:10134000884661464746475089494050894943503D
:1013500089494350894942508949445089498C46BA
:101360000A21884661464746475008398C468649D7
:101370008846614647464750844940508449435017
:1013800004314350834942500431445096240B2188
:10139000240101518049814C01518149814C8C4685
:1013A000844461460051804C0351804C0351804C71
:1013B0000251804C01510C217F4C01517F49083C66
:1013C00001517F4C494600517E4C03510434035176
:1013D0007D4C0251B92212018418713AFF3A8450AF
:1013E0007A4A83509C22D2008418794A8450841807
:1013F000784A845004328150774A8154EA22D200DC
:101400008418AB2212018450744A83500C32841821
:10141000734A8450734A8150734A8354734A835089
:10142000DD22D2008418724A84508418714A845094
:1014300004328150704A8150704A714C83508F221F
:1014400012018118B42212018150544A6D4F811843
:101450006D4A8150043A81186C4A815051466C4A59
:101460008550183A815002002A490C32425069498D
:10147000002544500024043141180C604D60664939
:10148000435408314250654947506549654F4118FA
:101490000C604D60B72109014354414942506249F3
:1014A00047500431C2E0C046A80B00008808000085
:1014B000840400005404000074040000D4040000FC
:1014C000A4040000A50B0010C4040000250B0010AC
:1014D000E40400003C0500002C0500001C52011033
:1014E0004C050000D50B001094050000A405000079
:1014F000B4050000FC0500000C060000050C0010FF
:101500001C0600006910001064060000740600004C
:1015100084060000480B0000CC060000DC0600003A
:101520009D0C0010EC06000034070000440700008A
:10153000FD0C0010540700009C070000AC070000E1
:10154000190B0010BC070000040800000808000088
:10155000140800001808000028080000510D0010B1
:10156000240800006C0800007C080000010E001038
:101570008C080000D4080000D8080000E40800002F
:10158000E8080000F8080000A50E0010F4080000AC
:101590003C0900004C090000290F00105809000008
:1015A000780B00005C090000A4090000A8090000F5
:1015B000B4090000B8090000C8090000CD0F0010F0
:1015C000C40900000C0A00001C0A00005C0A0000AC
:1015D000680A00003C0A0000440A0000A40A000057
:1015E000840A0000880A00008C0A0000EC0A00004F
:1015F000F80A0000CC0A0000B80A0000340B000012
:10160000C051011038520110440B0000140B0000AF
:10161000180B00004C0B0000580B0000640B00007E
:10162000680B0000405201107C0B000041180C6058
:101630004D600C494354083142500B4A0B498150CC
:101640000B4A821814605560BA2212018354066155
:101650004661C36083610377E0BCBA46B146A846E1
:10166000F0BDC046880B0000940B000048520110EA
:10167000980B0000036C9B6A83637047436F9B6AFF
:10168000C3637047F0B54E46DE4657464546A8232D
:10169000E0B5C6583433C358070083B08068994614
:1016A00009F038FABA6AFB6A04000D00002B11DD5C
:1016B00020002900801A9941002915DC002900D159
:1016C0007AE0BC62FD6203B0F0BCBB46B246A946FC
:1016D000A046F0BD002BF4D1002AF2D02000290052
:1016E000801A99410029E9DD88235B009A46B36A94
:1016F000BA449B4606F04CF9324906F0A2F806F0CF
:1017000051F95B463A6B00900191981A05F0A6FFDB
:101710002D4A2E4B05F02DFF00222D4B05F00FFF1B
:10172000009A019B05F00BFF05F0E4FF4B46796B37
:101730009B6A061C581A994605F090FF224A234BD3
:1017400005F017FF0022224B05F0F9FE009A019BDD
:1017500005F0F5FE05F0CEFF5B463B634B46311CC2
:101760007B638046B86B06F052F853469862504649
:101770000AF0EEFF5346DB68002B06D09C235B008B
:1017800001225046F9580AF08BFD3E00F86B4146A5
:1017900006F03DF84136FF36B06230000AF0D8FF5F
:1017A000F368002B00D18CE7B4235B0001223000EA
:1017B000F9580AF075FD84E7064B984200D880E797
:1017C00092E7C0465F708930C3718BB665BCB93F84
:1017D000008076403F420F00F22070B5800009F093
:1017E0006BFB030048330364343343670200A023D8
:1017F000C066B032C0500833C2502C33C0503432AF
:101800000833C2509E222C33C0500B3BFF3B52008A
:101810008350303283500023F02436490C328350F9
:10182000083A8150043280504832835032490432A1
:1018300083500C32815004328350D03AFF3A2F4DFE
:1018400064000251083C055102250434005148341B
:101850000351043403510C34015104340351103446
:101860000551274D083C05510434005148340351BB
:10187000043403510C340151A82104008900435061
:1018800071343C314350FF340C31445044182C39EE
:1018900044500431AA24425005000421A4000151FF
:1018A000D9357C340351FF350C34055105192C3CD6
:1018B0000551DE2504340251183C01517C3403519A
:1018C0002D3CFF3C0419AD00445146192C3D4651B6
:1018D00004354251183D41517C354351F0239B0062
:1018E000C450C4182C3BC4500433C250183BC150E0
:1018F00070BDC046751600101C5201107D160010F8
:1019000085160010036A70B59C6A0021201C05F042
:10191000D5FFFE21431E9841640064080500890537
:10192000201C05F0D3FF002805D00748290001221C
:101930000DF05EF970BD0549201C05F082FF06F030
:101940001FF880B2F2E7C046FF0F000000F07F45AD
:10195000436D70B59C6A0021201C05F0AFFFFE218D
:10196000431E98416400640805008905201C05F0A9
:10197000ADFF002805D00748290000220DF038F9F6
:1019800070BD0549201C05F05CFF05F0F9FF80B231
:10199000F2E7C046FF0F000000F07F4510B50120C0
:1019A0000DF0F8F810BDC046A62070B5800009F013
:1019B00083FA030028330362343343658023C06411
:1019C0009022C0500023F8242D498350083A8150BA
:1019D00004328050483283502A49043283500C32FA
:1019E000815004328350284DE73A0251083C05519A
:1019F00002250434005148340351043403510C349B
:101A000001510434035110340551204D083C055157
:101A10000434005148340351043403510C3401514F
:101A2000DC210400490043508834483144500C39CB
:101A300043500C3144182C39445004314250043185
:101A40004354113C60314350FF3C0C314450441826
:101A50002C3944500431822442500421A400015105
:101A60007C3403510400A42359349B00FF34C45038
:101A7000C4182C3BC4500433C250183BC15070BD35
:101A80009D1900101C520110051900105119001069
:101A9000F0B5C646C36A04009E6A816A00B50700B5
:101AA000301C05F0B7FE8823216A051CA062301C9B
:101AB000984605F0C6FE616A061C281C05F0C1FEAA
:101AC000011C301C05F0A6FE43466037E05038008C
:101AD0000AF03EFEE36E002B05D04346012238009B
:101AE000E1580AF0DDFB80BCB846F0BDA02010B57F
:101AF000400009F0E1F903003433C3629822002367
:101B0000104980658350083A815004328050483231
:101B100083500D49043283500C328150043283507B
:101B20003C32835002003933FF339032C250C21826
:101B30002C3BC25001220433C250183B0332C25026
:101B400010BDC046911A00101C520110F0B5C646D7
:101B50000500060080211F4A040000B5D0688435C6
:101B60000006000F54360130490053680B42FCD187
:101B70000138176A0028F8D18021D068154A00047E
:101B8000000F7F420130890053680B42FCD10138BD
:101B9000536A0028F8D15B423000E76798460AF0A4
:101BA000D7FD236E002B04D001223000E16F0AF034
:101BB00077FB43462800AB620AF0CAFDEB68002BB6
:101BC00005D0AC2301222800E1580AF069FB80BC53
:101BD000B846F0BD00002050F0B5D6464F46464608
:101BE0000025C0B53D4C8AB020003D4908F0EAFB15
:101BF0000223200008220021009508F0EBFC0022BF
:101C00000121082002F038F900220121092002F008
:101C100033F98026F827C02376021B037F0202A92E
:101C2000102206A89A46049302960397059505F09C
:101C30007BFF2C4B06A9102202A89946079305F0BA
:101C400073FF8023DB020593274B2000039380233F
:101C50001B0398460493002202AB002108F012FDFA
:101C600001222368200013432360012102230095F1
:101C70000B3208F0AFFC002201210C2002F0FCF82E
:101C8000002201210D2002F0F7F8534602A910228C
:101C900006A8049302960397059505F045FF4B4669
:101CA00006A9102202A8079305F03EFFC023DB021D
:101CB00005930E4B00220393434601210493200019
:101CC00002AB08F0DFFC02222368134323600AB052
:101CD000E0BCBA46B146A846F0BDC0460000205060
:101CE0005452011080770100807701088077010C41
:101CF000862070B5800009F0DFF803002833036206
:101D0000C022002394242049C0648350083A8150A3
:101D100004328050483283501C49043283500C32C4
:101D2000815004328350183AFF3A194D6400025131
:101D3000083C055104340051483403510434035124
:101D40000C340151C021040049004350B8344831DB
:101D500044500C3911344350FF342039445004317D
:101D600042500431435460314350010084232131F7
:101D70009B00FF31C150C1182C3BC1500433C250ED
:101D8000183BC25070BDC046D91B00101C52011038
:101D90004D1B0010942010B5400009F08DF8030091
:101DA000283303628E2300225B00C064C250343BA0
:101DB0000132C25010BDC046F0B507000400060055
:101DC000050087B003A919480CF076FB039B543734
:101DD000E36738000AF0BCFC236E8436B435002B70
:101DE00004D001223800E16F0AF05AFA049B300057
:101DF000B36201930AF0ACFCF368002B05D0AC236E
:101E000001223000E1580AF04BFA059B2800AB6232
:101E10000AF09EFCEB68002B05D0DC230122280091
:101E2000E1580AF03DFA07B0F0BDC046502D002041
:101E3000054B10B51A78002A00D010BD01320348B6
:101E40001A700CF0A5FAF8E7ED2E0020502D0020B6
:101E5000922070B5800009F02FF803002833036248
:101E6000F0220023AC242049C0648350083A8150FA
:101E700004328050483283501C49043283500C3263
:101E8000815004328350483AFF3A194D64000251A0
:101E9000083C0551043400514834035104340351C3
:101EA0000C340151D821040049004350E834483132
:101EB00044500C3911344350FF342039445004311C
:101EC000425004314354603143500100902351315A
:101ED0009B00FF31C150C1182C3BC1500433C2508C
:101EE000183BC25070BDC046311E00101C5201107C
:101EF000B91D0010036BF0B54F4699466423D646D2
:101F00009A4680B5050083B08244806808F002FEDE
:101F1000AB6AEC6A06000F0000930194002C36DDDA
:101F20004B46696A986A05F075FC009A019B041C8F
:101F300039003000801A994105F0D4FB174A184B3C
:101F400005F017FB05F0D6FB011C201C05F079FC01
:101F5000FC21890505F075FC296A05F05BFC286207
:101F60008C24285150460AF0F3FB2B6F002B04D031
:101F70000122504629590AF093F94B469B6AAE62FA
:101F8000EF626B6203B0C0BCBA46B146F0BD002C34
:101F900001D1002BC4D1286AE2E7C04695D626E8D5
:101FA0000B2E113EA42010B5400008F085FF030061
:101FB00038330363A02200231049C0658350083AD8
:101FC000815004328050483283500D49043283508E
:101FD0000C328150043283503C3283500200413332
:101FE000FF339832C250C2182C3BC2500122043336
:101FF000C250183B0332C25010BDC046F51E00103F
:102000001C520110F0B5070004000600050087B05F
:1020100003A919480CF006FA039B5437E36738000C
:102020000AF096FB236E8436B435002B04D00122CF
:102030003800E16F0AF034F9049B3000B362019379
:102040000AF086FBF368002B05D0AC230122300098
:10205000E1580AF025F9059B2800AB620AF078FBED
:10206000EB68002B05D0DC2301222800E1580AF0A0
:1020700017F907B0F0BDC046582D0020054B10B52C
:102080001A78002A00D010BD013203481A700CF0F3
:102090007FF9F8E7EE2E0020582D0020922070B531
:1020A000800008F009FF030028330362F0220023B8
:1020B000AC242049C0648350083A815004328050D7
:1020C000483283501C49043283500C328150043210
:1020D0008350483AFF3A194D64000251083C0551BB
:1020E0000434005148340351043403510C34015179
:1020F000D821040049004350E834483144500C3999
:1021000011344350FF3420394450043142500431DB
:102110004354603143500100902351319B00FF3103
:10212000C150C1182C3BC1500433C250183BC2509F
:1021300070BDC0467D2000101C520110052000100B
:10214000036AF0B59F6A436D04000500986A88230E
:10215000C646E35800B59B6A011C984605F071FB22
:102160004146061C404605F06CFB011C301C05F086
:1021700051FB05F01DFC011C381C05F01FFC0E492D
:1021800005F05FFB05F00EFC0C4B0D4A05F0D7F98E
:1021900005F0B0FABC35A86228000AF0D9FAEB685D
:1021A000002B05D0E42301222800E1580AF078F83A
:1021B00080BCB846F0BDC04600003443FB21094056
:1021C000182D4454436DF0B59F6A036A040005005E
:1021D000986A8823C646E35800B59B6A011C984656
:1021E00005F02FFB4146061C404605F02AFB011C6A
:1021F000301C05F00FFB05F0DBFB011C381C05F063
:10220000DDFB0E4905F01DFB05F0CCFB0C4B0D4A28
:1022100005F095F905F06EFAEC35A86228000AF091
:1022200097FAEB68002B06D08A235B000122280076
:10223000E1580AF035F880BCB846F0BD00003443E0
:10224000FB210940182D4454B220F8B5800008F055
:1022500033FE0300283303623433436502008023D6
:10226000C0649032C0500833C2502C339422C05006
:1022700000232B4952008350083A8150BE2101248B
:10228000043280504832835004328350254A49003A
:1022900042500431435010314450234C08394450CB
:1022A0000431405048314350043143500C314250C6
:1022B000F422050004005200835021353C32835043
:1022C000FF350C3289348550FF3404328450043A8F
:1022D00081182C3A815002210432F82681500422C0
:1022E000760082517C3683510C36855104368451F8
:1022F000043E87192C3E875104368151183E825185
:102300007C368351B0239B00C5500433C450043B3A
:10231000C4182C3BC4500433C150183BC250F8BD04
:10232000412100101C520110C521001010B50021E0
:1023300000200AF047FB10BD7047C0460A4B012140
:102340001A68002300B589B006930593049102939F
:10235000019323310733039100930021033B03488A
:102360000AF004F909B000BDA8210020D01C00200B
:10237000014B036001207047D01C0020F0B5DE4601
:1023800057464E464546E0B5B5B0FEF75BF9FE4B05
:102390000400994683600223FC4A270002624362DC
:1023A0004B4600215E6E0023F948F137FF37A062EB
:1023B000E162376023638323DB00E61800220023F9
:1023C000326073608423DB00E6184B463060716036
:1023D000DE6DFE239B00E11800233160ED490022F1
:1023E00063508C23DB00E11800230A604B608D23CF
:1023F0000021E948DB00E718283B38607960E118E4
:102400007160E649022362509522D200A118DF4A8A
:1024100080270A604B609622D200A3180021002278
:1024200019605A609122D200A3180022B360DC4BDD
:102430000026E2508C2292003F06A31868321E60EC
:102440005F60A31868321E605F60A31868321E6068
:102450005F60A31868321E605F60A3181E605F6033
:10246000FEF714FA494602258046816002000123E6
:10247000C0206D4215509562D56513840932FF3234
:10248000166057609666D7666832FEF7C3FA4A460A
:1024900082608C224562856501008550C0200D5008
:1024A00048460A00436EF0325A600B003133FF3366
:1024B0001E605F609E66DF660A91FEF7F3FD050011
:1024C00048460222A860436EEA205242C0006A6475
:1024D000AA672A189A60B34B01222B62B24B0021E3
:1024E0006B62B24BB248EB623423EA54FF23002202
:1024F0009B05AB63EB632B1819605A600021083011
:102500002B18AC48186059604846C36DAA482A1871
:102510000020DA60A94BE850A420C0002B186830D6
:102520001E605F602B1868301E605F602B1868307B
:102530001E605F602B1868301E605F602B1868306B
:102540001E605F602B1868301E605F602B1868305B
:102550001E605F602B1868301E605F602B18984803
:102560001E605F602B1868301E605F602B189548F6
:102570001E605F602B1868301E605F602B18484635
:102580001E605F60C36F28005B680C301860FFF747
:1025900023F9FC239B050362FA2302229B05436275
:1025A0004946AC23524283468160426482670100FF
:1025B000C250E02000230A5000228A62CB620A63E4
:1025C0004B6300218A46594650468863C863B1313F
:1025D000FF310E604F608621890059440E604F60C4
:1025E000A021890059440E604F60FFF7DDF90223F6
:1025F000010048465B4288604B628B65436E080071
:102600008830D860403006604760683006604760B8
:102610008666C7660B916830FFF768FA49468160A5
:102620005946096A022301625946496A5B4241627E
:102630008C2143505146036381620890D03006607C
:102640004760FFF753FA4A4682605A46126A0223ED
:1026500002625A46526A5B4242628C2201008350F7
:102660005246D031036382620E604F600390FFF7E1
:102670003FFB0223494680225B4281608350303217
:10268000835043624B6E01000990B831613019618B
:10269000FF300E644F64066047604031FFF77AFBFD
:1026A00049460223020081608020B0215B42135022
:1026B00060305350135053621292FFF7C9FB4946E2
:1026C000022381608022B0215B42835043504946FF
:1026D0006032835043624B6E01000090E8319130CC
:1026E0005961FF300E644F64066047604031FFF768
:1026F00059FC49460223816090215B4243500022ED
:10270000436300238262C36202005146D8320162F1
:102710004162166057600590FFF744FC494602236A
:10272000816090215B424350002243630023826218
:10273000C36202005146D83201624162166057609E
:102740000690FFF72FFC02230200902148465B42CF
:102750009060535051461000116251625363002340
:1027600000228262C3620200D83216605760049071
:10277000FFF794FC4A468260022280235242C250F4
:102780003033C25030331FE0D01C002000E40B5423
:1027900000E1F5053404000000CA9A3B7C04000007
:1027A000C40400009A99193E3333733F701000201F
:1027B000480A000080969800280A0000640A000079
:1027C000C808000098090000C25042624A46536E91
:1027D0000200E8329A6103002933FF331E605F6014
:1027E0009E66DF660790FFF72FFD4B46022283604F
:1027F000E8235242C2503033824601001800994605
:102800000A5013004A628A658C228B5052468623F6
:102810006132FF32166057609B009666D7661638A5
:102820000336E65004216832FF38220008F026FB08
:1028300089239B00E05022000421032008F01EFBA6
:1028400088239B00E050220004214536032008F035
:1028500015FBB4467427A444872366469B00BC46F8
:10286000E0500F960660A026A4446746B446A444F0
:102870006646476010970127643386602200E75060
:1028800004210120119608F0F9FAA3239B00E050DF
:1028900022000421012008F0F1FAA223CC269B009B
:1028A000E05022000421012008F0E8FAB446A123F8
:1028B000A44466469B00E0501396066002266433EB
:1028C000E65022000421022008F0D8FABD239B0024
:1028D000E05022000421022008F0D0FABC239B0023
:1028E000E05022000421022008F0C8FAFC22BB2399
:1028F00094469B00E050453BA444FF3B62469C4607
:10290000A444634643601593D4239B000260149251
:10291000E75022000421012008F0B0FAD7239B00E1
:10292000E05022000421012008F0A8FAD62328371D
:102930009B00E05022000421FF37012008F09EFA9E
:10294000BC46D523A444674604229B00E050643370
:1029500007600421E25004202200169708F08EFA46
:10296000F1239B00E05022000421042008F086FAA5
:10297000F0239B00E05022000421042008F07EFA9E
:10298000EF230F9F9B00E0500760109F4246476077
:10299000119FF0238760EA277F00BC46A444674666
:1029A000C760179700274146D75001226833CA50A5
:1029B00001204246042108F061FAB22342465B003E
:1029C000D0500421012008F059FAB02342465B00A0
:1029D000D0500421012008F051FAAE2342465B009A
:1029E000D050BC3B434403601893C02349460A9A25
:1029F0005B005750D750A1230322DB001539EA5062
:102A0000FF392A00032008F039FAFE4B2A00E8506B
:102A10000421032008F032FAA223DB00E8502A0048
:102A20000421032008F02AFAF74BA222E850BC2325
:102A30009C465200AC446346832194468900AC44D2
:102A400062468C460360AC441993AE2361464260F3
:102A50001A920122DB0081601B91EA5004212A00B6
:102A6000012008F00BFAE94B2A00E850042101206C
:102A700008F004FAAF23DB00E8502A00042101200B
:102A800008F0FCF9E24B0122E850C6239B009C466B
:102A9000AC44634603601C93BB23DB00EA50042173
:102AA0002A00012008F0EAF9DA4B2A00E850042154
:102AB000012008F0E3F9BC23DB00E8502A000421E0
:102AC000012008F0DBF9D12189008C46AC44614635
:102AD0000322D14B1D91E85064330160EA50042178
:102AE0002A00032008F0CAF9CC4B2A00E850042140
:102AF000032008F0C3F9C923DB00E8502A000421B1
:102B0000032008F0BBF9F32292009446AC446246DD
:102B1000C34B1E92E8500260FE2292009446C14BC5
:102B2000AC4462469C46AC44634683602093D52304
:102B3000DB004260EF506833EE501F9204212A0000
:102B4000022008F09BF9B84B2A00E850042102202B
:102B500008F094F9E323DB00E8502A000421022066
:102B600008F08CF9DC2189008C46B04BAC442C3148
:102B7000E85063468C460360AC440C93EF236246F6
:102B8000DB0042600D92EE502A000421022008F082
:102B900075F9A74B2A00E8500421022008F06EF9CD
:102BA000F023DB00E8502A000421022008F066F937
:102BB000A04B0D9AE8500C9B42600360FC23DB00A5
:102BC000EF509D4B2A00EE500421022008F056F9E8
:102BD0009A4B2A00E8500421022008F04FF985237F
:102BE0001B01E8502A000421022008F047F9944B09
:102BF0000D9AE8500C9B426003608B231B01EE5042
:102C00002A000421022008F039F98E4B2A00E850EE
:102C10000421022008F032F98B4B2A00E8500421ED
:102C2000022008F02BF9894B0D9AE8500C9B42606A
:102C30000360874B2A00EE500421022008F01EF9A1
:102C4000844B2A00E8500421022008F017F992234F
:102C50001B01E8502A000421022008F00FF97E4BE6
:102C60000D9AE8500C9B4260036098231B01EE50C4
:102C70002A000421022008F001F9784B2A00E850CC
:102C80000421022008F0FAF8754B2A00E8500421CC
:102C9000022008F0F3F8734B0D9AE8500C9B426049
:102CA0000360714B2A00EE500421022008F0E6F880
:102CB0006E4B2A00E8500421022008F0DFF89F2321
:102CC0001B01E8502A000421022008F0D7F8684BC5
:102CD0005946E8500C9B0D9A0360CC235B00426080
:102CE000CF506833CF506833CE505A46042102206B
:102CF00008F0C4F89D2359469B00C8505A46042149
:102D0000022008F0BBF89C2359469B00C8505A4645
:102D10000421022008F0B2F89B235946AA229B0006
:102D2000C850B021493BFF3B5B44036021935200F4
:102D30000B9B5A4442605F5049465F5068315F5078
:102D4000089B229201229946C8395A5001201A0044
:102D5000B43908F093F84946C4234A46C8500421C0
:102D6000012008F08BF84946C0234A46C850089114
:102D70000120042108F082F8BC21089A894613003A
:102D800050500122743303602393039B04395A503B
:102D900001201A00B43908F071F8C421039B0137EF
:102DA00058501A00C039012008F068F8C023039970
:102DB000C8500A000120042108F060F84946039B2E
:102DC0005850743303602493E02000230999894606
:102DD0000B5068300E5047380A00FF38042108F0C5
:102DE0004DF849465336FF3688514A4604210220A1
:102DF00008F044F84946043E88514A46042102201E
:102E000038E0C046140500000C0500007C050000F9
:102E100074050000E4050000DC0500004C0600001D
:102E200044060000240400001C07000014070000F2
:102E3000840700007C0700004808000054080000D8
:102E40004C080000BC080000B8080000B4080000EE
:102E500018090000240900001C0900008C0900006A
:102E60008809000084090000E8090000F409000056
:102E7000EC09000008F002F8A6214E464900705007
:102E8000494609966836466026968826002398317A
:102E900001602591BC21009876008351B1460E3E19
:102EA0004900FF3E4650753906000200FF390320F5
:102EB00007F0E4FFC2214900705081393200FF3928
:102EC000032007F0DBFF3100C026760088510A009E
:102ED00000910320042107F0D1FF0099043E0B006C
:102EE0000A00885168339832C831036042608160BB
:102EF00029910120C0212793059B289258501A0040
:102F0000BC3907F0BBFFCC230599C8500A0001204B
:102F1000042107F0B3FFC8230599C8500A00012017
:102F2000042107F0ABFF059BC4211A0078325850EA
:102F30000260C023012006992A92C8500A00042189
:102F400007F09CFFCC21069B58501A00C83901207D
:102F500007F094FFC8230699C8500A0001200421F5
:102F600007F08CFFC4230699C8500B007833036028
:102F70002B930120C0230499C8500A00042107F0B4
:102F80007DFFCC21049A5050C839012007F076FF0C
:102F9000C821049A5050C439012007F06FFFC423A0
:102FA0000499C850783101602C9100234946079854
:102FB0008146435079330E39FF33FF39C150020047
:102FC0000131032007F05AFFC2214B4649005850F7
:102FD00081394A46FF39032007F050FFC0214B4694
:102FE000490058507D394A46FF39032007F046FF13
:102FF0004B4698514E4649460796C8366833866018
:1030000098312F96A426036041602E9101205146ED
:1030100076005246885104212D9307F02FFF514628
:103020000C36885152460421012007F027FF5146F3
:10303000043E885152460421012007F01FFF5146EB
:10304000D823043E88517C3E5B00564406605246BD
:10305000CF50309604210120DE2607F00FFF5146A5
:103060007600885152460421012007F007FF51469F
:10307000043E885152460421012007F0FFFEDA2366
:1030800051465B00C8500131FF310160802084222D
:103090006765A46527500430245028302750043039
:1030A0002450283027500430245052003030A7508C
:1030B00024503000E75084387C3BA4512750E45022
:1030C000A833E75068360433E450A359343822005B
:1030D00031911F600421FF3807F0D0FE89239B0047
:1030E000E35822001860A35904215F60012007F013
:1030F000C5FE89239B00E35822005860A359042190
:103100009F60012007F0BAFE0A9904368C46A35945
:103110001C3E1A68664498600E96166094265B689A
:10312000B60066441E60A223A6219B00E3588900D6
:1031300061440160220033911F6004210120329616
:10314000664607F09BFEA3239B00E358B446186035
:10315000B8239B0063440360BC20800023580A9678
:10316000BD26814622001F600421012007F086FE53
:10317000B600A359220018604846235804215F6016
:10318000012007F07BFEA3594646586099361B681C
:10319000FF361E60FE4E2200AB190360D6239B0053
:1031A000E35804211F60012007F068FED72346463C
:1031B0009B00E358E136FF3618600660F02080007F
:1031C0002358F126814622001F600421012007F0C8
:1031D00055FEB600A3592200186048462358042122
:1031E0005F60012007F04AFEA3592200586048465C
:1031F000235804219F60012007F040FEA3592200BC
:103200009860484623580421DF60012007F036FE0D
:10321000A3590E9E1A68D86016605A68329E9B6841
:103220001660339E42461E60B0263601AB1903601D
:103230004646AC20375004303650B03033586038F2
:103240001F600421B226FF3807F018FE41467600C1
:103250008B5926004936FF3618600660C820862341
:103260002F5004302D5084302F5004302D50A22088
:103270009B00EF500433ED500933FF33EF5004331C
:10328000ED502833EF500433ED508433EF500433C6
:10329000ED50C04BC000EF500433ED502833EF50D9
:1032A000BD4B8146ED50B83BEF500433ED50283311
:1032B000EF500433ED502B582A001F6004210120E9
:1032C00007F0DCFDB54E2A00AB59042118604846D2
:1032D0002B5801205F6007F0D1FDAB592A005860E0
:1032E00048462B5804219F60012007F0C7FDAB59C9
:1032F000009E8021B4461A6889006144986011607C
:10330000099A5B68D132FF321A60079AAF23802195
:103310009446DB00EB588900614401602A001F607D
:103320000421012007F0AAFD9D4BCE21EB58890016
:103330001860BC23DB00EB58594401602A001F6071
:103340000421012007F09AFDE021964B8900EB58FB
:10335000594418600160C920C0002B5881462A00DA
:103360001F600421012007F089FD8F4E2A00AB5910
:103370000421186048462B5801205F6007F07EFD4D
:10338000AB592A00586048462B5804219F60012001
:1033900007F074FD5146AB59F1311A68FF3198605E
:1033A00011608E215B68890051441960A021890059
:1033B00051440160E320C0002B5881462A001F6061
:1033C0000421012007F05AFD784E2A00AB59042150
:1033D000186048462B5801205F6007F04FFDAB593D
:1033E000BC21AA265860B6001B6889005E44594477
:1033F0001E600160F020C0002B582A000E961F604E
:103400000E000120042107F039FD69492A006B589C
:1034100089461860F020C0002B5804215F6001200D
:1034200007F02CFD49466B580E9958601B682A001E
:1034300019600660852000012B5804211F600120BF
:1034400007F01CFD5B492A006B58894618608520EF
:1034500000012B5804215F60012007F00FFD494651
:103460006B580E9958601B682A0019600660524814
:1034700004212B5801201F6007F000FD4F492A004E
:1034800089466B58042118604B482B5801205F6017
:1034900007F0F4FC49466B580E9958601B682A00E7
:1034A00019600660922000012B5804211F60012042
:1034B00007F0E4FC42492A006B58894618609220C4
:1034C00000012B5804215F60012007F0D7FC49461A
:1034D0006B580E9958601B682A00196006603948BD
:1034E00004212B5801201F6007F0C8FC36492A0030
:1034F00089466B580421186032482B5801205F60C0
:1035000007F0BCFC49466B580E9958601B682A00AE
:10351000196006609F2000012B5804211F600120C4
:1035200007F0ACFC29492A006B58894618609F2097
:1035300000012B5804215F60012007F09FFC4946E1
:103540006B580E9958601B685A461960982306609C
:1035500058465B00C7509A205946400009502C300D
:103560000F50043009500D30FF300B5881461F605A
:1035700006000421012007F081FC594604368B59CE
:1035800049461860584643585A465F6020E0C04696
:10359000B80A000004040000340400001405000010
:1035A0007C050000E40500004C0600001C0700003C
:1035B0008407000054080000B8080000BC080000A0
:1035C00024090000880900008C090000F4090000AB
:1035D0000421012007F052FC59468B59089E58607F
:1035E00031001B68F83119600399F831016030002F
:1035F000802681468751043680513C36835902002B
:103600001F600421012007F039FC4B46C4210B9EAA
:103610000893B4465B58453118608023FF316144FC
:103620000160039804218146C7500433C0503C33E5
:10363000C35802001F60012007F020FC4A46C42145
:10364000B44653580B968D31A426FF31614418605F
:103650000160099803928146476780678751043665
:103660008051A836835902001F600421012007F011
:1036700005FC494604368B594A461860A82040008C
:103680000B5850385F600421FF3807F0F7FB4946BC
:103690008B592E00586061361B68FF361E60483615
:1036A0000660D423A8260991D82112981A008067B1
:1036B0008051C7504050A420009B5F679B671F50FC
:1036C0000800A83081464F4618009B51A73E9E50E7
:1036D0005B50DB5902001E60D439012007F0CEFB9D
:1036E00000990437CB5918600800494643587D3982
:1036F00002005E60FF39012007F0C0FB0099CB5942
:1037000058600800494643587D3902009E60FF39E1
:10371000012007F0B3FB009B0599DB5901311A68C2
:10372000FF319860116006995B684A1CFF321A608D
:10373000049A13000133FF33036088230598C050B7
:1037400008001900C050043BD6504433D35852509F
:1037500001201E60843907F091FBCC230499CB58DB
:103760002900D83118600160A4210798D423466746
:1037700080674650043140504946C6500433C0501B
:1037800043587D3902001E60FF39012007F076FBA7
:103790000799CB5918600800494643587D39020003
:1037A0005E60FF39012007F069FB0799CB5958602B
:1037B00008004946814643587D3902009E60FF3922
:1037C000012007F05BFB4B460793DB59A4371A68CF
:1037D0009860E9195B6848371160EA1948371A6040
:1037E000EB1903605046DD3FFF3FC651E0238627BB
:1037F000C0507F003033C651C0504033C35852468A
:103800001E600421012007F039FBAA2357465B0004
:10381000FB589227FF001860EB19DC270360504625
:103820007F00C35952461E605646042104370120CA
:1038300007F024FBF3598827FF001860EB192700D5
:10384000E83703603B0047467B6227001537FF37A8
:103850003B004746BB65A0238C375B00E750270041
:103860000A9934370F622C374F652C373B00882775
:10387000CB512700BC23B837CF5027009537FF37EF
:103880002F642C376F67D727BF00EB195F463B6467
:10389000E227BF00EB195F467B67C127BF00EB192A
:1038A0005846A827C351CC27BF00EB19DC205F4640
:1038B0003B501137FF373B005846089F0B9EFB6279
:1038C000603737624130039FFF30F862280060376D
:1038D00077653130099FFF303862D22338005B00B2
:1038E0005430E8503030483BE8502800A8300300FE
:1038F000009889210600543603623300059E890032
:103900003363060084363300069EB430336303000D
:10391000D4260498289A03636430A851079E28008F
:103920003300F930FF30543330626B5030009B234A
:1039300084309B00E85030304833E850EE2080005F
:103940002B1850460362F92080002B18504643651F
:103950008220C0002B1888265046310083515646DD
:103960009123BC36DB00EE50FE4B3036EE50FE4B62
:10397000219E5B6B27981E60229E5A615E60299A89
:10398000239E9A619E602A9A249E1861DE60DA6105
:1039900019982B9A98621A981A62D8621B982C9AD6
:1039A00018631C985A6258631D980C9A98631E9865
:1039B0009A64D8631F980D9A18642098DA64586442
:1039C0002D9A26989A6518652E9A2598DA65586575
:1039D0002F9A309E1A660F9A5E66DA66109A319EAA
:1039E0001A67119A9E665A67139A159E9A67149AD7
:1039F0000127DA6780229E50169E04329E500A00EC
:103A00001799DA4E995018990432995082239B00E5
:103A10000122E11800230A604B60802189006118AF
:103A20007F420E604F609C21890061180A604B60E4
:103A30009A210127CE4E890061187F420E604F60A7
:103A4000B621890061180A604B60B4210127C94E74
:103A5000890061187F420E604F60D0218900611893
:103A60000A604B60CE210127C34E890061187F4256
:103A70000E604F60EA21890061180A604B60E821FE
:103A800089008C460121BD48644449422060616040
:103A90004146E0310A604B60444608390E604F6091
:103AA0000A674B6701210A9FB5484134FF344942F8
:103AB000206061603C000934FF34226063603C0098
:103AC00001210127A9480134FF344942AD4E20604D
:103AD0006160226763677F42A666E76668349F2459
:103AE000E4002C19226063609E2406000F00E400AD
:103AF0002C1926606760AC24E4002C1922606360F6
:103B0000AB2401279B4EE4002C197F42266067609E
:103B1000B924E4002C1922606360B8240127964E72
:103B2000E4002C197F4226606760C624E4002C194B
:103B300022606360C52401219148E4002C194942A8
:103B400020606160D321C90069180A604B60D221EE
:103B5000C9006C1801218C48494220606160E02155
:103B6000C90069180A604B60DF21C9006C18012187
:103B70008648494220606160ED21C90069180A60E9
:103B80004B60EC21C9006C1801218148494220603A
:103B90006160FA21C90069180A604B60F921C90007
:103BA0006C1801217B484942206061607A497B485A
:103BB00069180A604B60832109016C180121494290
:103BC000206061608A21090169180A604B607449AC
:103BD00074486C1801214942206061607249734841
:103BE00069180A604B60902109016C180121494253
:103BF000206061609721090169180A604B606C4977
:103C00006C486C1801214942206061606A496B4C24
:103C100069180A604B609D21090168185946012501
:103C200089316D42FF310460456008398A60CB609C
:103C30000C00012162484942206061605946F1311F
:103C4000FF310A604B6008390C0001215D48494290
:103C5000206061609621890059440A604B6094217C
:103C600001250B9F584C890059446D420C604D60F2
:103C700039000125A0313D4C0A604B606D42083986
:103C80000C604D600A674B67012150487C1CFF3473
:103C900049422060616039007131FF310A604B6038
:103CA0000121089C4A486937FF37494238607960EA
:103CB0002100A8310A604B6008390C000121039DE6
:103CC00044484942206061602C00099FA83422606A
:103CD0006360083C20606160390001250126D03115
:103CE000224C0A604B606D4208390C604D60009FA9
:103CF0001F4D0A674B6776428D66CE666831791C28
:103D00006137FF37380001250127194EFF31174C65
:103D10000A604B607F4208396D420C604D6000962E
:103D200001970A674B670660476005980125010007
:103D3000104C6D42B031A8300A604B6004604560A1
:103D4000069801270100A830B0310A604B6004607A
:103D500045600498054E0100A830B0310A604B6000
:103D60003AE0C0463C040000D01C00200000FFFFE9
:103D70000100FFFF0200FFFF0300FFFF0500FFFF40
:103D80000400FFFF0600FFFF0700FFFF0800FFFF22
:103D90000900FFFF0A00FFFF380800000B00FFFFCB
:103DA000980800000C00FFFF080900000D00FFFF4D
:103DB000680900000E00FFFFD80900000F00FFFF98
:103DC0001000FFFF1100FFFF1200FFFF1400FFFFB4
:103DD0001500FFFF1300FFFF04604560079D7F4251
:103DE000691CFF310A604B6008390E604F60012783
:103DF0000A674B67104E514661355046FF357F428A
:103E00002E606F60012501273931FF310B4C0C4EBC
:103E100099300A604B606D420839FF307F420C6078
:103E20004D600A674B670660476035B0F0BCBB4623
:103E3000B246A946A046F0BD0100FFFF0500FFFF06
:103E40000600FFFF7047C046094A8300944640229F
:103E5000634410B51C68C0006240C0241440802236
:103E6000520113431C60034B9C466044416010BDEB
:103E700004C00140004001400A4B80009C460423DE
:103E80006044002901D00C230821002A00D10B0036
:103E9000026853400C221A4080235B0118430260E1
:103EA0007047C04604C001400123D022834012065F
:103EB00093629361094A83009446402263441968DF
:103EC000C0004A40C02111408022520113431960B2
:103ED000034B9C46052360444360704704C0014087
:103EE00000400140024B18688007C00F7047C04671
:103EF00000C00640EFF3108072B6034A1368002B2F
:103F0000FCD0BFF35F8F70472C0100D0BFF35F8FF1
:103F10000022024B1A6080F3108870472C0100D0F9
:103F200070B5EFF3108C72B60D4D2B68002BFCD0E2
:103F3000BFF35F8F0724CB08C618C05C01230C4079
:103F4000A3401C000440034207D103433370BFF376
:103F50005F8F2C608CF3108870BD100001F00AFD9B
:103F60002C0100D0F8B54746CE46884680B5EFF321
:103F7000108C72B6214D2C68002CFCD0BFF35F8FE3
:103F80009A422CD8D4080727055D0619012417404A
:103F9000BC402C421FD007210127894609E0D408E4
:103FA000055D06194C4639001440A1400C00294219
:103FB00011D001329342F2D201204042BFF35F8F11
:103FC00000220E4B1A608CF3108800280FDBC0BC57
:103FD000B946B046F8BD2C4310003470EEE7BFF38D
:103FE0005F8F00232B608CF31088012040424346F2
:103FF000002BECD0089801F0BDFCC0462C0100D08D
:104000000021044B044ABFF35F8F02C39342FAD1ED
:104010007047C046000100D0800100D0044A1078EB
:10402000431CDBB2172B00D9102313707047C04616
:104030008410002000B5054B83B0010000931822C6
:104040001F230348FFF78EFF03B000BD8C52011001
:10405000A424002001238340002904D0034A1360D4
:10406000034A13607047034A1360FBE780E200E0F5
:1040700000E100E080E100E001238340014A136099
:104080007047C04600E200E0084B10309B6880009B
:10409000C358002B07D0064A00209B1A2F229A42B1
:1040A0004041C0B270470020FCE7C04600ED00E090
:1040B00088100020024B10309B688000C058704769
:1040C00000ED00E070B50D00EFF3108672B60F4AF8
:1040D0001368002BFCD0BFF35F8F0D4B10309B6833
:1040E00084001B590B4A934203D09D4201D001F03A
:1040F00059FC074B9B681D51BFF35F8FBFF35F8F68
:104100000022024B1A6086F3108870BD240100D093
:1041100000ED00E0CD010010F0B557464E46DE46FA
:104120004546E0B585B0060002911700EFF3108B0D
:1041300072B6674A1368002BFCD0BFF35F8F00256F
:10414000644B5D579A46002D00DAA4E06B00624C88
:1041500003935B199B009846A146C1444B465246C7
:104160009B79103613705D4BB2009B680192995891
:104170000B1B2F2B34D95A4B994200D0A4E0039B40
:10418000584A9C46584B6544AD006353434602333E
:104190006519E418554B0121043B1B1B1B055B0DE6
:1041A00013436B80524BEF71AB80FF23AB71029BCB
:1041B000AB604B460B431900484B019A9B689950E2
:1041C000BFF35F8FBFF35F8F0022414B1A608BF309
:1041D000108805B0F0BCBB46B246A946A046F0BD6B
:1041E00001200A008243D379BB422FD845464E4670
:1041F000130040491B1B5B415943090D3A4B635364
:104200003A4B02356519043B5B1B1B05354D5B0DB5
:104210002B4373800426B446E0444444131F1B1B05
:104220004C46A17102991B05A16049465B0D2B43C9
:10423000A380314BE77101431360BDE75800C018FC
:1042400080002018C679BE422BD902000623D3561F
:10425000002BF3DA101D8246284880460426764259
:10426000B446E14450464E46361A3005400D82466B
:1042700056461C48957106439680039A94466544B9
:104280001D4AAD00641922604246A371029BA280C0
:10429000E771A36090E701F085FB002553465D5769
:1042A00054E7101D8246908840050015844640461C
:1042B000D444664604302018301AE0260005400D2C
:1042C000360230438046C9E701F06CFB57E7C04631
:1042D000240100D0F52E00208810002000ED00E021
:1042E000CD01001000E0FFFF00A1FFFFB81000208B
:1042F00001BDFFFFAAAA00000148804701BD0000E0
:10430000F0B5DE4657464E464546E0B50C0083B054
:10431000EFF3108972B6584A1368002BFCD0BFF334
:104320005F8F564B9A68030010339F00D559544A4B
:104330009046954232D0A54243D0524EAA1B2F2A16
:104340002CD801228240924651464F4A12681140B1
:10435000019151464D4A1160BFF35F8FEFF3058223
:104360009346002A33D101232A009A4393689C4242
:1043700008D177E04B005B189B00F3189968A142C5
:104380002AD01A00062151560029F3DA019B002B8E
:1043900019D052463E4B1A603B4B1A60374B9B6814
:1043A000DD51BFF35F8FBFF35F8F0022324B1A6086
:1043B00089F3108803B0F0BCBB46B246A946A046BC
:1043C000F0BD1500EAE75246304B1A60E6E793422B
:1043D000C9D001F0E7FAC6E706215956002921DBCA
:1043E0004A005018800034188046A0689860E07930
:1043F000D871062020569871002824DBA488F01A72
:104400006405241544440019E0240005400D2402ED
:104410002043988052181F4B9200B6181A781970D2
:10442000B271B3E7594600290FD1FF3191711A4992
:10443000918018490A789A71184A9B1B5B415A432C
:10444000120D0A70A2E71648E3E7164A1649D21A77
:10445000083A5002400D01439980144952080A431A
:10446000DA8093E70621515613000029B8DA5A463C
:10447000002AEAD14546DCE7240100D000ED00E047
:10448000CD0100108810002000E100E080E100E094
:1044900080E200E0F52E002001BDFFFFAAAA000087
:1044A00001BD0000C210002000F0FFFF00F8FFFF78
:1044B00070B5EFF3058101240443EFF3108C72B65D
:1044C000214A1368002BFCD0BFF35F8F1F4B050000
:1044D0001F4AED1A6D416A43120D1E4D8900AE68E8
:1044E00052B27658A6421CD00621595691421CD091
:1044F00012215956914222D01E215956914220D064
:104500002A2159560324914210D0134B19781A705E
:104510008171BFF35F8F00220B4B1A608CF3108800
:1045200070BDAB680D4C5C50EFE7002461000919C9
:1045300089005B18FF21997109499980E5E70124F9
:10454000F4E70224F2E7C046240100D088100020DE
:10455000AAAA000000ED00E0F52E0020CD01001019
:1045600001BDFFFF054B064A1360064A1360536006
:104570009360D36013615361936170478080808042
:1045800000E400E004E400E000B5074B83B0010064
:104590000093002205230548FFF7E4FC002801DB17
:1045A0001F23181A03B000BDA8520110FC2E0020D2
:1045B00070B504000E001500FFF730FD010020006B
:1045C00000F006F8A680E580BFF35F8F70BDC0469F
:1045D000024B9C46614489000160704740000034F2
:1045E00010B50400FFF71AFD01002000FFF7F0FFEF
:1045F000FF232371BFF35F8F10BDC04610B50400C9
:10460000FFF70CFD01002000FFF7E2FFFF23A3806E
:10461000BFF35F8F10BDC04610B504000120FFF747
:1046200009FD044B9C46604480002060BFF35F8F0F
:1046300010BDC04640000034034B9C4661448900D5
:104640000160BFF35F8F70474000003483680B4800
:1046500010B5844661446244090112019A18591840
:1046600054684B6801209C4201D802D00020C0B29F
:1046700010BD12680B689A42F9D8F7E7FFFFFF0FE9
:104680000A4B1968EFF3108072B60A68002AFCD052
:10469000BFF35F8F1B68BFF35F8F00221A6080F348
:1046A000108840BF002000217047C046B82E00206F
:1046B000F8B557464E464546DE46E0B599460CAB42
:1046C0001C780DAB1B78060090469A460768002CB4
:1046D00011D1BC7B002C42D065003B682D19033DF5
:1046E00059194B78BB73002B00D1FB7300238B70DF
:1046F0004B700B7004E065003B682D19033D5919A0
:10470000B2682A4B94464246E3181B0163441A6080
:104710004A465A600A9A9A600B9ADA6000238B70B4
:104720004B700B707B7B9B46002B2BD02200594695
:10473000B8687B6898473A68002816D05B465846A8
:104740005B005B445519033BA870D118D35C002B68
:1047500000D06B705B460C707B73A34513D0F0BC2C
:10476000BB46B246A946A046F8BD5B465B005B442B
:10477000033BD3189C705119525D002A00D05A7027
:104780005B460B707C7342464B46307D00F0B8FBB5
:10479000051E06D05346002B03D12100306800F0DF
:1047A000D3FD0E9B002BDAD01D70D8E7FFFFFF0F63
:1047B000F0B5DE4657464E4645460023E0B58BB081
:1047C0000893674B8200D45800239B46099000F061
:1047D0000DFB626806000F00EFF3108572B61368D8
:1047E000002BFCD0BFF35F8F23689C465B7B994610
:1047F000002B00D169E0A2685A4B90464B441B0144
:10480000984443461A685B6810001900801BB94140
:10481000002900DC63E0099800F072FB002300220D
:10482000984600230692079300239A466368BFF3D5
:104830005F8F5A461A6085F310885346002B08D1C3
:104840000028C4D10BB0F0BCBB46B246A946A04676
:10485000F0BD089B414618024B461843D04762689A
:1048600006000F00EFF3108572B61368002BFCD022
:10487000BFF35F8F002F50DB33003B4302D023692F
:10488000002B61D12368D97B002907D04A00521838
:1048900019688C4649466244033A51709A7B002A53
:1048A00001D14A469A734A46DA734B46E168013BA6
:1048B000CA5C0132CA545B4623616368BFF35F8FF1
:1048C0005A461A6085F3108881E700230022984633
:1048D000002306920793002300209A46A6E70029AA
:1048E00002D1002800D096E70021604600F0AAFC23
:1048F00043461A685B680692079343469B689A464C
:104900004346DB689846E3684B44013B1B780893B9
:104910001B0203432361002088E72369002BB1D0E9
:10492000069A079B921BBB41002B15DB594604914D
:1049300001210391494602914146019151462000CF
:104940000091FFF7B5FEB6E700F050FA32003B00E9
:1049500012184B41002BE9DA0122034B5242E5E7E2
:10496000982D0020FFFFFF0FFFFFFF7F10B5144CB5
:104970006368002B04D00A211248FFF729FE10BDFE
:104980002300114A1021206800F076FB032000F07C
:1049900021FA032000F01EFB03200C4900F06AFA04
:1049A000FFF73CFB0A4B9C4603232375D0231B06D1
:1049B0001B6860446375074B80006060DC60DAE769
:1049C000D0100020B82E00204D460010B147001036
:1049D00040000034982D002000487047D01000207F
:1049E000F0B54E464546DE465746E0B585B00193E4
:1049F00010AB1B780600039300239946984600925B
:104A00007268EFF3108B72B61368002BFCD0BFF303
:104A10005F8F3568AC7B002C3DD067002B683F1959
:104A2000033FDB195A78AA73002A00D1EA73B168F0
:104A3000474A8C4600980199A218120162441060FE
:104A400051600E9991600F99D16042469A705A70E8
:104A50001A706B7B9A46002B67D022001900A86859
:104A60006B6898472A68002852D0534650465B002E
:104A70005344D719033BB870D118D35C002B00D036
:104A80007B7053460C706B7354454FD0F3681B1901
:104A9000013B187800E000207368BFF35F8F424647
:104AA0001A608BF31088002C4FD04B46002B08D196
:104AB0000002204305B0F0BCBB46B246A946A04662
:104AC000F0BD039B002B3ED00E9B00200F99984712
:104AD000030004000D000B4335D000290ADA009AC8
:104AE000019B121BAB4100920193002B0ADB039B3D
:104AF000994685E700F07AF924184D410094019514
:104B0000002DF4DA0123134C5B4200930194EEE78D
:104B100053465B005344033BD3189C70D119D25DBC
:104B2000002A00D05A7053460B706C73307D009A87
:104B3000019B00F0E5F981460028A7D021003068EC
:104B400000F002FCA2E70020B4E701204042B1E7F8
:104B5000FFFFFF0FFFFFFF7F407D7047F0B50400B0
:104B60000D0006267642F717C64636196F4100B586
:104B700084B08F4214D811D000F038F932003B00D5
:104B8000121A8B41002B15DC002B3ED0200029008F
:104B900000F060F904B080BCB846F0BD8642EBD9A5
:104BA0000026002700F022F932003B00121A8B4148
:104BB000002BE9DD002302930193154B3200009393
:104BC00014483B00FFF70CFF0028DFDB002398466A
:104BD000BC46114A114F7B6A9C4504D8B96A8E4283
:104BE000D4D99C45D2D11168EFF3108072B60B680E
:104BF000002BFCD0BFF35F8F1368BFF35F8F41467C
:104C0000196080F3108820BFE5E7002ABED0D1E705
:104C100081460010D0100020B82E00200040054032
:104C200070B504000D0000F0E1F800196941002999
:104C300002DBFFF793FF70BD012001494042F8E716
:104C4000FFFFFF7FF0B5EFF30583CE46474680B503
:104C500005000C0085B0002B12D02C4A0020536AAE
:104C60009C4203D8926A0130AA4204D305B0C0BC6A
:104C7000B946B046F0BDE01A421E9041C0B2F5E719
:104C8000234E02930193234B0200009330000B004C
:104C9000FFF7A6FE031EE0DD20BF7168EFF310876B
:104CA00072B60A68002AFCD0BFF35F8FDAB294466E
:104CB0003068427B62451DD0FF221A405100894670
:104CC000016891448846494641440339897800295E
:104CD00013D0F1681B0A88464244013A1278DBB2CD
:104CE0009A420FD07368BFF35F8F00221A6087F378
:104CF0001088B2E7FF221A40EBE732699342F1D104
:104D00003161EFE7614600F01FFBEBE70040054033
:104D1000D010002081460010F0B5EFF30582D64692
:104D20004F4646461000C0B51038EFF3108872B6F3
:104D3000214C2368002BFCD0BFF35F8F01231900A7
:104D400081401E4D1F006963AA461D4D29601D4DFF
:104D50002E78AC463500C5402F402B4209D1BFF319
:104D60005F8F276088F31088E0BCBA46B146A8463A
:104D7000F0BD5346144D5F6A83005D59AF420ED3B8
:104D8000124A8E439B5862461670BFF35F8F002213
:104D9000226088F31088002BE6D09847E4E70C4B9C
:104DA00092009C46624413681360BFF35F8F002338
:104DB000236088F31088D7E7280100D00040054021
:104DC0003C700540FB2E0020C42E00203C23002018
:104DD000D03F054010B50100024A0348FFF7A0F894
:104DE00010BDC046D0520110F12E0020034B596A6D
:104DF0000A00986A596A8A42FAD170470040054011
:104E000070B504000D00124A536A1900966A536A7D
:104E10008B42FAD13000190024184D41AB4211D811
:104E20000ED02B000A494A6A9A42FCD307D1084A9D
:104E300002E0516A994202D1916AA142F9D370BD50
:104E4000A642EED9012301246442E5175B42E9E75B
:104E500000400540064A536A9942FCD807D1044BEA
:104E600002E05A6A914202D19A6A8242F9D37047AB
:104E70000040054070B504000D00EFF3108672B6D7
:104E80001A4A1368002BFCD0BFF35F8F002D1BD094
:104E90002000FFF70FF9164981420AD02000FFF7E2
:104EA00011F901212000FFF7D5F80123A340114A91
:104EB0001360114BA400E550BFF35F8F00220B4B32
:104EC0001A6086F3108870BD0B4BA200D5500122EA
:104ED000A2400A4920000B7893430B700449FFF766
:104EE0000FFA00212000FFF7B5F8E5E7280100D010
:104EF000194D0010386005403C230020FB2E002097
:104F0000F0B54F46D6464646C0B507002C4C616A00
:104F10000D00A66A616AA942FAD18B4208D805D071
:104F20000120E0BCBA46B146A846F0BDB242F7D96E
:104F3000EFF3108A72B6234801680029FCD0BFF352
:104F40005F8F0125BD4020491D4C88460978894660
:104F50002943C9B28C46414660460870391D1B483A
:104F6000890065630A51B9000B50216A002029426B
:104F700019D0616A0800A66A616A8142FAD18B423F
:104F800019D801D1B24216D8CC4516D00C4B1F20EF
:104F90001D625D6301230740BB400D4A1E3813604C
:104FA00043464A461A70BFF35F8F0022054B1A60D2
:104FB0008AF31088B5E70020F5E70120F3E7C04643
:104FC00000400540280100D0FB2E0020C42E002008
:104FD00080E200E0EFF3108C72B60A490B68002BF8
:104FE000FCD0BFF35F8F01238340074A0748136259
:104FF00002789A430270BFF35F8F00230B608CF33B
:1050000010887047280100D000400540FB2E00208A
:1050100070B5050014001600002915D00C00002AF8
:1050200012D080686B689847296800280ED07300FA
:105030009B196200033B1219CB18033A9C70881825
:105040008A5C002A15D10670200070BD63001B1910
:105050007200033B9219CB18033A9E7088188A5C41
:10506000002A02D104703400EEE75A700470340054
:10507000EAE75A700670E7E730B583600023CCB2E8
:1050800043730133047342608373C4730D0000687B
:10509000012C06D9421C0133DBB2137003329C424F
:1050A000F9D1FF2129404B0059180023401803383B
:1050B000437030BDF8B5CE46474606000C0080B5BB
:1050C000002907D04D0003686D18033D5A19577821
:1050D000002F04D12000C0BCB946B046F8BD79000D
:1050E000C9190339884643445978894600215970C3
:1050F000517073683A00210080689847336800282F
:1051000014D042469A18947059195B5D002B00D058
:1051100053700F70270049463000FFF7CBFF39006E
:1051200002003000FFF774FF0400D3E74246414617
:105130005D19AF709A185B5C002B00D06B70147017
:10514000E9E7C046F0B557464546DE464E46E0B56F
:105150000D006B0001685B19DF1E0400C85D83B0A1
:105160000192CA19002850D043001B18033BCB18EA
:105170005E78B446002E1AD1019E002E42D0E67B06
:10518000002E04D073009B19CB18033B5D70A37BEA
:10519000002B00D1A573E57300282FD10023537095
:1051A00003B0F0BCBB46B246A946A046F0BD7200B3
:1051B0006244033A89184A78904600224A70914620
:1051C0005A70010032002000FFF722FF434682465A
:1051D000002B07D05B0021684344033BCB185A786F
:1051E000002A16D1424651462000FFF711FF2168E0
:1051F000019BCA19002BC2D10028CFD043001B1835
:10520000033BCB1800219970C8E7019B002BB6D156
:10521000C4E7500080180338091848788346484688
:105220004870587041462000FFF7F2FE594680460C
:105230002000FFF73FFF414602002000FFF7E8FE95
:105240008046CFE7F0B557464546DE464E46E0B5C8
:1052500083B00191457B04006B0000685B19DF1E81
:10526000C15DC219002952D04B005B18033BC31823
:105270005E78B446002E1CD1019E002E44D0E67B01
:10528000002E04D073009B19C318033B5D70A37BF1
:10529000002B00D1A573E573002931D1002328002C
:1052A0005370617303B0F0BCBB46B246A946A0463A
:1052B000F0BD72006244033A8018427890460022A2
:1052C000427091465A7020003200FFF7A1FE43461B
:1052D0008246002B07D05B0021684344033BCB1878
:1052E0005A78002A17D1424651462000FFF790FE17
:1052F000019B01002068C219002BC0D10029CDD02C
:105300004B005B18033BC31800209870C6E7019B55
:10531000002BB4D1C2E75000801803380918487830
:10532000834648464870587041462000FFF770FE9B
:10533000594680462000FFF7BDFE4146020020008E
:10534000FFF766FE8046CEE770B5040000292CD03A
:10535000437B8B422ED0056848004018033828183C
:105360008278002A21D053009B18033BEA5CEE1898
:105370008A4202D11BE0002A08D053009B18033B4D
:10538000EB185A788A42F6D142785A7000230122EB
:10539000837043702000FFF7D5FE617B0200200080
:1053A000FFF736FE6073012000E0002070BD4378F7
:1053B0003370EBE701221900FFF7C4FE6073012090
:1053C000F4E7C04630B50C2083B000F0B9F9FEF721
:1053D00089FD00280ED0994B994A1A605A609A604C
:1053E000DA601A615A619A61DA611A62954A5A6200
:1053F00003B030BD944CA06700F0F6F90122934B46
:105400001A60636C012BFCD10322914B1A608E4A07
:10541000936B012BFCD1013301218E4A8E480093FE
:10542000043300F03DF905238C4A009301218C4898
:1054300000F036F98B4B5A68FF2A02D880225200BE
:105440005A6080227D4C824B21691201854D1A6081
:10545000002907D0606901F02DFE431C5800C018D8
:105460000338FDD2E0217F4B02201A6811408022D0
:1054700052012A431160196848400321014011601C
:1054800004219A681142FCD08022802192012A4393
:1054900009011160802252005A60734B2361734BE3
:1054A0005968FF2900D85A600321684A6F4B116080
:1054B00002399A681142FCD0E0201A68104080221C
:1054C00052011A431060186848400321014002202D
:1054D000116066498A681042FCD080229201134311
:1054E000802212011A608022614B52004A6063617F
:1054F000604B5968FF2900D85A6080225E4BE169F1
:1055000012015C4D1A60002907D0606901F0D2FDDC
:10551000431C5800C0180338FDD2E02255490B68DF
:105520001A4080235B012B431A60802380229B0159
:105530002B4312011A608022414B52004A60E36102
:105540004E4B5968FF2900D85A6080224C4B216A83
:1055500012014A4D1A60002907D0606901F0AAFDC6
:10556000431C5800C0180338FDD2E02243490B68A1
:105570001A4080235B012B431A60802380229B0109
:105580002B4312011A60802380225B004B602C4B5E
:10559000D20223623B4B5968914200D25A6080226A
:1055A000394B616A1201374D1A60002907D06069D2
:1055B00001F080FD431C5800C0180338FDD2E022E2
:1055C00030490B681A4080235B012B431A6080230B
:1055D00080229B012B4312011A608023DB024B6067
:1055E000184B6362294B5A68FF2A02D88022520066
:1055F0005A608022264BA1691201244D1A600029AD
:1056000007D0606901F056FD431C5800C0180338EC
:10561000FDD2E0221D490B681A4080235B012B4319
:105620001A60802380229B012B4312011A60802381
:105630005B004B600E4BA361DAE6C046A824002055
:10564000006CDC021BB70000008000403CB0004052
:1056500030B00040002F685900800240008C86471F
:1056600000C0024030800040001BB7003C8000407A
:10567000405973075480004054B00040608000409F
:1056800060B000406C8000406CB00040488000403A
:1056900048B00040014B8000C0587047A82400204B
:1056A000F8B5040021481D0017000E0001F002FDAE
:1056B0000100380001F0FEFC069B29041B0319437E
:1056C0002368002B20DB1A4B1A4DE21853425A4133
:1056D00080235B019C461203174B62441A60174BF0
:1056E0001A601700AB689F43FBD1C022231D9201B3
:1056F0001A4321232660A06013602368002BFCDA84
:105700000823E1601360F8BD3F2322681340B342D1
:10571000D9D1A3681B051B0D8342D4D1EE22E368C7
:10572000D20213408B42CED1EDE7C046001BB7003A
:105730000040FDBF00C0004000E0004000F000401D
:105740008023024A9B000343D362704700800540D8
:1057500010B5140080221B4BD2051A6000281AD005
:105760000123194A1843194BDA61194A42401A6257
:10577000596298628022134BD2051A601549164A65
:105780001160E022D2041A60002C07D18022134B52
:1057900012061A6010BD0D4BD861EBE763011B1BAD
:1057A0009A008023121912015B049A4200D30C4A1A
:1057B0000C4B1A60054B5A608022084BD2051A60C8
:1057C000E8E7C04600B00540D3C007B00080054000
:1057D0002D3FF84FFCFF01000820014000A00540CC
:1057E000FFFFFF00882D0020AA23064A1B0113603B
:1057F0002F230549D360054B19605368002BFCDA51
:105800007047C0460040024000B0FA00006002400D
:105810002C4B2D4A70B51A602C4A2D4B2D491A601D
:1058200014008B689C43FBD12B4D2C4EB54208D203
:10583000013E761BB60808CD984723000134B342D9
:10584000F9D1FFF7BFFD264A214B1A60214A936820
:10585000DB43DB01DD09002BF9D14022214B224C37
:10586000224E9A675A671A67DA66B44208D22368EA
:105870002000002B20D00834FEF7C0FEB442F6D33F
:105880001B4E1C4CC022A168300002F04DF9A660EE
:10589000FEF7B6FBFEF766FEFFF768F8164C174EEC
:1058A000B44208D2013E361BB60808CC98472B00FC
:1058B00001359E42F9D170BD0834FEF791FEB44225
:1058C000D5D3DDE700E00040BFCDFBFEFE7F3C000E
:1058D00000F0004000C000409C1B0020AC1B0020DA
:1058E000FFFFFF0100F001408C1B00209C1B0020EB
:1058F0000000002000ED00E0AC1B0020B41B0020E5
:1059000000BEFDE7094A03001068002805D00849D9
:10591000C3188B4207D81360704706480449C31860
:1059200010608B42F7D901204042F5E74C29002056
:1059300000000420002F002010B5FFF7E1FFC04653
:1059400010B50C0082B01900002A0AD0064B019253
:10595000009302002300054801F00CFB0120FFF733
:10596000CFFF034B1A00F2E7F45201100453011069
:10597000F45A01100FB400B5084883B002F038FAA9
:10598000049B002B07D005A91800019101F012FB20
:10599000034802F02DFA0120FFF7B2FF3453011043
:1059A0003452011010B50148FFF7E4FF44530110D1
:1059B0009A4200D2885470477047C046F8B557469F
:1059C0004E464546DE46E0B599460A9B07009A4694
:1059D0000D9B8846934615000B9E9B0710D10C9B90
:1059E0009E420DD29D1B14000E005D4422004B46CA
:1059F000013431002020B847A542F7D1B0460B9EB4
:105A0000002E27D0444675195346AA1B013E985DC7
:105A100021004B46B847002EF6D123002C009846B3
:105A20000D9B9B070FD55B46E51A0C9BAB420AD931
:105A30004646984622004B46310020200135B847A3
:105A40000134A845F6D82000F0BCBB46B246A946B2
:105A5000A046F8BD2C00E3E7F0B54F464646D646D3
:105A6000C0B584B098460EAB1B78129F99469446F9
:105A70000D9C109B119EBA0725D4002E4BD19C4241
:105A800000D3BFE001223A4092461F2C00D9B8E073
:105A90000C9A551E302201E0202C03D001342A55E7
:105AA000A342F9D85246002A0DD0A6420BD9202C89
:105AB00044D00C9A551E302201E0202C3ED00134F7
:105AC0002A55B442F9D1FA064DD57A053FD4002CB7
:105AD00039D10F9B102B00D179E00F9B022B00D105
