:020000041000EA
:1000000000B5324B212058609868022188439860DF
:10001000D860186158612E4B002199600221596106
:100020000121F02299502B49196001219960352056
:1000300000F044F80222904214D00621196600F024
:1000400034F8196E01211966002018661A6600F04E
:100050002CF8196E196E196E052000F02FF8012189
:100060000842F9D1002199601B49196000215960AB
:100070001A491B48016001219960EB211966A021F2
:10008000196600F012F800219960164914480160C1
:100090000121996001BC002800D000471248134993
:1000A000086003C880F30888084703B5996A0420EC
:1000B0000142FBD001200142F8D103BD02B5186610
:1000C0001866FFF7F2FF186E186E02BD00000240BE
:1000D000000000180000070000035F00212200005C
:1000E000F4000018222000A00001001008ED00E03C
:1000F00000000000000000000000000074B24E7A12
:1001000000200420F7010010C3010010C5010010F9
:10011000C1010010C1010010C1010010C101001097
:10012000C1010010C1010010C1010010C701001081
:10013000C1010010C1010010C9010010CB01001065
:10014000CD010010CD010010CD010010CD01001037
:10015000CD010010CD010010CD010010CD01001027
:10016000CD010010CD010010CD010010CD01001017
:10017000CD010010CD010010CD010010CD01001007
:10018000CD010010CD010010CD010010CD010010F7
:10019000CD010010CD010010CD010010CD010010E7
:1001A000CD010010CD010010CD010010CD010010D7
:1001B000CD010010CD010010CD010010CD010010C7
:1001C00000BE00BE00BE00BE00BE00BEEFF3058054
:1001D000103800BEF2EB88715C8001107C80011049
:1001E0003402001090A31AE700201F49086006C8D7
:1001F00081F3088810471D48006800282FD10DA4FE
:100200000ECC002902D000F012F8F9E71849194A7B
:10021000002000E001C19142FCD1174988471749ED
:1002200088471749884700BEFDE701C901C29A42C5
:10023000FBD370477C800110C0000020A41B00206D
:10024000609B01100000042000000420609B01104E
:10025000001004200010042000000000704709482E
:1002600005F0D2FC0047000008ED00E0000000D0DF
:10027000A81B0020F82E00201944001005190010BA
:10028000414500105756000006005250ABB3605372
:10029000A840011006005250861C0302C8400110FD
:1002A000060052505422A29DD04001100500525029
:1002B000DE65F468609B0110F8B5C0460448054B44
:1002C00010B5834203D0044B002B00D0984710BDDB
:1002D000A41B0020A41B00200000000006480749C2
:1002E000091A8B10C90FC91810B5491003D0044B57
:1002F000002B00D0984710BDA41B0020A41B002099
:100300000000000010B5074C2378002B09D1FFF73F
:10031000D5FF054B002B02D0044800E000BF0123AD
:10032000237010BD501E002000000000A83C0110EA
:10033000054B10B5002B03D00449054800E000BF71
:10034000FFF7CCFF10BDC04600000000541E002087
:10035000A83C0110F8B50600040005000700164B84
:100360003436C36530000AF0AFFF236C60358C373C
:10037000002B04D001223000E16D0AF04DFD8826EB
:100380000E4B2800A3510AF09FFFE36E002B04D010
:1003900001222800A1590AF03FFD094B3800BB6239
:1003A0000AF092FFFB68002B05D0B423012238002D
:1003B000E1580AF031FDF8BDA83C0110B43C011031
:1003C000C43C011070B503000500012215353D3312
:1003D000FF33FF351A70040028000AF075FFEB6840
:1003E000002B06D09E235B0001222800E1580AF072
:1003F00013FD70BD70B50500036B0C4E5A1CB8356B
:10040000026311210A4A0400300005F093FB280022
:10041000AE620AF059FFEB68002B05D0E023012201
:100420002800E1580AF0F8FC70BDC04650240020B6
:10043000D43C0110F8B5154B154A1900060004000C
:10044000050081CA81C188276036E35130000AF077
:100450003BFFE36EE835002B04D001223000E15968
:100460000AF0DAFC230000221133FF331A7028004F
:100470000AF02AFFEB68002B06D088235B000122DC
:100480002800E1580AF0C8FCF8BDC0463C24002012
:10049000E03C0110F8B5A0234E4645465746DE46DF
:1004A0005B00C2580D3BFF3B98462C339946C8234E
:1004B000E0B5118E05009B0006008B42BF41040091
:1004C00080448144508D95358C36FF357F4298426B
:1004D00002D8908D98425ED9C823128D9B009A4213
:1004E00000D972E0994200D984E00223AB6228006F
:1004F0000AF0EAFEEB68002B06D0DE235B00012247
:100500002800E1580AF088FC00239A4601339B46F4
:10051000484D3B001121484A280005F00BFB474F8E
:100520005B461121464A380005F004FB454B11217A
:100530009B46454A5346584605F0FCFA4046E56559
:100540000AF0C2FE236C002B04D001224046E16D6C
:100550000AF062FC8825484667510AF0B5FEE36E52
:10056000002B04D00122484661590AF055FC5B4635
:100570003000B3620AF0A8FEF368002B05D0B42364
:1005800001223000E1580AF047FCF0BCBB46B246FD
:10059000A946A046F8BDD08D98429DD8128D9A42AA
:1005A00031D900232800AB620AF08EFEEB68002BE5
:1005B00024D0DE235B00E158012228000AF02CFC45
:1005C00001239A4600239B46A2E7994214D80123AF
:1005D000AB6228000AF078FEEB68002B06D0DE2321
:1005E0005B0001222800E1580AF016FC01239A461C
:1005F0009B468DE7032379E70223E9E701239A4627
:1006000000239B4684E7994212D90423AB62280059
:100610000AF05AFEEB68002B06D0DE235B000122B5
:100620002800E1580AF0F8FB00239A469B466FE742
:100630000523EBE764240020E83C01107824002027
:10064000F43C01108C240020003D01109E2070B568
:10065000C00009F0EDF90221E4234942C150AC3356
:10066000C150D933FF33C218E13BFF3BC250C2181F
:100670002C3BC250BE220023B024520083507C3A4F
:10068000FF3A6400025160340151D331464CFF31CE
:100690004350083944508924043140504831435074
:1006A000043143504149A400015104340351404DE9
:1006B00010340251083C05510225043400514834DD
:1006C0000351043403510C340151043403511034E8
:1006D0000551384D083C0551032504340051483478
:1006E0000351043403510C340151043403511034C8
:1006F0000551314D083C055104250434005148345E
:100700000351043403510C340151043403511034A7
:1007100005512A4D083C0551043400514834035119
:10072000043403510C340151F2218900435024490F
:1007300043500539FF3944181131FF3144504418F2
:100740002C39445004314250043142541D49435025
:100750008C21890044188B21C900445044181A493F
:100760004450043142501949425419494350FD390B
:10077000FF3944189421C900445044181549445085
:100780000400043142501449C9344254FF346C31DE
:100790004450124943500C3144181149445004311B
:1007A0004250104A835470BD550300100C3D011097
:1007B000F503001035040010C50300109504001067
:1007C000040400004C0400002C0400003404000069
:1007D00094040000740400007C040000DC040000A9
:1007E000BC040000C40400002823426AD25C083B19
:1007F000C2547047202370B5C35C0400002B3BD16A
:100800002123C35C002B1CD00CF06AFE2000B43006
:1008100003001C490B435B071CD18B1CC31A042B20
:1008200018D94A880B8812041A43CB888D881B0478
:100830002B43026043600B89283803860AF044FD8D
:1008400070BD0CF015FE2000B43003000E490B43C0
:100850005B07E2D0B42320000A888C30E2524A8839
:100860000233E2528A880233E252CA880233E252E9
:100870000A890233E252E1E70CF028FD212301222C
:10088000E254DDE7782D0020602D00208A2070B52D
:10089000800009F0CDF803002C33436234338365C4
:1008A00084230065D022C05000239C241E4983501D
:1008B000083A815004328050483283501B49043238
:1008C00083500C32815004328350283AFF3A184D3D
:1008D00064000251083C055104340051483403516E
:1008E000043403510C340151C82104004900435021
:1008F0003C314350C8340C31445044182C394450D6
:1009000004314250183942507C3143500100882351
:1009100031319B00FF31C150C1182C3BC150043311
:10092000C250183BC25070BDE90700100C3D0110C9
:10093000F50700108823F0B5076AC5583433C4584A
:100940003B7D466D83B0002B0CD1337D002B1AD13B
:100950002B7D002B28D1237D002B36D10CF028FADB
:1009600003B0F0BD0023802200210020009310334B
:100970000CF070F9012300220021B86A0BF044FF4B
:10098000337D002BE4D0002380221021002000932F
:1009900010330CF05FF9012310220021B06A0BF034
:1009A00033FF2B7D002BD6D0002380222021002076
:1009B000009310330CF04EF9012320220021A86A85
:1009C0000BF022FF237D002BC8D000238022009350
:1009D0003021002010330CF03DF90123302200219A
:1009E000A06A0BF011FFB9E7084B10B51A78002A7E
:1009F00000D010BD01321A700BF08CFE04480BF0D1
:100A000083FE00200BF092FEF3E7C046E82E0020A4
:100A10006C5E0110CA2070B5800009F009F803006F
:100A2000283303623433436502008023C06490326C
:100A3000C0500833C2502C33C05034320833C25037
:100A40002C33C050F8220023B02430498350083A98
:100A5000815004328050483283502D4904328350F3
:100A60000C32815004328350503AFF3A294D6400D1
:100A70000251083C055104340051483403510434F8
:100A800003510C340151DC21040049004350F0347F
:100A9000483144500C3943500C3144182C394450DF
:100AA000043142500431435460314350A83C0C316E
:100AB000445045182C3945500431822542500421B8
:100AC000AD0041517C3543510C35445146192C3D04
:100AD000465104354251183D41517C3543510C3546
:100AE000445146192C3D465104354251183D41515F
:100AF0007C354351C8239B00C450C4182C3BC450C0
:100B00000433C250183BC15070BDC046E909001003
:100B10000C3D011035090010030070B505000122DD
:100B200006000933FF33E0351A70040028000AF08C
:100B3000CBFBEB68A536FF36002B06D084235B0089
:100B400001222800E1580AF067F923000122CD3381
:100B5000FF331A7030000AF0B7FBF368002B06D0A1
:100B6000E6235B0001223000E1580AF055F970BD20
:100B700080239B0070B5C518AC3BC35804009B6A2A
:100B80002800AB620AF0A0FBEB68002B06D08A239A
:100B90009B0001222800E1580AF03EF970BDC046D2
:100BA0008B239B0070B5C6182C33C518C36A04008C
:100BB000B36230000AF088FBF368002B06D095235F
:100BC0009B0001223000E1580AF026F9616BE06ACF
:100BD00005F033FCA86228000AF076FBEB68002BD6
:100BE00006D0A0239B0001222800E1580AF014F946
:100BF00070BDC0468B239B00F0B5C7182C33C618B8
:100C0000D223C646DB00C31800B5836101230377F6
:100C1000836A0400191C006A984605F0FAFB18491B
:100C200005F00BFC4146051CE062606A05F0F1FB33
:100C3000134905F002FC20633800BD620AF044FB52
:100C4000FB68002B06D095239B0001223800E15859
:100C50000AF0E2F8616BE06A05F0EFFBB062300089
:100C60000AF032FBF368002B06D0A0239B00012280
:100C70003000E1580AF0D0F880BCB846F0BDC0465C
:100C80000000C8428623F0B50500C64606005B009A
:100C9000C758D535BB6AFF3500B50400AB622800E4
:100CA0000AF012FBEB68B036002B06D0FE235B0087
:100CB00001222800E1580AF0AFF8A06808F0E6FC2D
:100CC00005F02EFC051CB86A05F000FCA16B05F0D0
:100CD0009AFBE16B8046281C05F095FB011C404601
:100CE00005F097FB0D4905F094FBA16A05F0A5FB03
:100CF000B06230000AF0E8FAF368002B05D0D82380
:100D000001223000E1580AF087F8B86AE56305F07F
:100D1000DDFBA06380BCB846F0BDC0460000C84201
:100D200010B5040008F0F0FC05F0FAFB606410BD9B
:100D300070B500210400C06A05F0AEFB002800D1A8
:100D400070BD8B239B00E61808F0DEFC05F0E8FB85
:100D5000616C05F058FB216B05F06FFBB062051C60
:100D600030000AF0B1FAF368002B06D095239B00FF
:100D700001223000E1580AF04FF89623606B9B0087
:100D8000291CE61805F059FBB06230000AF09CFA05
:100D9000F368002BD4D0A0239B0001223000E1583F
:100DA0000AF03AF8CCE7C046F0B5D820D6464F4610
:100DB0004646C000C0B508F03BFE030050338364D4
:100DC0003433C3670222A82340675242C050F8332D
:100DD000C2505133FF33C118A13BFF3BC150C11872
:100DE0002C3BC150A2210023942449004350443994
:100DF000FF3964000151D624A4000519C13CFF3C11
:100E0000055105192C3C0551203403511C3C01515E
:100E100060340251B4340251A4227F4C92008350BA
:100E2000083A8450B9240226043280504832835054
:100E300004328350794AA400025104340351784D9E
:100E400010340151083C0551043400514834035119
:100E5000043403510C34025104340351103406514C
:100E6000704D083C055103250434005148340351AA
:100E7000043403510C34025104340351103405512D
:100E8000694D083C055104340051684C84250351D8
:100E900004340351664CED000251CF24E4000419E0
:100EA00044510425AA4686255746ED004751614F17
:100EB000083D4751604D4051604D43510435435109
:100EC0005F4D4251D225ED00AC46912584446746E2
:100ED000ED0047510527103547515A4F083D4751FE
:100EE000594D9E274051594DFF0043510435435100
:100EF000574D4251BD35FF35A94681444D46C55138
:100F00001037BC460627B84667464546C5519F255B
:100F1000ED00AC464F4DA8466546474647514E4DFD
:100F2000002740514D4D4351043543514C4D4251E2
:100F3000AB224D46D20085504A4A8350A2229200ED
:100F40008518B422D2008550A83A8518464A8550A3
:100F5000043A8518454A855004328650444A8154E3
:100F6000553AFF3A8518C132FF328550593AFF3A57
:100F70008518404A8550404A83500C3285183F4AB4
:100F80008550043286503E4A002683543D4A8350A1
:100F9000F02292008518C622D200855085183A4A60
:100FA000855004328150183A81505146374A384DA5
:100FB0008350343A81500200CF210C32C900425094
:100FC00034494550043141180E604F60D121C900A9
:100FD000435408314250304D304945500431411896
:100FE0000E604F60D421C9004354083142502C4A4E
:100FF0002C4981500432821816605760D722D200E3
:101000008354C3600461446183610377E0BCBA46E2
:10101000B146A846F0BDC046190B00100C3D0110AA
:10102000850C0010710B0010F50B00100C04000073
:101030001C040000A10B00102C040000740400002C
:1010400084040000210D001094040000DC04000062
:10105000EC040000310D0010FC0400004405000009
:101060005405000094050000A4050000740500006C
:101070007C050000EC050000DC050000BC0500005C
:10108000C405000024060000040600006C060000F1
:10109000A83C01107C060000103D011094060000E1
:1010A000AC060000183D0110036C9B6A8363704717
:1010B000436F9B6AC3637047F0B54E46DE465746A2
:1010C0004546A823E0B5C6583433C358070083B05B
:1010D0008068994608F0DAFABA6AFB6A04000D00E3
:1010E000002B11DD20002900801A9941002915DC10
:1010F000002900D17AE0BC62FD6203B0F0BCBB46BF
:10110000B246A946A046F0BD002BF4D1002AF2D089
:1011100020002900801A99410029E9DD88235B001D
:101120009A46B36ABA449B4605F0FAF9324905F08B
:1011300084F905F0FFF95B463A6B00900191981A2B
:1011400005F090F82D4A2E4B05F017F800222D4B94
:1011500004F0F9FF009A019B04F0F5FF05F0C6F8D2
:101160004B46796B9B6A061C581A994605F07AF82B
:10117000224A234B05F001F80022224B04F0E3FF42
:10118000009A019B04F0DFFF05F0B0F85B463B637B
:101190004B46311C7B638046B86B05F034F95346EF
:1011A000986250460AF090F85346DB68002B06D050
:1011B0009C235B0001225046F95809F02DFE3E00A9
:1011C000F86B414605F01FF94136FF36B06230003A
:1011D0000AF07AF8F368002B00D18CE7B4235B00A7
:1011E00001223000F95809F017FE84E7064B9842B7
:1011F00000D880E792E7C0465F708930C3718BB634
:1012000065BCB93F008076403F420F00F22070B5C8
:10121000800008F00DFC0300483303643433436757
:101220000200A023C066B032C0500833C2502C3335
:10123000C05034320833C2509E222C33C0500B3B76
:10124000FF3B52008350303283500023F024364954
:101250000C328350083A8150043280504832835017
:101260003249043283500C32815004328350D03AD8
:10127000FF3A2F4D64000251083C05510225043409
:10128000005148340351043403510C3401510434E7
:10129000035110340551274D083C055104340051C9
:1012A00048340351043403510C340151A821040083
:1012B0008900435071343C314350FF340C31445069
:1012C00044182C3944500431AA244250050004210A
:1012D000A4000151D9357C340351FF350C3405513C
:1012E00005192C3C0551DE2504340251183C0151EE
:1012F0007C3403512D3CFF3C0419AD004451461988
:101300002C3D465104354251183D41517C354351E5
:10131000F0239B00C450C4182C3BC4500433C2506B
:10132000183BC15070BDC046A91000100C3D011003
:10133000B1100010B9100010036A70B59C6A00214A
:10134000201C05F0B1F8FE21431E9841640064089A
:1013500005008905201C05F0AFF8002805D00748D6
:10136000290001220CF0B6F970BD0549201C05F0DA
:1013700064F805F0CDF880B2F2E7C046FF0F000038
:1013800000F07F45436D70B59C6A0021201C05F07C
:101390008BF8FE21431E984164006408050089050E
:1013A000201C05F089F8002805D0074829000022F4
:1013B0000CF090F970BD0549201C05F03EF805F0D1
:1013C000A7F880B2F2E7C046FF0F000000F07F45AB
:1013D00010B501200CF050F910BDC046A62070B524
:1013E000800008F025FB0300283303623433436593
:1013F0008023C0649022C0500023F8242D498350DC
:10140000083A815004328050483283502A490432CD
:1014100083500C32815004328350284DE73A0251F8
:10142000083C05510225043400514834035104346A
:1014300003510C3401510434035110340551204D33
:10144000083C05510434005148340351043403511D
:101450000C340151DC2104004900435088344831E8
:1014600044500C3943500C3144182C394450043149
:10147000425004314354113C60314350FF3C0C3125
:10148000445044182C3944500431822442500421E1
:10149000A40001517C3403510400A42359349B005F
:1014A000FF34C450C4182C3BC4500433C250183B02
:1014B000C15070BDD11300100C3D01103913001044
:1014C00085130010F0B5C646C36A04009E6A816A9F
:1014D00000B50700301C04F099FF8823216A051C21
:1014E000A062301C984604F0A8FF616A061C281C04
:1014F00004F0A3FF011C301C04F088FF4346603752
:10150000E050380009F0E0FEE36E002B05D04346C2
:1015100001223800E15809F07FFC80BCB846F0BDDC
:10152000A02010B5400008F083FA03003433C362F2
:1015300098220023104980658350083A8150043274
:101540008050483283500D49043283500C32815010
:10155000043283503C32835002003933FF339032DF
:10156000C250C2182C3BC25001220433C250183B57
:101570000332C25010BDC046C51400100C3D01100E
:10158000F0B5C6460500060080211F4A040000B5DC
:10159000D06884350006000F543601304900536886
:1015A0000B42FCD10138176A0028F8D18021D0689D
:1015B000154A0004000F7F420130890053680B4236
:1015C000FCD10138536A0028F8D15B423000E7674C
:1015D000984609F079FE236E002B04D001223000DA
:1015E000E16F09F019FC43462800AB6209F06CFE7C
:1015F000EB68002B05D0AC2301222800E15809F04C
:101600000BFC80BCB846F0BD00002050F0B5D646BB
:101610004F4646460025C0B53D4C8AB020003D49A6
:1016200007F08CFC0223200008220021009507F01F
:101630008DFD00220121082001F022FA0022012163
:10164000092001F01DFA8026F827C02376021B032B
:101650007F0202A9102206A89A46049302960397D5
:10166000059505F01DF82C4B06A9102202A89946F5
:10167000079305F015F88023DB020593274B200024
:10168000039380231B0398460493002202AB00219E
:1016900007F0B4FD012223682000134323600121D9
:1016A000022300950B3207F051FD002201210C208E
:1016B00001F0E6F9002201210D2001F0E1F9534685
:1016C00002A9102206A8049302960397059504F038
:1016D000E7FF4B4606A9102202A8079304F0E0FF9B
:1016E000C023DB0205930E4B0022039343460121E6
:1016F0000493200002AB07F081FD0222236813430C
:1017000023600AB0E0BCBA46B146A846F0BDC04668
:1017100000002050243D01108077010080770108EF
:101720008077010C862070B5800008F081F90300F5
:1017300028330362C022002394242049C0648350CC
:10174000083A815004328050483283501C49043298
:1017500083500C32815004328350183AFF3A194DAD
:1017600064000251083C05510434005148340351CF
:10177000043403510C340151C0210400490043508A
:10178000B834483144500C3911344350FF342039B7
:1017900044500431425004314354603143500100FD
:1017A000842321319B00FF31C150C1182C3BC15013
:1017B0000433C250183BC25070BDC0460D16001015
:1017C0000C3D011081150010F0B507000400060063
:1017D000050087B003A919480BF0E0FB039B5437C1
:1017E000E367380009F070FD236E8436B435002BB2
:1017F00004D001223800E16F09F00EFB049B300099
:10180000B362019309F060FDF368002B05D0AC23AF
:1018100001223000E15809F0FFFA059B2800AB6275
:1018200009F052FDEB68002B05D0DC2301222800D3
:10183000E15809F0F1FA07B0F0BDC046542D002080
:10184000054B10B51A78002A00D010BD01320348AC
:101850001A700BF059FBF8E7E92E0020542D0020F8
:10186000922070B5800008F0E3F80300283303628B
:10187000F0220023AC242049C0648350083A8150F0
:1018800004328050483283501C49043283500C3259
:10189000815004328350483AFF3A194D6400025196
:1018A000083C0551043400514834035104340351B9
:1018B0000C340151D821040049004350E834483128
:1018C00044500C3911344350FF3420394450043112
:1018D0004250043143546031435001009023513150
:1018E0009B00FF31C150C1182C3BC1500433C25082
:1018F000183BC25070BDC046411800100C3D01108D
:10190000C917001010B50021002009F017FE10BD06
:101910007047C0460A4B01211A68002300B589B000
:1019200006930593049102930193173107330391B2
:1019300000930021033B034809F0D4FB09B000BD2C
:1019400098210020C01C0020014B0360012070473B
:10195000C01C0020F0B5DE4657464E464546E0B571
:10196000A1B0FEF773FEFE4B040083609A4601238C
:10197000FC4A270002624362534600215E6E002348
:10198000F948C937FF37A062E1623760FC2723635B
:1019900000220023BF00E61932607360FE239B0023
:1019A000E618534630607160DE6DF42300209B0022
:1019B000E1183160ED490022605087200023C0000B
:1019C000882521180A604B6000218323E848ED0038
:1019D0006719386079600020DB00E118E54B716021
:1019E000E05090200123DF4AC00021180A604B60BC
:1019F0000021002208302318283819605A60231863
:101A0000B3600026DC4B8027E6508226B600A3197F
:101A100000263F061E605F609C2389389B00E31808
:101A2000FF381E605F60231868301E605F602318F7
:101A300068301E605F6023181E605F60FEF726FF3F
:101A4000554685600225804602000123C0206D4274
:101A500015509562D56513840932FF3216605760C0
:101A60009666D7666832FEF7D5FF524682608C22B2
:101A70004562856501008550C0200D5055460A001D
:101A80006B6EF0325A600B003133FF331E605F60C3
:101A90009E66DF660391FFF787F952460221826056
:101AA000DC22494281505C3AC16453468150852210
:101AB0005B6ED20082189A609222D2008218DA609D
:101AC000AE4B00210362AE4B002243628023DB0554
:101AD0008362AC4B0500436300238363C3639B466F
:101AE000B023DB00C31819605A60B1230221DB0068
:101AF000C318A548AC22186059605346D200DB6D6C
:101B0000AA18DA600022A14B8020EA50B22292008B
:101B1000AB181E605F60CC239B00EB181E605F60FB
:101B2000E6239B00EB18C0001E605F602B18683036
:101B30001E605F602B1868301E605F602B18683075
:101B40001E605F602B1850461E605F60C36F2800E8
:101B50005B680C301860FFF759FB53468360FC2329
:101B60009B0503620221FA2349429B058146436299
:101B7000416481670300AC2019504846E0230022ED
:101B8000C150002349468262C362026343635846E0
:101B90008863C863B131FF310E604F6086218900D0
:101BA00049440E604F60A021890049440E604F6097
:101BB000FFF714FC02220100524250464A628A6535
:101BC0000A00436E8860883208001A610B00993061
:101BD000C833FF301E605F609E66DF660660476048
:101BE0000491FFF79DFC0100504688604846006A5A
:101BF000022208624846406A524248628C200A50DB
:101C000058460A6302918862D0310E604F60FFF738
:101C100087FC514681604946096A022201624946B1
:101C2000496A524241628C214250594602638162A4
:101C30000190D03006604760FFF774FD83460100D5
:101C4000504602228860584680215242425030312C
:101C50004250514642624B6E5A465946B832F831AC
:101C60005A610E604F608E66CF666831FFF7F8FDEF
:101C700052468260022201008020E02352420A5034
:101C800030300A50CA504A625246536E0A00E83257
:101C90009A61F8230A002931FF310E604F605B0022
:101CA0008E66CF660336E650059268312200042125
:101CB000AD3807F09FFEFA36FF36A051220004210E
:101CC000032007F097FE043EA051220004210320C8
:101CD000FA2707F08FFE7F00E051AD3FFF3FBC4683
:101CE000A4446746076009977427BC46A444674626
:101CF00047600697A027BC469623A4446746012266
:101D00009B0087600A97E250042122000120992756
:101D100007F070FEBF00E05122000421012007F00F
:101D200069FE043FE05122000421012007F062FE19
:101D3000CC218C469723A444022761469B00E050A7
:101D4000643301602200E7500B910220042107F068
:101D500051FEB3218900605022000421022017E0C7
:101D6000C01C002000F2052A00E1F5050C0400006B
:101D700000CA9A3B540400009C04000052B83A4147
:101D8000CDCCCC3F3333733F00E40B549C050000B3
:101D900007F030FEB2229200A0500421220002205F
:101DA00007F028FEFC229446B123A44462469B001F
:101DB000E0500C9202600122069964334160E250C7
:101DC00004212200012007F015FECD229200A05030
:101DD00004212200012007F00DFECC229200A05029
:101DE00004212200012007F005FECB239B00E050D8
:101DF00094235B009C46A444634603600D93E42354
:101E000004229B00E25004212200042007F0F2FD8E
:101E1000E7229200A05004212200042007F0EAFDEE
:101E2000E6229200A05004212200042007F0E2FDE7
:101E3000E5239B00E050ED3BFF3B9C46A4446346FA
:101E40000999C360016006990E9341600A99F023D5
:101E50008160404600210122C1506833C2500431E4
:101E60004246012007F0C6FDB2224146520088508A
:101E700042460421012007F0BDFDB0224146520038
:101E8000885042460421012007F0B4FDAE23A02271
:101E9000414642445B00C85002608C2040008246AC
:101EA0000023514603980F92435068314350AC23AE
:101EB0007D399B00EF502A00FF39022007F09AFD80
:101EC000AF239B00E8502A000421022007F092FD76
:101ED000AE239B00E8502A000421022007F08AFD6F
:101EE000F421DC228C465200AC4461469446AD237A
:101EF000AC4462469B00E85064330160426010913C
:101F0000EF50119204212A00022007F073FDC9232B
:101F10009B00E8502A000421022007F06BFDC82333
:101F20009B00E8502A000421022007F063FDF42101
:101F3000C72349008C469B00E850C423AC4461464B
:101F40009C46AC44634643601393E02301229B000C
:101F500001601291EA5004212A00012007F04AFD95
:101F6000E3229200A85004212A00012007F042FD3C
:101F7000E221890068502A000421012007F03AFD7F
:101F8000852292009446E123AC4462469B00E850CF
:101F9000643302601492EF502A000421022007F0FB
:101FA00029FDFD229200A85004212A00022007F0FA
:101FB00021FDFC229200A85004212A00022007F0F3
:101FC00019FD902189008C462C31AC4462468C4628
:101FD000FB23AC4461469B00E850643302604160DF
:101FE0000792EF502A0008910220042107F002FD19
:101FF000FE4B2A00E8500421022007F0FBFC8B2353
:10200000DB00E8502A000421022007F0F3FCF84A24
:102010000899A850079A9723026041600020DB00CE
:10202000E8506833EF502A000421023007F0E2FC48
:10203000F0492A0068500421022007F0DBFCA522A9
:10204000D200A85004212A00022007F0D3FCEA4B5A
:10205000079AE850089B02604360CC234946002061
:102060005B00C8506833C8506833CF504A460421DB
:10207000023007F0BFFC9D214B46890058504A466C
:102080000421022007F0B6FC9C2349469B00C8505F
:102090004A460421022007F0ADFC9B2349469B00E1
:1020A000C8509221193B4900FF3B49444B44016011
:1020B0004360159100205146B0221693049B98501E
:1020C000585068315850029BC8399A46AF3A5A5016
:1020D00001301A00B43907F08DFC5146C423524632
:1020E000C8500421012007F085FC5346C021524608
:1020F0005850BC390120029307F07CFCBC218A4671
:10210000534602990122C85074310160B820019BE6
:1021100017911A5004211A00B73807F06BFCC4213C
:10212000019B58501A00C039012007F063FCC023FE
:102130000199C8500A000120042107F05BFC5146B8
:10214000019B5A4658507433036059461893002037
:10215000E023C8506833CF500220042107F04AFC26
:10216000AA235F465B00F8505A460421022007F07C
:1021700041FCA8235B00F8505A460421022007F0D6
:1021800039FCA6235B00F85098275F440760199735
:1021900068275F4447601A970027059A3C3BD75051
:1021A00068330337D75004210320170007F022FCBF
:1021B000C2235B00F8503A000421032007F01AFC08
:1021C0003900C0278A467F00C8510A000320042135
:1021D00007F010FCBE235246574651465B00D050D4
:1021E000683798310592C8320760416082601B975A
:1021F0008020012784236765A46527502C30E45094
:102200002750543304302450E7502C3030332450BE
:10221000E7500433E45058302C332750E450A3598E
:10222000824634381C911D921F6022000421FF3821
:1022300007F0E0FBFE235B00E35822001860A3597F
:1022400004215F60012007F0D5FBFE235B00E3580B
:1022500022005860A35904219F60012007F0CAFBA7
:102260000399FC378C46FF37E3590C371A686744EB
:1022700098601E97176094275B68BF0067441F60D3
:10228000A6239B00634403609820012280001F93D3
:10229000235804211A600120220007F0ABFB992289
:1022A0009200A35803991860B8238C469B0063449E
:1022B0000360B22001228000235804211A6001200B
:1022C000220007F097FBB3239B00E358012218601C
:1022D000B2208000235804215A600120220007F018
:1022E00089FBB32341469B00E358993158601B6832
:1022F000FF3119600760CC2001228000235804219F
:102300001A600120220007F075FBCD229200A3582D
:102310004246E132FF3218600260E620012280006E
:10232000235804211A600120220007F063FBE723F1
:102330009B00E35801221860E62080002358042106
:102340005A600120220007F055FBE7239B00E35869
:1023500001225860E6208000235804219A60012061
:10236000220007F047FBE7239B00E3581E991A68F9
:1023700098605B6811601F601F9F424607600127DD
:10238000AC20175004301250B030135860381F6022
:102390000421FF3807F02EFBB22342465B00D358DE
:1023A0002200186080234932FF320260FA205B006D
:1023B000EF500433ED50C033EF500433ED50400084
:1023C00058332F50AD51EF500433ED502833EF50B8
:1023D0000433ED502833EF500433ED50A93BFF3B5D
:1023E000C430ED502B583E0008E0C0465C040000AD
:1023F000540400002C050000240500001F60AF27D6
:102400002A000421012007F0F5FABF00EB592A0049
:102410001860AE2080002B5804215E60012007F078
:10242000E9FAEB595F465860D1371B68FF371F60E8
:10243000059F8022BC46920062440260C820800052
:102440002B58C9272A001E600421012007F0D2FA68
:10245000BF00EB5914374F4418600760E22080003A
:102460002B58E3272A001E600421012007F0C2FA3E
:10247000BF00EB590C3F4F4418600760FC20800000
:102480002B5807002A001E600421012007F0B2FA31
:10249000FD239B00EB582A001860EB5904215E6075
:1024A000FD26012007F0A6FAB600AB59013F4D3ECC
:1024B0005860FF3E1B68FF3F4E444F441E6007605C
:1024C0008B200122C0002B5804211A6001202A0011
:1024D00007F090FAFD4B0122EB58042118608B2085
:1024E000C0002B5801205A602A0007F083FAF74BEE
:1024F0000122EB58042158601B681E600760A5206C
:10250000C0002B5801201A602A0007F073FAF04B24
:102510000122EB5804211860A520C0002B5801208F
:102520005A602A0007F066FAE94B4A46EB58042144
:1025300058601B681E60982307600126484657466E
:102540005B00C650C051B0204F4640003E500430A2
:102550003F500D30FF30135807001E60012007F078
:1025600049FA9D234A469B00D35804211860D35949
:1025700001205E6007F03EFA9D234F469B00FB580A
:10258000029F58603A001B68F8321A60019A0421D1
:10259000F8320260380080273200C65183368051FD
:1025A000B2463C36835944371A600200012007F0D6
:1025B00021FA029B0499DB598C46186082239B0008
:1025C000634403600122802301980421C2505346D2
:1025D0008246C050835916001A600200012007F09D
:1025E00009FA049953468C460193DB598D37FF371E
:1025F000674418600760A423584646678067C65042
:10260000A820824658465746C051A837C3595A4653
:102610001E600421012007F0EDF95B465436FF36B9
:102620009B59012218605846C3595F465A600421DD
:102630005A46012007F0DEF9BB592F0058601137C8
:102640001B68FF371F60483707605046059FD82337
:10265000BF673F502000E830FF5003004046436210
:1026600020001530FF30030040468365A0238C30E6
:102670005B00E050200034300300039803622C33E9
:1026800043652C331A008823C2502300B8331A0044
:10269000BC23C2508B2080002B1848460364962030
:1026A00080002B18484643672800D530FF300300D0
:1026B000524648468350802080002A18DC23484632
:1026C000C2501130FF3003000298049AC362030025
:1026D000484641306033FF30136203000198C36203
:1026E000603050652800E0300300584603625430E3
:1026F000A85186235E465B008436EE502E00A53638
:10270000FF363E62734B159E5B6B179A10981E60E6
:10271000169E9A605E60189A1A9E186111981C990C
:10272000DA605861079A12989E62199E98611A623F
:102730001498089ADE6259631B9E1D99D8611E6326
:1027400099635A62099A0B9EDA63139A9E64DA655A
:1027500022000C9E0699DE640D9E19641E650A997E
:102760000E9E59645E650F992600E132FF3299652D
:10277000002311000122D936FF3601270A604B6081
:102780003100554E7F420E604F60922189006118E2
:102790000A604B6090210127504E890061187F42EA
:1027A0000E604F60AC21890061180A604B60AA215D
:1027B00001274B4E890061187F420E604F60C62191
:1027C000890061180A604B60C4210127454E8900C9
:1027D00061187F420E604F60E021890061180A6035
:1027E0004B60DE2189008C4601213F486444494208
:1027F000206061604146E0310A604B604446083920
:102800000E604F600127394E4134FF347F420A6722
:102810004B6726606760039C012721000931FF3167
:102820000A604B602C4E611CFF317F420E604F608E
:102830000A674B6701212E486934FF344942206002
:102840006160A824A4002C1922606360A624A4005F
:102850002C1926606760C224A4002C1922606360D2
:10286000C02401271E4EA4002C197F4226606760F9
:10287000DC24A4002C1922606360DA240127194E9D
:10288000A4002C197F4226606760F624F421A4007E
:102890002E198900326073606E1801211348494275
:1028A0003060716088210127C9006C180E4E08390C
:1028B000226063607F426C187031266067606C181C
:1028C0000839226063606C18012113E05C04000089
:1028D0002C050000C01C00200000FFFF0100FFFFCE
:1028E0000200FFFF0300FFFF0500FFFF0400FFFFE2
:1028F0000600FFFF4B48494220606160A221C900E9
:1029000069180A604B60A121C90068184946012571
:10291000454C89316D42FF310460456008398A6059
:10292000CB600C000121414849422060616049466A
:10293000F131FF310A604B6008390C0001213C483D
:102940004942206061609621890049440A604B60D9
:1029500094210125049F374C890049446D420C6045
:102960004D6039000126344DA0310A604B6076423B
:1029700008390D604E600A674B6701212F487C1CA7
:10298000FF34494220606160390038007131FF3105
:1029900069300A604B60FF30012104002848494239
:1029A00020606160029C27482100A8310A604B60CA
:1029B0000121019F4942A034206061603C00A8349D
:1029C00022606360083C20606160594658460127D8
:1029D000D0310A604B6008390D604E6031301A4EBC
:1029E000FF307F420A674B6706604760059F0126FC
:1029F000791C6137FF3738000127FF310E4D0A601F
:102A00004B60764208390D604E600F4E7F420A6778
:102A10004B670660476021B0F0BCBB46B246A94692
:102A2000A046F0BD0600FFFF0700FFFF0800FFFF04
:102A30000900FFFF0A00FFFF0000FFFF0C00FFFF7F
:102A40000D00FFFF0B00FFFF0100FFFF7047C046B6
:102A5000094A830094464022634410B51C68C000B4
:102A60006240C02414408022520113431C60034B77
:102A70009C466044416010BD04C0014000400140DC
:102A80000A4B80009C4604236044002901D00C239B
:102A90000821002A00D10B00026853400C221A4082
:102AA00080235B01184302607047C04604C00140A8
:102AB0000123D0228340120693629361094A830066
:102AC0009446402263441968C0004A40C021114026
:102AD0008022520113431960034B9C460523604436
:102AE0004360704704C0014000400140024B186839
:102AF0008007C00F7047C04600C00640EFF310804B
:102B000072B6034A1368002BFCD0BFF35F8F704787
:102B10002C0100D0BFF35F8F0022024B1A6080F3BC
:102B2000108870472C0100D070B5EFF3108C72B68E
:102B30000D4D2B68002BFCD0BFF35F8F0724CB0813
:102B4000C618C05C01230C40A3401C000440034293
:102B500007D103433370BFF35F8F2C608CF3108871
:102B600070BD100001F00AFD2C0100D0F8B54746F9
:102B7000CE46884680B5EFF3108C72B6214D2C6896
:102B8000002CFCD0BFF35F8F9A422CD8D4080727C3
:102B9000055D061901241740BC402C421FD00721B7
:102BA0000127894609E0D408055D06194C4639001D
:102BB0001440A1400C00294211D001329342F2D2BC
:102BC00001204042BFF35F8F00220E4B1A608CF34E
:102BD000108800280FDBC0BCB946B046F8BD2C43B6
:102BE00010003470EEE7BFF35F8F00232B608CF38F
:102BF0001088012040424346002BECD0089801F099
:102C0000BDFCC0462C0100D00021044B044ABFF398
:102C10005F8F02C39342FAD17047C046000100D0D3
:102C2000800100D0044A1078431CDBB2172B00D976
:102C3000102313707047C0467010002000B5054B7C
:102C400083B00100009318221F230348FFF78EFF73
:102C500003B000BD5C3D0110A82400200123834087
:102C6000002904D0034A1360034A13607047034AE3
:102C70001360FBE780E200E000E100E080E100E0BB
:102C800001238340014A13607047C04600E200E020
:102C9000084B10309B688000C358002B07D0064AB1
:102CA00000209B1A2F229A424041C0B27047002058
:102CB000FCE7C04600ED00E074100020024B10302D
:102CC0009B688000C058704700ED00E070B50D00B3
:102CD000EFF3108672B60F4A1368002BFCD0BFF3D7
:102CE0005F8F0D4B10309B6884001B590B4A934239
:102CF00003D09D4201D001F059FC074B9B681D5148
:102D0000BFF35F8FBFF35F8F0022024B1A6086F321
:102D1000108870BD240100D000ED00E0CD0100104E
:102D2000F0B557464E46DE464546E0B585B006004E
:102D300002911700EFF3108B72B6674A1368002BED
:102D4000FCD0BFF35F8F0025644B5D579A46002D82
:102D500000DAA4E06B00624C03935B199B00984679
:102D6000A146C1444B4652469B79103613705D4BC9
:102D7000B2009B68019299580B1B2F2B34D95A4BE8
:102D8000994200D0A4E0039B584A9C46584B6544A6
:102D9000AD006353434602336519E418554B0121D6
:102DA000043B1B1B1B055B0D13436B80524BEF71E8
:102DB000AB80FF23AB71029BAB604B460B4319000A
:102DC000484B019A9B689950BFF35F8FBFF35F8FA9
:102DD0000022414B1A608BF3108805B0F0BCBB4653
:102DE000B246A946A046F0BD01200A008243D3792D
:102DF000BB422FD845464E46130040491B1B5B4142
:102E00005943090D3A4B63533A4B02356519043B5C
:102E10005B1B1B05354D5B0D2B4373800426B446AD
:102E2000E0444444131F1B1B4C46A17102991B052F
:102E3000A16049465B0D2B43A380314BE7710143F1
:102E40001360BDE75800C01880002018C679BE4244
:102E50002BD902000623D356002BF3DA101D82462D
:102E60002848804604267642B446E14450464E4601
:102E7000361A3005400D824656461C489571064369
:102E80009680039A944665441D4AAD0064192260F9
:102E90004246A371029BA280E771A36090E701F014
:102EA00085FB002553465D5754E7101D82469088E8
:102EB0004005001584464046D44466460430201838
:102EC000301AE0260005400D360230438046C9E73F
:102ED00001F06CFB57E7C046240100D0F02E002023
:102EE0007410002000ED00E0CD01001000E0FFFFB5
:102EF00000A1FFFFA410002001BDFFFFAAAA00004F
:102F00000148804701BD0000F0B5DE4657464E46F9
:102F10004546E0B50C0083B0EFF3108972B6584A0D
:102F20001368002BFCD0BFF35F8F564B9A680300E9
:102F300010339F00D559544A9046954232D0A5424D
:102F400043D0524EAA1B2F2A2CD8012282409246EF
:102F500051464F4A12681140019151464D4A116045
:102F6000BFF35F8FEFF305829346002A33D101232D
:102F70002A009A4393689C4208D177E04B005B1883
:102F80009B00F3189968A1422AD01A0006215156D5
:102F90000029F3DA019B002B19D052463E4B1A60F0
:102FA0003B4B1A60374B9B68DD51BFF35F8FBFF31C
:102FB0005F8F0022324B1A6089F3108803B0F0BC97
:102FC000BB46B246A946A046F0BD1500EAE7524608
:102FD000304B1A60E6E79342C9D001F0E7FAC6E742
:102FE00006215956002921DB4A0050188000341868
:102FF0008046A0689860E079D871062020569871C4
:10300000002824DBA488F01A640524154444001920
:10301000E0240005400D24022043988052181F4BE5
:103020009200B6181A781970B271B3E759460029A0
:103030000FD1FF3191711A49918018490A789A711C
:10304000184A9B1B5B415A43120D0A70A2E71648AF
:10305000E3E7164A1649D21A083A5002400D0143D6
:103060009980144952080A43DA8093E706215156A1
:1030700013000029B8DA5A46002AEAD14546DCE7AF
:10308000240100D000ED00E0CD01001074100020FC
:1030900000E100E080E100E080E200E0F02E0020AE
:1030A00001BDFFFFAAAA000001BD0000AE10002074
:1030B00000F0FFFF00F8FFFF70B5EFF3058101247A
:1030C0000443EFF3108C72B6214A1368002BFCD036
:1030D000BFF35F8F1F4B05001F4AED1A6D416A4316
:1030E000120D1E4D8900AE6852B27658A6421CD011
:1030F0000621595691421CD012215956914222D094
:103100001E215956914220D02A215956032491421A
:1031100010D0134B19781A708171BFF35F8F0022A2
:103120000B4B1A608CF3108870BDAB680D4C5C5073
:10313000EFE700246100091989005B18FF219971EC
:1031400009499980E5E70124F4E70224F2E7C04643
:10315000240100D074100020AAAA000000ED00E0B5
:10316000F02E0020CD01001001BDFFFF054B064AE7
:103170001360064A136053609360D3601361536118
:10318000936170478080808000E400E004E400E008
:1031900000B5074B83B001000093002205230548CA
:1031A000FFF7E4FC002801DB1F23181A03B000BD61
:1031B000783D0110F72E002070B504000E001500B8
:1031C000FFF730FD0100200000F006F8A680E58042
:1031D000BFF35F8F70BDC046024B9C4661448900BF
:1031E000016070474000003410B50400FFF71AFD7D
:1031F00001002000FFF7F0FFFF232371BFF35F8F73
:1032000010BDC04610B50400FFF70CFD0100200002
:10321000FFF7E2FFFF23A380BFF35F8F10BDC0461F
:1032200010B504000120FFF709FD044B9C466044E3
:1032300080002060BFF35F8F10BDC04640000034A7
:10324000034B9C46614489000160BFF35F8F704768
:103250004000003483680B4810B5844661446244E2
:10326000090112019A18591854684B6801209C42B0
:1032700001D802D00020C0B210BD12680B689A427B
:10328000F9D8F7E7FFFFFF0F0A4B1968EFF310803B
:1032900072B60A68002AFCD0BFF35F8F1B68BFF3C9
:1032A0005F8F00221A6080F3108840BF0020002149
:1032B0007047C046B42E0020F8B557464E464546E6
:1032C000DE46E0B599460CAB1C780DAB1B780600CA
:1032D00090469A460768002C11D1BC7B002C42D046
:1032E00065003B682D19033D59194B78BB73002BC2
:1032F00000D1FB7300238B704B700B7004E06500F2
:103300003B682D19033D5919B2682A4B9446424631
:10331000E3181B0163441A604A465A600A9A9A608D
:103320000B9ADA6000238B704B700B707B7B9B4693
:10333000002B2BD022005946B8687B6898473A6822
:10334000002816D05B4658465B005B445519033B8A
:10335000A870D118D35C002B00D06B705B460C704A
:103360007B73A34513D0F0BCBB46B246A946A0462A
:10337000F8BD5B465B005B44033BD3189C7051195E
:10338000525D002A00D05A705B460B707C73424637
:103390004B46307D00F0B8FB051E06D05346002B8F
:1033A00003D12100306800F0D3FD0E9B002BDAD052
:1033B0001D70D8E7FFFFFF0FF0B5DE4657464E46BB
:1033C00045460023E0B58BB00893674B8200D45884
:1033D00000239B46099000F00DFB626806000F0079
:1033E000EFF3108572B61368002BFCD0BFF35F8F2C
:1033F00023689C465B7B9946002B00D169E0A2685C
:103400005A4B90464B441B01984443461A685B68EC
:1034100010001900801BB941002900DC63E0099805
:1034200000F072FB002300229846002306920793C7
:1034300000239A466368BFF35F8F5A461A6085F38C
:1034400010885346002B08D10028C4D10BB0F0BC23
:10345000BB46B246A946A046F0BD089B41461802AD
:103460004B461843D047626806000F00EFF3108503
:1034700072B61368002BFCD0BFF35F8F002F50DBB8
:1034800033003B4302D02369002B61D12368D97BF1
:10349000002907D04A00521819688C4649466244F0
:1034A000033A51709A7B002A01D14A469A734A46E0
:1034B000DA734B46E168013BCA5C0132CA545B4691
:1034C00023616368BFF35F8F5A461A6085F31088E3
:1034D00081E70023002298460023069207930023E9
:1034E00000209A46A6E7002902D1002800D096E7DE
:1034F0000021604600F0AAFC43461A685B68069209
:10350000079343469B689A464346DB689846E368C0
:103510004B44013B1B7808931B02034323610020AB
:1035200088E72369002BB1D0069A079B921BBB4109
:10353000002B15DB59460491012103914946029164
:1035400041460191514620000091FFF7B5FEB6E7D4
:1035500000F050FA32003B0012184B41002BE9DA20
:103560000122034B5242E5E7942D0020FFFFFF0F9D
:10357000FFFFFF7F10B5144C6368002B04D00A21B5
:103580001248FFF729FE10BD2300114A10212068C0
:1035900000F076FB032000F021FA032000F01EFB70
:1035A00003200C4900F06AFAFFF73CFB0A4B9C46EB
:1035B00003232375D0231B061B6860446375074BE8
:1035C00080006060DC60DAE7BC100020B42E0020D0
:1035D00055320010B933001040000034942D002003
:1035E00000487047BC100020F0B54E464546DE4608
:1035F0005746E0B585B0019310AB1B7806000393E6
:1036000000239946984600927268EFF3108B72B6C9
:103610001368002BFCD0BFF35F8F3568AC7B002CA8
:103620003DD067002B683F19033FDB195A78AA7316
:10363000002A00D1EA73B168474A8C460098019984
:10364000A21812016244106051600E9991600F99A6
:10365000D16042469A705A701A706B7B9A46002B62
:1036600067D022001900A8686B6898472A6800286C
:1036700052D0534650465B005344D719033BB870B1
:10368000D118D35C002B00D07B7053460C706B7349
:1036900054454FD0F3681B19013B187800E0002017
:1036A0007368BFF35F8F42461A608BF31088002C5B
:1036B0004FD04B46002B08D10002204305B0F0BC90
:1036C000BB46B246A946A046F0BD039B002B3ED0A8
:1036D0000E9B00200F999847030004000D000B4338
:1036E00035D000290ADA009A019B121BAB410092E7
:1036F0000193002B0ADB039B994685E700F07AF9DA
:1037000024184D4100940195002DF4DA0123134C47
:103710005B4200930194EEE753465B005344033B46
:10372000D3189C70D119D25D002A00D05A7053462C
:103730000B706C73307D009A019B00F0E5F98146B7
:103740000028A7D02100306800F002FCA2E700208A
:10375000B4E701204042B1E7FFFFFF0FFFFFFF7F0B
:10376000407D7047F0B504000D0006267642F7173D
:10377000C64636196F4100B584B08F4214D811D0B7
:1037800000F038F932003B00121A8B41002B15DC97
:10379000002B3ED02000290000F060F904B080BC6E
:1037A000B846F0BD8642EBD90026002700F022F98A
:1037B00032003B00121A8B41002BE9DD00230293FB
:1037C0000193154B3200009314483B00FFF70CFFA8
:1037D0000028DFDB00239846BC46114A114F7B6A64
:1037E0009C4504D8B96A8E42D4D99C45D2D111687F
:1037F000EFF3108072B60B68002BFCD0BFF35F8F25
:103800001368BFF35F8F4146196080F3108820BFB3
:10381000E5E7002ABED0D1E789320010BC100020B5
:10382000B42E00200040054070B504000D0000F0EB
:10383000E1F800196941002902DBFFF793FF70BD31
:10384000012001494042F8E7FFFFFF7FF0B5EFF3A9
:103850000583CE46474680B505000C0085B0002B99
:1038600012D02C4A0020536A9C4203D8926A01303D
:10387000AA4204D305B0C0BCB946B046F0BDE01AB8
:10388000421E9041C0B2F5E7234E02930193234BB1
:103890000200009330000B00FFF7A6FE031EE0DDE0
:1038A00020BF7168EFF3108772B60A68002AFCD057
:1038B000BFF35F8FDAB294463068427B62451DD019
:1038C000FF221A40510089460168914488464946C2
:1038D000414403398978002913D0F1681B0A8846CE
:1038E0004244013A1278DBB29A420FD07368BFF3B8
:1038F0005F8F00221A6087F31088B2E7FF221A4018
:10390000EBE732699342F1D13161EFE7614600F0B4
:103910001FFBEBE700400540BC100020893200107F
:10392000F0B5EFF30582D6464F4646461000C0B5C7
:103930001038EFF3108872B6214C2368002BFCD0AE
:10394000BFF35F8F0123190081401E4D1F00696383
:10395000AA461D4D29601D4D2E78AC463500C54048
:103960002F402B4209D1BFF35F8F276088F3108867
:10397000E0BCBA46B146A846F0BD5346144D5F6A56
:1039800083005D59AF420ED3124A8E439B58624664
:103990001670BFF35F8F0022226088F31088002B1F
:1039A000E6D09847E4E70C4B92009C4662441368CB
:1039B0001360BFF35F8F0023236088F31088D7E77D
:1039C000280100D0004005403C700540F62E002044
:1039D000C02E00202C230020D03F054010B5010050
:1039E000024A0348FFF7A0F810BDC046A03D0110F1
:1039F000EC2E0020034B596A0A00986A596A8A42E1
:103A0000FAD170470040054070B504000D00124A1D
:103A1000536A1900966A536A8B42FAD13000190032
:103A200024184D41AB4211D80ED02B000A494A6AE6
:103A30009A42FCD307D1084A02E0516A994202D166
:103A4000916AA142F9D370BDA642EED901230124A7
:103A50006442E5175B42E9E700400540064A536AC5
:103A60009942FCD807D1044B02E05A6A914202D134
:103A70009A6A8242F9D370470040054070B504004D
:103A80000D00EFF3108672B61A4A1368002BFCD0B3
:103A9000BFF35F8F002D1BD02000FFF70FF91649F1
:103AA00081420AD02000FFF711F901212000FFF721
:103AB000D5F80123A340114A1360114BA400E5502F
:103AC000BFF35F8F00220B4B1A6086F3108870BD26
:103AD0000B4BA200D5500122A2400A4920000B78CE
:103AE00093430B700449FFF70FFA00212000FFF702
:103AF000B5F8E5E7280100D021390010386005400D
:103B00002C230020F62E0020F0B54F46D646464620
:103B1000C0B507002C4C616A0D00A66A616AA94213
:103B2000FAD18B4208D805D00120E0BCBA46B14694
:103B3000A846F0BDB242F7D9EFF3108A72B6234817
:103B400001680029FCD0BFF35F8F0125BD402049EB
:103B50001D4C8846097889462943C9B28C4641469E
:103B600060460870391D1B48890065630A51B90019
:103B70000B50216A0020294219D0616A0800A66A08
:103B8000616A8142FAD18B4219D801D1B24216D86A
:103B9000CC4516D00C4B1F201D625D6301230740EE
:103BA000BB400D4A1E38136043464A461A70BFF3A5
:103BB0005F8F0022054B1A608AF31088B5E700205A
:103BC000F5E70120F3E7C04600400540280100D09A
:103BD000F62E0020C02E002080E200E0EFF3108CD3
:103BE00072B60A490B68002BFCD0BFF35F8F01232C
:103BF0008340074A0748136202789A430270BFF372
:103C00005F8F00230B608CF310887047280100D071
:103C100000400540F62E002070B505001400160087
:103C2000002915D00C00002A12D080686B689847D4
:103C3000296800280ED073009B196200033B1219FB
:103C4000CB18033A9C7088188A5C002A15D106703C
:103C5000200070BD63001B197200033B9219CB1842
:103C6000033A9E7088188A5C002A02D104703400DE
:103C7000EEE75A7004703400EAE75A700670E7E71E
:103C800030B583600023CCB24373013304734260C8
:103C90008373C4730D000068012C06D9421C0133E4
:103CA000DBB2137003329C42F9D1FF2129404B0053
:103CB0005918002340180338437030BDF8B5CE467C
:103CC000474606000C0080B5002907D04D00036868
:103CD0006D18033D5A195778002F04D12000C0BC3D
:103CE000B946B046F8BD7900C9190339884643443E
:103CF0005978894600215970517073683A00210043
:103D0000806898473368002814D042469A18947007
:103D100059195B5D002B00D053700F702700494686
:103D20003000FFF7CBFF390002003000FFF774FFCF
:103D30000400D3E7424641465D19AF709A185B5CB8
:103D4000002B00D06B701470E9E7C046F0B5574601
:103D50004546DE464E46E0B50D006B0001685B1936
:103D6000DF1E0400C85D83B00192CA19002850D03C
:103D700043001B18033BCB185E78B446002E1AD1C3
:103D8000019E002E42D0E67B002E04D073009B19CA
:103D9000CB18033B5D70A37B002B00D1A573E573AB
:103DA00000282FD10023537003B0F0BCBB46B246AD
:103DB000A946A046F0BD72006244033A89184A78C9
:103DC000904600224A7091465A700100320020004D
:103DD000FFF722FF43468246002B07D05B00216895
:103DE0004344033BCB185A78002A16D14246514629
:103DF0002000FFF711FF2168019BCA19002BC2D1D7
:103E00000028CFD043001B18033BCB18002199702A
:103E1000C8E7019B002BB6D1C4E7500080180338D7
:103E20000918487883464846487058704146200033
:103E3000FFF7F2FE594680462000FFF73FFF41465C
:103E400002002000FFF7E8FE8046CFE7F0B55746B6
:103E50004546DE464E46E0B583B00191457B040001
:103E60006B0000685B19DF1EC15DC219002952D0CA
:103E70004B005B18033BC3185E78B446002E1CD180
:103E8000019E002E44D0E67B002E04D073009B19C7
:103E9000C318033B5D70A37B002B00D1A573E573B2
:103EA000002931D1002328005370617303B0F0BCA6
:103EB000BB46B246A946A046F0BD72006244033A32
:103EC0008018427890460022427091465A70200035
:103ED0003200FFF7A1FE43468246002B07D05B006D
:103EE00021684344033BCB185A78002A17D1424635
:103EF00051462000FFF790FE019B01002068C21987
:103F0000002BC0D10029CDD04B005B18033BC31858
:103F100000209870C6E7019B002BB4D1C2E7500087
:103F20008018033809184878834648464870587006
:103F300041462000FFF770FE594680462000FFF7FB
:103F4000BDFE414602002000FFF766FE8046CEE738
:103F500070B5040000292CD0437B8B422ED005681D
:103F600048004018033828188278002A21D05300CE
:103F70009B18033BEA5CEE188A4202D11BE0002A40
:103F800008D053009B18033BEB185A788A42F6D1AD
:103F900042785A7000230122837043702000FFF79B
:103FA000D5FE617B02002000FFF736FE6073012022
:103FB00000E0002070BD43783370EBE70122190068
:103FC000FFF7C4FE60730120F4E7C04630B50C2053
:103FD00083B000F0B9F9FEF789FD00280ED0994BA7
:103FE000994A1A605A609A60DA601A615A619A6155
:103FF000DA611A62954A5A6203B030BD944CA067E8
:1040000000F0F6F90122934B1A60636C012BFCD18E
:104010000322914B1A608E4A936B012BFCD1013322
:1040200001218E4A8E480093043300F03DF90523A8
:104030008C4A009301218C4800F036F98B4B5A686A
:10404000FF2A02D8802252005A6080227D4C824B87
:1040500021691201854D1A60002907D0606901F0BD
:104060002DFE431C5800C0180338FDD2E0217F4BC1
:1040700002201A681140802252012A4311601968F7
:10408000484003210140116004219A681142FCD08C
:104090008022802192012A4309011160802252006E
:1040A0005A60734B2361734B5968FF2900D85A60DB
:1040B0000321684A6F4B116002399A681142FCD0A3
:1040C000E0201A681040802252011A4310601868DC
:1040D0004840032101400220116066498A6810426D
:1040E000FCD0802292011343802212011A608022A8
:1040F000614B52004A606361604B5968FF2900D8E8
:104100005A6080225E4BE16912015C4D1A60002901
:1041100007D0606901F0D2FD431C5800C018033875
:10412000FDD2E02255490B681A4080235B012B43E6
:104130001A60802380229B012B4312011A60802287
:10414000414B52004A60E3614E4B5968FF2900D849
:104150005A6080224C4B216A12014A4D1A60002994
:1041600007D0606901F0AAFD431C5800C01803384D
:10417000FDD2E02243490B681A4080235B012B43A8
:104180001A60802380229B012B4312011A60802336
:1041900080225B004B602C4BD20223623B4B596860
:1041A000914200D25A608022394B616A1201374D28
:1041B0001A60002907D0606901F080FD431C580097
:1041C000C0180338FDD2E02230490B681A40802322
:1041D0005B012B431A60802380229B012B43120139
:1041E0001A608023DB024B60184B6362294B5A68CC
:1041F000FF2A02D8802252005A608022264BA169F1
:104200001201244D1A60002907D0606901F056FDA3
:10421000431C5800C0180338FDD2E0221D490B682A
:104220001A4080235B012B431A60802380229B016C
:104230002B4312011A6080235B004B600E4BA3617D
:10424000DAE6C046AC240020006CDC021BB700009C
:10425000008000403CB0004030B00040002F685962
:1042600000800240008C864700C002403080004041
:10427000001BB7003C800040405973075480004049
:1042800054B000406080004060B000406C8000404E
:104290006CB000404880004048B00040014B8000B6
:1042A000C0587047AC240020F8B5040021481D0018
:1042B00017000E0001F002FD0100380001F0FEFCC5
:1042C000069B29041B0319432368002B20DB1A4B90
:1042D0001A4DE21853425A4180235B019C46120357
:1042E000174B62441A60174B1A601700AB689F4364
:1042F000FBD1C022231D92011A4321232660A06016
:1043000013602368002BFCDA0823E1601360F8BD1A
:104310003F2322681340B342D9D1A3681B051B0D6C
:104320008342D4D1EE22E368D20213408B42CED135
:10433000EDE7C046001BB7000040FDBF00C00040D5
:1043400000E0004000F000408023024A9B0003434D
:10435000D36270470080054010B5140080221B4BCB
:10436000D2051A6000281AD00123194A1843194BA4
:10437000DA61194A42401A62596298628022134BEC
:10438000D2051A601549164A1160E022D2041A605B
:10439000002C07D18022134B12061A6010BD0D4B62
:1043A000D861EBE763011B1B9A00802312191201ED
:1043B0005B049A4200D30C4A0C4B1A60054B5A60BE
:1043C0008022084BD2051A60E8E7C04600B00540DD
:1043D000D3C007B0008005402D3FF84FFCFF01001F
:1043E0000820014000A00540FFFFFF00842D0020B1
:1043F000AA23064A1B0113602F230549D360054BEE
:1044000019605368002BFCDA7047C0460040024038
:1044100000B0FA00006002402C4B2D4A70B51A60C3
:104420002C4A2D4B2D491A6014008B689C43FBD1FC
:104430002B4D2C4EB54208D2013E761BB60808CD56
:10444000984723000134B342F9D1FFF7BFFD264A54
:10445000214B1A60214A9368DB43DB01DD09002B05
:10446000F9D14022214B224C224E9A675A671A6793
:10447000DA66B44208D223682000002B20D008342A
:10448000FEF7C0FEB442F6D31B4E1C4CC022A168FE
:10449000300002F005F9A660FEF7B6FBFEF766FEF7
:1044A000FFF768F8164C174EB44208D2013E361B8F
:1044B000B60808CC98472B0001359E42F9D170BD53
:1044C0000834FEF791FEB442D5D3DDE700E00040AA
:1044D000BFCDFBFEFE7F3C0000F0004000C000406E
:1044E0008C1B00209C1B0020FFFFFF0100F00140FF
:1044F0007C1B00208C1B00200000002000ED00E051
:104500009C1B0020A41B002000BEFDE7094A0300FD
:104510001068002805D00849C3188B4207D81360DB
:10452000704706480449C31810608B42F7D9012030
:104530004042F5E75029002000000420F82E00201A
:1045400010B5FFF7E1FFC04610B50C0082B01900AE
:10455000002A0AD0064B019200930200230005486E
:1045600001F00CFB0120FFF7CFFF034B1A00F2E72D
:10457000C43D0110D43D0110B84501100FB400B581
:10458000084883B002F0F0F9049B002B07D005A97E
:104590001800019101F012FB034802F0E5F9012037
:1045A000FFF7B2FF043E01107447011010B5014837
:1045B000FFF7E4FF143E01109A4200D2885470477E
:1045C0007047C046F8B557464E464546DE46E0B50C
:1045D00099460A9B07009A460D9B8846934615000C
:1045E0000B9E9B0710D10C9B9E420DD29D1B14006D
:1045F0000E005D4422004B46013431002020B847B4
:10460000A542F7D1B0460B9E002E27D0444675191F
:104610005346AA1B013E985D21004B46B847002E29
:10462000F6D123002C0098460D9B9B070FD55B46C7
:10463000E51A0C9BAB420AD94646984622004B46E7
:10464000310020200135B8470134A845F6D82000B4
:10465000F0BCBB46B246A946A046F8BD2C00E3E735
:10466000F0B54F464646D646C0B584B098460EAB28
:104670001B78129F994694460D9C109B119EBA0779
:1046800025D4002E4BD19C4200D3BFE001223A40FA
:1046900092461F2C00D9B8E00C9A551E302201E03A
:1046A000202C03D001342A55A342F9D85246002ABF
:1046B0000DD0A6420BD9202C44D00C9A551E302286
:1046C00001E0202C3ED001342A55B442F9D1FA063B
:1046D0004DD57A053FD4002C39D10F9B102B00D13A
:1046E00079E00F9B022B00D18AE030230C9A012441
:1046F00013704B46002B3FD02D230C9A13550134D9
:104700000C9B624600930397434602960194FFF781
:1047100059FF04B0E0BCBA46B146A846F0BD01223C
:1047200015003D40AA463A422FD04A46002A02D1FF
:104730000C323A4200D0013E9C42BAD21F2CABD977
:10474000202E27D92024FA06DAD57A0503D4A342ED
:104750002DD0A6422BD00F9B102B32D0022B20D075
:10476000202CCDD030220C9B1B191A700134202C28
:10477000C6D04B46002BBFD17B070DD43B07BFD51E
:1047800020230C9A13550134BAE79C429FD21F2C68
:1047900000D881E720249AE72B230C9A1355013483
:1047A000AEE7202CACD00C9B1B1901343AE0631E01
:1047B000012C92D00F9A102A2AD0022A2FD01C0046
:1047C000D0E7BB060ED4202C9AD00C9B1A190134CA
:1047D00078231370C4E7BB060DD478230C9A012408
:1047E0001370BFE7202C00D18AE758220C9B1B19BD
:1047F0001A700134B4E758230C9A01241370B1E7FE
:104800000C9A603301241370ACE7202400265EE785
:10481000023CBA06E9D40C9A12191C00D8E70C9A8B
:104820009246534462221A709AE7C04610B5002897
:1048300000D110BD02F04CF8FBE7C0460B0010B5EC
:10484000002802D049681B68984710BDF0B5DE46C5
:1048500057464E464546E0B59BB09B46249B89464D
:104860009846259B0B900C924046424619009A466A
:1048700001F0E5FC002800D0D8E001224046514676
:10488000774B524201F0D6FC002800D0CEE0012246
:1048900040465146734B524201F0B6FC002800D00E
:1048A000C4E0002200234046514601F0ADFC002840
:1048B00000D0B9E1424653460A9209938023289AD0
:1048C000DB001A400E92289A1A4201D10623269341
:1048D0000A9A099B1600134300D0C7E0289B0025C5
:1048E00000261B0500D49BE100230D93269A0D9B07
:1048F0009A4200DC9FE1D01A431E26938023289A17
:10490000DB001A430023002728920D93279B0024E5
:10491000BB4200D9DC1B0223289A1A400E92289A27
:10492000134203D07B427B415B421C400D9B002B1A
:1049300007D00A9809992A00330001F004FC0A9074
:104940000991002200234046514601F05DFC0028F9
:1049500005D0802000068446099961440991289A6F
:10496000414B0B9D13400493269B0A9A0293099B8B
:1049700003940092019349465B4628000C9A00F08C
:104980008BF90400002F62D0289B220098061F2379
:10499000C0179843631C984649465B466530A84754
:1049A0000D9B0025DA179C18DB0F9A465440013FF7
:1049B00001E0202D13D00AAA94461F23200063444F
:1049C0000A2101355E1901F079F93031317020008A
:1049D0000A2101F073F926000400092EE9D8052305
:1049E0000693002304930A330393534605970B9FC2
:1049F000029312AB009342465B464946380001954C
:104A0000FFF72EFE0E9B0400002B20D00C9BC51A36
:104A1000279BAB421BD91E0022005B464946202043
:104A20000135B8470134AE42F6D810E0289B424623
:104A30000493279B49460393269B0B980293534666
:104A4000009201935B460C9A00F026F904002000C6
:104A50001BB0F0BCBB46B246A946A046F0BDC0465E
:104A6000FFFFEF7FFFFFEFFFFFF7FFFF734B099F94
:104A70009C467800400D604401F0F4FB704A714B95
:104A800001F07BFB704A714B01F058FB3B03704A0D
:104A90001B0B1A4304000D00300011006D4B002267
:104AA00001F047FB6C4A6D4B01F067FB02000B0005
:104AB0002000290001F042FB01F0ECFB0D9001F019
:104AC000D1FB674A674B04000D0001F056FB002242
:104AD000654B01F033FB01F0DDFB644A0600644BDB
:104AE0002000290001F049FB040030000D000F9662
:104AF00001F0B8FB5F4A604B01F03FFB02000B0086
:104B00002000290001F015FB02000B0006000F0039
:104B100001F033FB320004000D003B00300039008F
:104B200001F00CFB002210901191544B2000290041
:104B300001F009FB0022524B01F000FB02000B00C8
:104B40002000290001F0FFFA00224E4B01F0F6FA96
:104B500002000B002000290001F0F5FA0D00802171
:104B6000040032003B000020C90501F0E2FA020017
:104B70000B002000290001F0E1FA02000B00109860
:104B8000119901F0E0FA0022314B01F0D7FA3E4BC7
:104B90000F9C9C4664440022230501F0EEFA0500B8
:104BA0000E0002000B000A98099901F02DFB002865
:104BB0000AD00D9B2800013B31000D930022304BA1
:104BC00001F0C1FA05000E00C6270D992B006331D4
:104BD0008F42BF4128997F420437090500D495E6EA
:104BE000334300D182E6099C284A2100284B0A98C9
:104BF00001F018FB002808D000222100254B0A985C
:104C000001F002FB002800D070E6269B002B00D1AB
:104C10007CE60E9B5A1E9341269AD31A269375E67C
:104C2000002304270D9371E643460A9380231B0655
:104C30005344099342E6002326935FE601FCFFFFFD
:104C4000FB799F501344D33FB3C8608B288AC63F7B
:104C50000000F03F0000F83F61436F63A787D23F39
:104C600071A379094F930A400000E03F1655B5BB88
:104C7000B16B0240EF39FAFE422EE63F00002C40B5
:104C80000000244000001840FF0300002D431CEBEF
:104C9000E2361A3F80842E41F0B54E46DE46574636
:104CA0004546E0B597B09946209E219F229B8346BA
:104CB000984607910C923B0032003000390001F019
:104CC000BEFA002800D0A9E1012230003900CA4B09
:104CD000524201F099FA002800D0E1E001223000B0
:104CE0003900C64B524201F0A5FA002800D0B7E0C7
:104CF000002230003900C24B01F09CFA002800D09D
:104D000099E0002230003900BE4B01F07DFA002806
:104D100000D090E0002200233000390001F074FA46
:104D2000002800D0B1E000230D93249B5B0501D443
:104D30000623984608AB9C461722002430234146A0
:104D4000624404E0013413550139202C01D00929B3
:104D5000F8D888463000390001F09CFA4346DA0062
:104D6000A94B05009B181A685B680892099301F02B
:104D700079FA02000B003000390001F0DAF9089AE4
:104D8000099B01F0FAF90A900B9101F0A7FA82460B
:104D900001F064FA02000B000A980B9901F0C9F9BE
:104DA00000229A4B0A900B9101F044FA002800D19E
:104DB000C0E001239C46E244504601F04FFA020055
:104DC0000B000898099901F025FA002802D0002369
:104DD0009A4601354346002B6AD008AB17269C46FD
:104DE00008956644554614E001235B4243440A217A
:104DF00028009A4600F062FF0134303137193970CB
:104E000028000A2100F05AFF092D00D8D0E0D04632
:104E10000500202CE8D10EAB98460323249A1340BA
:104E2000012B00D196E02023249A01930392239A28
:104E3000434602921EE0249B58460493239B00960F
:104E40000197039343460C9A029307994B46FFF749
:104E5000FDFC17B0F0BCBB46B246A946A046F0BD6B
:104E6000249B5B070ED40322694B24990192039182
:104E700023990291009358464B460C9A0799FFF7E5
:104E8000A1FBE6E70422634BEFE73B003200002082
:104E9000002101F04EF9012306000F000D9344E7B5
:104EA000249B0393239B0293042301935A4BE1E732
:104EB000280001F0D7F902000B003000390001F0A2
:104EC00038F9524B002206000F0001F09DF90EAB9D
:104ED000984600280AD10022300039004B4B01F0DF
:104EE000A9F9002802D1EB0700D50135202C94D078
:104EF00008AA94461723280063440A2101341E1986
:104F000000F0B4FE3031280031700A2100F0AEFE0E
:104F1000051EEBD10323249A1340012B1BD0202C18
:104F200000D180E70D9B002B35D02D224146631C1C
:104F30000A5579E700220A980B99344B01F064F97D
:104F4000002800D046E75346002B51D101239C4650
:104F5000E2443FE72024239B002BE0D00D9B002B55
:104F600003D1249A0C33134202D0239B013B239399
:104F7000239BA342D3D908AB9C461722302362441B
:104F8000202C00D14FE72399013413558C42C6D011
:104F9000202CF8D147E7249B5B0724D4249A2300D4
:104FA000120700D440E72022414601330A553BE76F
:104FB0005746089D202C00D12DE722003021404685
:104FC000002F09D00132B154202A00D123E7D34366
:104FD0001B191B18002BF5D10EAB98462E2341460A
:104FE000541C8B5482E72B224146631C0A551BE755
:104FF000DB0700D4EEE6A9E7FFFFEFFFFFFFEF7F3F
:1050000065CDCD4165CDCDC1184001100000E03F18
:10501000203E0110243E0110303E0110249B0393DA
:10502000239B029303230193004B23E72C3E0110A3
:10503000F0B5DE464E4657464546E0B59FB01C00EB
:10504000289B91460993C94AC94B8B4608901A6020
:10505000002900D118E2002320789A46002800D1C8
:105060001AE226001D005C460AE02A006F1C4B462F
:10507000089D2100A8473D0001363078002870D0F7
:105080002528F2D110239B46083B9A46043B9846BC
:10509000023B00219C46721C107816000300203B46
:1050A000DBB2102B03D8B34F9B00FB589F46030085
:1050B000303B092B32D900230A932A2868D00023D9
:1050C00098462E283ED00300683BDBB2122B1CD83A
:1050D000A94A9B00D3589F46012301321943DBE7BD
:1050E000634601321943D7E7434601321943D3E7F8
:1050F0005B4601321943CFE7534601321943CBE7F0
:1051000080235B007078194301360300253BDBB236
:10511000532BAAD8994A9B00D3589F4600270300D7
:10512000B800C01901364000C018337830381A0072
:10513000303A0700092AF3D90A901800002398464C
:105140002E28C0D180237078DB0019430300303B48
:10515000721C092B00D8A1E12A2800D1B2E1160067
:10516000B1E7A346AA462C00D14503D801235B42F0
:105170004B449A464B46524659460020089DA84744
:1051800020001FB0F0BCBB46B246A946A046F0BD09
:10519000099B40CB0A96002E03DB50780993561CDE
:1051A0008DE72838014370420A9009935078561CC5
:1051B00085E7782800D1DFE1582800D14CE26F283C
:1051C00000D14FE3622801D100F030FC10230A0027
:1051D0009A430B92692801D000F0A9FC0A230C9392
:1051E0004B0500D5D0E10B9A802311009B0019409C
:1051F0008B461A4200D0A1E2802311005B001940C7
:105200008A461A4200D0B6E313005B0600D5EDE2F1
:10521000130009991B0601D400F076FC08C91BB2E3
:10522000D8171A18424092B209919346DA0F129297
:10523000002B09D1802310220B99DB000B409143F6
:105240000B91002B00D0E4E20B9A6123920600D56B
:1052500041230EA91F228C46DBB262440A3B5F4603
:105260001395A34655460C9CB2460D9316000AE0D2
:105270003033DBB201357355A74200D2EDE2202D69
:1052800000D1EAE207002100380000F017FDCBB2A0
:105290000929EDD90D9A94466344DBB2EAE78023ED
:1052A0009B007078194301362FE77078682800D189
:1052B000CDE180230136194327E770786C2800D1AF
:1052C000BFE180235B00194301361EE7462800D169
:1052D0009BE10722099B0491073393430A9A190023
:1052E0000392424602920CC90898009201930991D8
:1052F0002A004B462100FFF7CFFC01360500BCE633
:105300002A006F1C4B46089D21002520A847013626
:105310003D00B2E68B0700D4ADE1099B2A009A4616
:105320006B1C9846534601CB21009A46089F4B467A
:10533000C0B2B8470A9B9C466544012B00D886E260
:10534000089B4746B04626004C4699463A00230043
:10535000013731002020C847AF42F7D1A14653465C
:10536000340046460993013687E6C04631500010A6
:105370005C2D0020383E01107C3E0110C83E01101B
:10538000099B04CB9B4643460992002B00D1C6E003
:1053900013789C46002B00D1BDE34346013B099A9C
:1053A0000133D0180A9F130001E0834203D05A78DA
:1053B0000133002AF9D1099A0A979B1A0B9380238B
:1053C0000A00DB001A400C92194204D00B9B4345A3
:1053D00001D943460B9302231A000A400D920B4257
:1053E00000D187E16046002800D168E10C9B002BCA
:1053F00000D10DE1A844C246099B57465B1B984665
:10540000089BB2462A0026004C46994609E0230034
:105410003100551CC8474346585D002800D126E19D
:105420002A009742F3D1A1463D00340056460D9B19
:10543000002B00D043E15B46013609931DE6099B32
:105440001A0008CA9246002B48D0212211438B46ED
:105450000EA884461F216144099500220F27A44607
:105460000D0002E0202A0CD00B003C001C40200064
:105470003730092C00D807380132A85419090F2BEE
:10548000F0D86446099D32E0DC4B20780893002375
:105490009A46002800D0E4E5002465E6434606006D
:1054A0000A9F9800C0180132400080191678030046
:1054B00030003038303B0928F3D9300098461600C8
:1054C0000A9700E6099B023604CB9046D243404639
:1054D000D2171040804609933078F4E51022080076
:1054E000904311321043834600224905B0D55B46F4
:1054F0000693082305934346049310230393002344
:10550000029316AB019200932A004B4621000898A3
:10551000FFF7A6F85346050001360993ADE5137869
:105520009C46002B00D1F7E202235B4237E72023A1
:1055300002009A43472A04D180231B011943022306
:105540009843452801D1202319430722099B049140
:10555000073393430A9A19000392424602920CC9F8
:1055600008980092019309912A004B462100FFF709
:105570006DF90136050080E510230C930C230A0019
:105580009A430B924B0503D501230B9A9A430B9236
:10559000692800D127E6642800D124E60B9A8023ED
:1055A00011009B0019408B461A4200D066E180230F
:1055B00011005B0019408A461A4200D039E21300FC
:1055C0005B0600D53CE113001B0600D4A6E2099B54
:1055D00004CB1204120C934609935B46002B00D0B7
:1055E0009AE10B9A1033110099430B91520500D4A4
:1055F00092E100239A460B9B06930A9B0593434630
:1056000004930C9B039300230CE12023194360E6D1
:10561000099B0A9A5B1B98464B4691461F00B2466F
:105620002600089C2A003B003100A0474346013574
:10563000585D0028F6D14A463400B94656460A92CB
:10564000F5E6C0239B00B078194302365DE5C02320
:10565000B0781943023658E50C230A009A431433F4
:105660001A43103B0B920C934B058DD496E7A14641
:1056700034005646DBE60A9A012A00D853E26B1E34
:105680009F18089BB04626004C4699462A002300E6
:10569000013531002020C847BD42F7D1A146340072
:1056A0004646099B3A0001CB210098467D1C4B469B
:1056B000089FC0B2B847434601360993DDE40B9B0F
:1056C0000A9AA8469A4200D8B5E694466544ED1A6F
:1056D000089B4746B04626004C4699463A002300B0
:1056E000013731002020C847AF42F7D1A14634002E
:1056F0004646A0E60B9A0A99531C914200D814E240
:105700004B199B1A1F00089BB24626004C4699462F
:105710002A002300013531002020C847BD42F7D1BF
:105720000A9BA14601330B93099B34001B78564614
:105730009C466046002800D058E67CE60722099B7C
:1057400007339343013294469C4462465F68099252
:105750001A68FB1710931193109811990300534086
:105760000E930B007B400F9394460E9A0F9B121AD8
:105770008B410E920F93FB0F6246129300233A4324
:105780009B463DD00B9A6123920600D5412300220F
:10579000DBB20EA90A3B8C4692460D9343461F325C
:1057A00062441395159655460E9E0F9FA24690464D
:1057B0000C9C14930CE03032D2B2434601355A555A
:1057C000BB4500D18AE1202D00D18AE106000F00FF
:1057D000220000233000390000F0AEFAD2B2092ACC
:1057E000E9D90D9B9C466244D2B2E6E7FF230999B2
:1057F00004C913401A00099117E5C046C1450010BD
:105800000B9A1033110099430B915205BAD500231E
:105810009A460B9B06930A9B0593434604930C9B65
:105820000393129B02935346019316AB2A000093F5
:1058300021004B460898FEF713FF013605001CE4D3
:10584000FF22099B02CB11408B460993C5E65346C4
:10585000454609930136FFF710FC56465C46AA46BA
:10586000139DD6E708230C930B910B99642800D065
:1058700084E60B9B5B0500D586E6B4E40722099B12
:1058800007339343013294469C44624609921A6856
:105890005B6810009B4613005A46134307D10B9ACE
:1058A0001033110099430B91520500D5A1E60B9AD4
:1058B0006123920600D541230022DBB20EA90A3BE8
:1058C0008C4692460D9343461F3262445F461295C2
:1058D000A34655460400B24690460C9E13930DE035
:1058E0003032D2B2434601355A550023BB4200D173
:1058F00000E1202D00D100E104000F003200002360
:105900002000390000F018FAD2B2092AE8D90D9B1C
:105910009C466244D2B2E5E70B9A6123920600D519
:105920004123DBB20EA90A3B1F228C460D932300B4
:1059300062445C461295170055469B46B2460C9E43
:1059400008E03033DBB201357B55B4420ED3202D55
:105950000CD004003100200000F0B0F9CBB20929CE
:10596000EFD90D9A94466344DBB2ECE756465C46A9
:10597000AA46129D3FE6099B1A0008CAD91713923E
:105980005A184A409246DA0F1292002B08D180230F
:1059900010220B99DB000B4091430B91002B2BD174
:1059A0000B9A6123920600D541230EAA1F27944625
:1059B000DBB20A3B0D9567445D460993A346544606
:1059C000B2460C9E08E03033DBB201357B55B44261
:1059D0000ED3202D0CD004003100200000F06EF911
:1059E000CBB20929EFD9099A94466344DBB2ECE7BC
:1059F00056465C46AB460D9D0B9B2A0006930A9BC0
:105A000021000593434604930C9B08980393129B33
:105A1000013602935B46019316AB00934B46FEF7AB
:105A20001FFE139B05000993FFF727FB02230C932E
:105A30001AE7099B04CB92461293002A08D18023CF
:105A400010220B99DB000B4091430B91002B2BD1C3
:105A50000B9A6123920600D541230EAA1F27944674
:105A6000DBB20A3B0D9567445D460993A346544655
:105A7000B2460C9E08E03033DBB201357B55B442B0
:105A80000ED3202D0CD004003100200000F016F9B8
:105A9000CBB20929EFD9099A94466344DBB2ECE70B
:105AA00056465C46AB460D9D0B9B2A0006930A9B0F
:105AB00021000593434604930C9B0898039300230D
:105AC00002935B46019316AB00934B46FEF7C8FD6D
:105AD000129B050009930136FFF7CFFAB44200D8B4
