:020000041000EA
:1000000000B5324B212058609868022188439860DF
:10001000D860186158612E4B002199600221596106
:100020000121F02299502B49196001219960352056
:1000300000F044F80222904214D00621196600F024
:1000400034F8196E01211966002018661A6600F04E
:100050002CF8196E196E196E052000F02FF8012189
:100060000842F9D1002199601B49196000215960AB
:100070001A491B48016001219960EB211966A021F2
:10008000196600F012F800219960164914480160C1
:100090000121996001BC002800D000471248134993
:1000A000086003C880F30888084703B5996A0420EC
:1000B0000142FBD001200142F8D103BD02B5186610
:1000C0001866FFF7F2FF186E186E02BD00000240BE
:1000D000000000180000070000035F00212200005C
:1000E000F4000018222000A00001001008ED00E03C
:1000F00000000000000000000000000074B24E7A12
:1001000000200420F7010010C3010010C5010010F9
:10011000C1010010C1010010C1010010C101001097
:10012000C1010010C1010010C1010010C701001081
:10013000C1010010C1010010C9010010CB01001065
:10014000CD010010CD010010CD010010CD01001037
:10015000CD010010CD010010CD010010CD01001027
:10016000CD010010CD010010CD010010CD01001017
:10017000CD010010CD010010CD010010CD01001007
:10018000CD010010CD010010CD010010CD010010F7
:10019000CD010010CD010010CD010010CD010010E7
:1001A000CD010010CD010010CD010010CD010010D7
:1001B000CD010010CD010010CD010010CD010010C7
:1001C00000BE00BE00BE00BE00BE00BEEFF3058054
:1001D000103800BEF2EB8871748D0110948D0110FF
:1001E0003402001090A31AE700201F49086006C8D7
:1001F00081F3088810471D48006800282FD10DA4FE
:100200000ECC002902D000F012F8F9E71849194A7B
:10021000002000E001C19142FCD1174988471749ED
:1002200088471749884700BEFDE701C901C29A42C5
:10023000FBD37047948D0110C0000020A41B002048
:1002400078A80110000004200000042078A8011004
:10025000001004200010042000000000704709482E
:1002600006F01AFB0047000008ED00E0000000D097
:10027000A81B0020E42E0020A9500010052000102B
:10028000D15100105756000006005250ABB36053D6
:10029000C04D011006005250861C0302E04D0110B3
:1002A000060052505422A29DE84D01100500525004
:1002B000DE65F46878A80110F8B5C0460448054B1F
:1002C00010B5834203D0044B002B00D0984710BDDB
:1002D000A41B0020A41B00200000000006480749C2
:1002E000091A8B10C90FC91810B5491003D0044B57
:1002F000002B00D0984710BDA41B0020A41B002099
:100300000000000010B5074C2378002B09D1FFF73F
:10031000D5FF054B002B02D0044800E000BF0123AD
:10032000237010BD501E0020000000004049011045
:10033000054B10B5002B03D00449054800E000BF71
:10034000FFF7CCFF10BDC04600000000541E002087
:1003500040490110836B013383637047F8B5060091
:10036000040005000700164B3C36436630000BF0D6
:10037000F9FDA36C68359437002B04D001223000BE
:10038000616E0BF097FB90260E4B2800A3510BF0EB
:10039000E9FD636F002B04D001222800A1590BF066
:1003A00089FB094B3800BB620BF0DCFDFB68002BBE
:1003B00005D0BC2301223800E1580BF07BFBF8BDCF
:1003C000404901104C4901105C49011094239B00E5
:1003D000F0B5464698463C23D6464F469A462C33BF
:1003E00099460400C0B5070005002C4E82444666BD
:1003F0008044814450460BF0B5FDA36C3D37FF3778
:100400009435002B04D001225046616E0BF052FB54
:1004100090234846E6509A460BF0A4FD636F002BEC
:1004200005D0534601224846E1580BF043FB280013
:10043000AE620BF097FDEB68002B05D0BC230122C8
:100440002800E1580BF036FB9E2300229B00E318A6
:100450001A7040460BF086FD4346DB68002B06D041
:100460009E239B0001224046E1580BF023FB230012
:1004700001226533FF331A7038000BF073FDFB68FF
:10048000002B06D0B2235B0001223800E1580BF0AC
:1004900011FBE0BCBA46B146A846F0BDD0520110EF
:1004A0009F2301229B0070B5C5182833C3181A700A
:1004B000040028000BF056FDEB68002B06D0A923A2
:1004C0009B0001222800E1580BF0F4FA70BDC046F1
:1004D00070B5836B84B00293F023C3580500040009
:1004E000986A06F075FE0C4E00900191C0351121FE
:1004F0000A4A300006F066F92800AE620BF032FDC1
:10050000EB68002B05D0E82301222800E1580BF00E
:10051000D1FA04B070BDC046642400206C490110BB
:10052000F8B5154B0500040019000600134A3C35C8
:1005300081CA81C1636628000BF014FDA36C693683
:10054000FF36002B04D001222800616E0BF0B2FAB6
:10055000230001229133FF331A7030000BF002FDAB
:10056000F368002B06D0C8235B0001223000E1585D
:100570000BF0A0FAF8BDC0465024002080490110BD
:10058000164AF8B51100060004000500144B3C366D
:1005900081CB81C11B7830000B7062660BF0E2FCEE
:1005A000A36C9535FF35002B04D001223000616E1D
:1005B0000BF080FA23000122BD33FF331A702800AC
:1005C0000BF0D0FCEB68002B06D0DE235B00012291
:1005D0002800E1580BF06EFAF8BDC0463C2400201C
:1005E00088490110F0B5DE4657464E464546AA23D7
:1005F000FA22E0B59B00C558364952008946698DFC
:1006000068238A4289419A46B13383B0FF33494215
:100610009846EB8D0191A98D9A429B418A42924165
:100620005242040006000700112182445B420092FE
:100630008044294A484606F0C5F890234A46504669
:10064000E2509B460BF08EFC636FC136ED37FF36F0
:10065000FF37002B05D05B4601225046E1580BF0D6
:1006600029FA1E4806F0CEFF4246EB8D4046138520
:100670000BF078FC4346DB68002B06D090239B00F0
:1006800001224046E1580BF015FAAB8D38003B854E
:100690000BF068FCFB68002B06D085239B00012231
:1006A0003800E1580BF006FA6B8D300033850BF003
:1006B00059FCF368002B06D0F4235B0001223000C4
:1006C000E1580BF0F7F903B0F0BCBB46B246A946BF
:1006D000A046F0BD7824002094490110A4490110DF
:1006E000FE2070B5C00009F0F1FF0221EC23494261
:1006F000C1505D33FF33C1508933FF33C2189C238F
:100700005B00C250C2182C3BC250962200238824A2
:10071000520083502C3AFF3A64000251E934FF340E
:100720000151BB21C9004418BC2189004450441820
:100730002C394450203143501C3942506E4C4031CA
:10074000435008394450D724043140504831435075
:10075000043143506949A400015104340351684DE8
:1007600010340251083C055102250434005148342C
:100770000351043403510C34015104340351103437
:100780000551604D083C05510325043400515E4C71
:100790000351043403515D4C0151043403511034AE
:1007A00005515B4D083C055104255A4C00515A4CEB
:1007B000035104340351594C015104340351103492
:1007C0000551574D083C05510525564C0051564CD6
:1007D000035104340351554C015104340351103476
:1007E0000551534D083C05510625524C0051524CC1
:1007F000035104340351514C01510434035110345A
:1008000005514F4D083C055107254E4C00514E4CAB
:100810000351043403514D4C01510434035110343D
:1008200005514B4D083C05514A4C00514A4C03516F
:1008300004340351494C0151C721C9004350484970
:1008400043500539FF3944181131FF3144504418E1
:10085000444944500431425043494254434943506F
:10086000DA2189004418D921C9004450441840496C
:100870004450043142503F4942543F49435087213C
:10088000C9004418E221C900445044183B4944506F
:10089000043142503A4942543A4943509421C900E4
:1008A0004418EB21C90044504418374944500431DE
:1008B00042503649425436494350A121C900441898
:1008C000F421C90044504418324944500431425084
:1008D00031494254C02189004418FD21C9004450C7
:1008E0002E4943500C3144182D4944500431425094
:1008F0002C4A835470BDC0465D030010AC49011002
:1009000055030010D10400101C0400002C0400004A
:10091000CD0300103C040000840400009404000097
:1009200021050010A4040000EC040000FC040000F9
:10093000810500100C05000054050000640500004E
:10094000A104001074050000BC050000CC050000E7
:10095000E5050010DC050000240600003406000058
:1009600074060000540600005C060000BC0600008F
:100970009C060000A406000004070000E406000036
:10098000EC0600004C0700002C07000034070000B4
:1009900094070000740700007C070000DC070000DB
:1009A000BC070000C40700002823426AD25C083B51
:1009B000C2547047202370B5C35C0400002B3BD1A8
:1009C0002123C35C002B1CD00DF0D8FB2000B430D9
:1009D00003001C490B435B071CD18B1CC31A042B5F
:1009E00018D94A880B8812041A43CB888D881B04B7
:1009F0002B43026043600B89283803860BF0B2FA60
:100A000070BD0DF083FB2000B43003000E490B4392
:100A10005B07E2D0B42320000A888C30E2524A8877
:100A20000233E2528A880233E252CA880233E25227
:100A30000A890233E252E1E70DF096FA21230122FE
:100A4000E254DDE7642D00204C2D00208A2070B593
:100A5000800009F03BFE03002C334362343383658E
:100A600084230065D022C05000239C241E4983505B
:100A7000083A815004328050483283501B49043276
:100A800083500C32815004328350283AFF3A184D7B
:100A900064000251083C05510434005148340351AC
:100AA000043403510C340151C8210400490043505F
:100AB0003C314350C8340C31445044182C39445014
:100AC00004314250183942507C3143500100882390
:100AD00031319B00FF31C150C1182C3BC150043350
:100AE000C250183BC25070BDA9090010AC4901109A
:100AF000B50900108823F0B5076AC5583433C458C7
:100B00003B7D466D83B0002B0CD1337D002B1AD179
:100B10002B7D002B28D1237D002B36D10CF096FFA6
:100B200003B0F0BD00238022002100200093103389
:100B30000CF0DEFE012300220021B86A0CF0B2FCAA
:100B4000337D002BE4D0002380221021002000936D
:100B500010330CF0CDFE012310220021B06A0CF0FE
:100B6000A1FC2B7D002BD6D0002380222021002049
:100B7000009310330CF0BCFE012320220021A86A50
:100B80000CF090FC237D002BC8D000238022009322
:100B90003021002010330CF0ABFE01233022002165
:100BA000A06A0CF07FFCB9E7084B10B51A78002A50
:100BB00000D010BD01321A700CF0FAFB04480CF0A2
:100BC000F1FB00200CF000FCF3E7C046D42E00201F
:100BD000846B0110CA2070B5800009F077FD030016
:100BE000283303623433436502008023C0649032AB
:100BF000C0500833C2502C33C05034320833C25076
:100C00002C33C050F8220023B02430498350083AD6
:100C1000815004328050483283502D490432835031
:100C20000C32815004328350503AFF3A294D64000F
:100C30000251083C05510434005148340351043436
:100C400003510C340151DC21040049004350F034BD
:100C5000483144500C3943500C3144182C3944501D
:100C6000043142500431435460314350A83C0C31AC
:100C7000445045182C3945500431822542500421F6
:100C8000AD0041517C3543510C35445146192C3D42
:100C9000465104354251183D41517C3543510C3584
:100CA000445146192C3D465104354251183D41519D
:100CB0007C354351C8239B00C450C4182C3BC450FE
:100CC0000433C250183BC15070BDC046A90B001080
:100CD000AC490110F50A0010A5239B0070B5050072
:100CE000C61803000122D135F933FF33FF351A70DE
:100CF000040028000BF036F9EB68002B06D0FC232B
:100D00005B0001222800E1580AF0D4FEAF23012243
:100D10009B00E3181A7030000BF024F9F368002BE5
:100D200006D0AF239B0001223000E1580AF0C2FE3A
:100D300070BDC046BC239B0070B5C518AC3BC35802
:100D400004009B6A2800AB620BF00CF9EB68002BE7
:100D500006D0C6239B0001222800E1580AF0AAFE13
:100D600070BDC046C7239B0070B5C6182C33C5188C
:100D7000C36A0400B36230000BF0F4F8F368002B90
:100D800006D0D1239B0001223000E1580AF092FEE8
:100D9000616BE06A06F0A1F9A86228000BF0E2F8A6
:100DA000EB68002B06D0DC239B0001222800E158D1
:100DB0000AF080FE70BDC046C7239B0070B5C51801
:100DC0002C33C6189C231B01C318836101230377AE
:100DD000C36A0400AB6228000BF0C4F8EB68002B78
:100DE00006D0D1239B0001222800E1580AF062FEC0
:100DF000616BE06A06F071F9B06230000BF0B2F896
:100E0000F368002B06D0DC239B0001223000E15860
:100E10000AF050FE70BDC046C7239B00F0B5C7184E
:100E20002C33C6189C23C6461B01C31800B583612A
:100E300001230377836A0400191C006A984606F0B0
:100E400038F9184906F035F94146051CE062606A38
:100E500006F02FF9134906F02CF920633800BD6223
:100E60000BF080F8FB68002B06D0D1239B000122F9
:100E70003800E1580AF01EFE616BE06A06F02DF9B9
:100E8000B06230000BF06EF8F368002B06D0DC2364
:100E90009B0001223000E1580AF00CFE80BCB846ED
:100EA000F0BDC0460000C842FE23F0B5C6460600AD
:100EB0005B00C758C833C518BB6A00B50400AB62F5
:100EC00028000BF04FF8EB68A136FF36002B06D058
:100ED000BB239B0001222800E1580AF0EBFDA0682B
:100EE00009F026FA06F04AF800221B4B05F073FFC2
:100EF00006F04CF8051CB86A06F036F9A16B06F04E
:100F0000D2F8E16B8046281C06F0CDF8011C404663
:100F100006F0CFF806F05CF9104A114B05F075FFAA
:100F2000104B002205F057FF06F030F8B062300099
:100F30000BF018F8F368002B06D0E4235B000122C5
:100F40003000E1580AF0B6FDB86AE56306F00CF926
:100F5000A06380BCB846F0BD65CDCD41C3718BB6F2
:100F600065BCB93F00807640094B10B5C31883615A
:100F7000012303770400806809F0DAF905F0FEFF29
:100F80000022044B05F027FF06F000F8606610BD54
:100F9000D809000065CDCD4170B50400806809F026
:100FA000C7F905F0EBFF00221E4B05F014FF05F01A
:100FB000EDFF616E06F077F8216B06F08EF8011CEC
:100FC000E06A06F070F80021051C06F0C3F800285E
:100FD00000D170BDC7239B00E6183000B5620AF04F
:100FE000C1FFF368002B06D0D1239B000122300003
:100FF000E1580AF05FFDD223606B9B00291CE618C4
:1010000006F06BF8B06230000AF0ACFFF368002B1A
:10101000DFD0DC239B0001223000E1580AF04AFDBA
:10102000D7E7C04665CDCD419C23F0B5C258DE461A
:1010300057464E4645463433C15834330400C358EE
:10104000C720E0B5800081462C308246206C9BB0E2
:101050001792189119931390128DA1441092821A2D
:101060009346626CA2441492098D521A0E92A26C9D
:10107000159116921B8D1193D31A0F935423E55A91
:101080005D452BDA584606F06FF80E9B9D422BDA31
:10109000E76C0F9B011C381C9D4200DB2CE106F025
:1010A0001CF8236D061C98465B46D817C01AC00F63
:1010B000DB0FC01A0E9B584306F056F8414606F067
:1010C0000CF8051C0F9806F04FF812900E9806F0D9
:1010D0004BF8414606F001F8804625E000239B4688
:1010E0000E9B00209D42D3DB0F9B9D4200DAEDE07A
:1010F000E76C391C05F0F1FF236D0021061C181C5C
:10110000984605F0EAFF002105F0E7FF0021051CE5
:10111000404605F0E2FF002105F0DFFF00231293B7
:10112000002380460F930E93291C301C05F0BEFF50
:101130001299061C381C05F0D0FF414605F0B6FF99
:10114000A36D051C9846109B434500DBF7E0424623
:10115000D01A06F009F8391C05F0BFFF7B4905F0ED
:10116000BCFF011C301C05F0A1FF061C119B434570
:1011700000DBDEE04246D01A05F0F6FF391C05F030
:10118000ACFF724905F0A9FF011C281C05F08EFF79
:10119000051C216EE06A05F0A0FF73005B08129346
:1011A0006B005B08191C9846071C05F0D3FF431E13
:1011B000984112990D90381C05F0CCFF431E9841C0
:1011C0000C90381C06F004F80A900B91281C05F0CE
:1011D000FFFF08900991301C05F0FAFF0F9B069065
:1011E000079105930E9B149A04935B460393119BFE
:1011F00013990293159B56480193109B0093169BDD
:1012000006F054FBE36A216E181C9B4605F065FF4F
:10121000071C011C129805F08FFF00280AD1301C12
:10122000002105F097FF3E1C002803D180231B06F8
:101230009C4666444046391C05F07EFF00280AD1D2
:10124000281C002105F086FF3D1C002803D18023C7
:101250001B069C466544311C584605F027FF4B464B
:10126000986248460AF07EFE4B46DB68002B06D0AB
:10127000D1239B0001224846E1580AF01BFC616B18
:10128000E06A05F02AFF291C05F010FF534698621A
:1012900050460AF067FE5346DB68002B06D0DC237D
:1012A0009B0001225046E1580AF004FC179B1B8D5D
:1012B0002364189B1B8D6364199B1B8DA3641BB057
:1012C000F0BCBB46B246A946A046F0BDE76C011C87
:1012D000381C05F002FF0021061C206D05F0FDFE04
:1012E000002105F0FAFE051C0F9805F03DFF0023D4
:1012F000A84612900E9317E705F0EFFE236D061C2B
:1013000098465B46D817C01AC00FDB0FC01A0E9B59
:10131000584305F029FF414605F0DFFE0021051C7A
:10132000404605F0DAFE00231293002380460F9317
:10133000FAE6E06D834200DC2BE7C01A1CE7E06DA3
:10134000834200DC12E7C01A03E7C046CDCCCC3D97
:10135000B0490110F0B59F20C646000100B509F064
:10136000B5F9030070338366020094230221C05054
:10137000A4320833C2502C33C05034320833C25028
:101380002C33C05034320833C2502C33C050343266
:101390000833C2502C33C05034320833C2502C337F
:1013A000C0504942F833C1505133FF33C218A13BFA
:1013B000FF3BC250C2182C3BC2508D22002392002A
:1013C000862483500122A40002518924E4000519D7
:1013D000C13CFF3C055105192C3C055120340351FB
:1013E0001C3C025160340151B4340151E021A54C40
:1013F0008900435008394450F524043140504831A5
:10140000435004314350A049A40001510434035116
:10141000103402519D4D083C0551043400519C4C40
:101420008A250351043403519A4C9B4E01510434D4
:1014300003510224ED004451083D46510326974DC7
:1014400004274051964DA046435104354351954DD4
:10145000033441510435435110354651924E083DF5
:101460004651A226914DF6004051914D435104350D
:101470004351904D4151904D45198551103687513A
:101480008E4F083E87518E4EAF2780518D4EFF0004
:101490008351043683518C4E81519C263601861926
:1014A000C6511037C451894C083FC4510624884F97
:1014B000C051884FC3510437C351874FC1510437BE
:1014C000C6511037C451854C083FC451844F854CD8
:1014D000C051854FC3510437C351844FC1510437A4
:1014E000C651CB260727F6008751814F083E87510A
:1014F000804ED6278051804EFF00835104368351A1
:101500007E4E815106190824C6511037C4517C4CB7
:10151000083FC4517B4F4446C0517B4FC3510437F1
:10152000C3517A4FC151E321C90046507849435015
:10153000DE2189004618EC21C9004650461875493D
:1015400046500431425074494254744943504D3915
:10155000FF3946185931FF314650461870494650F8
:10156000043142506F494254A321C9004618FE215C
:10157000C90046506C4943500C3146186B494650DF
:10158000043142506A4943546A4943509621C90084
:101590004618694946504618684946500431425039
:1015A00018394250664988264350B021C900411875
:1015B000360181518719634E8751634E8251183E1F
:1015C0008451624E8351624E81518719614E875119
:1015D00004368251604E00278451604E83510C3690
:1015E00081515F49861946505E490026425018399C
:1015F00044505D494350BD21C90044185B494450E3
:1016000044185B494450043142505A4942505A49A7
:101610004350D721C90044189A2109014450441865
:10162000564944505649574C4250183942500200CE
:1016300021490C32425054494450043141180E6043
:101640004F605249524C4354083142505149445022
:10165000514941180E604F609D21090143542149B1
:1016600042504E4A4E4981500432821816605760EB
:101670004C4A835405614561C3608361037780BC34
:10168000B846F0BDD90C0010AC490110A90E0010ED
:101690002C0400003C040000350D00104C04000038
:1016A00094040000A4040000190E0010B40400000B
:1016B000FC0400000C050000A8090000650D0010E6
:1016C0001C050000640500007405000029100010CE
:1016D00084050000CC050000DC050000690F001047
:1016E000EC050000D80900003406000044060000A4
:1016F000990F0010540600009C060000AC06000084
:10170000B90D0010BC06000004070000140700001B
:1017100054070000340700003C0700009C0700004D
:101720007C07000084070000E4070000C4070000F5
:10173000CC0700002C080000380800000C0800004E
:10174000740800005408000058080000BC0800009D
:10175000C80800009C080000880800000409000078
:10176000E4080000E80800004C09000058090000E7
:101770002C090000180900009409000074090000F9
:101780007809000040490110AC090000B8090000C8
:10179000284A0110C4090000C8090000DC09000043
:1017A000304A0110E8090000036C9B6A83637047AC
:1017B000436F9B6AC3637047F0B54E46DE4657469B
:1017C0004546A823E0B5C6583433C358070083B054
:1017D0008068994608F0A8FDBA6AFB6A04000D000B
:1017E000002B11DD20002900801A9941002915DC09
:1017F000002900D17AE0BC62FD6203B0F0BCBB46B8
:10180000B246A946A046F0BD002BF4D1002AF2D082
:1018100020002900801A99410029E9DD88235B0016
:101820009A46B36ABA449B4605F0C8FC324905F0B3
:1018300054FC05F0CDFC5B463A6B00900191981A80
:1018400005F058FB2D4A2E4B05F0DFFA00222D4BF8
:1018500005F0C1FA009A019B05F0BDFA05F096FB70
:101860004B46796B9B6A061C581A994605F042FB59
:10187000224A234B05F0C9FA0022224B05F0ABFAAD
:10188000009A019B05F0A7FA05F080FB5B463B63DD
:101890004B46311C7B638046B86B05F004FC534615
:1018A000986250460AF05EFB5346DB68002B06D078
:1018B0009C235B0001225046F9580AF0FBF83E00D9
:1018C000F86B414605F0EFFB4136FF36B062300061
:1018D0000AF048FBF368002B00D18CE7B4235B00CF
:1018E00001223000F9580AF0E5F884E7064B9842E7
:1018F00000D880E792E7C0465F708930C3718BB62D
:1019000065BCB93F008076403F420F00F22070B5C1
:10191000800008F0DBFE0300483303643433436780
:101920000200A023C066B032C0500833C2502C332E
:10193000C05034320833C2509E222C33C0500B3B6F
:10194000FF3B52008350303283500023F02436494D
:101950000C328350083A8150043280504832835010
:101960003249043283500C32815004328350D03AD1
:10197000FF3A2F4D64000251083C05510225043402
:10198000005148340351043403510C3401510434E0
:10199000035110340551274D083C055104340051C2
:1019A00048340351043403510C340151A82104007C
:1019B0008900435071343C314350FF340C31445062
:1019C00044182C3944500431AA2442500500042103
:1019D000A4000151D9357C340351FF350C34055135
:1019E00005192C3C0551DE2504340251183C0151E7
:1019F0007C3403512D3CFF3C0419AD004451461981
:101A00002C3D465104354251183D41517C354351DE
:101A1000F0239B00C450C4182C3BC4500433C25064
:101A2000183BC15070BDC046A9170010AC49011049
:101A3000B1170010B9170010036A70B59C6A002135
:101A4000201C05F07FFBFE21431E984164006408C2
:101A500005008905201C05F07DFB002805D00748FE
:101A6000290001220CF084FC70BD0549201C05F002
:101A700034FB05F09BFB80B2F2E7C046FF0F00008D
:101A800000F07F45436D70B59C6A0021201C05F075
:101A900059FBFE21431E9841640064080500890536
:101AA000201C05F057FB002805D00748290000221C
:101AB0000CF05EFC70BD0549201C05F00EFB05F026
:101AC00075FB80B2F2E7C046FF0F000000F07F45D3
:101AD00010B501200CF01EFC10BDC046A62070B54C
:101AE000800008F0F3FD03002833036234334365BC
:101AF0008023C0649022C0500023F8242D498350D5
:101B0000083A815004328050483283502A490432C6
:101B100083500C32815004328350284DE73A0251F1
:101B2000083C055102250434005148340351043463
:101B300003510C3401510434035110340551204D2C
:101B4000083C055104340051483403510434035116
:101B50000C340151DC2104004900435088344831E1
:101B600044500C3943500C3144182C394450043142
:101B7000425004314354113C60314350FF3C0C311E
:101B8000445044182C3944500431822442500421DA
:101B9000A40001517C3403510400A42359349B0058
:101BA000FF34C450C4182C3BC4500433C250183BFB
:101BB000C15070BDD11A0010AC490110391A001083
:101BC000851A0010F0B5C646C36A04009E6A816A91
:101BD00000B50700301C05F069FA8823216A051C4E
:101BE000A062301C984605F078FA616A061C281C31
:101BF00005F073FA011C301C05F058FA43466037B3
:101C0000E05038000AF0AEF9E36E002B05D04346F1
:101C100001223800E15809F04DFF80BCB846F0BD04
:101C2000A02010B5400008F051FD03003433C3621A
:101C300098220023104980658350083A815004326D
:101C40008050483283500D49043283500C32815009
:101C5000043283503C32835002003933FF339032D8
:101C6000C250C2182C3BC25001220433C250183B50
:101C70000332C25010BDC046C51B0010AC49011054
:101C8000F0B5C6460500060080211F4A040000B5D5
:101C9000D06884350006000F54360130490053687F
:101CA0000B42FCD10138176A0028F8D18021D06896
:101CB000154A0004000F7F420130890053680B422F
:101CC000FCD10138536A0028F8D15B423000E76745
:101CD00098460AF047F9236E002B04D00122300009
:101CE000E16F09F0E7FE43462800AB620AF03AF9DB
:101CF000EB68002B05D0AC2301222800E15809F045
:101D0000D9FE80BCB846F0BD00002050F0B5D646E4
:101D10004F4646460025C0B53D4C8AB020003D499F
:101D200007F05AFF0223200008220021009508F046
:101D30005BF800220121082001F0EAFC00220121C9
:101D4000092001F0E5FC8026F827C02376021B035A
:101D50007F0202A9102206A89A46049302960397CE
:101D6000059505F0EBFA2C4B06A9102202A899461E
:101D7000079305F0E3FA8023DB020593274B20004D
:101D8000039380231B0398460493002202AB002197
:101D900008F082F801222368200013432360012108
:101DA000022300950B3208F01FF8002201210C20BD
:101DB00001F0AEFC002201210D2001F0A9FC5346E8
:101DC00002A9102206A8049302960397059505F030
:101DD000B5FA4B4606A9102202A8079305F0AEFA01
:101DE000C023DB0205930E4B0022039343460121DF
:101DF0000493200002AB08F04FF80222236813433B
:101E000023600AB0E0BCBA46B146A846F0BDC04661
:101E1000000020503C4A01108077010080770108C3
:101E20008077010C862070B5800008F04FFC03001D
:101E300028330362C022002394242049C0648350C5
:101E4000083A815004328050483283501C49043291
:101E500083500C32815004328350183AFF3A194DA6
:101E600064000251083C05510434005148340351C8
:101E7000043403510C340151C02104004900435083
:101E8000B834483144500C3911344350FF342039B0
:101E900044500431425004314354603143500100F6
:101EA000842321319B00FF31C150C1182C3BC1500C
:101EB0000433C250183BC25070BDC0460D1D001007
:101EC000AC490110811C0010F0B5070004000600A9
:101ED000050087B003A919480BF0AEFE039B5437E9
:101EE000E36738000AF03EF8236E8436B435002BE1
:101EF00004D001223800E16F09F0DCFD049B3000C2
:101F0000B36201930AF02EF8F368002B05D0AC23DE
:101F100001223000E15809F0CDFD059B2800AB629D
:101F20000AF020F8EB68002B05D0DC230122280002
:101F3000E15809F0BFFD07B0F0BDC046402D0020BC
:101F4000054B10B51A78002A00D010BD01320348A5
:101F50001A700BF027FEF8E7D52E0020402D002048
:101F6000922070B5800008F0B1FB030028330362B3
:101F7000F0220023AC242049C0648350083A8150E9
:101F800004328050483283501C49043283500C3252
:101F9000815004328350483AFF3A194D640002518F
:101FA000083C0551043400514834035104340351B2
:101FB0000C340151D821040049004350E834483121
:101FC00044500C3911344350FF342039445004310B
:101FD0004250043143546031435001009023513149
:101FE0009B00FF31C150C1182C3BC1500433C2507B
:101FF000183BC25070BDC046411F0010AC490110D3
:10200000C91E001010B5002100200AF0E5F810BD2F
:102010007047C0460A4B01211A68002300B589B0F9
:10202000069305930491029301931C3106330391A7
:10203000009300210133034809F0A2FE09B000BD5E
:1020400098210020C01C0020014B03600120704734
:10205000C01C0020F0B5DE4657464E464546E0B56A
:10206000A9B0FEF73DFB00250700FE4EFE4C866042
:10207000BC62FD620424FD4B01213B637C63C023F1
:102080009B009C46BC446246736EF948002438624B
:1020900079621A600023BB63CC23DB009C46BC44FE
:1020A0006246002313605460CD23DB009C46BC4491
:1020B00063460025EC4C00221C605D60F36D00253A
:1020C0009C46C823DB00FC1863461C60E94BFA50B1
:1020D000D522D200BC180023002222606360D622E1
:1020E000D2009046B8444246E34C00231460556049
:1020F000D122D200BC18624654600022DF4C8025F9
:102100003A51DE22D200BC18083220606160BC184F
:10211000002222606360DA246246E4003C19946085
:102120000022D74CD14B3A512C343C1920606160CD
:10213000E821E3200424C9007918C0000B604C603A
:1021400039186046C160F020CE49C0007A500321A2
:102150003C18CD48C54B20606160F1200424C000CC
:1021600039180B604C60EC21C9007B1861460B618B
:10217000C64B0024FA50D02292002D06BB186832BC
:102180001C605D60BB1868321C605D60BB18683203
:102190001C605D60BB1868321C605D60BB181C6011
:1021A0005D60A923C321DB00D032FB181C605D6099
:1021B000C900BB181C605D607B181C605D60FEF789
:1021C00045FC0221C02349428660C1500300884675
:1021D00009338162C165FF33033101841C605D6096
:1021E0009C66DD668A460090FEF7F4FC4246434654
:1021F000426282658E3286608350343283500200A0
:10220000736EF0325A6003003133FF331C605D603F
:102210009C66DD660490FFF79DF8E62345465B006B
:102220008660C5502D3BFF3BC566C5503433C55055
:102230003433C5503433C5503433C550A325736E81
:10224000ED0042199A60924B00250362914B0A22DD
:1022500043628023DB058362FE239B0543638E4B31
:102260008563C36403655423C563C252AF23B4229C
:10227000A946E8255B008265C365884BED00040034
:1022800003660021431900201860596000210835B9
:102290006319283D62190025814818605960F36D63
:1022A00000205A617F4A0021A550F125ED006219F6
:1022B0001060516000217C4808356219283D10608B
:1022C00051606219794D9A61794B6219EE25E2509D
:1022D00080220021AD0012066319683519605A602A
:1022E0006319683519605A606319683519605A6056
:1022F0006319683519605A606319683519605A6046
:102300006319683519605A606319683519605A6035
:102310006319683519605A606319250019605A609D
:10232000F36F0C355B681D60FFF7F0FAFC239B052B
:102330000362FA239B0543624246AC234146866012
:1023400042648267C250E2320500815000200021C1
:10235000A862E962286369634846A863E8632800C5
:1023600080220021B1301206FF30016042608620D9
:1023700080002B1819605A60A0239B00EB1819608D
:102380005A60FFF7ABFB4246426282650200736E01
:1023900088328660DA600300802200211206C8338A
:1023A0009966DA6619605A6068339966DA6605904C
:1023B000FFF736FC296A8C220162696A86604162F5
:1023C0004146815001634946030080228162002119
:1023D000D033120619605A600290FFF721FC296A77
:1023E00086600162696A0200416241468C20115098
:1023F0001163494603929162D0321300802200217A
:10240000120619605A60FFF70DFD43468021866071
:1024100089464350B021435001004362736EB83186
:102420001961802240310B000021120619605A60A8
:102430009966DA668346FFF793FD42464946866011
:102440004250303142504146736E0600E2328150B4
:102450004162E83058613300802200212933FF3384
:1024600028E0C046C01C002000E1F50500C817A800
:1024700000F2052A7C06000000CA9A3BC406000050
:102480000C0700005407000000D6117E9C070000D6
:1024900052B83A41CDCCCC3F52499D39CDCCCC3D00
:1024A000809698005C070000404B4C00D809000063
:1024B000A4070000120619605A609966DA66CA23FA
:1024C000069603269B00FE503A0004310320CD26D9
:1024D00008F0DEF8B600B8513A000421032008F0F5
:1024E000D7F8043EB8513A000421032008F0D0F890
:1024F00050218C462C31BC4466468C46A822BC44F4
:102500006146CB2394469B00BC44F8500996066074
:10251000664686600C96002641600A9151466433F7
:10252000FE506833F9503A000331012008F0B0F84A
:10253000FE493A0078500421012008F0A9F88022D1
:10254000D200B85004213A00012008F0A1F8FF237E
:102550009B00F850D4239C46BC44634603600E9312
:102560008C230522DB00FA5004213A00052008F0F4
:102570008FF8EF4A04219146B8503A00052008F040
:1025800087F88D22D2009046B85004213A000520E9
:1025900008F07EF8992292009446A821BC44490094
:1025A00062468C46099EE34BBC44F8506146866007
:1025B0000C9E41600661022610910A996433026004
:1025C000C1600F92FE503A000421022008F060F82A
:1025D000D94B3A00F8500421022008F059F89A2308
:1025E000DB00F8503A000421022008F051F8D34BE8
:1025F0000999F850BE235B009C46BC4463460360C7
:102600001193A623DB0041603A00FE500421022012
:1026100008F03EF8CA4B3A00F8500421022008F0B6
:1026200037F8A723DB00F8503A000421022008F015
:102630002FF8D42149008C46BC446146C14B12910D
:10264000F850016009996433416050463A00F850EF
:10265000042108F01DF8BC4B3A00F8500421012079
:1026600008F016F8B423DB00F8503A0004210120EA
:1026700008F00EF8B54B0422F850A4239B009C46AA
:10268000BC44634603601393C023DB00FA5004216B
:102690003A00042007F0FCFFAD4B3A00F85004214B
:1026A000042007F0F5FFC123DB00F8503A000421B5
:1026B000042007F0EDFF0A99A64B0022F8500160B4
:1026C000EA2149008C468023BC4461469B0041605E
:1026D00014919C468B21BC44890063468C46BC44C3
:1026E000614683601593F023C160169151460098AE
:1026F000C2506833C15002000331012007F0C8FF07
:10270000B22300995B00C8500A000120042107F0A1
:10271000BFFFB021009B490058505D391A00FF39B6
:10272000012007F0B5FFAE22009B52009850A03365
:1027300003608C20179300230499400024320B502F
:102740008B50E82317389B00E65022000421FF3805
:1027500007F09EFFEB239B00E050220004210220A3
:1027600007F096FFEA239B00E0502200042102209C
:1027700007F08EFFE9239B00E050C13BFF3B9C46E6
:10278000AA22A4449200634694460360A44418938A
:1027900081236246DB0042601992E6502200042148
:1027A000022007F075FF6C4B2200E050042102204C
:1027B00007F06EFF8223DB00E0502200042102209C
:1027C00007F066FF654BDA22E050353BFF3B9C4645
:1027D0005200A44463469446A444624603601A939C
:1027E0008E2342605046DB001B92E0502200042101
:1027F00007F04EFF5A4B2200E0500421012007F061
:1028000047FF8F23DB00E05022000421012007F066
:102810003FFFC12189008C46A4446146514B2200F0
:10282000E050643301601C91E6500421022007F05F
:102830002FFF4D4B2200E0500421022007F028FF1B
:102840009C23DB00E05022000421022007F020FF3F
:10285000464B0421E050AD3BFF3B9C462C33A44447
:1028600062469C46A444634643600893A823DB0069
:1028700002600792E6502200022007F009FF3C4B5D
:102880002200E0500421022007F002FFA923DB0010
:10289000E05022000421022007F0FAFE354B079A8F
:1028A000E050089B02604360B523DB00E650220045
:1028B0000421022007F0ECFE2F4B2200E0500421FF
:1028C000022007F0E5FEB623DB00E05022000421E1
:1028D000022007F0DDFE294B079AE050089B0260BA
:1028E0004360C2230020DB00E0506833E650220042
:1028F0000421023007F0CCFE214B2200E0500421DD
:10290000022007F0C5FED023DB00E05022000421A6
:10291000022007F0BDFE1B4B079AE050089B0260A7
:102920004360DC23DB00E6502EE0C04604040000D8
:102930006C04000064040000D4040000CC04000017
:102940003C05000034050000A40500009C050000C3
:102950000C06000004060000140400000C04000033
:102960007C04000074040000E4040000DC040000A7
:102970004C05000044050000B4050000AC05000053
:10298000840600007C06000022000421022007F0DB
:102990007FFEFE4B2200E0500421022007F078FE6B
:1029A000DD23DB00E05022000421022007F070FE4E
:1029B000F74B079AE050089B02604360CC2300204D
:1029C0005B00E8506833E8506833EE502A00042179
:1029D000023007F05DFE9D229200A85004212A00DB
:1029E000022007F055FE9C239B00E8502A0004219A
:1029F000022007F04DFE9B239B00E850493BFF3B24
:102A00009C46AA21AC44490063468C46AC446146CE
:102A1000036041601D931E910023B0218C20059A14
:102A20004000535051461350683013500298B83349
:102A3000C15002000331012007F02AFEC421029B8D
:102A400058501A00C039012007F022FEC023029915
:102A5000C8500A000120042107F01AFE029BBC2185
:102A60001A00743258501F9253460260B8220398DD
:102A7000B83983500200012007F00AFEC421039BED
:102A800058501A00C039012007F002FEC0230399F4
:102A9000C8500A000120042107F0FAFDBC23039A64
:102AA0005946D050743202600023E0200B50493365
:102AB000FF33CE50209204215A46022007F0E8FD51
:102AC000AA235E465B00F0505A4604210220A82645
:102AD00007F0DEFD5B46760098515A46042102203D
:102AE00007F0D6FDA6235E465B00F0509826E43B37
:102AF0005B4443605E44229388230660219600264F
:102B000006985B00C65068330336C65002000600C4
:102B10000421032007F0BCFDC2235B00F05032000B
:102B20000421032007F0B4FD3300C026760098513D
:102B30001A00042103201E0007F0AAFDBE235B003B
:102B4000F050330068330360239306963033C83661
:102B500043608660504624935346F86587303F664D
:102B60003B5004303F505046B333F8505346B730D3
:102B70003F5028303B50E333FF5053469130FF30F5
:102B80003B5004303F501938FF383B5004303F5021
:102B900050468833FF33F8500433FF502833F85041
:102BA0000433FF50E433F8500433FF50C03BF85077
:102BB0000433FF502833F8500433FF502833F850C3
:102BC000CC20043380002596FF503B5850463A00F5
:102BD0000421186007F05CFDCD239B00FB583A00F0
:102BE0001860CC2080003B5850460421586007F004
:102BF0004FFDCD239B00FB583A005860CC2080004D
:102C00003B5850460421986007F042FD0200CD2059
:102C1000049980008C463B582D3827929A60FF38E3
:102C20001A68604410600B9094205B6880006044D8
:102C300018600D90A6208021279B800060441860BA
:102C400026905046C9007B583A000421186007F0CE
:102C50001FFD50493A007B5804991860B8238C46F0
:102C60009B006344036040463B5850460421186073
:102C700007F00EFD49467B583A00186040463B5825
:102C800050460421586007F003FD49467B583A003E
:102C9000586040463B5850460421986007F0F8FCC5
:102CA00049467B583A00986040463B5850460421BC
:102CB000D86007F0EDFC49467B583A00D8604046A2
:102CC0003B5850460421186107F0E2FC49467B5806
:102CD00000991A689931FF3118611160FF215A6813
:102CE000C900611811609A680B99DB6811600D9A30
:102CF00026991A6001609A200126C0003B5882463E
:102D00003A001E600421012007F0C2FC22493A006B
:102D10007B588946186050463B5804215E6001206C
:102D200007F0B6FC49467B581C49586062181B687E
:102D30000B991A600160A720C0003B5882463A00F8
:102D40001E600421012007F0A3FC15493A007B58BE
:102D50008946186050463B5804215E60012007F008
:102D600097FC49467B589621586009011B686218F8
:102D70001A60B423DB000B99FB5801603A001E6017
:102D80000421012007F084FC009A0BE0EC0600000F
:102D9000E406000004040000D40400001809000048
:102DA0003C050000FE4BE132FB58FF321860026028
:102DB000C120C0003B5881463A001E60042101201A
:102DC00007F066FCF7493A007B5888461860484689
:102DD0003B5804215E60012007F05AFC41467B58B5
:102DE0003A00586048463B5804219E60012007F095
:102DF0004FFC41467B583A00986048463B580421B6
:102E0000DE60012007F044FC41467B580D991A68AA
:102E1000D860116084215A68090161181160E24983
:102E20009B68621848311A6063180360AC230098ED
:102E300004218046C6500433C050B033C35802004A
:102E40001E60012007F024FCB22143464900009394
:102E50005B584D31FF3118607B180360F823EA207E
:102E60005B00E6500433E450C033E6500433E450D2
:102E70002C33E6500433E4502833E6500433E45056
:102E80002833E6500433E4502833E6500433E4504A
:102E9000AD3BFF3BE65080000433E45023588146AD
:102EA00022001E600421012007F0F2FBEB218900C3
:102EB0006358884618604846235822005E60042103
:102EC000012007F0E5FB4146635859465860D1316F
:102ED0001B68FF311960069980238C469B00634470
:102EE00003608220C0002358814622001E60042116
:102EF000012007F0CDFBAD492200635888461860D9
:102F00004846235804215E60012007F0C1FB41467A
:102F10006358DC3958601B686A181A608F233900BF
:102F2000DB00E358F831016022001E60042101201B
:102F300007F0AEFBE0219E4B8900E35822001860A9
:102F40006B1803609C20C000235881461E6004213A
:102F5000012007F09DFB97492200635888461860BE
:102F60004846235804215E60012007F091FB41464A
:102F70006358AA2189008946A944494658601B68BC
:102F800022001960BC2189008846A844414601609E
:102F9000A920C000235804211E60012007F078FBFF
:102FA0008549220063588A461860A920C00023582A
:102FB00004215E60012007F06BFB514663584946CF
:102FC00058601B682200196041460160B620C000AD
:102FD000235804211E60012007F05AFB7749220084
:102FE00063588A461860B620C000235804215E60EA
:102FF000012007F04DFB51466358494658601B6855
:103000002200196041460160D020C00023580421ED
:103010001E60012007F03CFB6949220063588A4684
:103020001860D020C000235804215E60012007F002
:103030002FFB51466358494658601B6822001960AF
:1030400041460160DD20C000235804211E6001209C
:1030500007F01EFB5B49220063588A461860DD209A
:10306000C000235804215E60012007F011FB514687
:103070006358494658601B682A00196041469823E6
:103080000160B0205B00EE5040000433ED502E5044
:1030900004302D500D30FF302B5804211E600120CC
:1030A00007F0F6FA9D239B00EB582A0018609C203D
:1030B00080002B5804215E60012007F0E9FA9D236F
:1030C00002999B000A00EB58F83258601B681A609E
:1030D000039AF832026008008021465004314050C3
:1030E0008A463C314358894602001E60BC390120A3
:1030F00007F0CEFAC421029B88465B5805991860F8
:1031000082238C4680219B006344036003984650D1
:103110005146405049468146435802001E60BC3922
:10312000012007F0B5FA4A46414653580599186000
:1031300094238C469B00634403605846A42346674F
:103140008067C650A8208046584641464050A82077
:10315000594640000B58503803921E605A460421CD
:10316000FF3807F095FAAA214900894659464A4690
:103170008B585A461860A82040000B5850385E60A3
:103180000421FF3807F084FA5E46494673588026CA
:103190005860B6001B68A21948361A6014E0C04691
:1031A000A40500000C0600008808000014040000BC
:1031B0007C040000E40400004C050000B40500009D
:1031C00084060000EC060000A31903604046069E3A
:1031D000D823B667365094208000F65029313B182A
:1031E0000098FF3143627B1883650200AA233800F0
:1031F00039008C329B003C30FA500300049868314F
:1032000041652C3103620B00882143503900BC23F7
:10321000C031C15038009C233D30FF30A06684305F
:10322000E0502C303433E050862080003A183800CB
:1032300034336930E250FF303433E0502C303433D3
:10324000E0502000A130FF307C3BF850C7208000C8
:1032500023182C302B64231884386B6723184046BE
:103260002B50BC20800022182800DC231130FF30B6
:10327000EA5003000298059AC36260301062280089
:1032800003994130FF30C8622000D130FF30030085
:103290005846603151650362912354309B00E050E1
:1032A0003030483BE050A520800023183362F64BB5
:1032B0001D985B6B1F9A18609A601E98209A586040
:1032C000DA601898079A18611A621998089A586172
:1032D0005A621A98229A98619A621C98219AD86127
:1032E000DA620E9A23999A640F9A099EDA64109A08
:1032F00019631A65119A24995A65129A59639A6545
:10330000139A2599DA65149ADE631A660A9E159A4D
:1033100099631E6417990C9E5A66169A5E64D96664
:103320009A661B9AD9481A67C6239B00F91801228E
:1033300000230A604B60C4239B00F9180123D44A80
:103340005B420A604B60E0239B00F91801220023D6
:103350000A604B60DE239B00F9180123CD4A5B42D3
:103360000A604B60FA2101220023890079180A6063
:103370004B60F8210123C84A890079185B420A6032
:103380004B608A2101220023C90079180A604B6032
:103390008921C9007E18012149423060716097215E
:1033A000C90079180A604B6096210123BB4AC90005
:1033B00079185B420A604B60A42101220023C900F6
:1033C0007918A3260A604B600123B54AF600B919A3
:1033D0005B420A604B60012200237036B9190A6013
:1033E0004B600121AF48083EBE1949423060716010
:1033F000BE26F600B919083EB81901270A604B60CD
:10340000009BA94E19007F420660476001260027F5
:10341000E0310E604F600127A04E08397F420E60F8
:103420004F60012600270E674F670121049F9F48C8
:103430004133FF33494218605960390001220023AB
:103440000931FF310A604B600123914A791CFF3139
:103450005B420A604B60012200230A674B67E4234A
:103460006937FF3738009B000127E118012200234C
:103470008F4E7F42066047600A604B60E2239B00EC
:10348000E1180123824A5B420A604B60FE239B00E5
:10349000E118012200230A604B60FC239B009C463C
:1034A0000121A444634683484942186059608C2333
:1034B000DB00E118012200230A604B608B23DB0054
:1034C000E1180123744A5B420A604B609923DB00D8
:1034D000E118012200230A604B609823DB00E11809
:1034E00001236E4A5B420A604B60A623DB00E118B1
:1034F000012200230A604B60A523DB00E1180123B1
:10350000674A5B420A604B60B323DB00E11801228B
:1035100000230A604B60B223DB00E1180E604F60AD
:10352000C02701220023FF00E1190A604B6001213E
:103530006148083FE6194942703730607160E1190F
:103540000A604B6001215D48083FE619494230603E
:103550007160DA26F600A119083EB4460127584EDC
:1035600064447F420A604B60266067602E002C0036
:103570000121544889368134FF36FF344942326094
:1035800073602060616001214F484942B266F36672
:103590006836A066E16696269424059FB600A400CE
:1035A000A919281901250A604B6039000126474CEA
:1035B0006D4204604560A031354D0A604B60764233
:1035C00008390D604E600A674B67012140487C1C3A
:1035D000FF34494220606160390038007131FF31A9
:1035E00069300A604B60FF300121040039484942CC
:1035F00020606160029C38482100A8310A604B605D
:103600000121039F4942A034206061603C00A8343E
:1036100022606360083C2060616059461C00130012
:10362000D0310B604C60584608390D604E600B6716
:103630004C6700950196260001241500069A154B4B
:10364000511C3130FF31FF306442036044600D6033
:103650004E60340001262B000D4D083976420D6076
:103660004E60260001241D0061320A4BFF32644285
:103670000D674E671360546029B0F0BCBB46B2467C
:10368000A946A046F0BDC046C01C00200400FFFFB4
:103690000000FFFF0100FFFF0300FFFF0500FFFF29
:1036A0000600FFFF0700FFFF0900FFFF0800FFFF04
:1036B0000A00FFFF0200FFFF0B00FFFF0C00FFFFEF
:1036C0000D00FFFF0E00FFFF0F00FFFF1000FFFFC8
:1036D0001200FFFF1300FFFF1100FFFF7047C046FD
:1036E000094A830094464022634410B51C68C00018
:1036F0006240C02414408022520113431C60034BDB
:103700009C466044416010BD04C00140004001403F
:103710000A4B80009C4604236044002901D00C23FE
:103720000821002A00D10B00026853400C221A40E5
:1037300080235B01184302607047C04604C001400B
:103740000123D0228340120693629361094A8300C9
:103750009446402263441968C0004A40C021114089
:103760008022520113431960034B9C460523604499
:103770004360704704C0014000400140024B18689C
:103780008007C00F7047C04600C00640EFF31080AE
:1037900072B6034A1368002BFCD0BFF35F8F7047EB
:1037A0002C0100D0BFF35F8F0022024B1A6080F320
:1037B000108870472C0100D070B5EFF3108C72B6F2
:1037C0000D4D2B68002BFCD0BFF35F8F0724CB0877
:1037D000C618C05C01230C40A3401C0004400342F7
:1037E00007D103433370BFF35F8F2C608CF31088D5
:1037F00070BD100001F00AFD2C0100D0F8B547465D
:10380000CE46884680B5EFF3108C72B6214D2C68F9
:10381000002CFCD0BFF35F8F9A422CD8D408072726
:10382000055D061901241740BC402C421FD007211A
:103830000127894609E0D408055D06194C46390080
:103840001440A1400C00294211D001329342F2D21F
:1038500001204042BFF35F8F00220E4B1A608CF3B1
:10386000108800280FDBC0BCB946B046F8BD2C4319
:1038700010003470EEE7BFF35F8F00232B608CF3F2
:103880001088012040424346002BECD0089801F0FC
:10389000BDFCC0462C0100D00021044B044ABFF3FC
:1038A0005F8F02C39342FAD17047C046000100D037
:1038B000800100D0044A1078431CDBB2172B00D9DA
:1038C000102313707047C0467010002000B5054BE0
:1038D00083B00100009318221F230348FFF78EFFD7
:1038E00003B000BD744A01109424002001238340DA
:1038F000002904D0034A1360034A13607047034A47
:103900001360FBE780E200E000E100E080E100E01E
:1039100001238340014A13607047C04600E200E083
:10392000084B10309B688000C358002B07D0064A14
:1039300000209B1A2F229A424041C0B270470020BB
:10394000FCE7C04600ED00E074100020024B103090
:103950009B688000C058704700ED00E070B50D0016
:10396000EFF3108672B60F4A1368002BFCD0BFF33A
:103970005F8F0D4B10309B6884001B590B4A93429C
:1039800003D09D4201D001F059FC074B9B681D51AB
:10399000BFF35F8FBFF35F8F0022024B1A6086F385
:1039A000108870BD240100D000ED00E0CD010010B2
:1039B000F0B557464E46DE464546E0B585B00600B2
:1039C00002911700EFF3108B72B6674A1368002B51
:1039D000FCD0BFF35F8F0025644B5D579A46002DE6
:1039E00000DAA4E06B00624C03935B199B009846DD
:1039F000A146C1444B4652469B79103613705D4B2D
:103A0000B2009B68019299580B1B2F2B34D95A4B4B
:103A1000994200D0A4E0039B584A9C46584B654409
:103A2000AD006353434602336519E418554B012139
:103A3000043B1B1B1B055B0D13436B80524BEF714B
:103A4000AB80FF23AB71029BAB604B460B4319006D
:103A5000484B019A9B689950BFF35F8FBFF35F8F0C
:103A60000022414B1A608BF3108805B0F0BCBB46B6
:103A7000B246A946A046F0BD01200A008243D37990
:103A8000BB422FD845464E46130040491B1B5B41A5
:103A90005943090D3A4B63533A4B02356519043BC0
:103AA0005B1B1B05354D5B0D2B4373800426B44611
:103AB000E0444444131F1B1B4C46A17102991B0593
:103AC000A16049465B0D2B43A380314BE771014355
:103AD0001360BDE75800C01880002018C679BE42A8
:103AE0002BD902000623D356002BF3DA101D824691
:103AF0002848804604267642B446E14450464E4665
:103B0000361A3005400D824656461C4895710643CC
:103B10009680039A944665441D4AAD00641922605C
:103B20004246A371029BA280E771A36090E701F077
:103B300085FB002553465D5754E7101D824690884B
:103B40004005001584464046D4446646043020189B
:103B5000301AE0260005400D360230438046C9E7A2
:103B600001F06CFB57E7C046240100D0DC2E00209A
:103B70007410002000ED00E0CD01001000E0FFFF18
:103B800000A1FFFFA410002001BDFFFFAAAA0000B2
:103B90000148804701BD0000F0B5DE4657464E465D
:103BA0004546E0B50C0083B0EFF3108972B6584A71
:103BB0001368002BFCD0BFF35F8F564B9A6803004D
:103BC00010339F00D559544A9046954232D0A542B1
:103BD00043D0524EAA1B2F2A2CD801228240924653
:103BE00051464F4A12681140019151464D4A1160A9
:103BF000BFF35F8FEFF305829346002A33D1012391
:103C00002A009A4393689C4208D177E04B005B18E6
:103C10009B00F3189968A1422AD01A000621515638
:103C20000029F3DA019B002B19D052463E4B1A6053
:103C30003B4B1A60374B9B68DD51BFF35F8FBFF37F
:103C40005F8F0022324B1A6089F3108803B0F0BCFA
:103C5000BB46B246A946A046F0BD1500EAE752466B
:103C6000304B1A60E6E79342C9D001F0E7FAC6E7A5
:103C700006215956002921DB4A00501880003418CB
:103C80008046A0689860E079D87106202056987127
:103C9000002824DBA488F01A640524154444001984
:103CA000E0240005400D24022043988052181F4B49
:103CB0009200B6181A781970B271B3E75946002904
:103CC0000FD1FF3191711A49918018490A789A7180
:103CD000184A9B1B5B415A43120D0A70A2E7164813
:103CE000E3E7164A1649D21A083A5002400D01433A
:103CF0009980144952080A43DA8093E70621515605
:103D000013000029B8DA5A46002AEAD14546DCE712
:103D1000240100D000ED00E0CD010010741000205F
:103D200000E100E080E100E080E200E0DC2E002025
:103D300001BDFFFFAAAA000001BD0000AE100020D7
:103D400000F0FFFF00F8FFFF70B5EFF305810124DD
:103D50000443EFF3108C72B6214A1368002BFCD099
:103D6000BFF35F8F1F4B05001F4AED1A6D416A4379
:103D7000120D1E4D8900AE6852B27658A6421CD074
:103D80000621595691421CD012215956914222D0F7
:103D90001E215956914220D02A215956032491427E
:103DA00010D0134B19781A708171BFF35F8F002206
:103DB0000B4B1A608CF3108870BDAB680D4C5C50D7
:103DC000EFE700246100091989005B18FF21997150
:103DD00009499980E5E70124F4E70224F2E7C046A7
:103DE000240100D074100020AAAA000000ED00E019
:103DF000DC2E0020CD01001001BDFFFF054B064A5F
:103E00001360064A136053609360D360136153617B
:103E1000936170478080808000E400E004E400E06B
:103E200000B5074B83B0010000930022052305482D
:103E3000FFF7E4FC002801DB1F23181A03B000BDC4
:103E4000904A0110E32E002070B504000E0015000A
:103E5000FFF730FD0100200000F006F8A680E580A5
:103E6000BFF35F8F70BDC046024B9C466144890022
:103E7000016070474000003410B50400FFF71AFDE0
:103E800001002000FFF7F0FFFF232371BFF35F8FD6
:103E900010BDC04610B50400FFF70CFD0100200066
:103EA000FFF7E2FFFF23A380BFF35F8F10BDC04683
:103EB00010B504000120FFF709FD044B9C46604447
:103EC00080002060BFF35F8F10BDC046400000340B
:103ED000034B9C46614489000160BFF35F8F7047CC
:103EE0004000003483680B4810B584466144624446
:103EF000090112019A18591854684B6801209C4214
:103F000001D802D00020C0B210BD12680B689A42DE
:103F1000F9D8F7E7FFFFFF0F0A4B1968EFF310809E
:103F200072B60A68002AFCD0BFF35F8F1B68BFF32C
:103F30005F8F00221A6080F3108840BF00200021AC
:103F40007047C046A02E0020F8B557464E4645465D
:103F5000DE46E0B599460CAB1C780DAB1B7806002D
:103F600090469A460768002C11D1BC7B002C42D0A9
:103F700065003B682D19033D59194B78BB73002B25
:103F800000D1FB7300238B704B700B7004E0650055
:103F90003B682D19033D5919B2682A4B9446424695
:103FA000E3181B0163441A604A465A600A9A9A60F1
:103FB0000B9ADA6000238B704B700B707B7B9B46F7
:103FC000002B2BD022005946B8687B6898473A6886
:103FD000002816D05B4658465B005B445519033BEE
:103FE000A870D118D35C002B00D06B705B460C70AE
:103FF0007B73A34513D0F0BCBB46B246A946A0468E
:10400000F8BD5B465B005B44033BD3189C705119C1
:10401000525D002A00D05A705B460B707C7342469A
:104020004B46307D00F0B8FB051E06D05346002BF2
:1040300003D12100306800F0D3FD0E9B002BDAD0B5
:104040001D70D8E7FFFFFF0FF0B5DE4657464E461E
:1040500045460023E0B58BB00893674B8200D458E7
:1040600000239B46099000F00DFB626806000F00DC
:10407000EFF3108572B61368002BFCD0BFF35F8F8F
:1040800023689C465B7B9946002B00D169E0A268BF
:104090005A4B90464B441B01984443461A685B6850
:1040A00010001900801BB941002900DC63E0099869
:1040B00000F072FB0023002298460023069207932B
:1040C00000239A466368BFF35F8F5A461A6085F3F0
:1040D00010885346002B08D10028C4D10BB0F0BC87
:1040E000BB46B246A946A046F0BD089B4146180211
:1040F0004B461843D047626806000F00EFF3108567
:1041000072B61368002BFCD0BFF35F8F002F50DB1B
:1041100033003B4302D02369002B61D12368D97B54
:10412000002907D04A00521819688C464946624453
:10413000033A51709A7B002A01D14A469A734A4643
:10414000DA734B46E168013BCA5C0132CA545B46F4
:1041500023616368BFF35F8F5A461A6085F3108846
:1041600081E700230022984600230692079300234C
:1041700000209A46A6E7002902D1002800D096E741
:104180000021604600F0AAFC43461A685B6806926C
:10419000079343469B689A464346DB689846E36824
:1041A0004B44013B1B7808931B020343236100200F
:1041B00088E72369002BB1D0069A079B921BBB416D
:1041C000002B15DB594604910121039149460291C8
:1041D00041460191514620000091FFF7B5FEB6E738
:1041E00000F050FA32003B0012184B41002BE9DA84
:1041F0000122034B5242E5E7802D0020FFFFFF0F15
:10420000FFFFFF7F10B5144C6368002B04D00A2118
:104210001248FFF729FE10BD2300114A1021206823
:1042200000F076FB032000F021FA032000F01EFBD3
:1042300003200C4900F06AFAFFF73CFB0A4B9C464E
:1042400003232375D0231B061B6860446375074B4B
:1042500080006060DC60DAE7BC100020A02E002047
:10426000E53E00104940001040000034802D002041
:1042700000487047BC100020F0B54E464546DE466B
:104280005746E0B585B0019310AB1B780600039349
:1042900000239946984600927268EFF3108B72B62D
:1042A0001368002BFCD0BFF35F8F3568AC7B002C0C
:1042B0003DD067002B683F19033FDB195A78AA737A
:1042C000002A00D1EA73B168474A8C4600980199E8
:1042D000A21812016244106051600E9991600F990A
:1042E000D16042469A705A701A706B7B9A46002BC6
:1042F00067D022001900A8686B6898472A680028D0
:1043000052D0534650465B005344D719033BB87014
:10431000D118D35C002B00D07B7053460C706B73AC
:1043200054454FD0F3681B19013B187800E000207A
:104330007368BFF35F8F42461A608BF31088002CBE
:104340004FD04B46002B08D10002204305B0F0BCF3
:10435000BB46B246A946A046F0BD039B002B3ED00B
:104360000E9B00200F999847030004000D000B439B
:1043700035D000290ADA009A019B121BAB4100924A
:104380000193002B0ADB039B994685E700F07AF93D
:1043900024184D4100940195002DF4DA0123134CAB
:1043A0005B4200930194EEE753465B005344033BAA
:1043B000D3189C70D119D25D002A00D05A70534690
:1043C0000B706C73307D009A019B00F0E5F981461B
:1043D0000028A7D02100306800F002FCA2E70020EE
:1043E000B4E701204042B1E7FFFFFF0FFFFFFF7F6F
:1043F000407D7047F0B504000D0006267642F717A1
:10440000C64636196F4100B584B08F4214D811D01A
:1044100000F038F932003B00121A8B41002B15DCFA
:10442000002B3ED02000290000F060F904B080BCD1
:10443000B846F0BD8642EBD90026002700F022F9ED
:1044400032003B00121A8B41002BE9DD002302935E
:104450000193154B3200009314483B00FFF70CFF0B
:104460000028DFDB00239846BC46114A114F7B6AC7
:104470009C4504D8B96A8E42D4D99C45D2D11168E2
:10448000EFF3108072B60B68002BFCD0BFF35F8F88
:104490001368BFF35F8F4146196080F3108820BF17
:1044A000E5E7002ABED0D1E7193F0010BC1000207C
:1044B000A02E00200040054070B504000D0000F063
:1044C000E1F800196941002902DBFFF793FF70BD95
:1044D000012001494042F8E7FFFFFF7FF0B5EFF30D
:1044E0000583CE46474680B505000C0085B0002BFD
:1044F00012D02C4A0020536A9C4203D8926A0130A1
:10450000AA4204D305B0C0BCB946B046F0BDE01A1B
:10451000421E9041C0B2F5E7234E02930193234B14
:104520000200009330000B00FFF7A6FE031EE0DD43
:1045300020BF7168EFF3108772B60A68002AFCD0BA
:10454000BFF35F8FDAB294463068427B62451DD07C
:10455000FF221A4051008946016891448846494625
:10456000414403398978002913D0F1681B0A884631
:104570004244013A1278DBB29A420FD07368BFF31B
:104580005F8F00221A6087F31088B2E7FF221A407B
:10459000EBE732699342F1D13161EFE7614600F018
:1045A0001FFBEBE700400540BC100020193F001046
:1045B000F0B5EFF30582D6464F4646461000C0B52B
:1045C0001038EFF3108872B6214C2368002BFCD012
:1045D000BFF35F8F0123190081401E4D1F006963E7
:1045E000AA461D4D29601D4D2E78AC463500C540AC
:1045F0002F402B4209D1BFF35F8F276088F31088CB
:10460000E0BCBA46B146A846F0BD5346144D5F6AB9
:1046100083005D59AF420ED3124A8E439B586246C7
:104620001670BFF35F8F0022226088F31088002B82
:10463000E6D09847E4E70C4B92009C46624413682E
:104640001360BFF35F8F0023236088F31088D7E7E0
:10465000280100D0004005403C700540E22E0020BB
:10466000AC2E00202C230020D03F054010B50100C7
:10467000024A0348FFF7A0F810BDC046B84A01102F
:10468000D82E0020034B596A0A00986A596A8A4258
:10469000FAD170470040054070B504000D00124A81
:1046A000536A1900966A536A8B42FAD13000190096
:1046B00024184D41AB4211D80ED02B000A494A6A4A
:1046C0009A42FCD307D1084A02E0516A994202D1CA
:1046D000916AA142F9D370BDA642EED9012301240B
:1046E0006442E5175B42E9E700400540064A536A29
:1046F0009942FCD807D1044B02E05A6A914202D198
:104700009A6A8242F9D370470040054070B50400B0
:104710000D00EFF3108672B61A4A1368002BFCD016
:10472000BFF35F8F002D1BD02000FFF70FF9164954
:1047300081420AD02000FFF711F901212000FFF784
:10474000D5F80123A340114A1360114BA400E55092
:10475000BFF35F8F00220B4B1A6086F3108870BD89
:104760000B4BA200D5500122A2400A4920000B7831
:1047700093430B700449FFF70FFA00212000FFF765
:10478000B5F8E5E7280100D0B145001038600540D4
:104790002C230020E22E0020F0B54F46D646464698
:1047A000C0B507002C4C616A0D00A66A616AA94277
:1047B000FAD18B4208D805D00120E0BCBA46B146F8
:1047C000A846F0BDB242F7D9EFF3108A72B623487B
:1047D00001680029FCD0BFF35F8F0125BD4020494F
:1047E0001D4C8846097889462943C9B28C46414602
:1047F00060460870391D1B48890065630A51B9007D
:104800000B50216A0020294219D0616A0800A66A6B
:10481000616A8142FAD18B4219D801D1B24216D8CD
:10482000CC4516D00C4B1F201D625D630123074051
:10483000BB400D4A1E38136043464A461A70BFF308
:104840005F8F0022054B1A608AF31088B5E70020BD
:10485000F5E70120F3E7C04600400540280100D0FD
:10486000E22E0020AC2E002080E200E0EFF3108C5E
:1048700072B60A490B68002BFCD0BFF35F8F01238F
:104880008340074A0748136202789A430270BFF3D5
:104890005F8F00230B608CF310887047280100D0D5
:1048A00000400540E22E002070B5050014001600FF
:1048B000002915D00C00002A12D080686B68984738
:1048C000296800280ED073009B196200033B12195F
:1048D000CB18033A9C7088188A5C002A15D10670A0
:1048E000200070BD63001B197200033B9219CB18A6
:1048F000033A9E7088188A5C002A02D10470340042
:10490000EEE75A7004703400EAE75A700670E7E781
:1049100030B583600023CCB243730133047342602B
:104920008373C4730D000068012C06D9421C013347
:10493000DBB2137003329C42F9D1FF2129404B00B6
:104940005918002340180338437030BDF8B5CE46DF
:10495000474606000C0080B5002907D04D000368CB
:104960006D18033D5A195778002F04D12000C0BCA0
:10497000B946B046F8BD7900C919033988464344A1
:104980005978894600215970517073683A002100A6
:10499000806898473368002814D042469A1894706B
:1049A00059195B5D002B00D053700F7027004946EA
:1049B0003000FFF7CBFF390002003000FFF774FF33
:1049C0000400D3E7424641465D19AF709A185B5C1C
:1049D000002B00D06B701470E9E7C046F0B5574665
:1049E0004546DE464E46E0B50D006B0001685B199A
:1049F000DF1E0400C85D83B00192CA19002850D0A0
:104A000043001B18033BCB185E78B446002E1AD126
:104A1000019E002E42D0E67B002E04D073009B192D
:104A2000CB18033B5D70A37B002B00D1A573E5730E
:104A300000282FD10023537003B0F0BCBB46B24610
:104A4000A946A046F0BD72006244033A89184A782C
:104A5000904600224A7091465A70010032002000B0
:104A6000FFF722FF43468246002B07D05B002168F8
:104A70004344033BCB185A78002A16D1424651468C
:104A80002000FFF711FF2168019BCA19002BC2D13A
:104A90000028CFD043001B18033BCB18002199708E
:104AA000C8E7019B002BB6D1C4E75000801803383B
:104AB0000918487883464846487058704146200097
:104AC000FFF7F2FE594680462000FFF73FFF4146C0
:104AD00002002000FFF7E8FE8046CFE7F0B557461A
:104AE0004546DE464E46E0B583B00191457B040065
:104AF0006B0000685B19DF1EC15DC219002952D02E
:104B00004B005B18033BC3185E78B446002E1CD1E3
:104B1000019E002E44D0E67B002E04D073009B192A
:104B2000C318033B5D70A37B002B00D1A573E57315
:104B3000002931D1002328005370617303B0F0BC09
:104B4000BB46B246A946A046F0BD72006244033A95
:104B50008018427890460022427091465A70200098
:104B60003200FFF7A1FE43468246002B07D05B00D0
:104B700021684344033BCB185A78002A17D1424698
:104B800051462000FFF790FE019B01002068C219EA
:104B9000002BC0D10029CDD04B005B18033BC318BC
:104BA00000209870C6E7019B002BB4D1C2E75000EB
:104BB000801803380918487883464846487058706A
:104BC00041462000FFF770FE594680462000FFF75F
:104BD000BDFE414602002000FFF766FE8046CEE79C
:104BE00070B5040000292CD0437B8B422ED0056881
:104BF00048004018033828188278002A21D0530032
:104C00009B18033BEA5CEE188A4202D11BE0002AA3
:104C100008D053009B18033BEB185A788A42F6D110
:104C200042785A7000230122837043702000FFF7FE
:104C3000D5FE617B02002000FFF736FE6073012085
:104C400000E0002070BD43783370EBE701221900CB
:104C5000FFF7C4FE60730120F4E7C04630B50C20B6
:104C600083B000F0B9F9FEF789FD00280ED0994B0A
:104C7000994A1A605A609A60DA601A615A619A61B8
:104C8000DA611A62954A5A6203B030BD944CA0674B
:104C900000F0F6F90122934B1A60636C012BFCD1F2
:104CA0000322914B1A608E4A936B012BFCD1013386
:104CB00001218E4A8E480093043300F03DF905230C
:104CC0008C4A009301218C4800F036F98B4B5A68CE
:104CD000FF2A02D8802252005A6080227D4C824BEB
:104CE00021691201854D1A60002907D0606901F021
:104CF0002DFE431C5800C0180338FDD2E0217F4B25
:104D000002201A681140802252012A43116019685A
:104D1000484003210140116004219A681142FCD0EF
:104D20008022802192012A430901116080225200D1
:104D30005A60734B2361734B5968FF2900D85A603E
:104D40000321684A6F4B116002399A681142FCD006
:104D5000E0201A681040802252011A43106018683F
:104D60004840032101400220116066498A681042D0
:104D7000FCD0802292011343802212011A6080220B
:104D8000614B52004A606361604B5968FF2900D84B
:104D90005A6080225E4BE16912015C4D1A60002965
:104DA00007D0606901F0D2FD431C5800C0180338D9
:104DB000FDD2E02255490B681A4080235B012B434A
:104DC0001A60802380229B012B4312011A608022EB
:104DD000414B52004A60E3614E4B5968FF2900D8AD
:104DE0005A6080224C4B216A12014A4D1A600029F8
:104DF00007D0606901F0AAFD431C5800C0180338B1
:104E0000FDD2E02243490B681A4080235B012B430B
:104E10001A60802380229B012B4312011A60802399
:104E200080225B004B602C4BD20223623B4B5968C3
:104E3000914200D25A608022394B616A1201374D8B
:104E40001A60002907D0606901F080FD431C5800FA
:104E5000C0180338FDD2E02230490B681A40802385
:104E60005B012B431A60802380229B012B4312019C
:104E70001A608023DB024B60184B6362294B5A682F
:104E8000FF2A02D8802252005A608022264BA16954
:104E90001201244D1A60002907D0606901F056FD07
:104EA000431C5800C0180338FDD2E0221D490B688E
:104EB0001A4080235B012B431A60802380229B01D0
:104EC0002B4312011A6080235B004B600E4BA361E1
:104ED000DAE6C04698240020006CDC021BB7000014
:104EE000008000403CB0004030B00040002F6859C6
:104EF00000800240008C864700C0024030800040A5
:104F0000001BB7003C8000404059730754800040AC
:104F100054B000406080004060B000406C800040B1
:104F20006CB000404880004048B00040014B800019
:104F3000C058704798240020F8B5040021481D008F
:104F400017000E0001F002FD0100380001F0FEFC28
:104F5000069B29041B0319432368002B20DB1A4BF3
:104F60001A4DE21853425A4180235B019C461203BA
:104F7000174B62441A60174B1A601700AB689F43C7
:104F8000FBD1C022231D92011A4321232660A06079
:104F900013602368002BFCDA0823E1601360F8BD7E
:104FA0003F2322681340B342D9D1A3681B051B0DD0
:104FB0008342D4D1EE22E368D20213408B42CED199
:104FC000EDE7C046001BB7000040FDBF00C0004039
:104FD00000E0004000F000408023024A9B000343B1
:104FE000D36270470080054010B5140080221B4B2F
:104FF000D2051A6000281AD00123194A1843194B08
:10500000DA61194A42401A62596298628022134B4F
:10501000D2051A601549164A1160E022D2041A60BE
:10502000002C07D18022134B12061A6010BD0D4BC5
:10503000D861EBE763011B1B9A0080231219120150
:105040005B049A4200D30C4A0C4B1A60054B5A6021
:105050008022084BD2051A60E8E7C04600B0054040
:10506000D3C007B0008005402D3FF84FFCFF010082
:105070000820014000A00540FFFFFF00702D002028
:10508000AA23064A1B0113602F230549D360054B51
:1050900019605368002BFCDA7047C046004002409C
:1050A00000B0FA00006002402C4B2D4A70B51A6027
:1050B0002C4A2D4B2D491A6014008B689C43FBD160
:1050C0002B4D2C4EB54208D2013E761BB60808CDBA
:1050D000984723000134B342F9D1FFF7BFFD264AB8
:1050E000214B1A60214A9368DB43DB01DD09002B69
:1050F000F9D14022214B224C224E9A675A671A67F7
:10510000DA66B44208D223682000002B20D008348D
:10511000FEF7C0FEB442F6D31B4E1C4CC022A16861
:10512000300002F00BF9A660FEF7B6FBFEF766FE54
:10513000FFF768F8164C174EB44208D2013E361BF2
:10514000B60808CC98472B0001359E42F9D170BDB6
:105150000834FEF791FEB442D5D3DDE700E000400D
:10516000BFCDFBFEFE7F3C0000F0004000C00040D1
:105170008C1B00209C1B0020FFFFFF0100F0014062
:105180007C1B00208C1B00200000002000ED00E0B4
:105190009C1B0020A41B002000BEFDE7094A030061
:1051A0001068002805D00849C3188B4207D813603F
:1051B000704706480449C31810608B42F7D9012094
:1051C0004042F5E73C29002000000420E42E0020A6
:1051D00010B5FFF7E1FFC04610B50C0082B0190012
:1051E000002A0AD0064B01920093020023000548D2
:1051F00001F00CFB0120FFF7CFFF034B1A00F2E791
:10520000DC4A0110EC4A0110D05201100FB400B575
:10521000084883B002F0F6F9049B002B07D005A9DB
:105220001800019101F012FB034802F0EBF9012094
:10523000FFF7B2FF1C4B0110244A011010B50148C2
:10524000FFF7E4FF2C4B01109A4200D288547047BC
:105250007047C046F8B557464E464546DE46E0B56F
:1052600099460A9B07009A460D9B8846934615006F
:105270000B9E9B0710D10C9B9E420DD29D1B1400D0
:105280000E005D4422004B46013431002020B84717
:10529000A542F7D1B0460B9E002E27D04446751983
:1052A0005346AA1B013E985D21004B46B847002E8D
:1052B000F6D123002C0098460D9B9B070FD55B462B
:1052C000E51A0C9BAB420AD94646984622004B464B
:1052D000310020200135B8470134A845F6D8200018
:1052E000F0BCBB46B246A946A046F8BD2C00E3E799
:1052F000F0B54F464646D646C0B584B098460EAB8C
:105300001B78129F994694460D9C109B119EBA07DC
:1053100025D4002E4BD19C4200D3BFE001223A405D
:1053200092461F2C00D9B8E00C9A551E302201E09D
:10533000202C03D001342A55A342F9D85246002A22
:105340000DD0A6420BD9202C44D00C9A551E3022E9
:1053500001E0202C3ED001342A55B442F9D1FA069E
:105360004DD57A053FD4002C39D10F9B102B00D19D
:1053700079E00F9B022B00D18AE030230C9A0124A4
:1053800013704B46002B3FD02D230C9A135501343C
:105390000C9B624600930397434602960194FFF7E5
:1053A00059FF04B0E0BCBA46B146A846F0BD0122A0
:1053B00015003D40AA463A422FD04A46002A02D163
:1053C0000C323A4200D0013E9C42BAD21F2CABD9DB
:1053D000202E27D92024FA06DAD57A0503D4A34251
:1053E0002DD0A6422BD00F9B102B32D0022B20D0D9
:1053F000202CCDD030220C9B1B191A700134202C8C
:10540000C6D04B46002BBFD17B070DD43B07BFD581
:1054100020230C9A13550134BAE79C429FD21F2CCB
:1054200000D881E720249AE72B230C9A13550134E6
:10543000AEE7202CACD00C9B1B1901343AE0631E64
:10544000012C92D00F9A102A2AD0022A2FD01C00A9
:10545000D0E7BB060ED4202C9AD00C9B1A1901342D
:1054600078231370C4E7BB060DD478230C9A01246B
:105470001370BFE7202C00D18AE758220C9B1B1920
:105480001A700134B4E758230C9A01241370B1E761
:105490000C9A603301241370ACE7202400265EE7E9
:1054A000023CBA06E9D40C9A12191C00D8E70C9AEF
:1054B0009246534462221A709AE7C04610B50028FB
:1054C00000D110BD02F052F8FBE7C0460B0010B54A
:1054D000002802D049681B68984710BDF0B5DE4629
:1054E00057464E464546E0B59BB09B46249B8946B1
:1054F0009846259B0B900C924046424619009A46CE
:1055000001F0E5FC002800D0D8E0012240465146D9
:10551000774B524201F0D6FC002800D0CEE00122A9
:1055200040465146734B524201F0B6FC002800D071
:10553000C4E0002200234046514601F0ADFC0028A3
:1055400000D0B9E1424653460A9209938023289A33
:10555000DB001A400E92289A1A4201D106232693A4
:105560000A9A099B1600134300D0C7E0289B002528
:1055700000261B0500D49BE100230D93269A0D9B6A
:105580009A4200DC9FE1D01A431E26938023289A7A
:10559000DB001A430023002728920D93279B002449
:1055A000BB4200D9DC1B0223289A1A400E92289A8B
:1055B000134203D07B427B415B421C400D9B002B7E
:1055C00007D00A9809992A00330001F004FC0A90D8
:1055D0000991002200234046514601F05DFC00285D
:1055E00005D0802000068446099961440991289AD3
:1055F000414B0B9D13400493269B0A9A0293099BEF
:1056000003940092019349465B4628000C9A00F0EF
:105610008BF90400002F62D0289B220098061F23DC
:10562000C0179843631C984649465B466530A847B7
:105630000D9B0025DA179C18DB0F9A465440013F5A
:1056400001E0202D13D00AAA94461F2320006344B2
:105650000A2101355E1901F079F9303131702000ED
:105660000A2101F073F926000400092EE9D8052368
:105670000693002304930A330393534605970B9F25
:10568000029312AB009342465B46494638000195AF
:10569000FFF72EFE0E9B0400002B20D00C9BC51A9A
:1056A000279BAB421BD91E0022005B4649462020A7
:1056B0000135B8470134AE42F6D810E0289B424687
:1056C0000493279B49460393269B0B9802935346CA
:1056D000009201935B460C9A00F026F9040020002A
:1056E0001BB0F0BCBB46B246A946A046F0BDC046C2
:1056F000FFFFEF7FFFFFEFFFFFF7FFFF734B099FF8
:105700009C467800400D604401F0F4FB704A714BF8
:1057100001F07BFB704A714B01F058FB3B03704A70
:105720001B0B1A4304000D00300011006D4B0022CA
:1057300001F047FB6C4A6D4B01F067FB02000B0068
:105740002000290001F042FB01F0ECFB0D9001F07C
:10575000D1FB674A674B04000D0001F056FB0022A5
:10576000654B01F033FB01F0DDFB644A0600644B3E
:105770002000290001F049FB040030000D000F96C5
:1057800001F0B8FB5F4A604B01F03FFB02000B00E9
:105790002000290001F015FB02000B0006000F009D
:1057A00001F033FB320004000D003B0030003900F3
:1057B00001F00CFB002210901191544B20002900A5
:1057C00001F009FB0022524B01F000FB02000B002C
:1057D0002000290001F0FFFA00224E4B01F0F6FAFA
:1057E00002000B002000290001F0F5FA0D008021D5
:1057F000040032003B000020C90501F0E2FA02007B
:105800000B002000290001F0E1FA02000B001098C3
:10581000119901F0E0FA0022314B01F0D7FA3E4B2A
:105820000F9C9C4664440022230501F0EEFA05001B
:105830000E0002000B000A98099901F02DFB0028C8
:105840000AD00D9B2800013B31000D930022304B04
:1058500001F0C1FA05000E00C6270D992B00633137
:105860008F42BF4128997F420437090500D495E64D
:10587000334300D182E6099C284A2100284B0A982C
:1058800001F018FB002808D000222100254B0A98BF
:1058900001F002FB002800D070E6269B002B00D10F
:1058A0007CE60E9B5A1E9341269AD31A269375E6E0
:1058B000002304270D9371E643460A9380231B06B9
:1058C0005344099342E6002326935FE601FCFFFF61
:1058D000FB799F501344D33FB3C8608B288AC63FDF
:1058E0000000F03F0000F83F61436F63A787D23F9D
:1058F00071A379094F930A400000E03F1655B5BBEC
:10590000B16B0240EF39FAFE422EE63F00002C4018
:105910000000244000001840FF0300002D431CEB52
:10592000E2361A3F80842E41F0B54E46DE46574699
:105930004546E0B597B09946209E219F229B83461D
:10594000984607910C923B0032003000390001F07C
:10595000BEFA002800D0A9E1012230003900CA4B6C
:10596000524201F099FA002800D0E1E00122300013
:105970003900C64B524201F0A5FA002800D0B7E02A
:10598000002230003900C24B01F09CFA002800D000
:1059900099E0002230003900BE4B01F07DFA00286A
:1059A00000D090E0002200233000390001F074FAAA
:1059B000002800D0B1E000230D93249B5B0501D4A7
:1059C0000623984608AB9C46172200243023414604
:1059D000624404E0013413550139202C01D0092917
:1059E000F8D888463000390001F09CFA4346DA00C6
:1059F000A94B05009B181A685B680892099301F08F
:105A000079FA02000B003000390001F0DAF9089A47
:105A1000099B01F0FAF90A900B9101F0A7FA82466E
:105A200001F064FA02000B000A980B9901F0C9F921
:105A300000229A4B0A900B9101F044FA002800D101
:105A4000C0E001239C46E244504601F04FFA0200B8
:105A50000B000898099901F025FA002802D00023CC
:105A60009A4601354346002B6AD008AB17269C4660
:105A700008956644554614E001235B4243440A21DD
:105A800028009A4600F062FF01343031371939702E
:105A900028000A2100F05AFF092D00D8D0E0D04696
:105AA0000500202CE8D10EAB98460323249A13401E
:105AB000012B00D196E02023249A01930392239A8C
:105AC000434602921EE0249B58460493239B009673
:105AD0000197039343460C9A029307994B46FFF7AD
