:020000041000EA
:1000000000B5324B212058609868022188439860DF
:10001000D860186158612E4B002199600221596106
:100020000121F02299502B49196001219960352056
:1000300000F044F80222904214D00621196600F024
:1000400034F8196E01211966002018661A6600F04E
:100050002CF8196E196E196E052000F02FF8012189
:100060000842F9D1002199601B49196000215960AB
:100070001A491B48016001219960EB211966A021F2
:10008000196600F012F800219960164914480160C1
:100090000121996001BC002800D000471248134993
:1000A000086003C880F30888084703B5996A0420EC
:1000B0000142FBD001200142F8D103BD02B5186610
:1000C0001866FFF7F2FF186E186E02BD00000240BE
:1000D000000000180000070000035F00212200005C
:1000E000F4000018222000A00001001008ED00E03C
:1000F00000000000000000000000000074B24E7A12
:1001000000200420F7010010C3010010C5010010F9
:10011000C1010010C1010010C1010010C101001097
:10012000C1010010C1010010C1010010C701001081
:10013000C1010010C1010010C9010010CB01001065
:10014000CD010010CD010010CD010010CD01001037
:10015000CD010010CD010010CD010010CD01001027
:10016000CD010010CD010010CD010010CD01001017
:10017000CD010010CD010010CD010010CD01001007
:10018000CD010010CD010010CD010010CD010010F7
:10019000CD010010CD010010CD010010CD010010E7
:1001A000CD010010CD010010CD010010CD010010D7
:1001B000CD010010CD010010CD010010CD010010C7
:1001C00000BE00BE00BE00BE00BE00BEEFF3058054
:1001D000103800BEF2EB8871C48E0110E48E01105D
:1001E0003402001090A31AE700201F49086006C8D7
:1001F00081F3088810471D48006800282FD10DA4FE
:100200000ECC002902D000F012F8F9E71849194A7B
:10021000002000E001C19142FCD1174988471749ED
:1002200088471749884700BEFDE701C901C29A42C5
:10023000FBD37047E48E0110C0000020A41B0020F7
:10024000C8A901100000042000000420C8A9011062
:10025000001004200010042000000000704709482E
:1002600006F000FC0047000008ED00E0000000D0B0
:10027000A81B0020D42E002075520010BD200010B5
:100280009D5300105756000006005250ABB3605308
:10029000104F011006005250861C0302304F01100F
:1002A000060052505422A29D384F011005005250B2
:1002B000DE65F468C8A90110F8B5C0460448054BCE
:1002C00010B5834203D0044B002B00D0984710BDDB
:1002D000A41B0020A41B00200000000006480749C2
:1002E000091A8B10C90FC91810B5491003D0044B57
:1002F000002B00D0984710BDA41B0020A41B002099
:100300000000000010B5074C2378002B09D1FFF73F
:10031000D5FF054B002B02D0044800E000BF0123AD
:10032000237010BD501E002000000000104B011073
:10033000054B10B5002B03D00449054800E000BF71
:10034000FFF7CCFF10BDC04600000000541E002087
:10035000104B0110836B013383637047F8B50600BF
:10036000040005000700164B3C36436630000BF0D6
:10037000DFFEA36C68359437002B04D001223000D7
:10038000616E0BF07DFC90260E4B2800A3510BF004
:10039000CFFE636F002B04D001222800A1590BF07F
:1003A0006FFC094B3800BB620BF0C2FEFB68002BF0
:1003B00005D0BC2301223800E1580BF061FCF8BDE8
:1003C000104B01101C4B01102C4B011094239B006F
:1003D000F0B5464698463C23D6464F469A462C33BF
:1003E00099460400C0B5070005002C4E82444666BD
:1003F0008044814450460BF09BFEA36C3D37FF3791
:100400009435002B04D001225046616E0BF038FC6D
:1004100090234846E6509A460BF08AFE636F002B05
:1004200005D0534601224846E1580BF029FC28002C
:10043000AE620BF07DFEEB68002B05D0BC230122E1
:100440002800E1580BF01CFC9E2300229B00E318BF
:100450001A7040460BF06CFE4346DB68002B06D05A
:100460009E239B0001224046E1580BF009FC23002B
:1004700001226533FF331A7038000BF059FEFB6818
:10048000002B06D0B2235B0001223800E1580BF0AC
:10049000F7FBE0BCBA46B146A846F0BD20540110B7
:1004A0009F2301229B0070B5C5188433C6185C3B9E
:1004B000C3181A70040028000BF03AFEEB68002BFA
:1004C00006D0A9239B0001222800E1580BF0D8FB9D
:1004D000CA2301229B00E3181A7030000BF028FE9B
:1004E000F368002B06D0CA239B0001223000E1589C
:1004F0000BF0C6FB70BDC04670B5836B84B0029331
:10050000F023C35805000400986A06F047FF0C4E1C
:1005100000900191C03511210A4A300006F038FAE6
:100520002800AE620BF004FEEB68002B05D0E82338
:1005300001222800E1580BF0A3FB04B070BDC046B7
:10054000502400203C4B0110CB239B00C258282391
:1005500070B50500D35C202204003C359343532B37
:100560002CD0442B0DD0244B636628000BF0E0FD0B
:10057000A36C002B04D001222800616E0BF080FBDD
:1005800070BD0600030001229536BD33FF33FF36F0
:100590001A7030000BF0CCFDF368002B06D0DE2380
:1005A0005B0001223000E1580BF06AFB124B134A4A
:1005B000190041CA41C112780A70D5E7060003004C
:1005C00069369133FF33FF361F3A1A7030000BF053
:1005D000AFFDF368002B06D0C8235B00012230007A
:1005E000E1580BF04DFB044B054A190041CA41C1CB
:1005F00012880A80B8E7C0463C2400205C4B0110FA
:10060000504B0110F0B5DE4657464E464546AA23EC
:10061000FA22E0B59B00C558354952008946698DDC
:1006200068238A4289419A46B13383B0FF334942F5
:100630009846EB8D0191A98D9A429B418A42924145
:100640005242040006000700112182445B420092DE
:100650008044284A484606F09BF990234A46504673
:10066000E2509B460BF064FD636FC136ED37FF36F9
:10067000FF37002B05D05B4601225046E1580BF0B6
:10068000FFFA4246EB8D404613850BF051FD434681
:10069000DB68002B06D090239B0001224046E158E6
:1006A0000BF0EEFAAB8D38003B850BF041FDFB689B
:1006B000002B06D085239B0001223800E1580BF067
:1006C000DFFA6B8D300033850BF032FDF368002BC1
:1006D00006D0F4235B0001223000E1580BF0D0FA81
:1006E00003B0F0BCBB46B246A946A046F0BDC0462A
:1006F00064240020684B0110EF2070B5C0000AF0A0
:10070000CBF80221EC234942C1505D33FF33C15085
:100710008A23DB00C2189C235B00C250C2182C3B0A
:10072000C250962200238824520083502C3AFF3A6C
:1007300064000251E934FF340151BE24E40005197C
:10074000BC24A400055105192C3C0551203403514B
:100750001C3C0251B0340151B121C9004418DC21C4
:100760008900445044182C394450203143501C39DE
:100770004250574C4031435008394450F72404311B
:10078000405048314350043143505249A400015174
:1007900004340351504D10340251083C05510225D8
:1007A000043400514D4C0351043403514C4C01515D
:1007B00004340351103405514A4D083C05510325BA
:1007C000494C0051494C035104340351484C0151E8
:1007D0000434035110340551464D083C055104259D
:1007E000454C0051454C035104340351444C0151D4
:1007F0000434035110340551424D083C0551052580
:10080000414C0051414C035104340351404C0151BF
:1008100004340351103405513E4D083C0551062562
:100820003D4C00513D4C0351043403513C4C0151AB
:1008300004340351103405513A4D083C05513A4CEB
:1008400000513A4C035104340351394C0151CA212F
:10085000C9004350374943506D39FF394418793145
:10086000FF31445044183449445004314250334914
:10087000425433494350FA2189004418DC21C9000D
:10088000445044182F494450043142502E49425498
:100890002E4943509721C9004418E521C90044500E
:1008A00044182B494450043142502A494254E02113
:1008B00089004418EE21C9004450274943500C31A7
:1008C00044182649445004314250254A835470BD8F
:1008D0005D030010784B0110550300103404000034
:1008E00044040000F9040010540400009C040000BB
:1008F000AC040000CD030010BC040000040500009F
:1009000014050000A1040010240500006C0500007F
:100910007C050000490500108C050000D40500008E
:10092000E405000005060010F40500003C06000088
:100930004C0600008C0600006C06000074060000E7
:10094000D4060000B4060000BC0600001C0700002E
:10095000FC060000040700006407000044070000D4
:100960004C0700002823426AD25C083BC2547047FF
:10097000202370B5C35C0400002B3BD12123C35C52
:10098000002B1CD00DF0E0FC2000B43003001C490B
:100990000B435B071CD18B1CC31A042B18D94A8844
:1009A0000B8812041A43CB888D881B042B430260EA
:1009B00043600B89283803860BF0BAFB70BD0DF03D
:1009C0008BFC2000B43003000E490B435B07E2D0E0
:1009D000B42320000A888C30E2524A880233E25263
:1009E0008A880233E252CA880233E2520A89023309
:1009F000E252E1E70DF09EFB21230122E254DDE704
:100A0000502D0020382D00208A2070B5800009F07C
:100A100043FF03002C334362343383658423006532
:100A2000D022C05000239C241E498350083A815094
:100A300004328050483283501B49043283500C32B8
:100A4000815004328350283AFF3A184D6400025115
:100A5000083C055104340051483403510434035117
:100A60000C340151C8210400490043503C3143502B
:100A7000C8340C31445044182C394450043142508D
:100A8000183942507C3143500100882331319B009A
:100A9000FF31C150C1182C3BC1500433C250183B28
:100AA000C25070BD65090010784B0110710900102B
:100AB0008823F0B5076AC5583433C4583B7D466D6A
:100AC00083B0002B0CD1337D002B1AD12B7D002B52
:100AD00028D1237D002B36D10DF09EF803B0F0BD58
:100AE0000023802200210020009310330CF0E6FF49
:100AF000012300220021B86A0CF0BAFD337D002BDF
:100B0000E4D00023802210210020009310330CF049
:100B1000D5FF012310220021B06A0CF0A9FD2B7D26
:100B2000002BD6D0002380222021002000931033F8
:100B30000CF0C4FF012320220021A86A0CF098FDCC
:100B4000237D002BC8D00023802200933021002079
:100B500010330CF0B3FF012330220021A06A0CF007
:100B600087FDB9E7084B10B51A78002A00D010BDF0
:100B700001321A700CF002FD04480CF0F9FC002060
:100B80000CF008FDF3E7C046C42E0020D46C011021
:100B9000CA2070B5800009F07FFE0300283303628D
:100BA0003433436502008023C0649032C050083360
:100BB000C2502C33C05034320833C2502C33C05092
:100BC000F8220023B02430498350083A815004327F
:100BD0008050483283502D49043283500C3281506A
:100BE00004328350503AFF3A294D64000251083CC8
:100BF00005510434005148340351043403510C347A
:100C00000151DC21040049004350F0344831445084
:100C10000C3943500C3144182C39445004314250A3
:100C20000431435460314350A83C0C3144504518C2
:100C30002C3945500431822542500421AD004151E8
:100C40007C3543510C35445146192C3D46510435F1
:100C50004251183D41517C3543510C3544514619A0
:100C60002C3D465104354251183D41517C3543518C
:100C7000C8239B00C450C4182C3BC4500433C2503A
:100C8000183BC15070BDC046650B0010784B011079
:100C9000B10A0010A5239B0070B50500C61803001B
:100CA0000122D135F933FF33FF351A7004002800D3
:100CB0000BF03EFAEB68002B06D0FC235B00012210
:100CC0002800E1580AF0DCFFAF2301229B00E31863
:100CD0001A7030000BF02CFAF368002B06D0AF230B
:100CE0009B0001223000E1580AF0CAFF70BDC046E7
:100CF000BC239B0070B5C518AC3BC35804009B6A6D
:100D00002800AB620BF014FAEB68002B06D0C62368
:100D10009B0001222800E1580AF0B2FF70BDC046D6
:100D2000C7239B0070B5C6182C33C518C36A0400CE
:100D3000B36230000BF0FCF9F368002B06D0D1232E
:100D40009B0001223000E1580AF09AFF616BE06AD3
:100D500006F0A9FAA86228000BF0EAF9EB68002B6C
:100D600006D0DC239B0001222800E1580AF088FF0E
:100D700070BDC046F0B557464E464546DE469C23FC
:100D8000E0B5C2583433C1583433C35887B00192E8
:100D9000029103930400128DC72093468000804681
:100DA0002C3027185846226C0E8D151A626C1B8D3C
:100DB000961BA26C0093D31A9A465423E35AA0447C
:100DC0009946AB4228DA280006F0B4FAB14527DA92
:100DD000E36CD14500DBEEE0011C181C994606F0DF
:100DE00062FA0490E817401BC00FED0F236D401B03
:100DF0007043059306F09EFA059906F054FA051C17
:100E0000504606F097FA8246300006F093FA0599AC
:100E100006F049FA061C1FE000200025B145D7DB8B
:100E2000D14500DAB2E0E36C191C994606F03BFAB2
:100E3000266D00210490301C06F035FA002106F0E2
:100E400032FA0021051C301C06F02DFA002106F0B4
:100E50002AFA00239A46061C291C049806F00CFA6C
:100E60005146051C484606F01EFA311C06F004FAED
:100E7000A36D061C9A469B4500DBBEE05A46981AB5
:100E800006F058FA494606F00EFA5F4906F00BFAEA
:100E9000011C281C06F0F0F9051C009B534500DBE3
:100EA000A5E05246D01A06F045FA494606F0FBF98D
:100EB000554906F0F8F9011C301C06F0DDF9061C56
:100EC000E36A216E181C9B4606F0EDF9814673001B
:100ED00068005B08494640089A4606F013FA002865
:100EE0000AD1281C002106F01BFA4D46002803D128
:100EF00080231B069C4665444946504606F002FA8C
:100F000000280AD1301C002106F00AFA4E460028BB
:100F100003D180231B069C466644291C584606F0D4
:100F2000ABF94346986240460BF002F94346DB6852
:100F3000002B06D0D1239B0001224046E1580AF045
:100F40009FFE616BE06A06F0AEF9311C06F094F981
:100F5000B86238000BF0ECF8FB68002B06D0DC23FD
:100F60009B0001223800E1580AF08AFE019B1B8D8C
:100F70002364029B1B8D6364039B1B8DA36407B0DA
:100F8000F0BCBB46B246A946A046F0BDE36C011CCE
:100F9000181C994606F087F900210490206D06F090
:100FA00082F9002106F07FF9051C504606F0C2F9CF
:100FB0002E1C824650E7011C181C994606F073F956
:100FC000236D04909A46E817401BC00FED0F401B9D
:100FD000704306F0AFF9514606F065F90021051C93
:100FE000504606F060F90023061C9A4634E7E06D8F
:100FF000834200DC64E7C01A55E7E06D834500DCFE
:101000004BE75B46C01A3BE7CDCCCC3DC7239B00EA
:1010100070B5C5182C33C6189C231B01C3188361F7
:1010200001230377C36A0400AB6228000BF080F849
:10103000EB68002B06D0D1239B0001222800E15849
:101040000AF01EFE616BE06A06F02DF9B062300016
:101050000BF06EF8F368002B06D0DC239B00012216
:101060003000E1580AF00CFE70BDC046C7239B005B
:10107000F0B5C7182C33C6189C23C6461B01C318ED
:1010800000B5836101230377836A0400191C006A99
:10109000984606F0F4F8184906F0F1F84146051CA8
:1010A000E062606A06F0EBF8134906F0E8F82063A6
:1010B0003800BD620BF03CF8FB68002B06D0D12352
:1010C0009B0001223800E1580AF0DAFD616BE06A0A
:1010D00006F0E9F8B06230000BF02AF8F368002B54
:1010E00006D0DC239B0001223000E1580AF0C8FD45
:1010F00080BCB846F0BDC0460000C842FE23F0B533
:10110000C64606005B00C758C833C518BB6A00B5A1
:101110000400AB6228000BF00BF8EB68A136FF3639
:10112000002B06D0BB239B0001222800E1580AF0C7
:10113000A7FDA06809F0E2F906F006F800221B4BB3
:1011400005F02FFF06F008F8051CB86A06F0F2F863
:10115000A16B06F08EF8E16B8046281C06F089F83A
:10116000011C404606F08BF806F018F9104A114BA6
:1011700005F031FF104B002205F013FF05F0ECFFE6
:10118000B06230000AF0D4FFF368002B06D0E423ED
:101190005B0001223000E1580AF072FDB86AE56395
:1011A00006F0C8F8A06380BCB846F0BD65CDCD415F
:1011B000C3718BB665BCB93F00807640094B10B552
:1011C000C3188361012303770400806809F096F94E
:1011D00005F0BAFF0022044B05F0E3FE05F0BCFF6A
:1011E000606610BDD809000065CDCD4170B5040022
:1011F000806809F083F905F0A7FF00221E4B05F077
:10120000D0FE05F0A9FF616E06F033F8216B06F001
:101210004AF8011CE06A06F02CF80021051C06F0D3
:101220007FF8002800D170BDC7239B00E61830006E
:10123000B5620AF07DFFF368002B06D0D1239B0036
:1012400001223000E1580AF01BFDD223606B9B00A5
:10125000291CE61806F027F8B06230000AF068FF93
:10126000F368002BDFD0DC239B0001223000E15823
:101270000AF006FDD7E7C04665CDCD41F0B59F2009
:10128000C646000100B509F007FB03007033836612
:10129000020094230221C050A4320833C2502C33E0
:1012A000C05034320833C2502C33C050343208336B
:1012B000C2502C33C05034320833C2502C33C0508B
:1012C00034320833C2502C33C0504942F833C15035
:1012D0005133FF33C218A13BFF3BC250C2182C3B15
:1012E000C2508D2200239200862483500122A40044
:1012F00002518924E4000519C13CFF3C0551051940
:101300002C3C0551203403511C3C025160340151E6
:10131000B4340151E021A54C8900435008394450B0
:10132000F524043140504831435004314350A04922
:10133000A400015104340351103402519D4D083C66
:101340000551043400519C4C8A2503510434035147
:101350009A4C9B4E0151043403510224ED00445138
:10136000083D46510326974D04274051964DA0460F
:10137000435104354351954D033441510435435194
:1013800010354651924E083D4651A226914DF60029
:101390004051914D435104354351904D4151904D31
:1013A00045198551103687518E4F083E87518E4E14
:1013B000AF2780518D4EFF008351043683518C4EF0
:1013C00081519C2636018619C6511037C451894C6B
:1013D000083FC4510624884FC051884FC351043779
:1013E000C351874FC1510437C6511037C451854C82
:1013F000083FC451844F854CC051854FC3510437B9
:10140000C351844FC1510437C651CB260727F6007C
:101410008751814F083E8751804ED6278051804E9C
:10142000FF008351043683517E4E815106190824F2
:10143000C6511037C4517C4C083FC4517B4F4446C1
:10144000C0517B4FC3510437C3517A4FC151E3217F
:10145000C900465078494350DE2189004618EC21E6
:10146000C9004650461875494650043142507449E7
:101470004254744943504D39FF3946185931FF31B0
:101480004650461870494650043142506F49425404
:10149000A321C9004618FE21C90046506C4943509B
:1014A0000C3146186B494650043142506A49435446
:1014B0006A4943509621C900461869494650461862
:1014C00068494650043142501839425066498826CE
:1014D0004350B021C9004118360181518719634E2C
:1014E0008751634E8251183E8451624E8351624E41
:1014F00081518719614E875104368251604E002711
:101500008451604E83510C3681515F498619465093
:101510005E4900264250183944505D494350BD2170
:10152000C90044185B49445044185B494450043195
:1015300042505A4942505A494350D721C900441891
:101540009A21090144504418564944505649574C71
:10155000425018394250020021490C32425054493D
:101560004450043141180E604F605249524C43546C
:101570000831425051494450514941180E604F6062
:101580009D2109014354214942504E4A4E49815000
:1015900004328218166057604C4A835405614561D5
:1015A000C3608361037780BCB846F0BD950C001022
:1015B000784B0110FD1000102C0400003C040000CA
:1015C000F10C00104C04000094040000A40400007E
:1015D0006D100010B4040000FC0400000C050000B5
:1015E000A8090000210D00101C0500006405000082
:1015F00074050000750D001084050000CC05000086
:10160000DC050000BD110010EC050000D809000049
:101610003406000044060000ED11001054060000DE
:101620009C060000AC0600000D100010BC06000077
:1016300004070000140700005407000034070000EE
:101640003C0700009C0700007C07000084070000A6
:10165000E4070000C4070000CC0700002C080000CD
:10166000380800000C08000074080000540800004E
:1016700058080000BC080000C80800009C080000D2
:101680008808000004090000E4080000E8080000E1
:101690004C090000580900002C090000180900003E
:1016A000940900007409000078090000104B011033
:1016B000AC090000B80900007C4B0110C40900000F
:1016C000C8090000DC090000844B0110E809000093
:1016D000036C9B6A83637047436F9B6AC363704765
:1016E000F0B54E46DE4657464546A823E0B5C658F7
:1016F0003433C358070083B08068994608F0FAFE77
:10170000BA6AFB6A04000D00002B11DD20002900DD
:10171000801A9941002915DC002900D17AE0BC62C9
:10172000FD6203B0F0BCBB46B246A946A046F0BD80
:10173000002BF4D1002AF2D020002900801A994110
:101740000029E9DD88235B009A46B36ABA449B46C8
:1017500005F01AFE324905F0A6FD05F01FFE5B46B6
:101760003A6B00900191981A05F0AAFC2D4A2E4B75
:1017700005F031FC00222D4B05F013FC009A019B73
:1017800005F00FFC05F0E8FC4B46796B9B6A061CE4
:10179000581A994605F094FC224A234B05F01BFC8D
:1017A0000022224B05F0FDFB009A019B05F0F9FB9E
:1017B00005F0D2FC5B463B634B46311C7B638046A5
:1017C000B86B05F056FD5346986250460AF0B0FCDF
:1017D0005346DB68002B06D09C235B000122504659
:1017E000F9580AF04DFA3E00F86B414605F041FD0C
:1017F0004136FF36B06230000AF09AFCF368002BE5
:1018000000D18CE7B4235B0001223000F9580AF0C4
:1018100037FA84E7064B984200D880E792E7C04643
:101820005F708930C3718BB665BCB93F008076406C
:101830003F420F00F22070B5800009F02DF8030040
:1018400048330364343343670200A023C066B032D8
:10185000C0500833C2502C33C05034320833C25009
:101860009E222C33C0500B3BFF3B52008350303242
:1018700083500023F02436490C328350083A8150BB
:1018800004328050483283503249043283500C3243
:10189000815004328350D03AFF3A2F4D64000251F8
:1018A000083C0551022504340051483403510434E6
:1018B00003510C3401510434035110340551274DA8
:1018C000083C055104340051483403510434035199
:1018D0000C340151A82104008900435071343C317B
:1018E0004350FF340C31445044182C3944500431D7
:1018F000AA24425005000421A4000151D9357C34AA
:101900000351FF350C34055105192C3C0551DE25DA
:1019100004340251183C01517C3403512D3CFF3CEE
:101920000419AD00445146192C3D4651043542512D
:10193000183D41517C354351F0239B00C450C418DD
:101940002C3BC4500433C250183BC15070BDC0463C
:10195000D1160010784B0110D9160010E1160010B6
:10196000036A70B59C6A0021201C05F0D1FCFE21A1
:10197000431E98416400640805008905201C05F099
:10198000CFFC002805D00748290001220CF0D6FD25
:1019900070BD0549201C05F086FC05F0EDFC80B209
:1019A000F2E7C046FF0F000000F07F45436D70B5C1
:1019B0009C6A0021201C05F0ABFCFE21431E9841CF
:1019C0006400640805008905201C05F0A9FC0028B6
:1019D00005D00748290000220CF0B0FD70BD054974
:1019E000201C05F060FC05F0C7FC80B2F2E7C046A1
:1019F000FF0F000000F07F4510B501200CF070FDD6
:101A000010BDC046A62070B5800008F045FF030059
:101A100028330362343343658023C0649022C0506E
:101A20000023F8242D498350083A81500432805015
:101A3000483283502A49043283500C328150043298
:101A40008350284DE73A0251083C055102250434E1
:101A5000005148340351043403510C34015104340F
:101A6000035110340551204D083C055104340051F8
:101A700048340351043403510C340151DC21040077
:101A8000490043508834483144500C3943500C319C
:101A900044182C3944500431425004314354113C11
:101AA00060314350FF3C0C31445044182C394450B1
:101AB0000431822442500421A40001517C3403519A
:101AC0000400A42359349B00FF34C450C4182C3B99
:101AD000C4500433C250183BC15070BDF9190010F6
:101AE000784B011061190010AD190010F0B5C64611
:101AF000C36A04009E6A816A00B50700301C05F0C5
:101B0000BBFB8823216A051CA062301C984605F0A7
:101B1000CAFB616A061C281C05F0C5FB011C301CB1
:101B200005F0AAFB43466037E05038000AF000FB9E
:101B3000E36E002B05D0434601223800E1580AF03D
:101B40009FF880BCB846F0BDA02010B5400008F05A
:101B5000A3FE03003433C36298220023104980653A
:101B60008350083A815004328050483283500D49E6
:101B7000043283500C328150043283503C32835003
:101B800002003933FF339032C250C2182C3BC2508E
:101B900001220433C250183B0332C25010BDC0466C
:101BA000ED1A0010784B0110F0B5C646050006008E
:101BB00080211F4A040000B5D06884350006000F5C
:101BC00054360130490053680B42FCD10138176A82
:101BD0000028F8D18021D068154A0004000F7F4208
:101BE0000130890053680B42FCD10138536A002848
:101BF000F8D15B423000E76798460AF099FA236E05
:101C0000002B04D001223000E16F0AF039F843467E
:101C10002800AB620AF08CFAEB68002B05D0AC23ED
:101C200001222800E1580AF02BF880BCB846F0BD2C
:101C300000002050F0B5D6464F4646460025C0B5B8
:101C40003D4C8AB020003D4908F0ACF8022320004A
:101C500008220021009508F0ADF90022012108209A
:101C600001F078FD00220121092001F073FD80269A
:101C7000F827C02376021B037F0202A9102206A8C0
:101C80009A46049302960397059505F03DFC2C4B6C
:101C900006A9102202A89946079305F035FC802377
:101CA000DB020593274B2000039380231B039846F8
:101CB0000493002202AB002108F0D4F9012223682A
:101CC0002000134323600121022300950B3208F00A
:101CD00071F9002201210C2001F03CFD00220121BC
:101CE0000D2001F037FD534602A9102206A80493E7
:101CF00002960397059505F007FC4B4606A91022AE
:101D000002A8079305F000FCC023DB0205930E4BED
:101D100000220393434601210493200002AB08F004
:101D2000A1F902222368134323600AB0E0BCBA463B
:101D3000B146A846F0BDC04600002050904B0110AF
:101D400080770100807701088077010C862070B5CC
:101D5000800008F0A1FD030028330362C0220023A5
:101D600094242049C0648350083A81500432805042
:101D7000483283501C49043283500C328150043263
:101D80008350183AFF3A194D64000251083C05513E
:101D90000434005148340351043403510C340151CC
:101DA000C021040049004350B834483144500C3934
:101DB00011344350FF34203944500431425004312F
:101DC0004354603143500100842321319B00FF3193
:101DD000C150C1182C3BC1500433C250183BC250F3
:101DE00070BDC046351C0010784B0110A91B0010B7
:101DF000F0B5070004000600050087B003A91948E4
:101E00000CF000F8039B5437E36738000AF090F9B0
:101E1000236E8436B435002B04D001223800E16FE4
:101E200009F02EFF049B3000B36201930AF080F9A1
:101E3000F368002B05D0AC2301223000E15809F0F3
:101E40001FFF059B2800AB620AF072F9EB68002BBC
:101E500005D0DC2301222800E15809F011FF07B06A
:101E6000F0BDC0462C2D0020054B10B51A78002A75
:101E700000D010BD013203481A700BF079FFF8E76B
:101E8000C52E00202C2D0020922070B5800008F077
:101E900003FD030028330362F0220023AC24204911
:101EA000C0648350083A81500432805048328350D5
:101EB0001C49043283500C32815004328350483A1A
:101EC000FF3A194D64000251083C05510434005199
:101ED00048340351043403510C340151D821040017
:101EE00049004350E834483144500C3911344350D0
:101EF000FF3420394450043142500431435460319E
:101F000043500100902351319B00FF31C150C11853
:101F10002C3BC1500433C250183BC25070BDC04668
:101F2000691E0010784B0110F11D00102823426D2E
:101F3000D05C0A4B00229B5E834206D02021084AD7
:101F400093691942FCD1106070472021044A9369BB
:101F50001942FCD10D231360F0E7C046A82E0020E3
:101F60000040034010B505F093FD96210648890115
:101F700002F096FE02211C2001F0D4FB02211D205C
:101F800001F0D0FB10BDC04600400340104A70B5C0
:101F900093690400DB0607D4102193691942FCD130
:101FA0001368DBB2302B00D170BD250022008835CC
:101FB000B032137028000AF0BBF8EB68002BF3D0A6
:101FC000B02301222800E15809F05AFEECE7C04690
:101FD00000400340B22070B5800008F05DFC0300B3
:101FE00028330362343343658023C064C022C05069
:101FF000002394242D498350083A815004328050A4
:10200000483283502A49043283500C3281500432C2
:102010008350183AFF3A274D64000251083C05519D
:1020200002250434005148340351043403510C3464
:10203000015104340351103405511F4D083C055122
:102040000434005148340351043403510C34015119
:10205000F421040049004350B834483144500C394D
:1020600043500C3144182C3944500431425004314F
:102070004354113C60314350FF3C0C3144504418F0
:102080002C39445004314250183942507C3143506D
:102090000100B02389319B00FF31C150C1182C3B96
:1020A000C1500433C250183BC25070BD651F0010B0
:1020B000784B01108D1F00102D1F001010B500214E
:1020C00000200AF06FF910BD7047C0460A4B01218D
:1020D0001A68002300B589B0069305930491029312
:1020E00001931E310733039100930021023B034803
:1020F00009F02CFF09B000BD98210020C01C002071
:10210000014B036001207047C01C0020F0B5DE4683
:1021100057464E464546E0B5A9B0FEF7EDFAFE4BF0
:10212000070083609A4604250123FC4AFC4C0262A6
:1021300043623C637D635446E0250021646EF948A8
:10214000AD007D19B862F96225600024BC63CF241C
:1021500000250026E4003C1925606660D024E400D8
:102160003C19206061605146CC6DCB21C9007918C3
:102170002160ED4900267D5000252C3179180D6035
:102180004E60D921C9007D180021E84856462860D4
:102190006960D425ED00791900256160E4497D501E
:1021A000E125ED0079190A604B60E223002100224D
:1021B000DB00FB1819605A60DD230022DB00FB18EE
:1021C000A360DC4B8025FA50F022002492002D06FB
:1021D000BB1868321C605D60BB1868321C605D60B3
:1021E000BB1868321C605D60BB1868321C605D60A3
:1021F000BB1868321C605D60BB1868321C605D6093
:10220000BB181C605D60FEF7FFFB866002268046FF
:1022100002000123C020764216509662D6651384D0
:102220000932FF32146055609466D5666832FEF755
:10223000AFFC514681608C214662866502004650A3
:10224000C020165056461000736EF0325A600200DD
:102250003130FF30046045608466C56604926830A2
:10226000FFF70CF8E6230221524649425B008260E8
:10227000C1502D3BFF3BC166C1503433C150343394
:10228000C1503433C1503433C150536EA322D200F5
:1022900082189A60A84B00220362A84B82634362B3
:1022A0008023DB058362FE239B054363A44BC2634B
:1022B000C3640365934654230A22C252AF23B42257
:1022C0005B008265C365E8229E4BD2000366002155
:1022D0008318002219605A60E922D2008318002175
:1022E00052460600984818605960D36DE4220020D9
:1022F000D200B218DA60954A0021B05000202C328A
:10230000B21810605160F22200219148D200B21838
:1023100010605160ED22D200B2181A618D4A8E4BC6
:10232000B218F250EE229200B31868321C605D6061
:10233000B31868321C605D60B31868321C605D6061
:10234000B31868321C605D60B31868321C605D6051
:10235000B31868321C605D60B31868321C605D6041
:10236000B31868321C605D60B31852461C605D6033
:10237000D36F32005B680C321A60FFF75BFAFC2304
:1023800002009B051362FA23814650469B050221F9
:1023900090605362E020AC23494251649167D15070
:1023A00011500023494600228A62CB620A634B63C4
:1023B0004A465846B132FF328863C863146055609C
:1023C000862292004A4414605560A02292004A443A
:1023D00014605560FFF716FB0200022311005046FF
:1023E0005B42906053629365436E08008832DA6006
:1023F0009930403214605560FF309466D5660460B1
:10240000456005916832FFF79FFB524682604A465D
:10241000126A022302624A46526A5B4242628C227C
:1024200083505A4682620200D032036314605560C2
:102430000190FFF789FB514681604946096A0223F2
:1024400001624946496A5B4241628C210200435065
:102450005946D03203638162146055600390FFF7E0
:1024600075FC0223514680225B4281608350B0217B
:10247000524643504362536E0200B8321A614032F2
:10248000146055609466D56683466832FFF7FCFC9D
:10249000524602238260B02180225B428350435027
:1024A000303143505146020043624B6EE8325A616C
:1024B0004032146055609466D56668320690FFF726
:1024C00089FD514602238160B4215B42435051464D
:1024D0000200436283654B6EB8329A6140321460E9
:1024E00055606832146055609466D566EA24032509
:1024F000A4003D5102900421683203203A00ED25EA
:1025000008F0ACF9AD0078513A000421032008F03E
:10251000A5F90834385121E0C01C002000F2052A3A
:1025200000C817A800E1F5059406000000CA9A3B10
:10253000DC0600002407000052B83A41CDCCCC3F65
:1025400052499D39CDCCCC3D809698005C07000067
:10255000404B4C00D8090000A40700003A000421B9
:10256000032008F07BF9083D78515025AC467C24C7
:10257000BC446546A44605600A95A825BC4464464B
:10258000AC46BC44654644600B94822485600C953F
:1025900000250123E4003D5168343B513A000421F9
:1025A000012008F05BF9FE4C3A003851042101206B
:1025B00008F054F9043C38513A000421D435012084
:1025C00008F04CF9AC46BC4465460523F549603437
:1025D00078503A00056004213B5105200E9508F023
:1025E0003DF9F1493A008A4678500421052008F067
:1025F00035F9083438513A000421052008F02EF945
:102600009922EA49920078509446A821BC44490096
:1026100062468C460A9D0B9C85600C9DBC440561FE
:10262000A9256146C4600224ED00026041600F925A
:102630007C513A0010910220042108F00FF9DC4B84
:102640003A00F8500421022008F008F9AA23DB0020
:10265000F8503A000421022008F000F9A421D54ADC
:102660008900B8508C46C522BC449200614694460D
:10267000BC446246016011910321683542601292A8
:1026800079513A000131032008F0E8F8CA4B3A00CA
:10269000F8500421032008F0E1F8B723DB00F850DC
:1026A0003A000421032008F0D9F8BE235B009C46C1
:1026B000D422BC44520063469446BC446246BF4D9B
:1026C000139378510360C3234260149204220A9941
:1026D000DB008160FA5004213A00042008F0BEF8C3
:1026E000B74B3A00F8500421042008F0B7F8C4238F
:1026F000DB00F8503A000421042008F0AFF8B14B99
:102700000B99F850EA235B0001609C468021BC4491
:10271000890063468B228C469200BC4461469446F5
:10272000BC44624643608160C26015934046179284
:10273000F0230022C25068330132C2501691424643
:102740000421012008F08AF8B22341465B00C850FA
:1027500042460421012008F081F8B02341465B0085
:10276000C85042460421012008F078F8AE234146C3
:102770005B00C850BC3B43440360C0218C20002256
:102780001893049B400049001A505A50E8237D39A1
:102790009B001738F4503200FF39FF3808F05EF81C
:1027A000EB239B00F05032000421022008F056F881
:1027B000EA239B00F05032000421022008F04EF87A
:1027C000F22149008C46AA22B44492006146944604
:1027D000E923B44462469B00F050643301604260D8
:1027E0001991F4501A9204213200022008F036F8B0
:1027F000754B3200F0500421022008F02FF882239C
:10280000DB00F05032000421022008F027F86F4B63
:102810000122F050353BFF3B9C46B44463460360C5
:102820001B93DA235B009C46B444634643601C93CD
:102830008E23DB00F25004213200012008F00EF854
:10284000584B3200F0500421012008F007F88F2384
:10285000DB00F05032000421012007F0FFFFC1210E
:1028600089008C46B4446146594B3200F0506433C1
:1028700001601D91F4500421022007F0EFFF4B4B43
:102880003200F0500421022007F0E8FF9C23DB0017
:10289000F05032000421022007F0E0FF4D4B3200DF
:1028A000F050AD3BFF3B9C462C33B44461469C4604
:1028B000B444634643600893A823DB00016007919A
:1028C000F4500421022007F0C9FF3A4B3200F050C7
:1028D0000421022007F0C2FFA922D200B050042137
:1028E0003200022007F0BAFF3B4B0799F050089BDB
:1028F00001604360B523DB00F45032000421022064
:1029000007F0ACFF320070510421022007F0A6FF4F
:10291000043D705132000421022007F09FFF079D03
:102920002E4B3200F0500560089D64334560002551
:10293000F5506833F4500421022007F08FFF284B34
:102940003200F0500421022007F088FFD023DB0082
:10295000F05032000421022007F080FF214B07993C
:10296000F050089B01604360DC23DB00F450320030
:102970000421022007F072FF1B4B3200F0500421AB
:10298000022007F06BFFDD23DB00F0503200042152
:10299000022007F063FF154B0799F050089B27E0D2
:1029A000840400007C040000EC040000E404000047
:1029B000540500004C050000BC050000B4050000F3
:1029C000240600001C060000140400000C04000093
:1029D00074040000DC04000044050000AC050000A5
:1029E000840600007C060000EC060000E4060000FF
:1029F00001604360CC2348465B00C5506833C55036
:102A00006833C4504A460421022007F027FF9D2264
:102A10004B469200985004214A46022007F01EFFC0
:102A20009C234A469B00D0500421022007F016FF49
:102A30009B234A469B00D050AA2192224900520073
:102A40004A444944026041601E928C20B0221F918A
:102A5000059940008D50D0320D50019B8D50803A29
:102A6000B835FF3A18385A5104211A00FF3807F0D8
:102A7000F5FE019B0C3558511A000421012007F086
:102A8000EDFEC023019A0421D050012007F0E6FE9C
:102A9000BC2301990122C8500B0074330360B82095
:102AA0002093039B04211A501A00B73807F0D6FE72
:102AB000039B042158511A0001201D0007F0CEFE8F
:102AC000C0220421A8502A00012007F0C7FEBC2222
:102AD000A8502A00743202605B46039521920025BB
:102AE000E0229D50A42358465B00C4505A4604215E
:102AF000022007F0B3FE5B465334FF3418515A46A8
:102B00000421022007F0AAFE5B46043C18515A46F5
:102B10000421022007F0A2FE5C464D35FF356823F4
:102B2000605198245B4443605C4423938823046091
:102B3000002003212294069C5B00E0506833E150A2
:102B400022000131033007F089FEC2235B00E05010
:102B500022000421032007F081FE2300C02464002A
:102B600018511C001A000421032007F077FEBE2331
:102B700022005B00E05023000694C8348460269451
:102B80000021E024983242602592012268330360DC
:102B90000298249301514931FF31425045390200D6
:102BA000FF39012007F05AFEAA22029952008850EC
:102BB0000A000120042107F051FEA82202995200C8
:102BC00088500A000120042107F048FE0299D8230A
:102BD0000A009C324851026000202792B4225B0018
:102BE0004C3DC850FF3D8830FD653F663D50043088
:102BF0003F502C30BD503F5028303D509130CC3BA1
:102C0000FF30FF503D5004303F501938FF383D50E1
:102C100004303F50EC20B933FF33FD500433FF50F4
:102C20008033FD500433FF509D3BFF3BFD50043388
:102C3000FF502833FD500433FF502833FD50043338
:102C4000FF502833FD500433FF502833FD508000DF
:102C50000433FF503B583A00042101201D6007F067
:102C6000FDFDED2189007B583A001860EC208000C2
:102C70003B5804215D60012007F0F0FDED21890043
:102C80007B583A005860EC2080003B5804219D603E
:102C9000012007F0E3FDED21049D8900AC467B583F
:102CA000AD391A68FF396144986009911160A62511
:102CB00094215B688900AD0061446544196005603A
:102CC00090200122C0003B580D911A6004213A0067
:102CD000012007F0C3FDFE4BB822FB58920018609C
:102CE000049B04219C46624402609D200122C00096
:102CF0003B5801201A603A0007F0B0FD5346FB58DC
:102D0000012218609D20C0003B5804215A60012018
:102D10003A0007F0A3FD5346FB58012258609D205E
:102D2000C0003B5804219A6001203A0007F096FD4C
:102D30005346FB58012298609D20C0003B58042157
:102D4000DA6001203A0007F089FD5346FB58012262
:102D5000D8609D20C0003B5804211A6101203A0030
:102D600007F07CFD52464146BB5899311A68FF3145
:102D700018611160FF215A68C900711811609A68C2
:102D80000999DB6811600D9ADF3C1A600560AA2082
:102D9000C0003B5882463A001C600421012007F025
:102DA0005DFDCC4D3A007B590421186050463B58DC
:102DB00001205C6007F052FD42467B59E1325860C9
:102DC0001B68029DFF321A608E23AC469B00634451
:102DD0000360B720C0003B5882463A001C600421C3
:102DE000012007F03BFDBC4D3A007B5904211860DF
:102DF00050463B5801205C6007F030FD7B593A009B
:102E0000586050463B5804219C60012007F026FD85
:102E10007B59B24D1A6871199860116096225B68EF
:102E20001201B2181A60099B3A000360C420C00066
:102E30003B5882461C600421012007F00FFDA84D7D
:102E40003A007B590421186050463B5801205C60D1
:102E500007F004FD7B593A00586050463B58042166
:102E60009C60012007F0FAFC7B593A0098605046BC
:102E70003B580421DC60012007F0F0FC7B590D9DDC
:102E80001A68D860156084255A682D01711911607F
:102E9000944A9B68B2181A608D221201B31803601D
:102EA0004246AC201450B020B0234000D2501358FA
:102EB00060381C600421FF3807F0D0FCB223424682
:102EC0005B00D358AC2292001860BB180360F82353
:102ED000EA205B00F4500433F650C033F45004335E
:102EE000F6502C33F4500433F6502833F4500433A6
:102EF000F6502833F4500433F6502833F45004339A
:102F0000F650AD3BFF3BF45080000433F650EB2508
:102F10003358824632001C600421012007F09EFCD9
:102F2000AD007359320018605046335804215C607C
:102F3000012007F093FC5A467359D13258601B6840
:102F4000069DFF321A608023AC469B0063440360F9
:102F50008220C0003358824632001C6004210120C8
:102F600007F07CFC604D3200735904211860504614
:102F7000335801205C6007F071FCCE227359920037
:102F800058601B684A441A603B00F83303608F2383
:102F9000DB00F35832001C600421012007F05EFCC6
:102FA000524B3200F35804211860E0239B004B443D
:102FB00003609C20C000335882461C60012007F04B
:102FC0004DFC4B4D32007359042118605046335864
:102FD00001205C6007F042FCAA227359F53D58605D
:102FE00092001B68FF3D4D444A441A600560A920C9
:102FF000C000335809921C6032000421012007F000
:103000002DFC3C4B32009A46F35804211860A9204D
:10301000C000335801205C6007F020FC5346F35891
:10302000099A58601B6804211A600560B620C00028
:10303000335832001C60012007F010FC2E4B320088
:103040009A46F35804211860B620C0003358012076
:103050005C6007F003FC5346F358099A58601B68FC
:1030600004211A600560D020C000335832001C6073
:10307000012007F0F3FB214B32009A46F35804215C
:103080001860D020C000335801205C6007F0E6FBD8
:103090005346F358099A58601B6804211A6005606A
:1030A000DD20C000335832001C60012007F0D6FB41
:1030B000134B32009A46F35804211860DD20C000FB
:1030C000335801205C6007F0C9FB5346F35819E000
:1030D0008404000054050000BC050000180900002D
:1030E0002406000088080000140400007C0400008E
:1030F000E40400004C050000B40500008406000054
:10310000EC060000099A58601B6804211A60982395
:10311000056048465B00C4500433C050B0204A46A6
:1031200040001450043012500D30FF30135801206D
:103130001C6007F093FB9D234A469B001D00D3585B
:10314000042118609C208000135801205C6007F067
:1031500085FB4A465359019D58602A001B68F83286
:103160001A60039BC022F83303608023EC500433C1
:10317000ED50AB5892462A00C4251C600421012062
:1031800007F06CFB0599019B82228C465B599200EB
:10319000186080236244026003980421C450043301
:1031A000C05053468246C35802001C60012007F0FD
:1031B00055FB534603935B590599186094238C463D
:1031C0009B00634403605846A4231C3D446780670A
:1031D000C4504051A8205B4640001B5850385A4606
:1031E0001C600421FF3807F039FBAA235A465B0014
:1031F000D35804211860A8204000135850385C6050
:10320000FF3807F02BFBAA235A465B00D3588022D5
:10321000586092001B68B2181A6092229200B3188C
:103220000360D8230698029980674051C050AC20B3
:103230004C510950A4300B5850380A001C60FF381C
:103240000C00042107F00AFBAA235B00E358882244
:103250001860CC239B00FB180360942080003B186F
:10326000404643629F2080003B1840468365AA2366
:103270008C309B00F85038003C30030004980199D2
:1032800003622C3343652C3383502C331A00BC2348
:10329000C25038009C233D30FF30B0668430F0507F
:1032A0002C303433F050862080003A183800343304
:1032B0006930F250FF303433F0502C303433F0505A
:1032C0003000A130FF307C3BF850C720800033181D
:1032D00048460364D2208000331848464367B12033
:1032E0008000331848464351BC2080003218DC234C
:1032F0004846C2500B001130FF30C862059A03994E
:10330000603330301362C86230000B00D13060335C
:10331000FF305365030058460362912354309B00ED
:10332000F0503030483BF050A5200699800033180B
:103330006C300B623B1823622500CB2388359B0041
:10334000FD50E34B1E985B6B209D18601F989D609D
:1033500058601998219D18611A98DD605861079D81
:103360001B981D629861089D1D982399D8615D6224
:103370002298249D02949962D8621D63259D269C03
:103380005D630A9D9C63DD630C9D0B9C5D640E9DDB
:103390001C649D640F9D189CDD64109D1C671D6559
:1033A000119D01225D65129DCA499D65139D524282
:1033B000DD65149DC8481D66159D5D66169D9D665C
:1033C000179DDD661C9C00255C67279C9C67E62496
:1033D000A4003B1901241C605D60E4239B00FB18E2
:1033E00019605A608023DB00FB181C605D60FE23BF
:1033F00001219B00FB184942186059608D23DB00B6
:10340000FB181C605D608C2301219A22B348DB000D
:10341000FB184942D20018605960BB181C605D60FF
:103420000123083AB918AE4A5B420A604B60A723F1
:10343000DB00FB181C605D60A6230121A948B422B3
:10344000DB00FB184942186059600121D200BB180B
:10345000A548083A1C605D604942BB18703218608C
:103460005960BB18083A1C605D60944601239F4A6E
:1034700067445B423A607B60434642460121E03349
:1034800098481C605D604942083B413218605960B1
:103490001C675D67FF3201231000049F944A5B4262
:1034A000026043603B0001220933FF331C605D6012
:1034B00088497B1CFF33524219605A6001228D49B2
:1034C0006937FF3752421C675D6739607A60E427CD
:1034D000BF00F3191C605D60E22301227D499B005F
:1034E000F3185242683719605A60F3191C605D6026
:1034F000FC239B00F71801237F4A5B423A607B6004
:103500008C27FF00F3191C605D608B230122734937
:10351000DB00F318524219605A6001216837F31931
:103520007048083F1C605D604942F319186059609B
:1035300001217037F3196E48083F1C605D604942F5
:10354000F3197037186059600122F319083F1C60A5
:103550005D60F31967466749524219605A60F31972
:103560001C605D600123654A083FF1195B427037BA
:103570000A604B60F3191C605D600123604A083FDC
:10358000F1195B4270370A604B60F3191C605D6093
:103590000123083FF0195B4A4F465B4202604360DB
:1035A00001238937584AFF373C607D605B42083F02
:1035B0003A607B600123554A70373C607D605B4216
:1035C000083F3A607B609627BF004F443C607D60B7
:1035D0009427012305984E4ABF004F445B423A604E
:1035E0007B60030001273B4EA0331C605D607F427F
:1035F000083B1E605F601C675D670123454A411CF4
:10360000FF315B420A604B60030002007133FF33FD
:1036100069321C605D60FF32012310003E4A5B424C
:1036200002604360019A1300A8331C605D60A03201
:1036300001231000394A5B42026043600398010095
:10364000A030A8310C604D60026043605A463132B0
:103650005B46FF32100001221F49D0331C605D60C1
:103660005242083B1E605F601C675D6701604260FC
:10367000069803000133FF3361301C605D60FF304A
:10368000083B1E605F601C675D67016042600299D5
:1036900017480B00D0331C605D60083B1E605F6004
:1036A0000E0001211C675D6768331C675D6701249C
:1036B00049421860596099360B4BFF3664423360BB
:1036C000746029B0F0BCBB46B246A946A046F0BD26
:1036D000C01C00200000FFFF0100FFFF0300FFFFF0
:1036E0000400FFFF0500FFFF0700FFFF0800FFFFCA
:1036F0000600FFFF0900FFFF0200FFFF0A00FFFFB7
:103700000B00FFFF0C00FFFF0D00FFFF0E00FFFF8F
:103710000F00FFFF1100FFFF1200FFFF1000FFFF6F
:103720007047C046094A830094464022634410B55E
:103730001C68C0006240C024144080225201134320
:103740001C60034B9C466044416010BD04C00140B6
:10375000004001400A4B80009C460423604400293D
:1037600001D00C230821002A00D10B00026853402D
:103770000C221A4080235B01184302607047C04648
:1037800004C001400123D02283401206936293615A
:10379000094A83009446402263441968C0004A40A5
:1037A000C02111408022520113431960034B9C46F3
:1037B000052360444360704704C00140004001405D
:1037C000024B18688007C00F7047C04600C0064013
:1037D000EFF3108072B6034A1368002BFCD0BFF3DE
:1037E0005F8F70472C0100D0BFF35F8F0022024B28
:1037F0001A6080F3108870472C0100D070B5EFF389
:10380000108C72B60D4D2B68002BFCD0BFF35F8F70
:103810000724CB08C618C05C01230C40A3401C0041
:103820000440034207D103433370BFF35F8F2C6022
:103830008CF3108870BD100001F0CEFD2C0100D07B
:10384000F8B54746CE46884680B5EFF3108C72B681
:10385000214D2C68002CFCD0BFF35F8F9A422CD8EE
:10386000D4080727055D061901241740BC402C42E7
:103870001FD007210127894609E0D408055D0619F4
:103880004C4639001440A1400C00294211D00132AD
:103890009342F2D201204042BFF35F8F00220E4BD1
:1038A0001A608CF3108800280FDBC0BCB946B04604
:1038B000F8BD2C4310003470EEE7BFF35F8F002398
:1038C0002B608CF31088012040424346002BECD043
:1038D000089801F081FDC0462C0100D00021044B66
:1038E000044ABFF35F8F02C39342FAD17047C046C8
:1038F000000100D0800100D0044A1078431CDBB2E4
:10390000172B00D9102313707047C0467010002089
:1039100000B5054B83B00100009318221F23034814
:10392000FFF78EFF03B000BDC84B011080240020BC
:1039300001238340002904D0034A1360034A136023
:103940007047034A1360FBE780E200E000E100E01B
:1039500080E100E001238340014A13607047C046C4
:1039600000E200E0084B10309B688000C358002B39
:1039700007D0064A00209B1A2F229A424041C0B22B
:1039800070470020FCE7C04600ED00E07410002006
:10399000024B10309B688000C058704700ED00E07B
:1039A00070B50D00EFF3108672B60F4A1368002B46
:1039B000FCD0BFF35F8F0D4B10309B6884001B5908
:1039C0000B4A934203D09D4201D001F01DFD074BED
:1039D0009B681D51BFF35F8FBFF35F8F0022024BC7
:1039E0001A6086F3108870BD240100D000ED00E05D
:1039F000CD010010F0B557464E46DE464546E0B5CF
:103A000085B0060002911700EFF3108B72B6674A7B
:103A10001368002BFCD0BFF35F8F0025644B5D570C
:103A20009A46002D00DAA4E06B00624C03935B1908
:103A30009B009846A146C1444B4652469B7910369E
:103A400013705D4BB2009B68019299580B1B2F2B92
:103A500034D95A4B994200D0A4E0039B584A9C4663
:103A6000584B6544AD006353434602336519E4186F
:103A7000554B0121043B1B1B1B055B0D13436B8046
:103A8000524BEF71AB80FF23AB71029BAB604B4697
:103A90000B431900484B019A9B689950BFF35F8F05
:103AA000BFF35F8F0022414B1A608BF3108805B083
:103AB000F0BCBB46B246A946A046F0BD01200A00B4
:103AC0008243D379BB422FD845464E461300404926
:103AD0001B1B5B415943090D3A4B63533A4B02356B
:103AE0006519043B5B1B1B05354D5B0D2B43738038
:103AF0000426B446E0444444131F1B1B4C46A171EA
:103B000002991B05A16049465B0D2B43A380314BF5
:103B1000E77101431360BDE75800C018800020180A
:103B2000C679BE422BD902000623D356002BF3DA06
:103B3000101D82462848804604267642B446E14459
:103B400050464E46361A3005400D824656461C48B1
:103B5000957106439680039A944665441D4AAD00CC
:103B6000641922604246A371029BA280E771A360A0
:103B700090E701F049FC002553465D5754E7101DBE
:103B8000824690884005001584464046D4446646E7
:103B900004302018301AE0260005400D360230436C
:103BA0008046C9E701F030FC57E7C046240100D049
:103BB000CC2E00207410002000ED00E0CD0100109C
:103BC00000E0FFFF00A1FFFFA410002001BDFFFFE8
:103BD000AAAA00000148804701BD0000F0B5DE46FA
:103BE00057464E464546E0B50C0083B0EFF31089CA
:103BF00072B6584A1368002BFCD0BFF35F8F564B48
:103C00009A68030010339F00D559544A9046954254
:103C100032D0A54243D0524EAA1B2F2A2CD80122C3
:103C20008240924651464F4A1268114001915146D6
:103C30004D4A1160BFF35F8FEFF305829346002A70
:103C400033D101232A009A4393689C4208D177E03C
:103C50004B005B189B00F3189968A1422AD01A0008
:103C6000062151560029F3DA019B002B19D0524648
:103C70003E4B1A603B4B1A60374B9B68DD51BFF3DC
:103C80005F8FBFF35F8F0022324B1A6089F3108879
:103C900003B0F0BCBB46B246A946A046F0BD150035
:103CA000EAE75246304B1A60E6E79342C9D001F08A
:103CB000ABFBC6E706215956002921DB4A00501804
:103CC000800034188046A0689860E079D87106209A
:103CD00020569871002824DBA488F01A6405241566
:103CE00044440019E0240005400D2402204398803C
:103CF00052181F4B9200B6181A781970B271B3E7B8
:103D0000594600290FD1FF3191711A499180184904
:103D10000A789A71184A9B1B5B415A43120D0A702C
:103D2000A2E71648E3E7164A1649D21A083A5002A3
:103D3000400D01439980144952080A43DA8093E701
:103D40000621515613000029B8DA5A46002AEAD152
:103D50004546DCE7240100D000ED00E0CD01001075
:103D60007410002000E100E080E100E080E200E06B
:103D7000CC2E002001BDFFFFAAAA000001BD00005B
:103D8000AE10002000F0FFFF00F8FFFF70B5EFF36A
:103D9000058101240443EFF3108C72B6214A1368A5
:103DA000002BFCD0BFF35F8F1F4B05001F4AED1A9D
:103DB0006D416A43120D1E4D8900AE6852B27658AD
:103DC000A6421CD00621595691421CD012215956A8
:103DD000914222D01E215956914220D02A21595673
:103DE0000324914210D0134B19781A708171BFF3DC
:103DF0005F8F00220B4B1A608CF3108870BDAB688C
:103E00000D4C5C50EFE700246100091989005B1834
:103E1000FF21997109499980E5E70124F4E702241B
:103E2000F2E7C046240100D074100020AAAA0000C6
:103E300000ED00E0CC2E0020CD01001001BDFFFF01
:103E4000054B064A1360064A136053609360D360C3
:103E500013615361936170478080808000E400E0CB
:103E600004E400E000B5074B83B00100009300229A
:103E700005230548FFF7E4FC002801DB1F23181A7F
:103E800003B000BDE44B0110D32E002070B5040038
:103E90000E001500FFF730FD0100200000F006F8CD
:103EA000A680E580BFF35F8F70BDC046024B9C4685
:103EB00061448900016070474000003410B504007F
:103EC000FFF71AFD01002000FFF7F0FFFF23237129
:103ED000BFF35F8F10BDC04610B50400FFF70CFDA7
:103EE00001002000FFF7E2FFFF23A380BFF35F8FF5
:103EF00010BDC04610B504000120FFF709FD044BBA
:103F00009C46604480002060BFF35F8F10BDC046B8
:103F100040000034034B9C46614489000160BFF3BC
:103F20005F8F70474000003483680B4810B58446AB
:103F300061446244090112019A18591854684B6887
:103F400001209C4201D802D00020C0B210BD1268EE
:103F50000B689A42F9D8F7E7FFFFFF0F0A4B196881
:103F6000EFF3108072B60A68002AFCD0BFF35F8FAF
:103F70001B68BFF35F8F00221A6080F3108840BF78
:103F8000002000217047C0468C2E0020F8B557460F
:103F90004E464546DE46E0B599460CAB1C780DAB67
:103FA0001B78060090469A460768002C11D1BC7B0E
:103FB000002C42D065003B682D19033D59194B7800
:103FC000BB73002B00D1FB7300238B704B700B7005
:103FD00004E065003B682D19033D5919B2682A4B6E
:103FE00094464246E3181B0163441A604A465A60ED
:103FF0000A9A9A600B9ADA6000238B704B700B70F0
:104000007B7B9B46002B2BD022005946B8687B68EF
:1040100098473A68002816D05B4658465B005B44D8
:104020005519033BA870D118D35C002B00D06B70DE
:104030005B460C707B73A34513D0F0BCBB46B24605
:10404000A946A046F8BD5B465B005B44033BD31822
:104050009C705119525D002A00D05A705B460B705B
:104060007C7342464B46307D00F0B8FB051E06D0FF
:104070005346002B03D12100306800F0D3FD0E9B86
:10408000002BDAD01D70D8E7FFFFFF0FF0B5DE463A
:1040900057464E4645460023E0B58BB00893674B24
:1040A0008200D45800239B46099000F00DFB626803
:1040B00006000F00EFF3108572B61368002BFCD0DA
:1040C000BFF35F8F23689C465B7B9946002B00D132
:1040D00069E0A2685A4B90464B441B019844434602
:1040E0001A685B6810001900801BB941002900DCC8
:1040F00063E0099800F072FB002300229846002339
:104100000692079300239A466368BFF35F8F5A466F
:104110001A6085F310885346002B08D10028C4D1BB
:104120000BB0F0BCBB46B246A946A046F0BD089B0A
:10413000414618024B461843D047626806000F00FC
:10414000EFF3108572B61368002BFCD0BFF35F8FBE
:10415000002F50DB33003B4302D02369002B61D199
:104160002368D97B002907D04A00521819688C4669
:1041700049466244033A51709A7B002A01D14A466B
:104180009A734A46DA734B46E168013BCA5C0132D6
:10419000CA545B4623616368BFF35F8F5A461A6057
:1041A00085F3108881E700230022984600230692B9
:1041B0000793002300209A46A6E7002902D1002891
:1041C00000D096E70021604600F0AAFC43461A683A
:1041D0005B680692079343469B689A464346DB68B2
:1041E0009846E3684B44013B1B7808931B0203434A
:1041F0002361002088E72369002BB1D0069A079B32
:10420000921BBB41002B15DB594604910121039100
:104210004946029141460191514620000091FFF725
:10422000B5FEB6E700F050FA32003B0012184B41E1
:10423000002BE9DA0122034B5242E5E76C2D002006
:10424000FFFFFF0FFFFFFF7F10B5144C6368002BCB
:1042500004D00A211248FFF729FE10BD2300114A9D
:104260001021206800F076FB032000F021FA0320E3
:1042700000F01EFB03200C4900F06AFAFFF73CFB3C
:104280000A4B9C4603232375D0231B061B686044FE
:104290006375074B80006060DC60DAE7BC100020CB
:1042A0008C2E0020293F00108D400010400000346B
:1042B0006C2D002000487047BC100020F0B54E4621
:1042C0004546DE465746E0B585B0019310AB1B78F6
:1042D0000600039300239946984600927268EFF314
:1042E000108B72B61368002BFCD0BFF35F8F35685C
:1042F000AC7B002C3DD067002B683F19033FDB19D6
:104300005A78AA73002A00D1EA73B168474A8C46EA
:1043100000980199A21812016244106051600E9930
:1043200091600F99D16042469A705A701A706B7BF7
:104330009A46002B67D022001900A8686B6898473E
:104340002A68002852D0534650465B005344D71980
:10435000033BB870D118D35C002B00D07B70534660
:104360000C706B7354454FD0F3681B19013B1878E0
:1043700000E000207368BFF35F8F42461A608BF342
:104380001088002C4FD04B46002B08D10002204350
:1043900005B0F0BCBB46B246A946A046F0BD039BA3
:1043A000002B3ED00E9B00200F999847030004007D
:1043B0000D000B4335D000290ADA009A019B121B2D
:1043C000AB4100920193002B0ADB039B994685E7E2
:1043D00000F07AF924184D4100940195002DF4DA8B
:1043E0000123134C5B4200930194EEE753465B00BC
:1043F0005344033BD3189C70D119D25D002A00D0DE
:104400005A7053460B706C73307D009A019B00F01C
:10441000E5F981460028A7D02100306800F002FCB1
:10442000A2E70020B4E701204042B1E7FFFFFF0F01
:10443000FFFFFF7F407D7047F0B504000D000626AA
:104440007642F717C64636196F4100B584B08F42E1
:1044500014D811D000F038F932003B00121A8B4109
:10446000002B15DC002B3ED02000290000F060F965
:1044700004B080BCB846F0BD8642EBD900260027C8
:1044800000F022F932003B00121A8B41002BE9DDCB
:10449000002302930193154B3200009314483B0014
:1044A000FFF70CFF0028DFDB00239846BC46114ACB
:1044B000114F7B6A9C4504D8B96A8E42D4D99C4579
:1044C000D2D11168EFF3108072B60B68002BFCD0CC
:1044D000BFF35F8F1368BFF35F8F4146196080F3AE
:1044E000108820BFE5E7002ABED0D1E75D3F00106D
:1044F000BC1000208C2E00200040054070B5040048
:104500000D0000F0E1F800196941002902DBFFF716
:1045100093FF70BD012001494042F8E7FFFFFF7F94
:10452000F0B5EFF30583CE46474680B505000C0095
:1045300085B0002B12D02C4A0020536A9C4203D82D
:10454000926A0130AA4204D305B0C0BCB946B04655
:10455000F0BDE01A421E9041C0B2F5E7234E02932F
:104560000193234B0200009330000B00FFF7A6FEDF
:10457000031EE0DD20BF7168EFF3108772B60A6892
:10458000002AFCD0BFF35F8FDAB294463068427BDA
:1045900062451DD0FF221A405100894601689144AE
:1045A00088464946414403398978002913D0F16887
:1045B0001B0A88464244013A1278DBB29A420FD075
:1045C0007368BFF35F8F00221A6087F31088B2E729
:1045D000FF221A40EBE732699342F1D13161EFE7F4
:1045E000614600F01FFBEBE700400540BC100020D7
:1045F0005D3F0010F0B5EFF30582D6464F464646C4
:104600001000C0B51038EFF3108872B6214C236843
:10461000002BFCD0BFF35F8F0123190081401E4D9A
:104620001F006963AA461D4D29601D4D2E78AC46BA
:104630003500C5402F402B4209D1BFF35F8F276063
:1046400088F31088E0BCBA46B146A846F0BD534690
:10465000144D5F6A83005D59AF420ED3124A8E43F8
:104660009B5862461670BFF35F8F0022226088F36A
:104670001088002BE6D09847E4E70C4B92009C464C
:10468000624413681360BFF35F8F0023236088F3D5
:104690001088D7E7280100D0004005403C70054055
:1046A000D22E0020982E00202C230020D03F054041
:1046B00010B50100024A0348FFF7A0F810BDC0463C
:1046C000084C0110C82E0020034B596A0A00986A52
:1046D000596A8A42FAD170470040054070B504001B
:1046E0000D00124A536A1900966A536A8B42FAD136
:1046F0003000190024184D41AB4211D80ED02B00C8
:104700000A494A6A9A42FCD307D1084A02E0516A30
:10471000994202D1916AA142F9D370BDA642EED965
:10472000012301246442E5175B42E9E700400540AC
:10473000064A536A9942FCD807D1044B02E05A6AF0
:10474000914202D19A6A8242F9D3704700400540F3
:1047500070B504000D00EFF3108672B61A4A1368A4
:10476000002BFCD0BFF35F8F002D1BD02000FFF784
:104770000FF9164981420AD02000FFF711F90121F3
:104780002000FFF7D5F80123A340114A1360114B15
:10479000A400E550BFF35F8F00220B4B1A6086F335
:1047A000108870BD0B4BA200D5500122A2400A49CF
:1047B00020000B7893430B700449FFF70FFA002198
:1047C0002000FFF7B5F8E5E7280100D0F545001017
:1047D000386005402C230020D22E0020F0B54F4633
:1047E000D6464646C0B507002C4C616A0D00A66A45
:1047F000616AA942FAD18B4208D805D00120E0BCF9
:10480000BA46B146A846F0BDB242F7D9EFF3108AD6
:1048100072B6234801680029FCD0BFF35F8F0125E1
:10482000BD4020491D4C8846097889462943C9B2B4
:104830008C46414660460870391D1B4889006563F7
:104840000A51B9000B50216A0020294219D0616A2F
:104850000800A66A616A8142FAD18B4219D801D157
:10486000B24216D8CC4516D00C4B1F201D625D639A
:1048700001230740BB400D4A1E38136043464A4699
:104880001A70BFF35F8F0022054B1A608AF31088FD
:10489000B5E70020F5E70120F3E7C04600400540FA
:1048A000280100D0D22E0020982E002080E200E0C7
:1048B000EFF3108C72B60A490B68002BFCD0BFF3E3
:1048C0005F8F01238340074A0748136202789A43A7
:1048D0000270BFF35F8F00230B608CF3108870476A
:1048E000280100D000400540D22E002070B5050000
:1048F00014001600002915D00C00002A12D0806880
:104900006B689847296800280ED073009B196200D5
:10491000033B1219CB18033A9C7088188A5C002A52
:1049200015D10670200070BD63001B197200033B97
:104930009219CB18033A9E7088188A5C002A02D11B
:1049400004703400EEE75A7004703400EAE75A70DD
:104950000670E7E730B583600023CCB243730133C0
:10496000047342608373C4730D000068012C06D980
:10497000421C0133DBB2137003329C42F9D1FF2198
:1049800029404B005918002340180338437030BDAC
:10499000F8B5CE46474606000C0080B5002907D082
:1049A0004D0003686D18033D5A195778002F04D144
:1049B0002000C0BCB946B046F8BD7900C91903391A
:1049C000884643445978894600215970517073686C
:1049D0003A002100806898473368002814D0424686
:1049E0009A18947059195B5D002B00D053700F70AA
:1049F000270049463000FFF7CBFF390002003000A6
:104A0000FFF774FF0400D3E7424641465D19AF70DB
:104A10009A185B5C002B00D06B701470E9E7C046FD
:104A2000F0B557464546DE464E46E0B50D006B00F4
:104A300001685B19DF1E0400C85D83B00192CA19CA
:104A4000002850D043001B18033BCB185E78B446B7
:104A5000002E1AD1019E002E42D0E67B002E04D0FB
:104A600073009B19CB18033B5D70A37B002B00D117
:104A7000A573E57300282FD10023537003B0F0BC59
:104A8000BB46B246A946A046F0BD72006244033A56
:104A900089184A78904600224A7091465A7001005F
:104AA00032002000FFF722FF43468246002B07D04A
:104AB0005B0021684344033BCB185A78002A16D187
:104AC000424651462000FFF711FF2168019BCA1999
:104AD000002BC2D10028CFD043001B18033BCB18BA
:104AE00000219970C8E7019B002BB6D1C4E75000A4
:104AF000801803380918487883464846487058702B
:104B000041462000FFF7F2FE594680462000FFF79D
:104B10003FFF414602002000FFF7E8FE8046CFE756
:104B2000F0B557464546DE464E46E0B583B00191A6
:104B3000457B04006B0000685B19DF1EC15DC21974
:104B4000002952D04B005B18033BC3185E78B44673
:104B5000002E1CD1019E002E44D0E67B002E04D0F6
:104B600073009B19C318033B5D70A37B002B00D11E
:104B7000A573E573002931D10023280053706173B8
:104B800003B0F0BCBB46B246A946A046F0BD7200D9
:104B90006244033A8018427890460022427091465F
:104BA0005A7020003200FFF7A1FE43468246002BD8
:104BB00007D05B0021684344033BCB185A78002A96
:104BC00017D1424651462000FFF790FE019B01009D
:104BD0002068C219002BC0D10029CDD04B005B1832
:104BE000033BC31800209870C6E7019B002BB4D18B
:104BF000C2E75000801803380918487883464846B1
:104C00004870587041462000FFF770FE59468046B4
:104C10002000FFF7BDFE414602002000FFF766FEC0
:104C20008046CEE770B5040000292CD0437B8B4230
:104C30002ED0056848004018033828188278002ACA
:104C400021D053009B18033BEA5CEE188A4202D144
:104C50001BE0002A08D053009B18033BEB185A783E
:104C60008A42F6D142785A70002301228370437041
:104C70002000FFF7D5FE617B02002000FFF736FE23
:104C80006073012000E0002070BD43783370EBE7D3
:104C900001221900FFF7C4FE60730120F4E7C0464B
:104CA000F8B5CE464746040080B506200E0000F059
:104CB00023FA051E51D0524B5249E21853425A4131
:104CC0008023DB039C4692054F4B62441A604F4B96
:104CD0001A6010008B689843FBD1494B8021E31880
:104CE0005A4253414A4A5B0049009952062000F05B
:104CF00003FA3100C00001F00FFFC30932D1402296
:104D0000012190466162A362256BEB0736D4270030
:104D10008026E36A00232C3776013E433360062069
:104D2000256300F0E9F94146800001F0F5FE236BB0
:104D300005009846DB073BD46022E36A5A406E23A5
:104D40001340336043462363802310229B013B437F
:104D50001A60304B23630323A3642800C0BCB94608
:104D6000B046F8BD2C4A93423FD900232B492C4A28
:104D70006162A362256B9046EB07C8D52200C02371
:104D800030329B011343234A06201A60666AA26AE6
:104D9000B601B61800F0B0F9224901F0BDFEB60226
:104DA0000100300001F0B8FE0021FFF797FCAEE7EC
:104DB0002200C02330329B011343164A06201A609A
:104DC000636AA26A9B019946914400F095F94B46AB
:104DD00014499B02994601F09FFE0100484601F0EC
:104DE0009BFE0021FFF77AFCA6E77F229901884607
:104DF00010400130400819008044030082E7C0469B
:104E00000080FCBF00C0004000E0004000F0004017
:104E1000A82E002001030000FEFF0000FFFF00009D
:104E2000C0FF3F004E0E000030B50C2083B000F0F4
:104E3000B9F9FEF7C5FC00280ED0994B994A1A60C3
:104E40005A609A60DA601A615A619A61DA611A628C
:104E5000954A5A6203B030BD944CA06700F0F6F951
:104E60000122934B1A60636C012BFCD10322914BFE
:104E70001A608E4A936B012BFCD1013301218E4ABB
:104E80008E480093043300F03DF905238C4A0093CB
:104E900001218C4800F036F98B4B5A68FF2A02D862
:104EA000802252005A6080227D4C824B216912017F
:104EB000854D1A60002907D0606901F02DFE431C62
:104EC0005800C0180338FDD2E0217F4B02201A6839
:104ED0001140802252012A43116019684840032181
:104EE0000140116004219A681142FCD08022802187
:104EF00092012A4309011160802252005A60734BCB
:104F00002361734B5968FF2900D85A600321684A0E
:104F10006F4B116002399A681142FCD0E0201A6888
:104F20001040802252011A43106018684840032143
:104F300001400220116066498A681042FCD080223C
:104F400092011343802212011A608022614B5200A9
:104F50004A606361604B5968FF2900D85A6080221B
:104F60005E4BE16912015C4D1A60002907D060694F
:104F700001F0D2FD431C5800C0180338FDD2E022D6
:104F800055490B681A4080235B012B431A6080232C
:104F900080229B012B4312011A608022414B520058
:104FA0004A60E3614E4B5968FF2900D85A6080225D
:104FB0004C4B216A12014A4D1A60002907D06069E2
:104FC00001F0AAFD431C5800C0180338FDD2E022AE
:104FD00043490B681A4080235B012B431A608023EE
:104FE00080229B012B4312011A60802380225B00E8
:104FF0004B602C4BD20223623B4B5968914200D24A
:105000005A608022394B616A1201374D1A600029BB
:1050100007D0606901F080FD431C5800C0180338B8
:10502000FDD2E02230490B681A4080235B012B43FC
:105030001A60802380229B012B4312011A60802377
:10504000DB024B60184B6362294B5A68FF2A02D877
:10505000802252005A608022264BA1691201244D01
:105060001A60002907D0606901F056FD431C580002
:10507000C0180338FDD2E0221D490B681A40802376
:105080005B012B431A60802380229B012B4312017A
:105090001A6080235B004B600E4BA361DAE6C046CA
:1050A00084240020006CDC021BB70000008000405C
:1050B0003CB0004030B00040002F685900800240F2
:1050C000008C864700C0024030800040001BB700C3
:1050D0003C800040405973075480004054B0004069
:1050E0006080004060B000406C8000406CB00040C8
:1050F0004880004048B00040014B8000C0587047D5
:1051000084240020F8B5040021481D0017000E007B
:1051100001F002FD0100380001F0FEFC069B2904AD
:105120001B0319432368002B20DB1A4B1A4DE2188E
:1051300053425A4180235B019C461203174B624441
:105140001A60174B1A601700AB689F43FBD1C0224F
:10515000231D92011A4321232660A0601360236857
:10516000002BFCDA0823E1601360F8BD3F232268BE
:105170001340B342D9D1A3681B051B0D8342D4D180
:10518000EE22E368D20213408B42CED1EDE7C04657
:10519000001BB7000040FDBF00C0004000E0004021
:1051A00000F000408023024A9B000343D362704713
:1051B0000080054010B5140080221B4BD2051A60F8
:1051C00000281AD00123194A1843194BDA61194AE9
:1051D00042401A62596298628022134BD2051A60CB
:1051E0001549164A1160E022D2041A60002C07D13A
:1051F0008022134B12061A6010BD0D4BD861EBE7ED
:1052000063011B1B9A008023121912015B049A424E
:1052100000D30C4A0C4B1A60054B5A608022084B95
:10522000D2051A60E8E7C04600B00540D3C007B019
:10523000008005402D3FF84FFCFF01000820014091
:1052400000A00540FFFFFF005C2D0020AA23064AB6
:105250001B0113602F230549D360054B1960536868
:10526000002BFCDA7047C0460040024000B0FA0054
:10527000006002402C4B2D4A70B51A602C4A2D4B11
:105280002D491A6014008B689C43FBD12B4D2C4E8A
:10529000B54208D2013E761BB60808CD98472300D8
:1052A0000134B342F9D1FFF7BFFD264A214B1A6002
:1052B000214A9368DB43DB01DD09002BF9D1402251
:1052C000214B224C224E9A675A671A67DA66B4421B
:1052D00008D223682000002B20D00834FEF7FCFD04
:1052E000B442F6D31B4E1C4CC022A168300002F021
:1052F0000BF9A660FEF7F2FAFEF7A2FDFEF7A4FF97
:10530000164C174EB44208D2013E361BB60808CCE4
:1053100098472B0001359E42F9D170BD0834FEF745
:10532000CDFDB442D5D3DDE700E00040BFCDFBFEAC
:10533000FE7F3C0000F0004000C000408C1B0020BD
:105340009C1B0020FFFFFF0100F001407C1B0020A0
:105350008C1B00200000002000ED00E09C1B0020C2
:10536000A41B002000BEFDE7094A030010680028C6
:1053700005D00849C3188B4207D813607047064808
:105380000449C31810608B42F7D901204042F5E769
:105390002829002000000420D42E002010B5FFF79B
:1053A000E1FFC04610B50C0082B01900002A0AD0F7
:1053B000064B0192009302002300054801F00CFB0C
:1053C0000120FFF7CFFF034B1A00F2E72C4C01102E
:1053D0003C4C0110205401100FB400B5084883B0B4
:1053E00002F0F6F9049B002B07D005A918000191E3
:1053F00001F012FB034802F0EBF90120FFF7B2FFC6
:105400006C4C0110DC55011010B50148FFF7E4FFAA
:105410007C4C01109A4200D2885470477047C046B5
:10542000F8B557464E464546DE46E0B599460A9BD6
:1054300007009A460D9B8846934615000B9E9B07D6
:1054400010D10C9B9E420DD29D1B14000E005D449A
:1054500022004B46013431002020B847A542F7D145
:10546000B0460B9E002E27D0444675195346AA1B02
:10547000013E985D21004B46B847002EF6D123002F
:105480002C0098460D9B9B070FD55B46E51A0C9B9D
:10549000AB420AD94646984622004B4631002020AE
:1054A0000135B8470134A845F6D82000F0BCBB460A
:1054B000B246A946A046F8BD2C00E3E7F0B54F463A
:1054C0004646D646C0B584B098460EAB1B78129FB0
:1054D000994694460D9C109B119EBA0725D4002E28
:1054E0004BD19C4200D3BFE001223A4092461F2C90
:1054F00000D9B8E00C9A551E302201E0202C03D0D0
:1055000001342A55A342F9D85246002A0DD0A642AA
:105510000BD9202C44D00C9A551E302201E0202CAF
:105520003ED001342A55B442F9D1FA064DD57A0558
:105530003FD4002C39D10F9B102B00D179E00F9B69
:10554000022B00D18AE030230C9A012413704B46C1
:10555000002B3FD02D230C9A135501340C9B62462F
:1055600000930397434602960194FFF759FF04B056
:10557000E0BCBA46B146A846F0BD012215003D4048
:10558000AA463A422FD04A46002A02D10C323A4269
:1055900000D0013E9C42BAD21F2CABD9202E27D975
:1055A0002024FA06DAD57A0503D4A3422DD0A642E8
:1055B0002BD00F9B102B32D0022B20D0202CCDD003
:1055C00030220C9B1B191A700134202CC6D04B467C
:1055D000002BBFD17B070DD43B07BFD520230C9AEE
:1055E00013550134BAE79C429FD21F2C00D881E7A3
:1055F00020249AE72B230C9A13550134AEE7202C74
:10560000ACD00C9B1B1901343AE0631E012C92D0E4
:105610000F9A102A2AD0022A2FD01C00D0E7BB06EE
:105620000ED4202C9AD00C9B1A19013478231370B5
:10563000C4E7BB060DD478230C9A01241370BFE78E
:10564000202C00D18AE758220C9B1B191A700134B8
:10565000B4E758230C9A01241370B1E70C9A603315
:1056600001241370ACE7202400265EE7023CBA0652
:10567000E9D40C9A12191C00D8E70C9A92465344AC
:1056800062221A709AE7C04610B5002800D110BDFA
:1056900002F052F8FBE7C0460B0010B5002802D01C
:1056A00049681B68984710BDF0B5DE4657464E4620
:1056B0004546E0B59BB09B46249B89469846259B72
:1056C0000B900C924046424619009A4601F0E5FCC8
:1056D000002800D0D8E0012240465146774B524284
:1056E00001F0D6FC002800D0CEE001224046514611
:1056F000734B524201F0B6FC002800D0C4E00022F7
:1057000000234046514601F0ADFC002800D0B9E12D
:10571000424653460A9209938023289ADB001A4096
:105720000E92289A1A4201D1062326930A9A099BBF
:105730001600134300D0C7E0289B002500261B0558
:1057400000D49BE100230D93269A0D9B9A4200DC26
:105750009FE1D01A431E26938023289ADB001A4328
:105760000023002728920D93279B0024BB4200D9D9
:10577000DC1B0223289A1A400E92289A134203D067
:105780007B427B415B421C400D9B002B07D00A985B
:1057900009992A00330001F004FC0A9009910022C3
:1057A00000234046514601F05DFC002805D08020D2
:1057B00000068446099961440991289A414B0B9D42
:1057C00013400493269B0A9A0293099B0394009228
:1057D000019349465B4628000C9A00F08BF90400BF
:1057E000002F62D0289B220098061F23C0179843E1
:1057F000631C984649465B466530A8470D9B0025CB
:10580000DA179C18DB0F9A465440013F01E0202D27
:1058100013D00AAA94461F23200063440A210135AD
:105820005E1901F079F93031317020000A2101F060
:1058300073F926000400092EE9D8052306930023F6
:1058400004930A330393534605970B9F029312ABBD
:10585000009342465B46494638000195FFF72EFE0D
:105860000E9B0400002B20D00C9BC51A279BAB423B
:105870001BD91E0022005B46494620200135B8474F
:105880000134AE42F6D810E0289B42460493279B91
:1058900049460393269B0B9802935346009201932B
:1058A0005B460C9A00F026F9040020001BB0F0BC07
:1058B000BB46B246A946A046F0BDC046FFFFEF7FFB
:1058C000FFFFEFFFFFF7FFFF734B099F9C46780038
:1058D000400D604401F0F4FB704A714B01F07BFB1A
:1058E000704A714B01F058FB3B03704A1B0B1A4383
:1058F00004000D00300011006D4B002201F047FB49
:105900006C4A6D4B01F067FB02000B002000290080
:1059100001F042FB01F0ECFB0D9001F0D1FB674A76
:10592000674B04000D0001F056FB0022654B01F0AF
:1059300033FB01F0DDFB644A0600644B20002900C4
:1059400001F049FB040030000D000F9601F0B8FB98
:105950005F4A604B01F03FFB02000B002000290072
:1059600001F015FB02000B0006000F0001F033FBF5
:10597000320004000D003B003000390001F00CFB48
:10598000002210901191544B2000290001F009FBD6
:105990000022524B01F000FB02000B002000290006
:1059A00001F0FFFA00224E4B01F0F6FA02000B0064
:1059B0002000290001F0F5FA0D00802104003200DA
:1059C0003B000020C90501F0E2FA02000B002000B4
:1059D000290001F0E1FA02000B001098119901F082
:1059E000E0FA0022314B01F0D7FA3E4B0F9C9C4667
:1059F00064440022230501F0EEFA05000E000200C7
:105A00000B000A98099901F02DFB00280AD00D9B84
:105A10002800013B31000D930022304B01F0C1FA08
:105A200005000E00C6270D992B0063318F42BF4140
:105A300028997F420437090500D495E6334300D105
:105A400082E6099C284A2100284B0A9801F018FB9D
:105A5000002808D000222100254B0A9801F002FB03
:105A6000002800D070E6269B002B00D17CE60E9B20
:105A70005A1E9341269AD31A269375E600230427CB
:105A80000D9371E643460A9380231B065344099302
:105A900042E6002326935FE601FCFFFFFB799F505F
:105AA0001344D33FB3C8608B288AC63F0000F03F41
:105AB0000000F83F61436F63A787D23F71A3790964
:105AC0004F930A400000E03F1655B5BBB16B024052
:105AD000EF39FAFE422EE63F00002C400000244041
