:020000041000EA
:1000000000B5324B212058609868022188439860DF
:10001000D860186158612E4B002199600221596106
:100020000121F02299502B49196001219960352056
:1000300000F044F80222904214D00621196600F024
:1000400034F8196E01211966002018661A6600F04E
:100050002CF8196E196E196E052000F02FF8012189
:100060000842F9D1002199601B49196000215960AB
:100070001A491B48016001219960EB211966A021F2
:10008000196600F012F800219960164914480160C1
:100090000121996001BC002800D000471248134993
:1000A000086003C880F30888084703B5996A0420EC
:1000B0000142FBD001200142F8D103BD02B5186610
:1000C0001866FFF7F2FF186E186E02BD00000240BE
:1000D000000000180000070000035F00212200005C
:1000E000F4000018222000A00001001008ED00E03C
:1000F00000000000000000000000000074B24E7A12
:1001000000200420F7010010C3010010C5010010F9
:10011000C1010010C1010010C1010010C101001097
:10012000C1010010C1010010C1010010C701001081
:10013000C1010010C1010010C9010010CB01001065
:10014000CD010010CD010010CD010010CD01001037
:10015000CD010010CD010010CD010010CD01001027
:10016000CD010010CD010010CD010010CD01001017
:10017000CD010010CD010010CD010010CD01001007
:10018000CD010010CD010010CD010010CD010010F7
:10019000CD010010CD010010CD010010CD010010E7
:1001A000CD010010CD010010CD010010CD010010D7
:1001B000CD010010CD010010CD010010CD010010C7
:1001C00000BE00BE00BE00BE00BE00BEEFF3058054
:1001D000103800BEF2EB88711C8901103C890110B7
:1001E0003402001090A31AE700201F49086006C8D7
:1001F00081F3088810471D48006800282FD10DA4FE
:100200000ECC002902D000F012F8F9E71849194A7B
:10021000002000E001C19142FCD1174988471749ED
:1002200088471749884700BEFDE701C901C29A42C5
:10023000FBD370473C890110C0000020A41B0020A4
:1002400020A40110000004200000042020A40110BC
:10025000001004200010042000000000704709482E
:1002600006F02AF90047000008ED00E0000000D089
:10027000A81B0020E42E0020C94C0010C11C001057
:10028000F14D00105756000006005250ABB36053BA
:100290006849011006005250861C0302884901106B
:1002A000060052505422A29D904901100500525060
:1002B000DE65F46820A40110F8B5C0460448054B7B
:1002C00010B5834203D0044B002B00D0984710BDDB
:1002D000A41B0020A41B00200000000006480749C2
:1002E000091A8B10C90FC91810B5491003D0044B57
:1002F000002B00D0984710BDA41B0020A41B002099
:100300000000000010B5074C2378002B09D1FFF73F
:10031000D5FF054B002B02D0044800E000BF0123AD
:10032000237010BD501E0020000000005845011031
:10033000054B10B5002B03D00449054800E000BF71
:10034000FFF7CCFF10BDC04600000000541E002087
:1003500058450110836B013383637047F8B506007D
:10036000040005000700164B3C36436630000BF0D6
:1003700003FCA36C68359437002B04D001223000B5
:10038000616E0BF0A1F990260E4B2800A3510BF0E3
:10039000F3FB636F002B04D001222800A1590BF05E
:1003A00093F9094B3800BB620BF0E6FBFB68002BAE
:1003B00005D0BC2301223800E1580BF085F9F8BDC7
:1003C00058450110644501107445011094239B00A9
:1003D000F0B5464698463C23D6464F469A462C33BF
:1003E00099460400C0B5070005002C4E82444666BD
:1003F0008044814450460BF0BFFBA36C3D37FF3770
:100400009435002B04D001225046616E0BF05CF94C
:1004100090234846E6509A460BF0AEFB636F002BE4
:1004200005D0534601224846E1580BF04DF928000B
:10043000AE620BF0A1FBEB68002B05D0BC230122C0
:100440002800E1580BF040F99E2300229B00E3189E
:100450001A7040460BF090FB4346DB68002B06D039
:100460009E239B0001224046E1580BF02DF923000A
:1004700001226533FF331A7038000BF07DFBFB68F7
:10048000002B06D0B2235B0001223800E1580BF0AC
:100490001BF9E0BCBA46B146A846F0BD784E011043
:1004A0009F2301229B0070B5C5182833C3181A700A
:1004B000040028000BF060FBEB68002B06D0A9239A
:1004C0009B0001222800E1580BF0FEF870BDC046E9
:1004D00070B5836B84B00293F023C3580500040009
:1004E000986A06F07FFC0C4E00900191C0351121F6
:1004F0000A4A300005F076FF2800AE620BF03CFBA4
:10050000EB68002B05D0E82301222800E1580BF00E
:10051000DBF804B070BDC04664240020844501109F
:10052000F8B5154B0500040019000600134A3C35C8
:1005300081CA81C1636628000BF01EFBA36C69367B
:10054000FF36002B04D001222800616E0BF0BCF8AE
:10055000230001229133FF331A7030000BF00CFBA3
:10056000F368002B06D0C8235B0001223000E1585D
:100570000BF0AAF8F8BDC0465024002098450110A1
:10058000164AF8B51100060004000500144B3C366D
:1005900081CB81C11B7830000B7062660BF0ECFAE6
:1005A000A36C9535FF35002B04D001223000616E1D
:1005B0000BF08AF823000122BD33FF331A702800A4
:1005C0000BF0DAFAEB68002B06D0DE235B00012289
:1005D0002800E1580BF078F8F8BDC0463C24002014
:1005E000A0450110AA239B00F0B5C558BC3B474667
:1005F00098462C33CE46994681444A4680B5EB8DC9
:10060000060007009362040083B0804448460BF064
:10061000B3FA4B46DB68C1376836FF37002B06D08C
:1006200090239B0001224846E1580BF04DF84246CA
:10063000AB8D404693620BF09FFA4346DB68002B7C
:1006400006D085239B0001224046E1580BF03CF880
:100650006B8D3800BB620BF08FFAFB68002B06D065
:10066000F4235B0001223800E1580BF02DF8FA2248
:10067000698D52008A4289414942EB8D0191A98DD1
:100680009A429B418A42924190250D4F52425B42D1
:100690001121009238000B4A05F0A4FE300067518A
:1006A0000BF06AFA636F002B04D00122300061590D
:1006B0000BF00AF803B0C0BCB946B046F0BDC04666
:1006C00078240020AC450110FE2070B5C00009F070
:1006D00007FE0221EC234942C1505D33FF33C15074
:1006E0008933FF33C2189C235B00C250C2182C3BD5
:1006F000C250962200238824520083502C3AFF3A9D
:1007000064000251E934FF340151BB21C90044188F
:10071000BC218900445044182C39445020314350A6
:100720001C3942506E4C4031435008394450D72454
:100730000431405048314350043143506949A400CA
:10074000015104340351684D10340251083C0551E5
:1007500002250434005148340351043403510C344D
:1007600001510434035110340551604D083C0551CA
:100770000325043400515E4C0351043403515D4C95
:10078000015104340351103405515B4D083C0551AF
:1007900004255A4C00515A4C035104340351594C0E
:1007A00001510434035110340551574D083C055193
:1007B0000525564C0051564C035104340351554CF9
:1007C00001510434035110340551534D083C055177
:1007D0000625524C0051524C035104340351514CE4
:1007E000015104340351103405514F4D083C05515B
:1007F00007254E4C00514E4C0351043403514D4CCF
:10080000015104340351103405514B4D083C05513E
:100810004A4C00514A4C035104340351494C015194
:10082000C721C9004350484943500539FF3944188E
:100830001131FF314450441844494450043142506E
:100840004349425443494350DA2189004418D9218D
:10085000C9004450441840494450043142503F4973
:1008600042543F4943508721C9004418E221C9003E
:10087000445044183B494450043142503A49425490
:100880003A4943509421C9004418EB21C90044500F
:10089000441837494450043142503649425436498D
:1008A0004350A121C9004418F421C9004450441800
:1008B000324944500431425031494254C0218900E8
:1008C0004418FD21C90044502E4943500C314418AE
:1008D0002D494450043142502C4A835470BDC046C7
:1008E0005D030010BC45011055030010D104001039
:1008F0001C0400002C040000CD0300103C04000088
:10090000840400009404000021050010A4040000E9
:10091000EC040000FC040000810500100C05000040
:100920005405000064050000A104001074050000D7
:10093000BC050000CC050000E5050010DC0500004A
:10094000240600003406000074060000540600006F
:100950005C060000BC0600009C060000A406000027
:1009600004070000E4060000EC0600004C0700004D
:100970002C070000340700009407000074070000F3
:100980007C070000DC070000BC070000C407000073
:100990002823426AD25C083BC2547047202370B5BA
:1009A000C35C0400002B3BD12123C35C002B1CD073
:1009B0000DF0EEF92000B43003001C490B435B0737
:1009C0001CD18B1CC31A042B18D94A880B8812041B
:1009D0001A43CB888D881B042B43026043600B892C
:1009E000283803860BF0C8F870BD0DF099F9200087
:1009F000B43003000E490B435B07E2D0B423200060
:100A00000A888C30E2524A880233E2528A880233E2
:100A1000E252CA880233E2520A890233E252E1E723
:100A20000DF0ACF821230122E254DDE7642D002013
:100A30004C2D00208A2070B5800009F051FC030085
:100A40002C3343623433836584230065D022C05045
:100A500000239C241E498350083A81500432805060
:100A6000483283501B49043283500C328150043287
:100A70008350283AFF3A184D64000251083C055152
:100A80000434005148340351043403510C340151EF
:100A9000C8210400490043503C314350C8340C3154
:100AA000445044182C3944500431425018394250B3
:100AB0007C3143500100882331319B00FF31C1500C
:100AC000C1182C3BC1500433C250183BC25070BDFA
:100AD00091090010BC4501109D0900108823F0B554
:100AE000076AC5583433C4583B7D466D83B0002B2C
:100AF0000CD1337D002B1AD12B7D002B28D1237DE7
:100B0000002B36D10CF0ACFD03B0F0BD00238022E9
:100B100000210020009310330CF0F4FC012300228C
:100B20000021B86A0CF0C8FA337D002BE4D0002312
:100B3000802210210020009310330CF0E3FC0123ED
:100B400010220021B06A0CF0B7FA2B7D002BD6D012
:100B50000023802220210020009310330CF0D2FCCF
:100B6000012320220021A86A0CF0A6FA237D002B85
:100B7000C8D00023802200933021002010330CF0D5
:100B8000C1FC012330220021A06A0CF095FAB9E7DC
:100B9000084B10B51A78002A00D010BD01321A7027
:100BA0000CF010FA04480CF007FA00200CF016FACA
:100BB000F3E7C046D42E00202C670110CA2070B580
:100BC000800009F08DFB0300283303623433436552
:100BD00002008023C0649032C0500833C2502C33CE
:100BE000C05034320833C2502C33C050F822002396
:100BF000B02430498350083A815004328050483242
:100C000083502D49043283500C328150043283507A
:100C1000503AFF3A294D64000251083C0551043412
:100C2000005148340351043403510C340151DC2188
:100C3000040049004350F034483144500C394350CB
:100C40000C3144182C39445004314250043143547F
:100C500060314350A83C0C31445045182C39455064
:100C60000431822542500421AD0041517C3543516D
:100C70000C35445146192C3D465104354251183D1E
:100C800041517C3543510C35445146192C3D465158
:100C900004354251183D41517C354351C8239B00D6
:100CA000C450C4182C3BC4500433C250183BC1502C
:100CB00070BDC046910B0010BC450110DD0A00104C
:100CC0009D239B0070B50500C61803000122B135B5
:100CD000D933FF33FF351A70040028000AF04CFFA7
:100CE000EB68002B06D0EC235B0001222800E158C2
:100CF0000AF0EAFCA72301229B00E3181A703000D7
:100D00000AF03AFFF368002B06D0A7239B000122CC
:100D10003000E1580AF0D8FC70BDC046B4239B00F7
:100D200070B5C518AC3BC35804009B6A2800AB6281
:100D30000AF022FFEB68002B06D0BE239B000122A5
:100D40002800E1580AF0C0FC70BDC046BF239B00DC
:100D500070B5C6182C33C518C36A0400B3623000DE
:100D60000AF00AFFF368002B06D0C9239B0001227A
:100D70003000E1580AF0A8FC616BE06A05F0BDFFA5
:100D8000A86228000AF0F8FEEB68002B06D0D423F6
:100D90009B0001222800E1580AF096FC70BDC04675
:100DA000BF239B0070B5C5182C33C6189A231B01AE
:100DB000C318836101230377C36A0400AB62280070
:100DC0000AF0DAFEEB68002B06D0C9239B00012253
:100DD0002800E1580AF078FC616BE06A05F08DFFAD
:100DE000B06230000AF0C8FEF368002B06D0D423AE
:100DF0009B0001223000E1580AF066FC70BDC0463D
:100E0000BF239B00F0B5C7182C33C6189A23C646DB
:100E10001B01C31800B5836101230377836A0400B3
:100E2000191C006A984605F054FF184905F051FF57
:100E30004146051CE062606A05F04BFF134905F06E
:100E400048FF20633800BD620AF096FEFB68002B65
:100E500006D0C9239B0001223800E1580AF034FC77
:100E6000616BE06A05F049FFB06230000AF084FE71
:100E7000F368002B06D0D4239B0001223000E158F8
:100E80000AF022FC80BCB846F0BDC0460000C84253
:100E9000EE23F0B5C64606005B00C758C833C51838
:100EA000BB6A00B50400AB6228000AF065FEEB687F
:100EB0008136FF36002B06D0B3239B000122280089
:100EC000E1580AF001FCA06809F03CF805F066FE64
:100ED000184B002205F08FFD05F068FE051CB86A6E
:100EE00005F04CFFA16B05F0EEFEE16B8046281C7F
:100EF00005F0E9FE011C404605F0EBFE0E4905F049
:100F0000FCFEA16A05F0F9FEB06230000AF034FE82
:100F1000F368002B06D0D4235B0001223000E15897
:100F20000AF0D2FBB86AE56305F028FFA06380BC35
:100F3000B846F0BD84D797410000C842094B10B5B0
:100F4000C3188361012303770400806808F0FAFF67
:100F500005F024FE0022044B05F04DFD05F026FEB1
:100F6000606410BDB809000065CDCD4170B50400C6
:100F7000806808F0E7FF05F011FE00221E4B05F027
:100F80003AFD05F013FE616C05F09DFE216B05F046
:100F9000B4FE011CE06A05F096FE0021051C05F078
:100FA000E3FE002800D170BDBF239B00E61830008F
:100FB000B5620AF0E1FDF368002B06D0C9239B005F
:100FC00001223000E1580AF07FFBCA23606B9B00CE
:100FD000291CE61805F091FEB06230000AF0CCFD45
:100FE000F368002BDFD0D4239B0001223000E158AE
:100FF0000AF06AFBD7E7C04665CDCD41E423B022B5
:1010000010B5C3588258C16F014806F059FA10BD97
:10101000C0450110F0B59D20C646000100B509F09D
:101020005FF90300503383643433C3670200A8239D
:1010300002214067B832C0500833C2502C33C05030
:1010400034320833C2502C33C05034320833C250CB
:101050002C33C05034320833C2502C33C050494274
:10106000F833C1505133FF33C218A13BFF3BC2508C
:10107000C2182C3BC250852200239200FC248350CE
:101080000122640002518524E4000519C13CFF3CA3
:10109000055105192C3C0551203403511C3C0251CB
:1010A00060340151B4340151D821A54C890043501A
:1010B00008394450ED240431405048314350043144
:1010C0004350A049A400015104340351103402518B
:1010D0009D4D083C05510225043400519B4CA0262F
:1010E0000351043403519A4C9A4F01510434035173
:1010F00010340551984D083C05510325974CF600D6
:101100000051974C035104340351964C015104345F
:10111000035110340551944D083C0551934C005136
:10112000934C035104340351924C0151924C0519D4
:101130009E24E400055104248451083E87518F4EBB
:10114000AB2780518E4EFF008351043683518D4E64
:10115000A04681519A2636018619C65101341037AE
:10116000C451894C083FC4510624884FC051884F50
:10117000C3510437C351874FC1510437C65110378B
:10118000C451854C083FC451844F854CC051854F94
:10119000C3510437C351844FC1510437C651C726C8
:1011A0000727F6008751814F083E8751804ED2278E
:1011B0008051804EFF008351043683517E4E815111
:1011C00006190824C6511037C4517C4C083FC4513D
:1011D0007B4F4446C0517B4FC3510437C3517A4FB4
:1011E000C151DF21C900465078494350D6218900BA
:1011F0004618E821C9004650461875494650043142
:10120000425074494254744943504D39FF3946188D
:101210005931FF314650461870494650043142500A
:101220006F4942549F21C9004618FA21C90046500F
:101230006C4943500C3146186B49465004314250BA
:101240006A4943546A4943509221C9004618694982
:1012500046504618684946500431425018394250A9
:10126000664986264350AC21C90041183601815198
:101270008719634E8751634E8251183E8451624EE6
:101280008351624E81518719614E875104368251D4
:10129000604E00278451604E83510C3681515F4966
:1012A000861946505E4900264250183944505D491F
:1012B0004350B921C90044185B49445044185B4964
:1012C0004450043142505A4942505A494350D32164
:1012D000C900441898210901445044185649445003
:1012E0005649574C425018394250020022490C329C
:1012F000425054494450043141180E604F605249E5
:10130000524C4354083142505149445051494118BC
:101310000E604F609B2109014354214942504E4ABF
:101320004E49815004328218166057604C4A8354EB
:1013300005614561C3608361037780BCB846F0BD39
:10134000C10C0010BC450110910E00100C040000EF
:101350001C0400004D0D00101D0D00102C04000099
:101360007404000084040000010E001094040000C6
:10137000DC040000EC04000088090000FC0400000C
:101380004405000054050000FD0F00106405000036
:10139000AC050000BC0500003D0F0010CC050000AE
:1013A000B809000014060000240600006D0F0010AC
:1013B000340600007C0600008C060000A10D001021
:1013C0009C060000E4060000F4060000340700005C
:1013D000140700001C0700007C0700005C070000E9
:1013E00064070000C4070000A4070000AC07000069
:1013F0000C08000018080000EC070000540800006A
:1014000034080000380800009C080000A80800000C
:101410007C08000068080000E4080000C408000020
:10142000C80800002C090000380900000C09000061
:10143000F808000074090000540900005809000071
:10144000584501108C09000098090000D045011092
:10145000A4090000A8090000BC090000D84501103B
:10146000C8090000036C9B6A83637047436F9B6AE3
:10147000C3637047F0B54E46DE4657464546A8233F
:10148000E0B5C6583433C358070083B08068994626
:1014900008F054FDBA6AFB6A04000D00002B11DD50
:1014A00020002900801A9941002915DC002900D16B
:1014B0007AE0BC62FD6203B0F0BCBB46B246A9460E
:1014C000A046F0BD002BF4D1002AF2D02000290064
:1014D000801A99410029E9DD88235B009A46B36AA6
:1014E000BA449B4605F074FC324905F006FC05F051
:1014F00079FC5B463A6B00900191981A05F00AFB63
:101500002D4A2E4B05F091FA00222D4B05F073FA6F
:10151000009A019B05F06FFA05F048FB4B46796B8A
:101520009B6A061C581A994605F0F4FA224A234B86
:1015300005F07BFA0022224B05F05DFA009A019B30
:1015400005F059FA05F032FB5B463B634B46311C14
:101550007B638046B86B05F0B6FB534698625046F5
:101560000AF00AFB5346DB68002B06D09C235B0085
:1015700001225046F9580AF0A7F83E00F86B4146A0
:1015800005F0A1FB4136FF36B06230000AF0F4FAF4
:10159000F368002B00D18CE7B4235B0001223000FC
:1015A000F9580AF091F884E7064B984200D880E792
:1015B00092E7C0465F708930C3718BB665BCB93F96
:1015C000008076403F420F00F22070B5800008F0A6
:1015D00087FE030048330364343343670200A023CB
:1015E000C066B032C0500833C2502C33C0503432C1
:1015F0000833C2509E222C33C0500B3BFF3B52009D
:101600008350303283500023F02436490C3283500B
:10161000083A8150043280504832835032490432B3
:1016200083500C32815004328350D03AFF3A2F4D10
:1016300064000251083C055102250434005148342D
:101640000351043403510C34015104340351103458
:101650000551274D083C05510434005148340351CD
:10166000043403510C340151A82104008900435073
:1016700071343C314350FF340C31445044182C3900
:1016800044500431AA24425005000421A400015111
:10169000D9357C340351FF350C34055105192C3CE8
:1016A0000551DE2504340251183C01517C340351AC
:1016B0002D3CFF3C0419AD00445146192C3D4651C8
:1016C00004354251183D41517C354351F0239B0074
:1016D000C450C4182C3BC4500433C250183BC150F2
:1016E00070BDC04665140010BC4501106D1400109B
:1016F00075140010036A70B59C6A0021201C05F067
:101700002BFBFE21431E98416400640805008905F7
:10171000201C05F029FB002805D0074829000122DC
:101720000CF030FC70BD0549201C05F0E6FA05F010
:1017300047FB80B2F2E7C046FF0F000000F07F4594
:10174000436D70B59C6A0021201C05F005FBFE214D
:10175000431E98416400640805008905201C05F0BB
:1017600003FB002805D00748290000220CF00AFCE2
:1017700070BD0549201C05F0C0FA05F021FB80B2C0
:10178000F2E7C046FF0F000000F07F4510B50120D2
:101790000CF0CAFB10BDC046A62070B5800008F052
:1017A0009FFD030028330362343343658023C06404
:1017B0009022C0500023F8242D498350083A8150CC
:1017C00004328050483283502A49043283500C320C
:1017D000815004328350284DE73A0251083C0551AC
:1017E00002250434005148340351043403510C34AD
:1017F00001510434035110340551204D083C05516A
:101800000434005148340351043403510C34015161
:10181000DC210400490043508834483144500C39DD
:1018200043500C3144182C39445004314250043197
:101830004354113C60314350FF3C0C314450441838
:101840002C3944500431822442500421A400015117
:101850007C3403510400A42359349B00FF34C4504A
:10186000C4182C3BC4500433C250183BC15070BD47
:101870008D170010BC450110F5160010411700101F
:10188000F0B5C646C36A04009E6A816A00B50700C7
:10189000301C05F01BFA8823216A051CA062301C4D
:1018A000984605F02AFA616A061C281C05F025FAFC
:1018B000011C301C05F00AFA43466037E05038003E
:1018C0000AF05AF9E36E002B05D043460122380096
:1018D000E15809F0F9FE80BCB846F0BDA02010B573
:1018E000400008F0FDFC03003433C362982200235B
:1018F000104980658350083A815004328050483244
:1019000083500D49043283500C328150043283508D
:101910003C32835002003933FF339032C250C21838
:101920002C3BC25001220433C250183B0332C25038
:1019300010BDC04681180010BC450110F0B5C64668
:101940000500060080211F4A040000B5D0688435D8
:101950000006000F54360130490053680B42FCD199
:101960000138176A0028F8D18021D068154A000490
:10197000000F7F420130890053680B42FCD10138CF
:10198000536A0028F8D15B423000E76798460AF0B6
:10199000F3F8236E002B04D001223000E16F09F030
:1019A00093FE43462800AB620AF0E6F8EB68002B92
:1019B00005D0AC2301222800E15809F085FE80BC47
:1019C000B846F0BD00002050F0B5D6464F4646461A
:1019D0000025C0B53D4C8AB020003D4907F006FF08
:1019E0000223200008220021009508F007F80022B9
:1019F0000121082001F09CFC00220121092001F0B6
:101A000097FC8026F827C02376021B037F0202A9D9
:101A1000102206A89A46049302960397059505F0AE
:101A200097FA2C4B06A9102202A89946079305F0B5
:101A30008FFA8023DB020593274B2000039380233A
:101A40001B0398460493002202AB002108F02EF8F5
:101A50000122236820001343236001210223009503
:101A60000B3207F0CBFF002201210C2001F060FCBB
:101A7000002201210D2001F05BFC534602A9102237
:101A800006A8049302960397059505F061FA4B4664
:101A900006A9102202A8079305F05AFAC023DB0218
:101AA00005930E4B0022039343460121049320002B
:101AB00002AB07F0FBFF02222368134323600AB046
:101AC000E0BCBA46B146A846F0BDC0460000205072
:101AD000E445011080770100807701088077010CD0
:101AE000862070B5800008F0FBFB030028330362FA
:101AF000C022002394242049C0648350083A8150B6
:101B000004328050483283501C49043283500C32D6
:101B1000815004328350183AFF3A194D6400025143
:101B2000083C055104340051483403510434035136
:101B30000C340151C021040049004350B8344831ED
:101B400044500C3911344350FF342039445004318F
:101B50004250043143546031435001008423213109
:101B60009B00FF31C150C1182C3BC1500433C250FF
:101B7000183BC25070BDC046C9190010BC450110C9
:101B80003D190010F0B5070004000600050087B0FD
:101B900003A919480BF05AFE039B5437E36738003A
:101BA00009F0EAFF236E8436B435002B04D00122FD
:101BB0003800E16F09F088FD049B3000B3620193A7
:101BC00009F0DAFFF368002B05D0AC2301223000C6
:101BD000E15809F079FD059B2800AB6209F0CCFFC4
:101BE000EB68002B05D0DC2301222800E15809F026
:101BF0006BFD07B0F0BDC046402D0020054B10B571
:101C00001A78002A00D010BD013203481A700BF078
:101C1000D3FDF8E7D52E0020402D0020922070B58E
:101C2000800008F05DFB030028330362F0220023EC
:101C3000AC242049C0648350083A8150043280505B
:101C4000483283501C49043283500C328150043294
:101C50008350483AFF3A194D64000251083C05513F
:101C60000434005148340351043403510C340151FD
:101C7000D821040049004350E834483144500C391D
:101C800011344350FF342039445004314250043160
:101C90004354603143500100902351319B00FF3188
:101CA000C150C1182C3BC1500433C250183BC25024
:101CB00070BDC046FD1B0010BC450110851B001007
:101CC00010B5002100200AF091F810BD7047C04601
:101CD0000A4B01211A68002300B589B006930593C9
:101CE0000491029301931C31063303910093002168
:101CF0000133034809F04EFE09B000BD98210020D1
:101D0000C01C0020014B036001207047C01C002054
:101D1000F0B5DE4657464E464546E0B5A9B0FEF75B
:101D2000D3FC04230700FE4EFE4A86603A637B63C1
:101D3000C0239B009C46BC44002562460121736E73
:101D4000F94CFA48BC62FD62386279621A6000237D
:101D5000BB639946CC23DB009C46BC446146002211
:101D600000230A604B60CD23DB009C46BC446346E5
:101D70001C605D60F36D00229C46C8236146DB0059
:101D8000FC180C604946EA4C00233951D521C900A2
:101D90007C1808318846B8444146002522606360BB
:101DA000E44C48460C604D60D121C9007C18614666
:101DB0004C60E14965467850DE200121C0003C18A6
:101DC000DA4820606160DF20C0003C182260636058
:101DD000DA24E4003C19AC604D460122D74CD349CB
:101DE0003D512C343C1921606260E8240423CD4A23
:101DF000E4003919283C0A604B6039196446E160F7
:101E0000CF49F0247D500321CE48E4003C192060E6
:101E10006160F124E4003919283C0A604B603B19E9
:101E200064462361D024C84BA400FD50EA208025DD
:101E30003B1900242D0680001C605D603B18683053
:101E40001C605D603B1868301C605D603B1868304A
:101E50001C605D603B1868301C605D603B1868303A
:101E60001C605D603B1868301C605D603B181C6046
:101E70005D60FEF7DFFD010086600220C023404266
:101E8000C8500B00093380468862C865FF330330B1
:101E900008841C605D609C66DD6682460091FEF7EA
:101EA0008DFE0100866040464246C0234862886538
:101EB0008E300A50CA500A00736EF0325A600B001E
:101EC0003133FF331C605D609C66DD660591FFF772
:101ED000A1F8D623454642465B008660C550C564DE
:101EE00082354251343542514546C43B5335C25088
:101EF000FF353433C25042519F22736ED200821894
:101F00009A600022914B82630362914BC2634362E9
:101F1000FE239346E4229B0583628E4BD20004008D
:101F200043630021831800201860596000214D464A
:101F300089480832A3181860596000200021F36D09
:101F4000283AA2185A61854AA5502C32A21810606E
:101F50005160EE2200218248D200A2181060516028
:101F6000E922D200A2189A617E4A7F4BA218E25061
:101F7000E6229200A3188025802200211206ED009F
:101F800019605A606319683519605A6063196835B9
:101F900019605A606319683519605A6063191960CD
:101FA0005A60B423DB00E31819605A60C123DB00D8
:101FB000E31819605A60CE23DB00E31819605A60F9
:101FC000DB23DB00E31819605A602200F36F0C3248
:101FD0005B681A60FFF7F8FAFC239B050362FA239B
:101FE0009B0543624246AC23866042648267C250CE
:101FF0004346E232050083505A46AA63EA632A0048
:1020000000200021B132FF32A862E96228636963CF
:1020100013008620802200211206800019605A6079
:102020002B1819605A60A0239B00EB1819605A60A6
:10203000FFF7B2FB4246426282650200736E88324D
:102040008660DA600300802200211206C833996698
:10205000DA6619605A6068339966DA660690FFF7A7
:102060003DFC2B6A020003626B6A86604362434652
:102070008C20135013635B460392936213008022FB
:102080000021D033120619605A60FFF727FC2B6A33
:10209000020003626B6A8660436243468C201350E1
:1020A00013635B46049293621000802200211206A3
:1020B000D03001604260FFF713FD434683468660DF
:1020C00002008020414613505B46B02299505A4688
:1020D0005962736EB8321A614032130080220021B7
:1020E000120619605A609966DA66FFF797FD434653
:1020F000866002008020135030301350303013506F
:102100005362736E1600E8325A6140321300802227
:102110000021120619605A609966DA6626E0C04608
:10212000C01C002000C817A800E1F50500F2052A30
:102130007C06000000CA9A3BC40600000C070000A1
:102140005407000000D6117E9C07000052B83A41A7
:10215000CDCCCC3F3333733F809698003C070000D2
:10216000404B4C00B809000084070000CA230796C2
:1021700003269B00FE503A000431CD26DD3808F0DE
:1021800091F8B600B8513A000421032008F08AF80B
:10219000043EB85150263A000421032008F082F88A
:1021A000B4467C22BC44CB2366469B009446F85040
:1021B00008960660A826BC446246B446BC446646FF
:1021C00042600B924A4664338660FA505246683346
:1021D000FA5004213A0001200D9608F063F8FE4AF7
:1021E0000421B8503A00012008F05CF88021C900B1
:1021F00078503A000421012008F054F8D4218C468C
:10220000FF23BC44614605229B00F8506433016003
:102210000F91FA5004213A00052008F043F8EF4BE3
:102220003A00F850042105208D26984608F03AF827
:10223000F600B8513A000421052008F033F8E84BC5
:10224000A821F85099239B009C464900BC44634652
:102250008C46089EBC44614686600D9E03601093C8
:10226000992306610226416011910B99DB00C16040
:102270003A00FE500421022008F014F8D9493A002F
:1022800078500421022008F00DF89A21C9007850F6
:102290003A000421022008F005F8BE2252009446BC
:1022A000BC446246D04B1292F8500260089A6433E4
:1022B00042600421FE503A00022007F0F3FFCB4BAE
:1022C0003A00F8500421022007F0ECFFA721C900D2
:1022D00078503A000421022007F0E4FFC44B089A2A
:1022E000F850D4235B009C46BC44634603601393C0
:1022F000B32342605046DB003A00F850042107F057
:10230000D1FFBC4B3A00F8500421012007F0CAFF6E
:10231000B423DB00F8503A000421012007F0C2FF8B
:10232000A42292009446BC446246B34B1492F850E7
:10233000026004226433FA5004213A00042007F0BA
:10234000B1FFAE4B3A00F8500421042007F0AAFF79
:10235000C123DB00F8503A000421042007F0A2FF5B
:10236000A74B0B99F850EA235B0001609C46802143
:10237000BC44890063468B228C469200BC44614673
:102380009446BC44624643608160C26015934846EF
:10239000F0231792009A1691D05050466833D050CF
:1023A000042107F07FFFB22300995B00C8500A00A8
:1023B0000120042107F076FFB021009A4900505017
:1023C0005D39FF39012007F06DFFAE23009A5B00F5
:1023D000D050A03202608C204B46059940000B5033
:1023E00048468133FF33C850E0239B00E6501892E3
:1023F00004212200023007F055FFE3239B00E05048
:1024000022000421022007F04DFFE2239B00E05050
:1024100022000421022007F045FFE1239B00E05049
:10242000C13BFF3B9C46A221A444890063468C46E5
:102430000360A4441993FA2361469B004160220083
:10244000E6501A910220042107F02CFFFD239B0087
:10245000E05022000421022007F024FFFC239B000F
:10246000E05022000421022007F01CFFFB239B0008
:10247000E050353BFF3B9C46CA21A44449006346DB
:102480008C46A444614603601B938A2341605046F6
:10249000DB0022001C91E050042107F003FF594BA0
:1024A0002200E0500421012007F0FCFE8B23DB001A
:1024B000E05022000421012007F0F4FEB92292002E
:1024C0009446A4446246504B1D92E050643302602F
:1024D0000421E6502200022007F0E4FE4B4B2200CC
:1024E000E0500421022007F0DDFE9823DB00E050DD
:1024F00022000421022007F0D5FE454B2200E050C7
:10250000AD3BFF3B9C462C33A44461469C46A4440F
:10251000634643600A93A423DB0001600991E650FF
:102520000421022007F0BEFE3A4B2200E0500421B5
:10253000022007F0B7FEA523DB00E05022000421B3
:10254000022007F0AFFE344B0999E0500A9B01606E
:102550004360B1234846DB00E0506833E050683305
:10256000E65022000421023007F09CFE2B4B220093
:10257000E0500421022007F095FECC23DB00E05060
:1025800022000421022007F08DFE254B0999E0501E
:102590000A9B01604360D823DB00E650220004213F
:1025A000022007F07FFE1F4B2200E0500421022092
:1025B00007F078FED923DB00E0502200042102203E
:1025C00007F070FE18490A9B605009994360CC23BC
:1025D000016048465B0029E0040400006C04000030
:1025E00064040000D4040000CC0400003C0500009A
:1025F00034050000A40500009C0500000C06000046
:10260000040600005C04000054040000C404000040
:10261000BC0400002C050000240500006406000036
:102620005C060000CC060000C4060000E8506833D9
:10263000E8506833EE502A000421023007F032FEE1
:102640009D21890068502A000421022007F02AFEFB
:102650009C239B00E8502A000421022007F022FE60
:10266000922252009446AA21AC44490062468C460C
:102670009B23AC4461469B00E8501E9202604A4690
:102680004160BD3B0698FF3BC2504B461F918C21D9
:1026900081334900FF334250C2505046039BB83249
:1026A00015399850FF391A0007F0FCFDC422039B2E
:1026B000042198501A00012007F0F4FDC02303996B
:1026C000C8500A000120042107F0ECFDBC21039B47
:1026D000B82258507433036050462093049BB83995
:1026E00098501A0007F0DEFDC422049B0421985084
:1026F0001A00012007F0D6FDC022049B0421985047
:102700001A00012007F0CEFDBC23049A0421D0500A
:10271000743202604B4658462192E022835049337E
:10272000FF33C6505A46022007F0BCFDAA235E467E
:102730005B00F0505A4604210220A82607F0B2FDA3
:102740005B46760098515A460421022007F0AAFD04
:10275000A6235E465B00F0509826E43B5B44436052
:102760005E44239388230660484603222296079EF0
:102770005B00F0506833F25004213200033007F060
:1027800091FDC2235B00F05032000421032007F0CA
:1027900089FDC0235B00F05032000421032007F0C4
:1027A00081FDBE235B00F050320033009832683365
:1027B0000796C836036042608660504625925246AE
:1027C000F86587303F6624933A50C42304303F5065
:1027D00028303A5004303F5028303A5004303F50AF
:1027E0008D30FF303A5004303F501938FF383A509E
:1027F00004303F50CC205B00FA500433FF502833A4
:10280000FA500433FF50E433FA500433FF50C03B16
:10281000FA500433FF502833FA500433FF50283362
:10282000FA50800004332696FF503B5804211A606A
:1028300050463A0007F036FDCD229200BB580421E5
:102840001860CC2080003B5850463A00586007F092
:1028500029FDCD229200BB5804215860CC20800075
:102860003B5850463A00986007F01CFD0200CD200E
:10287000059980008C463B582D3827929A60FF3886
:102880001A68604410600C9094205B68800060447B
:1028900018600E90A6208022279B8000604418605C
:1028A00081465046D200BB5804213A00186007F018
:1028B000F9FCFE4A0421BB58059A1860B8239446D7
:1028C0009B00634403608D205246C0003B580120AA
:1028D0001A603A0007F0E6FC4246BB5852461860C0
:1028E0008D20C0003B5804215A6001203A0007F0B7
:1028F000D9FC4246BB58524658608D20C0003B5818
:1029000004219A6001203A0007F0CCFC4246BB58F3
:10291000524698608D20C0003B580421DA600120A7
:102920003A0007F0BFFC4246BB585246D8608D20A3
:10293000C0003B5804211A6101203A0007F0B2FCA4
:1029400042460099BB5899311A68FF3118611160ED
:10295000FB215A68C900611811609A680C99DB68FC
:1029600011600E9A04211A604A4602609A2052466B
:10297000C0003B5801201A603A0007F093FCCC4A93
:102980000421BB583A0018609A20C0003B585046BA
:10299000586007F087FCC64A0C99BB58C54A586076
:1029A0001B68A2181A600160A720C0003B5850465F
:1029B0003A000421186007F075FCBF4A0126BB5895
:1029C00091461860A720C0003B583A005E60042181
:1029D000012007F067FC4A46BB5894225860120158
:1029E0001B68A2181A60B423DB000C99FB58016025
:1029F0003A001E600421012007F054FCAF4B3A005E
:102A0000FB5804211860009BE133FF330360C120B1
:102A1000C0003B5881461E60012007F043FCA84AD5
:102A20000421BB589046186048463B583A005E6007
:102A3000012007F037FC4246BB5804215860484645
:102A40003B583A009E60012007F02CFC4246BB58E0
:102A50000421986048463B583A00DE60012007F0A8
:102A600021FC4246BB580E991A68D8601160822139
:102A70005A68090161181160924A9B68A2181A608D
:102A80008B221201A3180360AC23B020009A04210A
:102A90009046D6501250B030135860381E60FF3840
:102AA00007F000FCB2214346AC22490000935B587A
:102AB00092001860BB180360E8235B00E650043303
:102AC000E450C033E6500433E4502C33E650043372
:102AD000E4502833E6500433E4502833E6500433FE
:102AE000E4502833E6500433E450AD3BFF3BE6505E
:102AF000D8320433E450A358613991461E60220055
:102B0000FF39012007F0CEFBE3229200A358904644
:102B10004A461860A358042122005E60012007F095
:102B2000C1FB4246A3585A465860D1321B680799E8
:102B3000FF321A6080228C46920062440260FC22BE
:102B40009200A35891461E6022000421012007F044
:102B5000A9FBFD229200A35890464A461860A3584C
:102B6000042122005E60012007F09CFB4246A3582E
:102B7000BC3A58601B68AA181A608B233A00DB0025
:102B8000E358F8320260042122001E60012007F0A1
:102B900089FBE0224C4B9200E35804211860AB18EB
:102BA0004132FF3291460360A358012022001E608B
:102BB00007F078FB454A0421A35890464A4618601E
:102BC000A358012022005E6007F06CFB4246A35828
:102BD000AA2292009146A9444A4658601B680421E3
:102BE0001A60BC2292009046A84442460260A52288
:102BF000D200A358012022001E6007F053FB344A84
:102C000004219246A358043A1860A35801202200D8
:102C10005E6007F047FB5246A3584A4658601B685F
:102C200004211A6042460260CC22D200A35801203F
:102C300022001E6007F036FB264A04219246A35864
:102C4000043A1860A358012022005E6007F02AFBB6
:102C50005246A3584A4658601B6804211A604246EF
:102C60000260D922D200A358012022001E6007F082
:102C700019FB194A04219246A358043A1860A35834
:102C8000012022005E6007F00DFB5246A3584A4621
:102C900058601B6804211A60424698230260B020E5
:102CA0005B00EE5040000433ED5017E004040000D8
:102CB000D4040000F80800003C050000A405000052
:102CC0000C060000680800005C040000C40400005A
:102CD0002C05000064060000CC0600002E500430D5
:102CE0002D500D30FF302B582A001E60012007F0B8
:102CF000D9FA9D2189006B582A0018609C20800019
:102D00002B5804215E60012007F0CCFA9D21890038
:102D10006B58039958600A001B68F8321A60049BCC
:102D2000F833036084208246C0200B00814652465F
:102D300080215E509B504A4618009B587C39020007
:102D40001E60012007F0AEFAC4218846424603996E
:102D50008B58069945328C46FF32624418600260F7
:102D60008022049804218650524680504A4681466B
:102D7000835802001E60012007F094FA4A46434639
:102D80000699D358049294228C46920062441860AB
:102D90000260A423584646678067C650A820804634
:102DA000584642468050A820400082465846524627
:102DB000835804215A461E60012007F073FAAA22A4
:102DC000520091465A464B46D358524618605846D0
:102DD000835804215A465E60012007F063FA4E468C
:102DE0005A46935922005860E1321B68FF321A603C
:102DF0008A229200A31803604046D823079E5432CB
:102E0000B6673650A930FF30F6503B18009803994A
:102E10004362BB188365AA238C309B00F8503800AE
:102E20003A003C3003000598683242652C32036258
:102E30001300882283503A00BC23C032C2503800AD
:102E40003D30FF30A0648430E0672C300300B020B8
:102E500023506930FF303B183538FF382350380095
:102E60008C236930FF305B00E0502C303433E0506D
:102E700020008130FF305C3BF850BF2080002318D9
:102E80002C302B64231884386B67231840462B5052
:102E9000B420800022182800DC231130FF30EA50D3
:102EA000C8620800069A6030106228000499413018
:102EB000FF30C8622000B130FF3003005846603157
:102EC0005165036289239D2254309B00E05092009B
:102ED0003030483BE050A3183362F34B1E985B6BD5
:102EE000209E18601F989E605860219E1998DE6091
:102EF0001861099E1A981E6258610A9E1B982399B0
:102F000098615E621D98229ED8619962DE62089E79
:102F10002499DE630B9E19631E640D9E25995E64E1
:102F20000F9E59639E64109E2699DE64119E9963DC
:102F30001E65129E18995E65139ED9669E65149E45
:102F40000122DE65159ED9481E66169E5E66179E96
:102F50009E661C9E1E67C6260023B600B9190A602D
:102F60004B600123D24A083EB9195B420A604B60AC
:102F7000012200237036B9190A604B600123CD4A43
:102F8000083EB9195B420A604B600122002370368B
:102F9000B9190A604B600123C74A083EB9195B4260
:102FA0000A604B60012200237036B9190A604B6039
:102FB0000121083EBE194942306071609726F60033
:102FC000B9190A604B600123BC4A083EB9195B423B
:102FD0000A604B60012200237036B9190A604B6009
:102FE0000123B74A083EB9195B420A604B600122CF
:102FF00000237036B9190A604B600121B148083EC0
:10300000BE19494230607160BE26F600B919083E0B
:10301000B81901270A604B60009BAB4E19007F4234
:103020000660476001260027E0310E604F600127EF
:10303000A24E08397F420E604F60012600270E67BE
:103040004F670121059FA1484133FF334942186072
:1030500059603900012200230931FF310A604B60B9
:103060000123934A791CFF315B4269370A604B6048
:10307000FF3701220023380001270A674B67944E6F
:10308000DC217F42066047601F001600890061183E
:103090000E604F60DA210123854A890061185B4286
:1030A0000A604B60F62132003B00890061180A601B
:1030B0004B60F42189008C460121A4446346854875
:1030C00049421860596088213B00C90061180A60B4
:1030D0004B6087210123784AC90061185B420A606E
:1030E0004B60952132003B00C90061180A604B60BB
:1030F00094210123714AC90061185B420A604B6048
:10310000A22132003B00C90061180A604B60A12176
:1031100001236B4AC90061185B420A604B60AF2112
:1031200032003B00C90061180A604B60AE210127E4
:10313000674EC90061187F420E604F60BC26F600E2
:10314000A1190A604B6001216348083EA619494253
:1031500030607160C926F600A1190A604B60C8236F
:1031600001215E48DB00E618494230607160D626D6
:10317000F600A119083EB446012701220023584E4B
:1031800064447F420A604B60266067602E002C001A
:103190000121544889368134FF36FF344942326078
:1031A00073602060616001214F484942B266F36656
:1031B0006836A066E16696269424069FB600A400B1
:1031C000A919281901250A604B6039000126474CCE
:1031D0006D4204604560A031354D0A604B60764217
:1031E00008390D604E600A674B67012140487C1C1E
:1031F000FF34494220606160390038007131FF318D
:1032000069300A604B60FF300121040039484942AF
:1032100020606160039C38482100A8310A604B603F
:103220000121049F4942A034206061603C00A83421
:1032300022606360083C2060616059461C001300F6
:10324000D0310B604C60584608390D604E600B67FA
:103250004C6700950196260001241500079A154B2E
:10326000511C3130FF31FF306442036044600D6017
:103270004E60340001262B000D4D083976420D605A
:103280004E60260001241D0061320A4BFF32644269
:103290000D674E671360546029B0F0BCBB46B24660
:1032A000A946A046F0BDC046C01C00200400FFFF98
:1032B0000000FFFF0100FFFF0300FFFF0500FFFF0D
:1032C0000600FFFF0700FFFF0900FFFF0800FFFFE8
:1032D0000A00FFFF0200FFFF0B00FFFF0C00FFFFD3
:1032E0000D00FFFF0E00FFFF0F00FFFF1000FFFFAC
:1032F0001200FFFF1300FFFF1100FFFF7047C046E1
:10330000094A830094464022634410B51C68C000FB
:103310006240C02414408022520113431C60034BBE
:103320009C466044416010BD04C001400040014023
:103330000A4B80009C4604236044002901D00C23E2
:103340000821002A00D10B00026853400C221A40C9
:1033500080235B01184302607047C04604C00140EF
:103360000123D0228340120693629361094A8300AD
:103370009446402263441968C0004A40C02111406D
:103380008022520113431960034B9C46052360447D
:103390004360704704C0014000400140024B186880
:1033A0008007C00F7047C04600C00640EFF3108092
:1033B00072B6034A1368002BFCD0BFF35F8F7047CF
:1033C0002C0100D0BFF35F8F0022024B1A6080F304
:1033D000108870472C0100D070B5EFF3108C72B6D6
:1033E0000D4D2B68002BFCD0BFF35F8F0724CB085B
:1033F000C618C05C01230C40A3401C0004400342DB
:1034000007D103433370BFF35F8F2C608CF31088B8
:1034100070BD100001F00AFD2C0100D0F8B5474640
:10342000CE46884680B5EFF3108C72B6214D2C68DD
:10343000002CFCD0BFF35F8F9A422CD8D40807270A
:10344000055D061901241740BC402C421FD00721FE
:103450000127894609E0D408055D06194C46390064
:103460001440A1400C00294211D001329342F2D203
:1034700001204042BFF35F8F00220E4B1A608CF395
:10348000108800280FDBC0BCB946B046F8BD2C43FD
:1034900010003470EEE7BFF35F8F00232B608CF3D6
:1034A0001088012040424346002BECD0089801F0E0
:1034B000BDFCC0462C0100D00021044B044ABFF3E0
:1034C0005F8F02C39342FAD17047C046000100D01B
:1034D000800100D0044A1078431CDBB2172B00D9BE
:1034E000102313707047C0467010002000B5054BC4
:1034F00083B00100009318221F230348FFF78EFFBB
:1035000003B000BD1C460110942400200123834019
:10351000002904D0034A1360034A13607047034A2A
:103520001360FBE780E200E000E100E080E100E002
:1035300001238340014A13607047C04600E200E067
:10354000084B10309B688000C358002B07D0064AF8
:1035500000209B1A2F229A424041C0B2704700209F
:10356000FCE7C04600ED00E074100020024B103074
:103570009B688000C058704700ED00E070B50D00FA
:10358000EFF3108672B60F4A1368002BFCD0BFF31E
:103590005F8F0D4B10309B6884001B590B4A934280
:1035A00003D09D4201D001F059FC074B9B681D518F
:1035B000BFF35F8FBFF35F8F0022024B1A6086F369
:1035C000108870BD240100D000ED00E0CD01001096
:1035D000F0B557464E46DE464546E0B585B0060096
:1035E00002911700EFF3108B72B6674A1368002B35
:1035F000FCD0BFF35F8F0025644B5D579A46002DCA
:1036000000DAA4E06B00624C03935B199B009846C0
:10361000A146C1444B4652469B79103613705D4B10
:10362000B2009B68019299580B1B2F2B34D95A4B2F
:10363000994200D0A4E0039B584A9C46584B6544ED
:10364000AD006353434602336519E418554B01211D
:10365000043B1B1B1B055B0D13436B80524BEF712F
:10366000AB80FF23AB71029BAB604B460B43190051
:10367000484B019A9B689950BFF35F8FBFF35F8FF0
:103680000022414B1A608BF3108805B0F0BCBB469A
:10369000B246A946A046F0BD01200A008243D37974
:1036A000BB422FD845464E46130040491B1B5B4189
:1036B0005943090D3A4B63533A4B02356519043BA4
:1036C0005B1B1B05354D5B0D2B4373800426B446F5
:1036D000E0444444131F1B1B4C46A17102991B0577
:1036E000A16049465B0D2B43A380314BE771014339
:1036F0001360BDE75800C01880002018C679BE428C
:103700002BD902000623D356002BF3DA101D824674
:103710002848804604267642B446E14450464E4648
:10372000361A3005400D824656461C4895710643B0
:103730009680039A944665441D4AAD006419226040
:103740004246A371029BA280E771A36090E701F05B
:1037500085FB002553465D5754E7101D824690882F
:103760004005001584464046D4446646043020187F
:10377000301AE0260005400D360230438046C9E786
:1037800001F06CFB57E7C046240100D0DC2E00207E
:103790007410002000ED00E0CD01001000E0FFFFFC
:1037A00000A1FFFFA410002001BDFFFFAAAA000096
:1037B0000148804701BD0000F0B5DE4657464E4641
:1037C0004546E0B50C0083B0EFF3108972B6584A55
:1037D0001368002BFCD0BFF35F8F564B9A68030031
:1037E00010339F00D559544A9046954232D0A54295
:1037F00043D0524EAA1B2F2A2CD801228240924637
:1038000051464F4A12681140019151464D4A11608C
:10381000BFF35F8FEFF305829346002A33D1012374
:103820002A009A4393689C4208D177E04B005B18CA
:103830009B00F3189968A1422AD01A00062151561C
:103840000029F3DA019B002B19D052463E4B1A6037
:103850003B4B1A60374B9B68DD51BFF35F8FBFF363
:103860005F8F0022324B1A6089F3108803B0F0BCDE
:10387000BB46B246A946A046F0BD1500EAE752464F
:10388000304B1A60E6E79342C9D001F0E7FAC6E789
:1038900006215956002921DB4A00501880003418AF
:1038A0008046A0689860E079D8710620205698710B
:1038B000002824DBA488F01A640524154444001968
:1038C000E0240005400D24022043988052181F4B2D
:1038D0009200B6181A781970B271B3E759460029E8
:1038E0000FD1FF3191711A49918018490A789A7164
:1038F000184A9B1B5B415A43120D0A70A2E71648F7
:10390000E3E7164A1649D21A083A5002400D01431D
:103910009980144952080A43DA8093E706215156E8
:1039200013000029B8DA5A46002AEAD14546DCE7F6
:10393000240100D000ED00E0CD0100107410002043
:1039400000E100E080E100E080E200E0DC2E002009
:1039500001BDFFFFAAAA000001BD0000AE100020BB
:1039600000F0FFFF00F8FFFF70B5EFF305810124C1
:103970000443EFF3108C72B6214A1368002BFCD07D
:10398000BFF35F8F1F4B05001F4AED1A6D416A435D
:10399000120D1E4D8900AE6852B27658A6421CD058
:1039A0000621595691421CD012215956914222D0DB
:1039B0001E215956914220D02A2159560324914262
:1039C00010D0134B19781A708171BFF35F8F0022EA
:1039D0000B4B1A608CF3108870BDAB680D4C5C50BB
:1039E000EFE700246100091989005B18FF21997134
:1039F00009499980E5E70124F4E70224F2E7C0468B
:103A0000240100D074100020AAAA000000ED00E0FC
:103A1000DC2E0020CD01001001BDFFFF054B064A42
:103A20001360064A136053609360D360136153615F
:103A3000936170478080808000E400E004E400E04F
:103A400000B5074B83B00100009300220523054811
:103A5000FFF7E4FC002801DB1F23181A03B000BDA8
:103A600038460110E32E002070B504000E0015004A
:103A7000FFF730FD0100200000F006F8A680E58089
:103A8000BFF35F8F70BDC046024B9C466144890006
:103A9000016070474000003410B50400FFF71AFDC4
:103AA00001002000FFF7F0FFFF232371BFF35F8FBA
:103AB00010BDC04610B50400FFF70CFD010020004A
:103AC000FFF7E2FFFF23A380BFF35F8F10BDC04667
:103AD00010B504000120FFF709FD044B9C4660442B
:103AE00080002060BFF35F8F10BDC04640000034EF
:103AF000034B9C46614489000160BFF35F8F7047B0
:103B00004000003483680B4810B584466144624429
:103B1000090112019A18591854684B6801209C42F7
:103B200001D802D00020C0B210BD12680B689A42C2
:103B3000F9D8F7E7FFFFFF0F0A4B1968EFF3108082
:103B400072B60A68002AFCD0BFF35F8F1B68BFF310
:103B50005F8F00221A6080F3108840BF0020002190
:103B60007047C046A02E0020F8B557464E46454641
:103B7000DE46E0B599460CAB1C780DAB1B78060011
:103B800090469A460768002C11D1BC7B002C42D08D
:103B900065003B682D19033D59194B78BB73002B09
:103BA00000D1FB7300238B704B700B7004E0650039
:103BB0003B682D19033D5919B2682A4B9446424679
:103BC000E3181B0163441A604A465A600A9A9A60D5
:103BD0000B9ADA6000238B704B700B707B7B9B46DB
:103BE000002B2BD022005946B8687B6898473A686A
:103BF000002816D05B4658465B005B445519033BD2
:103C0000A870D118D35C002B00D06B705B460C7091
:103C10007B73A34513D0F0BCBB46B246A946A04671
:103C2000F8BD5B465B005B44033BD3189C705119A5
:103C3000525D002A00D05A705B460B707C7342467E
:103C40004B46307D00F0B8FB051E06D05346002BD6
:103C500003D12100306800F0D3FD0E9B002BDAD099
:103C60001D70D8E7FFFFFF0FF0B5DE4657464E4602
:103C700045460023E0B58BB00893674B8200D458CB
:103C800000239B46099000F00DFB626806000F00C0
:103C9000EFF3108572B61368002BFCD0BFF35F8F73
:103CA00023689C465B7B9946002B00D169E0A268A3
:103CB0005A4B90464B441B01984443461A685B6834
:103CC00010001900801BB941002900DC63E009984D
:103CD00000F072FB0023002298460023069207930F
:103CE00000239A466368BFF35F8F5A461A6085F3D4
:103CF00010885346002B08D10028C4D10BB0F0BC6B
:103D0000BB46B246A946A046F0BD089B41461802F4
:103D10004B461843D047626806000F00EFF310854A
:103D200072B61368002BFCD0BFF35F8F002F50DBFF
:103D300033003B4302D02369002B61D12368D97B38
:103D4000002907D04A00521819688C464946624437
:103D5000033A51709A7B002A01D14A469A734A4627
:103D6000DA734B46E168013BCA5C0132CA545B46D8
:103D700023616368BFF35F8F5A461A6085F310882A
:103D800081E7002300229846002306920793002330
:103D900000209A46A6E7002902D1002800D096E725
:103DA0000021604600F0AAFC43461A685B68069250
:103DB000079343469B689A464346DB689846E36808
:103DC0004B44013B1B7808931B02034323610020F3
:103DD00088E72369002BB1D0069A079B921BBB4151
:103DE000002B15DB594604910121039149460291AC
:103DF00041460191514620000091FFF7B5FEB6E71C
:103E000000F050FA32003B0012184B41002BE9DA67
:103E10000122034B5242E5E7802D0020FFFFFF0FF8
:103E2000FFFFFF7F10B5144C6368002B04D00A21FC
:103E30001248FFF729FE10BD2300114A1021206807
:103E400000F076FB032000F021FA032000F01EFBB7
:103E500003200C4900F06AFAFFF73CFB0A4B9C4632
:103E600003232375D0231B061B6860446375074B2F
:103E700080006060DC60DAE7BC100020A02E00202B
:103E8000053B0010693C001040000034802D0020EC
:103E900000487047BC100020F0B54E464546DE464F
:103EA0005746E0B585B0019310AB1B78060003932D
:103EB00000239946984600927268EFF3108B72B611
:103EC0001368002BFCD0BFF35F8F3568AC7B002CF0
:103ED0003DD067002B683F19033FDB195A78AA735E
:103EE000002A00D1EA73B168474A8C4600980199CC
:103EF000A21812016244106051600E9991600F99EE
:103F0000D16042469A705A701A706B7B9A46002BA9
:103F100067D022001900A8686B6898472A680028B3
:103F200052D0534650465B005344D719033BB870F8
:103F3000D118D35C002B00D07B7053460C706B7390
:103F400054454FD0F3681B19013B187800E000205E
:103F50007368BFF35F8F42461A608BF31088002CA2
:103F60004FD04B46002B08D10002204305B0F0BCD7
:103F7000BB46B246A946A046F0BD039B002B3ED0EF
:103F80000E9B00200F999847030004000D000B437F
:103F900035D000290ADA009A019B121BAB4100922E
:103FA0000193002B0ADB039B994685E700F07AF921
:103FB00024184D4100940195002DF4DA0123134C8F
:103FC0005B4200930194EEE753465B005344033B8E
:103FD000D3189C70D119D25D002A00D05A70534674
:103FE0000B706C73307D009A019B00F0E5F98146FF
:103FF0000028A7D02100306800F002FCA2E70020D2
:10400000B4E701204042B1E7FFFFFF0FFFFFFF7F52
:10401000407D7047F0B504000D0006267642F71784
:10402000C64636196F4100B584B08F4214D811D0FE
:1040300000F038F932003B00121A8B41002B15DCDE
:10404000002B3ED02000290000F060F904B080BCB5
:10405000B846F0BD8642EBD90026002700F022F9D1
:1040600032003B00121A8B41002BE9DD0023029342
:104070000193154B3200009314483B00FFF70CFFEF
:104080000028DFDB00239846BC46114A114F7B6AAB
:104090009C4504D8B96A8E42D4D99C45D2D11168C6
:1040A000EFF3108072B60B68002BFCD0BFF35F8F6C
:1040B0001368BFF35F8F4146196080F3108820BFFB
:1040C000E5E7002ABED0D1E7393B0010BC10002044
:1040D000A02E00200040054070B504000D0000F047
:1040E000E1F800196941002902DBFFF793FF70BD79
:1040F000012001494042F8E7FFFFFF7FF0B5EFF3F1
:104100000583CE46474680B505000C0085B0002BE0
:1041100012D02C4A0020536A9C4203D8926A013084
:10412000AA4204D305B0C0BCB946B046F0BDE01AFF
:10413000421E9041C0B2F5E7234E02930193234BF8
:104140000200009330000B00FFF7A6FE031EE0DD27
:1041500020BF7168EFF3108772B60A68002AFCD09E
:10416000BFF35F8FDAB294463068427B62451DD060
:10417000FF221A4051008946016891448846494609
:10418000414403398978002913D0F1681B0A884615
:104190004244013A1278DBB29A420FD07368BFF3FF
:1041A0005F8F00221A6087F31088B2E7FF221A405F
:1041B000EBE732699342F1D13161EFE7614600F0FC
:1041C0001FFBEBE700400540BC100020393B00100E
:1041D000F0B5EFF30582D6464F4646461000C0B50F
:1041E0001038EFF3108872B6214C2368002BFCD0F6
:1041F000BFF35F8F0123190081401E4D1F006963CB
:10420000AA461D4D29601D4D2E78AC463500C5408F
:104210002F402B4209D1BFF35F8F276088F31088AE
:10422000E0BCBA46B146A846F0BD5346144D5F6A9D
:1042300083005D59AF420ED3124A8E439B586246AB
:104240001670BFF35F8F0022226088F31088002B66
:10425000E6D09847E4E70C4B92009C466244136812
:104260001360BFF35F8F0023236088F31088D7E7C4
:10427000280100D0004005403C700540E22E00209F
:10428000AC2E00202C230020D03F054010B50100AB
:10429000024A0348FFF7A0F810BDC046604601106F
:1042A000D82E0020034B596A0A00986A596A8A423C
:1042B000FAD170470040054070B504000D00124A65
:1042C000536A1900966A536A8B42FAD1300019007A
:1042D00024184D41AB4211D80ED02B000A494A6A2E
:1042E0009A42FCD307D1084A02E0516A994202D1AE
:1042F000916AA142F9D370BDA642EED901230124EF
:104300006442E5175B42E9E700400540064A536A0C
:104310009942FCD807D1044B02E05A6A914202D17B
:104320009A6A8242F9D370470040054070B5040094
:104330000D00EFF3108672B61A4A1368002BFCD0FA
:10434000BFF35F8F002D1BD02000FFF70FF9164938
:1043500081420AD02000FFF711F901212000FFF768
:10436000D5F80123A340114A1360114BA400E55076
:10437000BFF35F8F00220B4B1A6086F3108870BD6D
:104380000B4BA200D5500122A2400A4920000B7815
:1043900093430B700449FFF70FFA00212000FFF749
:1043A000B5F8E5E7280100D0D1410010386005409C
:1043B0002C230020E22E0020F0B54F46D64646467C
:1043C000C0B507002C4C616A0D00A66A616AA9425B
:1043D000FAD18B4208D805D00120E0BCBA46B146DC
:1043E000A846F0BDB242F7D9EFF3108A72B623485F
:1043F00001680029FCD0BFF35F8F0125BD40204933
:104400001D4C8846097889462943C9B28C464146E5
:1044100060460870391D1B48890065630A51B90060
:104420000B50216A0020294219D0616A0800A66A4F
:10443000616A8142FAD18B4219D801D1B24216D8B1
:10444000CC4516D00C4B1F201D625D630123074035
:10445000BB400D4A1E38136043464A461A70BFF3EC
:104460005F8F0022054B1A608AF31088B5E70020A1
:10447000F5E70120F3E7C04600400540280100D0E1
:10448000E22E0020AC2E002080E200E0EFF3108C42
:1044900072B60A490B68002BFCD0BFF35F8F012373
:1044A0008340074A0748136202789A430270BFF3B9
:1044B0005F8F00230B608CF310887047280100D0B9
:1044C00000400540E22E002070B5050014001600E3
:1044D000002915D00C00002A12D080686B6898471C
:1044E000296800280ED073009B196200033B121943
:1044F000CB18033A9C7088188A5C002A15D1067084
:10450000200070BD63001B197200033B9219CB1889
:10451000033A9E7088188A5C002A02D10470340025
:10452000EEE75A7004703400EAE75A700670E7E765
:1045300030B583600023CCB243730133047342600F
:104540008373C4730D000068012C06D9421C01332B
:10455000DBB2137003329C42F9D1FF2129404B009A
:104560005918002340180338437030BDF8B5CE46C3
:10457000474606000C0080B5002907D04D000368AF
:104580006D18033D5A195778002F04D12000C0BC84
:10459000B946B046F8BD7900C91903398846434485
:1045A0005978894600215970517073683A0021008A
:1045B000806898473368002814D042469A1894704F
:1045C00059195B5D002B00D053700F7027004946CE
:1045D0003000FFF7CBFF390002003000FFF774FF17
:1045E0000400D3E7424641465D19AF709A185B5C00
:1045F000002B00D06B701470E9E7C046F0B5574649
:104600004546DE464E46E0B50D006B0001685B197D
:10461000DF1E0400C85D83B00192CA19002850D083
:1046200043001B18033BCB185E78B446002E1AD10A
:10463000019E002E42D0E67B002E04D073009B1911
:10464000CB18033B5D70A37B002B00D1A573E573F2
:1046500000282FD10023537003B0F0BCBB46B246F4
:10466000A946A046F0BD72006244033A89184A7810
:10467000904600224A7091465A7001003200200094
:10468000FFF722FF43468246002B07D05B002168DC
:104690004344033BCB185A78002A16D14246514670
:1046A0002000FFF711FF2168019BCA19002BC2D11E
:1046B0000028CFD043001B18033BCB180021997072
:1046C000C8E7019B002BB6D1C4E75000801803381F
:1046D000091848788346484648705870414620007B
:1046E000FFF7F2FE594680462000FFF73FFF4146A4
:1046F00002002000FFF7E8FE8046CFE7F0B55746FE
:104700004546DE464E46E0B583B00191457B040048
:104710006B0000685B19DF1EC15DC219002952D011
:104720004B005B18033BC3185E78B446002E1CD1C7
:10473000019E002E44D0E67B002E04D073009B190E
:10474000C318033B5D70A37B002B00D1A573E573F9
:10475000002931D1002328005370617303B0F0BCED
:10476000BB46B246A946A046F0BD72006244033A79
:104770008018427890460022427091465A7020007C
:104780003200FFF7A1FE43468246002B07D05B00B4
:1047900021684344033BCB185A78002A17D142467C
:1047A00051462000FFF790FE019B01002068C219CE
:1047B000002BC0D10029CDD04B005B18033BC318A0
:1047C00000209870C6E7019B002BB4D1C2E75000CF
:1047D000801803380918487883464846487058704E
:1047E00041462000FFF770FE594680462000FFF743
:1047F000BDFE414602002000FFF766FE8046CEE780
:1048000070B5040000292CD0437B8B422ED0056864
:1048100048004018033828188278002A21D0530015
:104820009B18033BEA5CEE188A4202D11BE0002A87
:1048300008D053009B18033BEB185A788A42F6D1F4
:1048400042785A7000230122837043702000FFF7E2
:10485000D5FE617B02002000FFF736FE6073012069
:1048600000E0002070BD43783370EBE701221900AF
:10487000FFF7C4FE60730120F4E7C04630B50C209A
:1048800083B000F0B9F9FEF789FD00280ED0994BEE
:10489000994A1A605A609A60DA601A615A619A619C
:1048A000DA611A62954A5A6203B030BD944CA0672F
:1048B00000F0F6F90122934B1A60636C012BFCD1D6
:1048C0000322914B1A608E4A936B012BFCD101336A
:1048D00001218E4A8E480093043300F03DF90523F0
:1048E0008C4A009301218C4800F036F98B4B5A68B2
:1048F000FF2A02D8802252005A6080227D4C824BCF
:1049000021691201854D1A60002907D0606901F004
:104910002DFE431C5800C0180338FDD2E0217F4B08
:1049200002201A681140802252012A43116019683E
:10493000484003210140116004219A681142FCD0D3
:104940008022802192012A430901116080225200B5
:104950005A60734B2361734B5968FF2900D85A6022
:104960000321684A6F4B116002399A681142FCD0EA
:10497000E0201A681040802252011A431060186823
:104980004840032101400220116066498A681042B4
:10499000FCD0802292011343802212011A608022EF
:1049A000614B52004A606361604B5968FF2900D82F
:1049B0005A6080225E4BE16912015C4D1A60002949
:1049C00007D0606901F0D2FD431C5800C0180338BD
:1049D000FDD2E02255490B681A4080235B012B432E
:1049E0001A60802380229B012B4312011A608022CF
:1049F000414B52004A60E3614E4B5968FF2900D891
:104A00005A6080224C4B216A12014A4D1A600029DB
:104A100007D0606901F0AAFD431C5800C018033894
:104A2000FDD2E02243490B681A4080235B012B43EF
:104A30001A60802380229B012B4312011A6080237D
:104A400080225B004B602C4BD20223623B4B5968A7
:104A5000914200D25A608022394B616A1201374D6F
:104A60001A60002907D0606901F080FD431C5800DE
:104A7000C0180338FDD2E02230490B681A40802369
:104A80005B012B431A60802380229B012B43120180
:104A90001A608023DB024B60184B6362294B5A6813
:104AA000FF2A02D8802252005A608022264BA16938
:104AB0001201244D1A60002907D0606901F056FDEB
:104AC000431C5800C0180338FDD2E0221D490B6872
:104AD0001A4080235B012B431A60802380229B01B4
:104AE0002B4312011A6080235B004B600E4BA361C5
:104AF000DAE6C04698240020006CDC021BB70000F8
:104B0000008000403CB0004030B00040002F6859A9
:104B100000800240008C864700C002403080004088
:104B2000001BB7003C800040405973075480004090
:104B300054B000406080004060B000406C80004095
:104B40006CB000404880004048B00040014B8000FD
:104B5000C058704798240020F8B5040021481D0073
:104B600017000E0001F002FD0100380001F0FEFC0C
:104B7000069B29041B0319432368002B20DB1A4BD7
:104B80001A4DE21853425A4180235B019C4612039E
:104B9000174B62441A60174B1A601700AB689F43AB
:104BA000FBD1C022231D92011A4321232660A0605D
:104BB00013602368002BFCDA0823E1601360F8BD62
:104BC0003F2322681340B342D9D1A3681B051B0DB4
:104BD0008342D4D1EE22E368D20213408B42CED17D
:104BE000EDE7C046001BB7000040FDBF00C000401D
:104BF00000E0004000F000408023024A9B00034395
:104C0000D36270470080054010B5140080221B4B12
:104C1000D2051A6000281AD00123194A1843194BEB
:104C2000DA61194A42401A62596298628022134B33
:104C3000D2051A601549164A1160E022D2041A60A2
:104C4000002C07D18022134B12061A6010BD0D4BA9
:104C5000D861EBE763011B1B9A0080231219120134
:104C60005B049A4200D30C4A0C4B1A60054B5A6005
:104C70008022084BD2051A60E8E7C04600B0054024
:104C8000D3C007B0008005402D3FF84FFCFF010066
:104C90000820014000A00540FFFFFF00702D00200C
:104CA000AA23064A1B0113602F230549D360054B35
:104CB00019605368002BFCDA7047C0460040024080
:104CC00000B0FA00006002402C4B2D4A70B51A600B
:104CD0002C4A2D4B2D491A6014008B689C43FBD144
:104CE0002B4D2C4EB54208D2013E761BB60808CD9E
:104CF000984723000134B342F9D1FFF7BFFD264A9C
:104D0000214B1A60214A9368DB43DB01DD09002B4C
:104D1000F9D14022214B224C224E9A675A671A67DA
:104D2000DA66B44208D223682000002B20D0083471
:104D3000FEF7C0FEB442F6D31B4E1C4CC022A16845
:104D4000300002F005F9A660FEF7B6FBFEF766FE3E
:104D5000FFF768F8164C174EB44208D2013E361BD6
:104D6000B60808CC98472B0001359E42F9D170BD9A
:104D70000834FEF791FEB442D5D3DDE700E00040F1
:104D8000BFCDFBFEFE7F3C0000F0004000C00040B5
:104D90008C1B00209C1B0020FFFFFF0100F0014046
:104DA0007C1B00208C1B00200000002000ED00E098
:104DB0009C1B0020A41B002000BEFDE7094A030045
:104DC0001068002805D00849C3188B4207D8136023
:104DD000704706480449C31810608B42F7D9012078
:104DE0004042F5E73C29002000000420E42E00208A
:104DF00010B5FFF7E1FFC04610B50C0082B01900F6
:104E0000002A0AD0064B01920093020023000548B5
:104E100001F00CFB0120FFF7CFFF034B1A00F2E774
:104E20008446011094460110784E01100FB400B56D
:104E3000084883B002F0F0F9049B002B07D005A9C5
:104E40001800019101F012FB034802F0E5F901207E
:104E5000FFF7B2FFC44601103450011010B50148ED
:104E6000FFF7E4FFD44601109A4200D288547047FD
:104E70007047C046F8B557464E464546DE46E0B553
:104E800099460A9B07009A460D9B88469346150053
:104E90000B9E9B0710D10C9B9E420DD29D1B1400B4
:104EA0000E005D4422004B46013431002020B847FB
:104EB000A542F7D1B0460B9E002E27D04446751967
:104EC0005346AA1B013E985D21004B46B847002E71
:104ED000F6D123002C0098460D9B9B070FD55B460F
:104EE000E51A0C9BAB420AD94646984622004B462F
:104EF000310020200135B8470134A845F6D82000FC
:104F0000F0BCBB46B246A946A046F8BD2C00E3E77C
:104F1000F0B54F464646D646C0B584B098460EAB6F
:104F20001B78129F994694460D9C109B119EBA07C0
:104F300025D4002E4BD19C4200D3BFE001223A4041
:104F400092461F2C00D9B8E00C9A551E302201E081
:104F5000202C03D001342A55A342F9D85246002A06
:104F60000DD0A6420BD9202C44D00C9A551E3022CD
:104F700001E0202C3ED001342A55B442F9D1FA0682
:104F80004DD57A053FD4002C39D10F9B102B00D181
:104F900079E00F9B022B00D18AE030230C9A012488
:104FA00013704B46002B3FD02D230C9A1355013420
:104FB0000C9B624600930397434602960194FFF7C9
:104FC00059FF04B0E0BCBA46B146A846F0BD012284
:104FD00015003D40AA463A422FD04A46002A02D147
:104FE0000C323A4200D0013E9C42BAD21F2CABD9BF
:104FF000202E27D92024FA06DAD57A0503D4A34235
:105000002DD0A6422BD00F9B102B32D0022B20D0BC
:10501000202CCDD030220C9B1B191A700134202C6F
:10502000C6D04B46002BBFD17B070DD43B07BFD565
:1050300020230C9A13550134BAE79C429FD21F2CAF
:1050400000D881E720249AE72B230C9A13550134CA
:10505000AEE7202CACD00C9B1B1901343AE0631E48
:10506000012C92D00F9A102A2AD0022A2FD01C008D
:10507000D0E7BB060ED4202C9AD00C9B1A19013411
:1050800078231370C4E7BB060DD478230C9A01244F
:105090001370BFE7202C00D18AE758220C9B1B1904
:1050A0001A700134B4E758230C9A01241370B1E745
:1050B0000C9A603301241370ACE7202400265EE7CD
:1050C000023CBA06E9D40C9A12191C00D8E70C9AD3
:1050D0009246534462221A709AE7C04610B50028DF
:1050E00000D110BD02F04CF8FBE7C0460B0010B534
:1050F000002802D049681B68984710BDF0B5DE460D
:1051000057464E464546E0B59BB09B46249B894694
:105110009846259B0B900C924046424619009A46B1
:1051200001F0E5FC002800D0D8E0012240465146BD
:10513000774B524201F0D6FC002800D0CEE001228D
:1051400040465146734B524201F0B6FC002800D055
:10515000C4E0002200234046514601F0ADFC002887
:1051600000D0B9E1424653460A9209938023289A17
:10517000DB001A400E92289A1A4201D10623269388
:105180000A9A099B1600134300D0C7E0289B00250C
:1051900000261B0500D49BE100230D93269A0D9B4E
:1051A0009A4200DC9FE1D01A431E26938023289A5E
:1051B000DB001A430023002728920D93279B00242D
:1051C000BB4200D9DC1B0223289A1A400E92289A6F
:1051D000134203D07B427B415B421C400D9B002B62
:1051E00007D00A9809992A00330001F004FC0A90BC
:1051F0000991002200234046514601F05DFC002841
:1052000005D0802000068446099961440991289AB6
:10521000414B0B9D13400493269B0A9A0293099BD2
:1052200003940092019349465B4628000C9A00F0D3
:105230008BF90400002F62D0289B220098061F23C0
:10524000C0179843631C984649465B466530A8479B
:105250000D9B0025DA179C18DB0F9A465440013F3E
:1052600001E0202D13D00AAA94461F232000634496
:105270000A2101355E1901F079F9303131702000D1
:105280000A2101F073F926000400092EE9D805234C
:105290000693002304930A330393534605970B9F09
:1052A000029312AB009342465B4649463800019593
:1052B000FFF72EFE0E9B0400002B20D00C9BC51A7E
:1052C000279BAB421BD91E0022005B46494620208B
:1052D0000135B8470134AE42F6D810E0289B42466B
:1052E0000493279B49460393269B0B9802935346AE
:1052F000009201935B460C9A00F026F9040020000E
:105300001BB0F0BCBB46B246A946A046F0BDC046A5
:10531000FFFFEF7FFFFFEFFFFFF7FFFF734B099FDB
:105320009C467800400D604401F0F4FB704A714BDC
:1053300001F07BFB704A714B01F058FB3B03704A54
:105340001B0B1A4304000D00300011006D4B0022AE
:1053500001F047FB6C4A6D4B01F067FB02000B004C
:105360002000290001F042FB01F0ECFB0D9001F060
:10537000D1FB674A674B04000D0001F056FB002289
:10538000654B01F033FB01F0DDFB644A0600644B22
:105390002000290001F049FB040030000D000F96A9
:1053A00001F0B8FB5F4A604B01F03FFB02000B00CD
:1053B0002000290001F015FB02000B0006000F0081
:1053C00001F033FB320004000D003B0030003900D7
:1053D00001F00CFB002210901191544B2000290089
:1053E00001F009FB0022524B01F000FB02000B0010
:1053F0002000290001F0FFFA00224E4B01F0F6FADE
:1054000002000B002000290001F0F5FA0D008021B8
:10541000040032003B000020C90501F0E2FA02005E
:105420000B002000290001F0E1FA02000B001098A7
:10543000119901F0E0FA0022314B01F0D7FA3E4B0E
:105440000F9C9C4664440022230501F0EEFA0500FF
:105450000E0002000B000A98099901F02DFB0028AC
:105460000AD00D9B2800013B31000D930022304BE8
:1054700001F0C1FA05000E00C6270D992B0063311B
:105480008F42BF4128997F420437090500D495E631
:10549000334300D182E6099C284A2100284B0A9810
:1054A00001F018FB002808D000222100254B0A98A3
:1054B00001F002FB002800D070E6269B002B00D1F3
:1054C0007CE60E9B5A1E9341269AD31A269375E6C4
:1054D000002304270D9371E643460A9380231B069D
:1054E0005344099342E6002326935FE601FCFFFF45
:1054F000FB799F501344D33FB3C8608B288AC63FC3
:105500000000F03F0000F83F61436F63A787D23F80
:1055100071A379094F930A400000E03F1655B5BBCF
:10552000B16B0240EF39FAFE422EE63F00002C40FC
:105530000000244000001840FF0300002D431CEB36
:10554000E2361A3F80842E41F0B54E46DE4657467D
:105550004546E0B597B09946209E219F229B834601
:10556000984607910C923B0032003000390001F060
:10557000BEFA002800D0A9E1012230003900CA4B50
:10558000524201F099FA002800D0E1E001223000F7
:105590003900C64B524201F0A5FA002800D0B7E00E
:1055A000002230003900C24B01F09CFA002800D0E4
:1055B00099E0002230003900BE4B01F07DFA00284E
:1055C00000D090E0002200233000390001F074FA8E
:1055D000002800D0B1E000230D93249B5B0501D48B
:1055E0000623984608AB9C461722002430234146E8
:1055F000624404E0013413550139202C01D00929FB
:10560000F8D888463000390001F09CFA4346DA00A9
:10561000A94B05009B181A685B680892099301F072
:1056200079FA02000B003000390001F0DAF9089A2B
:10563000099B01F0FAF90A900B9101F0A7FA824652
:1056400001F064FA02000B000A980B9901F0C9F905
:1056500000229A4B0A900B9101F044FA002800D1E5
:10566000C0E001239C46E244504601F04FFA02009C
:105670000B000898099901F025FA002802D00023B0
:105680009A4601354346002B6AD008AB17269C4644
:1056900008956644554614E001235B4243440A21C1
:1056A00028009A4600F062FF013430313719397012
:1056B00028000A2100F05AFF092D00D8D0E0D0467A
:1056C0000500202CE8D10EAB98460323249A134002
:1056D000012B00D196E02023249A01930392239A70
:1056E000434602921EE0249B58460493239B009657
:1056F0000197039343460C9A029307994B46FFF791
:10570000FDFC17B0F0BCBB46B246A946A046F0BDB2
:10571000249B5B070ED40322694B249901920391C9
:1057200023990291009358464B460C9A0799FFF72C
:10573000A1FBE6E70422634BEFE73B0032000020C9
:10574000002101F04EF9012306000F000D9344E7FC
:10575000249B0393239B0293042301935A4BE1E779
:10576000280001F0D7F902000B003000390001F0E9
:1057700038F9524B002206000F0001F09DF90EABE4
:10578000984600280AD10022300039004B4B01F026
:10579000A9F9002802D1EB0700D50135202C94D0BF
:1057A00008AA94461723280063440A2101341E19CD
:1057B00000F0B4FE3031280031700A2100F0AEFE56
:1057C000051EEBD10323249A1340012B1BD0202C60
:1057D00000D180E70D9B002B35D02D224146631C64
:1057E0000A5579E700220A980B99344B01F064F9C5
:1057F000002800D046E75346002B51D101239C4698
:10580000E2443FE72024239B002BE0D00D9B002B9C
:1058100003D1249A0C33134202D0239B013B2393E0
:10582000239BA342D3D908AB9C4617223023624462
:10583000202C00D14FE72399013413558C42C6D058
:10584000202CF8D147E7249B5B0724D4249A23001B
:10585000120700D440E72022414601330A553BE7B6
:105860005746089D202C00D12DE7220030214046CC
:10587000002F09D00132B154202A00D123E7D343AD
:105880001B191B18002BF5D10EAB98462E23414651
:10589000541C8B5482E72B224146631C0A551BE79C
:1058A000DB0700D4EEE6A9E7FFFFEFFFFFFFEF7F86
:1058B00065CDCD4165CDCDC1D84801100000E03F98
:1058C000E0460110E4460110F0460110249B0393CA
:1058D000239B029303230193004B23E7EC46011023
:1058E000F0B5DE464E4657464546E0B59FB01C0033
:1058F000289B91460993C94AC94B8B4608901A6068
:10590000002900D118E2002320789A46002800D10F
:105910001AE226001D005C460AE02A006F1C4B4676
:10592000089D2100A8473D0001363078002870D03E
:105930002528F2D110239B46083B9A46043B984603
:10594000023B00219C46721C107816000300203B8D
:10595000DBB2102B03D8B34F9B00FB589F460300CC
:10596000303B092B32D900230A932A2868D0002320
:1059700098462E283ED00300683BDBB2122B1CD881
:10598000A94A9B00D3589F46012301321943DBE704
:10599000634601321943D7E7434601321943D3E73F
:1059A0005B4601321943CFE7534601321943CBE737
:1059B00080235B007078194301360300253BDBB27E
:1059C000532BAAD8994A9B00D3589F46002703001F
:1059D000B800C01901364000C018337830381A00BA
:1059E000303A0700092AF3D90A9018000023984694
:1059F0002E28C0D180237078DB0019430300303B90
:105A0000721C092B00D8A1E12A2800D1B2E11600AE
:105A1000B1E7A346AA462C00D14503D801235B4237
:105A20004B449A464B46524659460020089DA8478B
:105A300020001FB0F0BCBB46B246A946A046F0BD50
:105A4000099B40CB0A96002E03DB50780993561C25
:105A50008DE72838014370420A9009935078561C0C
:105A600085E7782800D1DFE1582800D14CE26F2883
:105A700000D14FE3622801D100F030FC10230A006E
:105A80009A430B92692801D000F0A9FC0A230C93D9
:105A90004B0500D5D0E10B9A802311009B001940E3
:105AA0008B461A4200D0A1E2802311005B0019400E
:105AB0008A461A4200D0B6E313005B0600D5EDE239
:105AC000130009991B0601D400F076FC08C91BB22B
:105AD000D8171A18424092B209919346DA0F1292DF
