:020000041000EA
:1000000000B5324B212058609868022188439860DF
:10001000D860186158612E4B002199600221596106
:100020000121F02299502B49196001219960352056
:1000300000F044F80222904214D00621196600F024
:1000400034F8196E01211966002018661A6600F04E
:100050002CF8196E196E196E052000F02FF8012189
:100060000842F9D1002199601B49196000215960AB
:100070001A491B48016001219960EB211966A021F2
:10008000196600F012F800219960164914480160C1
:100090000121996001BC002800D000471248134993
:1000A000086003C880F30888084703B5996A0420EC
:1000B0000142FBD001200142F8D103BD02B5186610
:1000C0001866FFF7F2FF186E186E02BD00000240BE
:1000D000000000180000070000035F00212200005C
:1000E000F4000018222000A00001001008ED00E03C
:1000F00000000000000000000000000074B24E7A12
:1001000000200420F7010010C3010010C5010010F9
:10011000C1010010C1010010C1010010C101001097
:10012000C1010010C1010010C1010010C701001081
:10013000C1010010C1010010C9010010CB01001065
:10014000CD010010CD010010CD010010CD01001037
:10015000CD010010CD010010CD010010CD01001027
:10016000CD010010CD010010CD010010CD01001017
:10017000CD010010CD010010CD010010CD01001007
:10018000CD010010CD010010CD010010CD010010F7
:10019000CD010010CD010010CD010010CD010010E7
:1001A000CD010010CD010010CD010010CD010010D7
:1001B000CD010010CD010010CD010010CD010010C7
:1001C00000BE00BE00BE00BE00BE00BEEFF3058054
:1001D000103800BEF2EB8871448001106480011079
:1001E0003402001090A31AE700201F49086006C8D7
:1001F00081F3088810471D48006800282FD10DA4FE
:100200000ECC002902D000F012F8F9E71849194A7B
:10021000002000E001C19142FCD1174988471749ED
:1002200088471749884700BEFDE701C901C29A42C5
:10023000FBD3704764800110C0000020A41B002085
:10024000489B01100000042000000420489B01107E
:10025000001004200010042000000000704709482E
:1002600005F0C6FC0047000008ED00E0000000D0EB
:10027000A81B0020F82E0020014400109D1800103B
:10028000294500105756000006005250ABB360538A
:100290009040011006005250861C0302B04001102D
:1002A000060052505422A29DB84001100500525041
:1002B000DE65F468489B0110F8B5C0460448054B5C
:1002C00010B5834203D0044B002B00D0984710BDDB
:1002D000A41B0020A41B00200000000006480749C2
:1002E000091A8B10C90FC91810B5491003D0044B57
:1002F000002B00D0984710BDA41B0020A41B002099
:100300000000000010B5074C2378002B09D1FFF73F
:10031000D5FF054B002B02D0044800E000BF0123AD
:10032000237010BD501E002000000000903C011002
:10033000054B10B5002B03D00449054800E000BF71
:10034000FFF7CCFF10BDC04600000000541E002087
:10035000903C0110F8B50600040005000700164B9C
:100360003436C36530000AF0A3FF236C60358C3748
:10037000002B04D001223000E16D0AF041FD8826F7
:100380000E4B2800A3510AF093FFE36E002B04D01C
:1003900001222800A1590AF033FD094B3800BB6245
:1003A0000AF086FFFB68002B05D0B4230122380039
:1003B000E1580AF025FDF8BD903C01109C3C01106D
:1003C000AC3C011070B503000500012215353D332A
:1003D000FF33FF351A70040028000AF069FFEB684C
:1003E000002B06D09E235B0001222800E1580AF072
:1003F00007FD70BD70B50500036B0C4E5A1CB83577
:10040000026311210A4A0400300005F087FB28002E
:10041000AE620AF04DFFEB68002B05D0E02301220D
:100420002800E1580AF0ECFC70BDC04650240020C2
:10043000BC3C0110F8B5204B204A9C46190007002F
:1004400004000600050009CA09C163463437E365A4
:1004500038000AF02DFF236C9535E836FF35002B68
:1004600004D001223800E16D0AF0CAFC230000220A
:100470001133FF331A7030000AF01AFFF368002BB3
:1004800006D088235B0001223000E1580AF0B8FC56
:1004900023000122BD33FF331A7028000AF008FF41
:1004A000EB68002B06D0DE235B0001222800E15818
:1004B0000AF0A6FCF8BDC0463C240020C83C011050
:1004C000F8B5A0234E4645465746DE465B00C25867
:1004D0000D3BFF3B98462C339946C823E0B5118E5F
:1004E00005009B0006008B42BF410400804481440C
:1004F000508DC1358C36FF357F42984202D8908DA1
:1005000098425ED9C823128D9B009A4200D972E0AE
:10051000994200D984E00223AB6228000AF0C8FEA9
:10052000EB68002B06D0F4235B0001222800E15881
:100530000AF066FC00239A4601339B46484D3B0077
:100540001121484A280005F0E9FA474F5B4611217E
:10055000464A380005F0E2FA454B11219B46454AD0
:100560005346584605F0DAFA4046E5650AF0A0FE23
:10057000236C002B04D001224046E16D0AF040FCC0
:100580008825484667510AF093FEE36E002B04D09D
:100590000122484661590AF033FC5B463000B362E1
:1005A0000AF086FEF368002B05D0B4230122300048
:1005B000E1580AF025FCF0BCBB46B246A946A0466D
:1005C000F8BDD08D98429DD8128D9A4231D9002322
:1005D0002800AB620AF06CFEEB68002B24D0F423F9
:1005E0005B00E158012228000AF00AFC01239A4628
:1005F00000239B46A2E7994214D80123AB6228004E
:100600000AF056FEEB68002B06D0F4235B000122B3
:100610002800E1580AF0F4FB01239A469B468DE737
:10062000032379E70223E9E701239A4600239B4647
:1006300084E7994212D90423AB6228000AF038FEFD
:10064000EB68002B06D0F4235B0001222800E15860
:100650000AF0D6FB00239A469B466FE70523EBE79B
:1006600064240020D03C011078240020DC3C0110E0
:100670008C240020E83C0110A32070B5C00009F0D4
:10068000CBF90221E4234942C150AC33C150E423E9
:100690009B00C218C4235B00C250C2182C3BC2503E
:1006A000BE220023B024520083507C3AFF3A6400FB
:1006B00002518C340151FB31464CFF314350083913
:1006C0004450932404314050483143500431435046
:1006D0004149A400015104340351404D10340251EA
:1006E000083C0551022504340051483403510434B8
:1006F00003510C3401510434035110340551384D69
:10070000083C055103250434005148340351043496
:1007100003510C3401510434035110340551314D4F
:10072000083C055104250434005148340351043475
:1007300003510C34015104340351103405512A4D36
:10074000083C05510434005148340351043403512A
:100750000C340151FC218900435024494350053990
:10076000FF3944181131FF31445044182049445096
:10077000043142501F4942541F4943509621890079
:1007800044189021C900445044181C494450043175
:1007900042501B4942541B494350FD39FF3944180C
:1007A0009921C900445044181749445004000431A9
:1007B00042501649F1344254FF346C3144501449CC
:1007C00043500C3144181349445004314250124AEA
:1007D000835470BD55030010F43C0110F503001064
:1007E00035040010C5030010C10400102C040000E3
:1007F0000C04000014040000740400005404000001
:100800005C040000BC0400009C040000A404000080
:1008100004050000E4040000EC0400002823426A00
:10082000D25C083BC2547047202370B5C35C0400FF
:10083000002B3BD12123C35C002B1CD00CF044FEC9
:100840002000B43003001C490B435B071CD18B1CF8
:10085000C31A042B18D94A880B8812041A43CB8870
:100860008D881B042B43026043600B892838038664
:100870000AF01EFD70BD0CF0EFFD2000B430030047
:100880000E490B435B07E2D0B42320000A888C306A
:10089000E2524A880233E2528A880233E252CA881C
:1008A0000233E2520A890233E252E1E70CF002FD20
:1008B00021230122E254DDE7782D0020602D002065
:1008C0008A2070B5800009F0A7F803002C3343623A
:1008D0003433836584230065D022C05000239C24D8
:1008E0001E498350083A8150043280504832835068
:1008F0001B49043283500C32815004328350283A11
:10090000FF3A184D64000251083C0551043400516F
:1009100048340351043403510C340151C8210400FC
:10092000490043503C314350C8340C3144504418C2
:100930002C39445004314250183942507C314350D4
:100940000100882331319B00FF31C150C1182C3B7D
:10095000C1500433C250183BC25070BD1D08001076
:10096000F43C0110290800108823F0B5076AC55827
:100970003433C4583B7D466D83B0002B0CD1337D9E
:10098000002B1AD12B7D002B28D1237D002B36D1B3
:100990000CF002FA03B0F0BD0023802200210020F9
:1009A000009310330CF04AF9012300220021B86AA9
:1009B0000BF01EFF337D002BE4D00023802210219A
:1009C0000020009310330CF039F90123102200218C
:1009D000B06A0BF00DFF2B7D002BD6D000238022B8
:1009E00020210020009310330CF028F9012320224D
:1009F0000021A86A0BF0FCFE237D002BC8D0002349
:100A0000802200933021002010330CF017F90123CD
:100A100030220021A06A0BF0EBFEB9E7084B10B5BD
:100A20001A78002A00D010BD01321A700BF066FE51
:100A300004480BF05DFE00200BF06CFEF3E7C046AF
:100A4000E82E0020545E0110CA2070B5800008F026
:100A5000E3FF03002833036234334365020080233D
:100A6000C0649032C0500833C2502C33C05034326E
:100A70000833C2502C33C050F8220023B024304930
:100A80008350083A815004328050483283502D49B7
:100A9000043283500C32815004328350503AFF3A72
:100AA000294D64000251083C05510434005148347A
:100AB0000351043403510C340151DC21040049007A
:100AC0004350F034483144500C3943500C314418F1
:100AD0002C39445004314250043143546031435066
:100AE000A83C0C31445045182C394550043182251E
:100AF00042500421AD0041517C3543510C354451E5
:100B000046192C3D465104354251183D41517C3522
:100B100043510C35445146192C3D46510435425140
:100B2000183D41517C354351C8239B00C450C41823
:100B30002C3BC4500433C250183BC15070BDC0465A
:100B40001D0A0010F43C011069090010030070B583
:100B50000500012206000933FF33E0351A70040056
:100B600028000AF0A5FBEB68A536FF36002B06D05F
:100B700084235B0001222800E1580AF041F9230098
:100B80000122CD33FF331A7030000AF091FBF36875
:100B9000002B06D0E6235B0001223000E1580AF06A
:100BA0002FF970BD862370B505005B00C358D5359D
:100BB0009B6AFF35AB62040028000AF079FBEB6802
:100BC000002B06D0FE235B0001222800E1580AF02A
:100BD00017F970BD80239B0070B5C518AC3BC35896
:100BE00004009B6A2800AB620AF062FBEB68002BF2
:100BF00006D08A239B0001222800E1580AF000F960
:100C000070BDC0468B239B0070B5C5182C33C61829
:100C1000D223DB00C318836101230377C36A040076
:100C2000AB6228000AF044FBEB68002B06D095234A
:100C30009B0001222800E1580AF0E2F8616BE06AAB
:100C400005F0EFFBB06230000AF032FBF368002BD6
:100C500006D0A0239B0001223000E1580AF0D0F812
:100C600070BDC0468B239B0070B5C6182C33C518C9
:100C7000C36A0400B36230000AF01AFBF368002B69
:100C800006D095239B0001223000E1580AF0B8F805
:100C9000616BE06A05F0C5FBA86228000AF008FB5A
:100CA000EB68002B06D0A0239B0001222800E1580E
:100CB0000AF0A6F870BDC04610B5040008F018FD93
:100CC00005F022FC606410BD70B500210400C06A0C
:100CD00005F0D6FB002800D170BD8B239B00E618E1
:100CE00008F006FD05F010FC616C05F080FB216B3F
:100CF00005F097FBB062051C30000AF0D9FAF368E2
:100D0000002B06D095239B0001223000E1580AF009
:100D100077F89623606B9B00291CE61805F081FB91
:100D2000B06230000AF0C4FAF368002BD4D0A023DC
:100D30009B0001223000E1580AF062F8CCE7C0467F
:100D4000F0B5D820D6464F464646C000C0B508F09C
:100D500063FE0300503383643433C3670222A82345
:100D600040675242C050F833C2505133FF33C1186C
:100D7000A13BFF3BC150C1182C3BC150A221002315
:100D80009424490043504439FF3964000151D6246A
:100D9000A4000519C13CFF3C055105192C3C055127
:100DA000203403511C3C015160340251B4340251CF
:100DB000A4227F4C92008350083A8450B924022622
:100DC000043280504832835004328350794AA40060
:100DD000025104340351784D10340151083C05513F
:100DE0000434005148340351043403510C3402518B
:100DF0000434035110340651704D083C055103254D
:100E00000434005148340351043403510C3402516A
:100E10000434035110340551694D083C0551043424
:100E20000051684C8425035104340351664CED0095
:100E30000251CF24E400041944510425AA46862512
:100E40005746ED004751614F083D4751604D4051B5
:100E5000604D4351043543515F4D4251D225ED0061
:100E6000AC46912584446746ED004751052710356F
:100E700047515A4F083D4751594D9E274051594DB2
:100E8000FF00435104354351574D4251BD35FF35A5
:100E9000A94681444D46C5511037BC460627B84681
:100EA00067464546C5519F25ED00AC464F4DA846C7
:100EB0006546474647514E4D002740514D4D4351E1
:100EC000043543514C4D4251AB224D46D200855022
:100ED0004A4A8350A22292008518B422D20085503B
:100EE000A83A8518464A8550043A8518454A8550DF
:100EF00004328650444A8154553AFF3A8518C1322B
:100F0000FF328550593AFF3A8518404A8550404A89
:100F100083500C3285183F4A8550043286503E4A31
:100F2000002683543D4A8350F02292008518C62241
:100F3000D200855085183A4A855004328150183ABB
:100F400081505146374A384D8350343A815002001F
:100F5000CF210C32C9004250344945500431411868
:100F60000E604F60D121C900435408314250304DCA
:100F700030494550043141180E604F60D421C900FA
:100F80004354083142502C4A2C4981500432821873
:100F900016605760D722D2008354C3600461446155
:100FA00083610377E0BCBA46B146A846F0BDC046AF
:100FB0004D0B0010F43C0110A50B0010D50B0010D8
:100FC000050C00100C0400001C040000650C00104F
:100FD0002C0400007404000084040000B90C00100C
:100FE00094040000DC040000EC040000C90C0010B4
:100FF000FC040000440500005405000094050000B6
:10100000A4050000740500007C050000EC0500004C
:10101000DC050000BC050000C4050000240600003B
:10102000040600006C060000903C01107C060000E5
:10103000F83C011094060000AC060000003D0110D1
:10104000036C9B6A83637047436F9B6AC3637047FB
:10105000F0B54E46DE4657464546A823E0B5C6588D
:101060003433C358070083B08068994608F002FB08
:10107000BA6AFB6A04000D00002B11DD2000290074
:10108000801A9941002915DC002900D17AE0BC6260
:10109000FD6203B0F0BCBB46B246A946A046F0BD17
:1010A000002BF4D1002AF2D020002900801A9941A7
:1010B0000029E9DD88235B009A46B36ABA449B465F
:1010C00005F022FA324905F0ACF905F027FA5B4643
:1010D0003A6B00900191981A05F0B8F82D4A2E4B02
:1010E00005F03FF800222D4B05F021F8009A019BF6
:1010F00005F01DF805F0EEF84B46796B9B6A061C6F
:10110000581A994605F0A2F8224A234B05F029F80F
:101110000022224B05F00BF8009A019B05F007F81E
:1011200005F0D8F85B463B634B46311C7B63804639
:10113000B86B05F05CF95346986250460AF0B8F86F
:101140005346DB68002B06D09C235B0001225046EF
:10115000F95809F055FE3E00F86B414605F047F995
:101160004136FF36B06230000AF0A2F8F368002B77
:1011700000D18CE7B4235B0001223000F95809F05C
:101180003FFE84E7064B984200D880E792E7C046CE
:101190005F708930C3718BB665BCB93F0080764003
:1011A0003F420F00F22070B5800008F035FC0300CC
:1011B00048330364343343670200A023C066B0326F
:1011C000C0500833C2502C33C05034320833C250A0
:1011D0009E222C33C0500B3BFF3B520083503032D9
:1011E00083500023F02436490C328350083A815052
:1011F00004328050483283503249043283500C32DA
:10120000815004328350D03AFF3A2F4D640002518E
:10121000083C05510225043400514834035104347C
:1012200003510C3401510434035110340551274D3E
:10123000083C05510434005148340351043403512F
:101240000C340151A82104008900435071343C3111
:101250004350FF340C31445044182C39445004316D
:10126000AA24425005000421A4000151D9357C3440
:101270000351FF350C34055105192C3C0551DE2571
:1012800004340251183C01517C3403512D3CFF3C85
:101290000419AD00445146192C3D465104354251C4
:1012A000183D41517C354351F0239B00C450C41874
:1012B0002C3BC4500433C250183BC15070BDC046D3
:1012C00041100010F43C01104910001051100010A2
:1012D000036A70B59C6A0021201C05F0D9F8FE2134
:1012E000431E98416400640805008905201C05F030
:1012F000D7F8002805D00748290001220CF0DEF9B4
:1013000070BD0549201C05F08CF805F0F5F880B299
:10131000F2E7C046FF0F000000F07F45436D70B557
:101320009C6A0021201C05F0B3F8FE21431E984161
:101330006400640805008905201C05F0B1F8002848
:1013400005D00748290000220CF0B8F970BD054906
:10135000201C05F066F805F0CFF880B2F2E7C04631
:10136000FF0F000000F07F4510B501200CF078F968
:1013700010BDC046A62070B5800008F04DFB0300EC
:1013800028330362343343658023C0649022C05005
:101390000023F8242D498350083A815004328050AC
:1013A000483283502A49043283500C32815004322F
:1013B0008350284DE73A0251083C05510225043478
:1013C000005148340351043403510C3401510434A6
:1013D000035110340551204D083C0551043400518F
:1013E00048340351043403510C340151DC2104000E
:1013F000490043508834483144500C3943500C3133
:1014000044182C3944500431425004314354113CA7
:1014100060314350FF3C0C31445044182C39445047
:101420000431822442500421A40001517C34035130
:101430000400A42359349B00FF34C450C4182C3B2F
:10144000C4500433C250183BC15070BD6913001022
:10145000F43C0110D11200101D130010F0B5C64667
:10146000C36A04009E6A816A00B50700301C04F05C
:10147000C1FF8823216A051CA062301C984604F035
:10148000D0FF616A061C281C04F0CBFF011C301C35
:1014900004F0B0FF43466037E050380009F008FF21
:1014A000E36E002B05D0434601223800E15809F0D5
:1014B000A7FC80BCB846F0BDA02010B5400008F0E5
:1014C000ABFA03003433C3629822002310498065CD
:1014D0008350083A815004328050483283500D497D
:1014E000043283500C328150043283503C3283509A
:1014F00002003933FF339032C250C2182C3BC25025
:1015000001220433C250183B0332C25010BDC04602
:101510005D140010F43C0110F0B5C646050006004D
:1015200080211F4A040000B5D06884350006000FF2
:1015300054360130490053680B42FCD10138176A18
:101540000028F8D18021D068154A0004000F7F429E
:101550000130890053680B42FCD10138536A0028DE
:10156000F8D15B423000E767984609F0A1FE236E90
:10157000002B04D001223000E16F09F041FC43460A
:101580002800AB6209F094FEEB68002B05D0AC2379
:1015900001222800E15809F033FC80BCB846F0BDB8
:1015A00000002050F0B5D6464F4646460025C0B54F
:1015B0003D4C8AB020003D4907F0B4FC02232000D6
:1015C00008220021009507F0B5FD00220121082026
:1015D00001F04AFA00220121092001F045FA802693
:1015E000F827C02376021B037F0202A9102206A857
:1015F0009A46049302960397059505F045F82C4BFF
:1016000006A9102202A89946079305F03DF8802309
:10161000DB020593274B2000039380231B0398468E
:101620000493002202AB002107F0DCFD01222368B5
:101630002000134323600121022300950B3207F0A1
:1016400079FD002201210C2001F00EFA0022012177
:101650000D2001F009FA534602A9102206A80493AE
:1016600002960397059505F00FF84B4606A9102240
:1016700002A8079305F008F8C023DB0205930E4B80
:1016800000220393434601210493200002AB07F09C
:10169000A9FD02222368134323600AB0E0BCBA46C6
:1016A000B146A846F0BDC046000020500C3D0110D8
:1016B00080770100807701088077010C862070B563
:1016C000800008F0A9F9030028330362C022002338
:1016D00094242049C0648350083A815004328050D9
:1016E000483283501C49043283500C3281500432FA
:1016F0008350183AFF3A194D64000251083C0551D5
:101700000434005148340351043403510C34015162
:10171000C021040049004350B834483144500C39CA
:1017200011344350FF3420394450043142500431C5
:101730004354603143500100842321319B00FF3129
:10174000C150C1182C3BC1500433C250183BC25089
:1017500070BDC046A5150010F43C0110191500100D
:10176000F0B5070004000600050087B003A919487A
:101770000BF008FC039B5437E367380009F098FD31
:10178000236E8436B435002B04D001223800E16F7B
:1017900009F036FB049B3000B362019309F088FD29
:1017A000F368002B05D0AC2301223000E15809F08A
:1017B00027FB059B2800AB6209F07AFDEB68002B44
:1017C00005D0DC2301222800E15809F019FB07B0FD
:1017D000F0BDC046542D0020054B10B51A78002AE4
:1017E00000D010BD013203481A700BF081FBF8E7FE
:1017F000E92E0020542D0020922070B5800008F0C2
:101800000BF9030028330362F0220023AC242049A3
:10181000C0648350083A815004328050483283506B
:101820001C49043283500C32815004328350483AB0
:10183000FF3A194D64000251083C0551043400512F
:1018400048340351043403510C340151D8210400AD
:1018500049004350E834483144500C391134435066
:10186000FF34203944500431425004314354603134
:1018700043500100902351319B00FF31C150C118EA
:101880002C3BC1500433C250183BC25070BDC046FF
:10189000D9170010F43C01106117001010B5002199
:1018A000002009F03FFE10BD7047C0460A4B0121E1
:1018B0001A68002300B589B006930593049102933A
:1018C000019318310733039100930021033B034830
:1018D00009F0FCFB09B000BD98210020C01C0020CD
:1018E000014B036001207047C01C0020F0B5DE46AC
:1018F00057464E464546E0B5A3B0FEF7BDFEFE4B4B
:10190000040083609A460123FC4A27000262436276
:10191000534600215E6E0023F948F137FF37A0627D
:10192000E162376023638323DB00E6180022002393
:10193000326073608423DB00E618534630607160C8
:10194000DE6DFE239B00E11800233160ED4900228B
:1019500063508C23DB00E11800230A604B608D2369
:1019600000218822E848DB00E71838607960002011
:10197000D200A1187160E549012360509520DF4A2B
:10198000C000962521180A604B6000210022ED005E
:101990006319283D19605A6063190025B360DC4B58
:1019A0008027E5508C250026C022AD003F06631934
:1019B00068351E605F609200631941381E605F6089
:1019C000FF38A31839351E605F60FF3523181E608D
:1019D0005F6063191E605F60FEF772FF524602256A
:1019E00082600123C0226D428550038403000933C5
:1019F000FF338562C5651E605F609E66DF66804658
:101A0000FFF722F801005046C02288608C204D620A
:101A10008D650D508D505246536E0A00F0325A605B
:101A20000B003133FF331E605F609E66DF660391FB
:101A3000FFF786F95246050082600220DC22404210
:101A4000A8505C3AE8645346A85085225B6ED200E9
:101A5000AA189A609222D200AA18DA60AD4B00212F
:101A60002B62AD4B00226B628023DB05AB62AB4B7C
:101A7000AB486B630023AB63EB639B46B023DB0097
:101A8000EB1819605A60B1230021DB00EB181860D5
:101A90005960AC225346D200DB6DAA18DA600022EE
:101AA000A04BEA50B2239B00EB181E605F60CC2372
:101AB0009B00EB181E605F60E6239B00EB181E6026
:101AC0005F608023DB00EB181E605F608D23DB000E
:101AD000EB181E605F609A23DB00EB181E605F60EE
:101AE000A723DB00EB181E605F6053462A00DB6F04
:101AF0000C325B681A60FFF755FBFC239B05036201
:101B0000FA2352469B05814682604362020002200E
:101B1000AC23404250649067D0504B46E022494687
:101B20009850002200238A62CB620A634B634B46C3
:101B30005A46B133FF338A63CA631E605F608623EF
:101B40009B004B441E605F60A0239B004B441E60C3
:101B50005F60FFF70FFC5346010083600200022024
:101B60005B6E40428832486288651A610B000491BE
:101B70009931C833FF311E605F609E66DF660E607C
:101B80004F60FFF799FC534683604B461B6A020087
:101B900003624B465B6A8C214362022040425050F4
:101BA0001063584602929062D03216605760FFF779
:101BB00083FC0100504688604846006A8C23086216
:101BC0004846406A0191486202204042C85008637A
:101BD000584688620800D03006604760FFF76EFD07
:101BE0005146834681600300022080224042985083
:101BF00030329850586258464B6EB8305861403079
:101C0000066047608666C7666830FFF7F5FD02002C
:101C10005046906002208021404250503031505058
:101C20003031505050625046436E1000E8329A6195
:101C3000862305909130FF30166457649B00066040
:101C400047600336E6504032DC3922000320892603
:101C500007F0C4FEB600A05122000421032007F0C3
:101C6000BDFE4827043EA05122000421032007F0B6
:101C7000B5FEBC468723A44467469B00E050069708
:101C800007607427BC46A444674647600997A027AD
:101C9000BC46A444674687600A9701276433E7502F
:101CA00022000421012007F099FEA3239B00E050AD
:101CB00022000421012007F091FEA2239B00E050A6
:101CC00022000421012007F089FECC218C46A123AB
:101CD000A44461469B00E05001600320643322006D
:101CE0000C91E050042107F079FEBD239B00E050E9
:101CF00022000421032017E0C01C002000F2052A66
:101D000000E1F5053404000000CA9A3B7C040000A1
:101D1000C404000052B83A41CDCCCC3F3333733FBA
:101D2000809698009C05000007F058FEBC229200A7
:101D3000A05004212200032007F050FEFC22BB2308
:101D400094469B00E050453BA444FF3B62469C46C2
:101D5000A444634683600E93D42302600D92069AD6
:101D60009B0042600421E7502200012007F036FE6C
:101D7000D7218900605022000421012007F02EFEA7
:101D8000D6218900605022000421012007F026FEA0
:101D9000942252009446D523A44462469B00E0500E
:101DA0000F92026004226433E250042122000420D6
:101DB00007F014FEF1239B00E050220004210420D0
:101DC00007F00CFEF0239B00E050220004210420C9
:101DD00007F004FEEF239B00E050E93BFF3B9C46ED
:101DE000A4446346069A0A990260099A8160426097
:101DF000C36010934046F0230022C2506833C7509E
:101E000042460421012007F0E9FD41466437FF37CF
:101E1000C85142460421012007F0E0FD4146043F3D
:101E2000C85142460421012007F0D8FDAE234746A1
:101E30005B00F850A0274744076011978C277F006C
:101E4000BA4638000027039924330F50CF5031335E
:101E50000237FF331738EF502A000421FF3807F00C
:101E6000BDFDAF239B00E8502A000421022007F0AB
:101E7000B5FDAE229200A85004212A00022007F0EE
:101E8000ADFDF421DC228C465200AC446146944600
:101E9000AD23AC4462469B00E8506433016042606D
:101EA0001291EF50139204212A00022007F096FDB0
:101EB000C921890068502A000421022007F08EFD04
:101EC000C821890068502A000421022007F086FDFD
:101ED000C7239B00E850353BFF3B9C46C422AC44E3
:101EE00063469446AC44624603601493E023426028
:101EF000159201229B00EA5004212A00012007F0DC
:101F00006DFDE321890068502A000421012007F0BB
:101F100065FDE221890068502A000421012007F0B4
:101F20005DFD852189008C46E123AC4461469B0020
:101F3000E850643301602A00EF501691022004211A
:101F400007F04CFDFD21890068502A000421022081
:101F500007F044FDFC21890068502A00042102207A
:101F600007F03CFD902292009446FB23AC449B007A
:101F70002C32E850634694460360AC4407938A23AE
:101F80006146DB0041602A00EF50089102200421E5
:101F900007F024FDFE4A0421A8502A00022007F081
:101FA0001DFD8B22D200A85004212A00022007F038
:101FB00015FDF84B0899E850079B41600360972393
:101FC0000020DB00E8506833EF502A00042138007D
:101FD00007F004FDF04A0421A8502A00022007F06F
:101FE000FDFCA522D200A85004212A00022007F0FF
:101FF000F5FCEA4B0899E850079B4A460360CC235E
:10200000416000205B00D0506833D0506833D75017
:102010000421022007F0E2FC9D234A469B00D05099
:102020000421022007F0DAFC9C234A469B00D05092
:102030000421022007F0D2FC9B234A46AA219B00E0
:10204000D050493BFF3B49004B4449440360416049
:102050000022B0201793049B18911A5050461A5032
:1020600068301A50029BC8389A4601321A5004212F
:102070001A00B73807F0B2FC5346C4220421985026
:102080005246012007F0AAFC5246C0230421D0503A
:102090000120029207F0A2FCBC22029B92469850BB
:1020A00074330360B8201993019BBB3A1A50042182
:1020B0001A00B73807F092FCC422019B0421985003
:1020C0001A00012007F08AFCC022019B04219850CD
:1020D0001A00012007F082FC5346019A0421D050D7
:1020E000743202605B461A92E02000221A50A42348
:1020F00058465B00C7505A46022007F06FFCAA23DF
:102100005F465B00F8505A460421022007F066FC47
:10211000A8235B00F8505A460421022007F05EFC19
:10212000A6235B00F85098275F4407601B97682739
:1021300000225F4447601C97032705983C3BC25030
:102140006833C750020007000421032007F046FC53
:10215000C2235B00F8503A000421032007F03EFC44
:102160003A00C0277F00D05104210320170007F058
:1021700035FCBE235B00F8503A003B0068329833D0
:102180000597C8370260436087601F97802001274A
:102190001E9384236765A46527502C30E450275094
:1021A000543304302450E7502C3030332450E7505F
:1021B0000433E450A833E7500433E4505830803BF4
:1021C0002750E450A359824634381D921F602200E4
:1021D0000421FF3807F002FC89229200A358042151
:1021E0001860A35922005F60012007F0F7FB8922E5
:1021F0009200A35804215860A35922009F60012037
:1022000007F0ECFB8922039982278C469200A358A1
:10221000BF001A68674498600B97176094275B6843
:10222000BF0067441F602097A627BF006744076070
:10223000A220219701278000235822001F6004213B
:10224000012007F0CBFBA3239B00E358039A1860FF
:10225000B82394469B0063440360BC20800023584D
:1022600022001F600421012007F0B8FBBD21890076
:10227000635822001860BC208000235804215F604E
:10228000012007F0ABFBBD21890063582200586094
:10229000BC208000235804219F60012007F09EFB92
:1022A000BD218900635841461A689931FF31986011
:1022B0001160BE225B680B99D2001960AB180360F5
:1022C000D6208000235822001F600421012007F03F
:1022D00085FBD72347469B00E358E137FF3718605B
:1022E0000760F0270122BF00E35904211A60012092
:1022F000220007F073FBF121890063580122186066
:10230000F0208000235804215A600120220007F0A9
:1023100065FBF1218900635801225860F02080009C
:10232000235804219A600120220007F057FBF12175
:10233000890063580B991A68986011605B6820994E
:1023400001221960219943460160AC201A500430E3
:102350001B50B0301B5860381A6004214246FF38C9
:1023600007F03CFBB221434649005B58012218604C
:1023700023004933FF330360802389205B00EA5048
:102380000433ED50C033EA500433ED5008E0C0464A
:102390005C040000540400002C050000240500002B
:1023A0002C33EA500433ED5080005433AA512D50A1
:1023B000EA500433ED502833EA500433ED50A93B82
:1023C000FF3B9430ED502B58613916001A60FF39ED
:1023D0002A00012007F002FBAF239B00EB582A00E4
:1023E0001860AE2080002B5804215E60012007F0A9
:1023F000F5FAAF235A469B00EB58D13258601B6860
:102400000599FF321A6080238C469B006344036069
:10241000C82080002B582A001E600421012007F0EC
:10242000DDFAC9239B00EB582A001860CE239B00DD
:102430004B440360E22080002B5804211E600120E1
:1024400007F0CCFAE3239B00EB582A001860E02346
:102450009B004B440360FC2080002B5804211E602D
:10246000012007F0BBFAFD239B00EB582A001860FF
:10247000FC2080002B5804215E60FD26012007F01F
:10248000ADFABC21B600AB594D3E5860FF3E1B680B
:1024900089004E4449441E6001608B200122C00027
:1024A0002B580B911A6004212A00012007F096FA9C
:1024B000FE4B0122EB58042118608B20C0002B58E2
:1024C00001205A602A0007F089FAF84B0B99EB5863
:1024D000012258601B6801271E600160A520C00012
:1024E0002B5804211A6001202A0007F077FAF04BDC
:1024F0000122EB5804211860A520C0002B580120B0
:102500005A602A0007F06AFAE94B0122EB580421CD
:1025100058601B681E600B9E98230660484656460E
:102520005B00C2508051B0204E464000375004300E
:1025300036509C264846B60083594A461F60012003
:1025400007F04CFA9D239B009A464B4652469B58F7
:1025500004211860484683594A465F60012007F00D
:102560003DFA4E4653460299F3580E0058601B68D8
:10257000F8361E60019E0A00F836066080268F51EC
:1025800004368951B2463C368B5901201F60042124
:1025900007F024FAC42202998B5804991860822308
:1025A0008C469B0063440360802301980421C7503C
:1025B00053468246C050835902001F60012007F035
:1025C0000DFA04995346C42294268C460193B60012
:1025D0009B58664418600660A42358464767806786
:1025E000C750A8208246584656468051A8205E46CD
:1025F0004000335850385A461F600421AA26FF383D
:1026000007F0ECF95B4676009B595A461860A82003
:102610005B4640001B5850385F605F460421FF381E
:1026200007F0DCF9BB592F00586011371B68FF37E2
:102630001F60483707605046059FD823BF673F504B
:102640002000E830FF500300404643622000153070
:10265000FF30030040468365A0238C305B00E050D0
:102660002000343003000398019903622C33436542
:102670002C331A008823C2502300B8331A00BC231D
:10268000C25020009530FF30A8648B2080002B18AA
:1026900048460364962080002B184846436728006C
:1026A000D530FF30030052464846835080208000DA
:1026B0002A18DC234846C2501130FF30030002982C
:1026C000049AC3626030106248464130FF30C862ED
:1026D0000B0028006033E030536503005846036266
:1026E00086235430A8515B003030E8502800A530D4
:1026F000FF3038626F4B19995B6B129899601A9989
:102700001D9ED96007991861196213980899179F3F
:102710005861596214981C991E631E9E1F6098612F
:10272000189F169899625E631B991F9E5F60D8611F
:10273000D9629E63069E0122DE63099E01271E6404
:102740000A9E7F425E640C9E5B489E640D9EDE6422
:102750000E9E1E650F9E5E65109E9E65119EDE6537
:10276000159E1E66822380269B00E1180023B6007A
:102770000A604B60A119514E0E604F609C260127E4
:10278000B600A119083E0A604B60A1194C4E7F4269
:102790000E604F60B621890061180A604B60B42159
:1027A0000127484E890061187F420E604F60D0219A
:1027B000890061180A604B60CE210127424E8900D2
:1027C00061187F420E604F60EA21890061180A603B
:1027D0004B60E82189008C46012164444942206015
:1027E00061604146E0310A604B6008390E604F601D
:1027F00001270A674B67354E039C68317F420E60A4
:102800004F60210001270931FF310A604B602B4ED8
:10281000611CFF317F420E604F600A674B670121E8
:102820002B486934FF34494220606160A821890047
:102830006C1822606360A624A4002C1968312660FD
:1028400067606C1822606360C02401271D4EA400DD
:102850002C197F426831266067606C1822606360C3
:10286000DA240127184EA4002C197F4226606760E5
:10287000F6240121A4002E191448083C326073602C
:1028800049422E19306071608821C9006C1822609D
:10289000636087240127084EE4002C197F426831C9
:1028A000266067606C18083914E0C0465C040000BC
:1028B0002C050000C01C00200500FFFF0000FFFFEA
:1028C0000100FFFF0200FFFF0300FFFF0400FFFF06
:1028D0000600FFFF226063606C1801214B484942EB
:1028E00020606160A221C90069180A604B60A121C3
:1028F000C900681849460125454C6D42893104607C
:102900004560FF314C460A604B60012141488134EB
:10291000FF344942206061604946F131FF310A606D
:102920004B6001213C484942A066E166962189003E
:1029300049440A604B6094210125049F374C89006B
:1029400049446D420C604D6039000126344DA03180
:102950000A604B60764208390D604E600A674B672B
:10296000012130487C1CFF344942206061603900FD
:1029700038007131FF3169300A604B60FF3001214E
:1029800004002948494220606160029C27482100D8
:10299000A8310A604B600121019F4942A0342060A8
:1029A00061603C00A83422606360083C2060616084
:1029B000594658460127D0310A604B6008390D60EE
:1029C0004E6031301A4EFF307F420A674B67066017
:1029D0004760059F0126791C6137FF3738000127C2
:1029E000FF310F4D0A604B60764208390D604E6032
:1029F0000F4E7F420A674B670660476023B0F0BC0A
:102A0000BB46B246A946A046F0BDC0460600FFFF41
:102A10000700FFFF0800FFFF0900FFFF0A00FFFF9C
:102A20000000FFFF0C00FFFF0D00FFFF0B00FFFF8A
:102A30000100FFFF7047C046094A830094464022C8
:102A4000634410B51C68C0006240C024144080225A
:102A5000520113431C60034B9C466044416010BD0F
:102A600004C00140004001400A4B80009C46042302
:102A70006044002901D00C230821002A00D10B005A
:102A8000026853400C221A4080235B011843026005
:102A90007047C04604C001400123D0228340120683
:102AA00093629361094A8300944640226344196803
:102AB000C0004A40C02111408022520113431960D6
:102AC000034B9C46052360444360704704C00140AB
:102AD00000400140024B18688007C00F7047C04695
:102AE00000C00640EFF3108072B6034A1368002B53
:102AF000FCD0BFF35F8F70472C0100D0BFF35F8F16
:102B00000022024B1A6080F3108870472C0100D01D
:102B100070B5EFF3108C72B60D4D2B68002BFCD006
:102B2000BFF35F8F0724CB08C618C05C01230C409D
:102B3000A3401C000440034207D103433370BFF39A
:102B40005F8F2C608CF3108870BD100001F00AFDBF
:102B50002C0100D0F8B54746CE46884680B5EFF345
:102B6000108C72B6214D2C68002CFCD0BFF35F8F07
:102B70009A422CD8D4080727055D0619012417406E
:102B8000BC402C421FD007210127894609E0D40808
:102B9000055D06194C4639001440A1400C0029423D
:102BA00011D001329342F2D201204042BFF35F8F35
:102BB00000220E4B1A608CF3108800280FDBC0BC7B
:102BC000B946B046F8BD2C4310003470EEE7BFF3B1
:102BD0005F8F00232B608CF3108801204042434616
:102BE000002BECD0089801F0BDFCC0462C0100D0B1
:102BF0000021044B044ABFF35F8F02C39342FAD112
:102C00007047C046000100D0800100D0044A10780F
:102C1000431CDBB2172B00D9102313707047C0463A
:102C20007010002000B5054B83B0010000931822FE
:102C30001F230348FFF78EFF03B000BD443D011082
:102C4000A824002001238340002904D0034A1360F4
:102C5000034A13607047034A1360FBE780E200E019
:102C600000E100E080E100E001238340014A1360BD
:102C70007047C04600E200E0084B10309B688000BF
:102C8000C358002B07D0064A00209B1A2F229A42D5
:102C90004041C0B270470020FCE7C04600ED00E0B4
:102CA00074100020024B10309B688000C0587047A1
:102CB00000ED00E070B50D00EFF3108672B60F4A1C
:102CC0001368002BFCD0BFF35F8F0D4B10309B6857
:102CD00084001B590B4A934203D09D4201D001F05E
:102CE00059FC074B9B681D51BFF35F8FBFF35F8F8C
:102CF0000022024B1A6086F3108870BD240100D0B8
:102D000000ED00E0CD010010F0B557464E46DE461E
:102D10004546E0B585B0060002911700EFF3108B31
:102D200072B6674A1368002BFCD0BFF35F8F002593
:102D3000644B5D579A46002D00DAA4E06B00624CAC
:102D400003935B199B009846A146C1444B465246EB
:102D50009B79103613705D4BB2009B6801929958B5
:102D60000B1B2F2B34D95A4B994200D0A4E0039B64
:102D7000584A9C46584B6544AD0063534346023362
:102D80006519E418554B0121043B1B1B1B055B0D0A
:102D900013436B80524BEF71AB80FF23AB71029BEF
:102DA000AB604B460B431900484B019A9B68995006
:102DB000BFF35F8FBFF35F8F0022414B1A608BF32D
:102DC000108805B0F0BCBB46B246A946A046F0BD8F
:102DD00001200A008243D379BB422FD845464E4694
:102DE000130040491B1B5B415943090D3A4B635388
:102DF0003A4B02356519043B5B1B1B05354D5B0DDA
:102E00002B4373800426B446E0444444131F1B1B29
:102E10004C46A17102991B05A16049465B0D2B43ED
:102E2000A380314BE77101431360BDE75800C01820
:102E300080002018C679BE422BD902000623D35643
:102E4000002BF3DA101D824628488046042676427D
:102E5000B446E14450464E46361A3005400D82468F
:102E600056461C48957106439680039A94466544DD
:102E70001D4AAD00641922604246A371029BA280E4
:102E8000E771A36090E701F085FB002553465D578D
:102E900054E7101D82469088400500158446404640
:102EA000D444664604302018301AE0260005400D50
:102EB000360230438046C9E701F06CFB57E7C04655
:102EC000240100D0F02E00207410002000ED00E05E
:102ED000CD01001000E0FFFF00A1FFFFA4100020C3
:102EE00001BDFFFFAAAA00000148804701BD000004
:102EF000F0B5DE4657464E464546E0B50C0083B079
:102F0000EFF3108972B6584A1368002BFCD0BFF358
:102F10005F8F564B9A68030010339F00D559544A6F
:102F20009046954232D0A54243D0524EAA1B2F2A3A
:102F30002CD801228240924651464F4A12681140D5
:102F4000019151464D4A1160BFF35F8FEFF3058247
:102F50009346002A33D101232A009A4393689C4266
:102F600008D177E04B005B189B00F3189968A142E9
:102F70002AD01A00062151560029F3DA019B002BB2
:102F800019D052463E4B1A603B4B1A60374B9B6838
:102F9000DD51BFF35F8FBFF35F8F0022324B1A60AA
:102FA00089F3108803B0F0BCBB46B246A946A046E0
:102FB000F0BD1500EAE75246304B1A60E6E793424F
:102FC000C9D001F0E7FAC6E706215956002921DBEE
:102FD0004A005018800034188046A0689860E07954
:102FE000D871062020569871002824DBA488F01A96
:102FF0006405241544440019E0240005400D240212
:103000002043988052181F4B9200B6181A781970F6
:10301000B271B3E7594600290FD1FF3191711A49B6
:10302000918018490A789A71184A9B1B5B415A4350
:10303000120D0A70A2E71648E3E7164A1649D21A9B
:10304000083A5002400D01439980144952080A433E
:10305000DA8093E70621515613000029B8DA5A4660
:10306000002AEAD14546DCE7240100D000ED00E06B
:10307000CD0100107410002000E100E080E100E0CC
:1030800080E200E0F02E002001BDFFFFAAAA0000B0
:1030900001BD0000AE10002000F0FFFF00F8FFFFB0
:1030A00070B5EFF3058101240443EFF3108C72B681
:1030B000214A1368002BFCD0BFF35F8F1F4B050024
:1030C0001F4AED1A6D416A43120D1E4D8900AE680C
:1030D00052B27658A6421CD00621595691421CD0B5
:1030E00012215956914222D01E215956914220D088
:1030F0002A2159560324914210D0134B19781A7083
:103100008171BFF35F8F00220B4B1A608CF3108824
:1031100070BDAB680D4C5C50EFE7002461000919ED
:1031200089005B18FF21997109499980E5E701241D
:10313000F4E70224F2E7C046240100D07410002016
:10314000AAAA000000ED00E0F02E0020CD01001042
:1031500001BDFFFF054B064A1360064A136053602A
:103160009360D36013615361936170478080808066
:1031700000E400E004E400E000B5074B83B0010088
:103180000093002205230548FFF7E4FC002801DB3B
:103190001F23181A03B000BD603D0110F72E002058
:1031A00070B504000E001500FFF730FD010020008F
:1031B00000F006F8A680E580BFF35F8F70BDC046C3
:1031C000024B9C4661448900016070474000003416
:1031D00010B50400FFF71AFD01002000FFF7F0FF13
:1031E000FF232371BFF35F8F10BDC04610B50400ED
:1031F000FFF70CFD01002000FFF7E2FFFF23A38093
:10320000BFF35F8F10BDC04610B504000120FFF76B
:1032100009FD044B9C46604480002060BFF35F8F33
:1032200010BDC04640000034034B9C4661448900F9
:103230000160BFF35F8F70474000003483680B4824
:1032400010B5844661446244090112019A18591864
:1032500054684B6801209C4201D802D00020C0B2C3
:1032600010BD12680B689A42F9D8F7E7FFFFFF0F0D
:103270000A4B1968EFF3108072B60A68002AFCD076
:10328000BFF35F8F1B68BFF35F8F00221A6080F36C
:10329000108840BF002000217047C046B42E002097
:1032A000F8B557464E464546DE46E0B599460CAB66
:1032B0001C780DAB1B78060090469A460768002CD8
:1032C00011D1BC7B002C42D065003B682D19033D19
:1032D00059194B78BB73002B00D1FB7300238B7003
:1032E0004B700B7004E065003B682D19033D5919C4
:1032F000B2682A4B94464246E3181B0163441A60A5
:103300004A465A600A9A9A600B9ADA6000238B70D8
:103310004B700B707B7B9B46002B2BD022005946B9
:10332000B8687B6898473A68002816D05B465846CC
:103330005B005B445519033BA870D118D35C002B8C
:1033400000D06B705B460C707B73A34513D0F0BC50
:10335000BB46B246A946A046F8BD5B465B005B444F
:10336000033BD3189C705119525D002A00D05A704B
:103370005B460B707C7342464B46307D00F0B8FBD9
:10338000051E06D05346002B03D12100306800F003
:10339000D3FD0E9B002BDAD01D70D8E7FFFFFF0F87
:1033A000F0B5DE4657464E4645460023E0B58BB0A5
:1033B0000893674B8200D45800239B46099000F085
:1033C0000DFB626806000F00EFF3108572B61368FC
:1033D000002BFCD0BFF35F8F23689C465B7B994634
:1033E000002B00D169E0A2685A4B90464B441B0168
:1033F000984443461A685B6810001900801BB94165
:10340000002900DC63E0099800F072FB0023002231
:10341000984600230692079300239A466368BFF3F9
:103420005F8F5A461A6085F310885346002B08D1E7
:103430000028C4D10BB0F0BCBB46B246A946A0469A
:10344000F0BD089B414618024B461843D0476268BE
:1034500006000F00EFF3108572B61368002BFCD046
:10346000BFF35F8F002F50DB33003B4302D0236953
:10347000002B61D12368D97B002907D04A0052185C
:1034800019688C4649466244033A51709A7B002A77
:1034900001D14A469A734A46DA734B46E168013BCA
:1034A000CA5C0132CA545B4623616368BFF35F8F15
:1034B0005A461A6085F3108881E700230022984657
:1034C000002306920793002300209A46A6E70029CE
:1034D00002D1002800D096E70021604600F0AAFC47
:1034E00043461A685B680692079343469B689A4670
:1034F0004346DB689846E3684B44013B1B780893DE
:103500001B0203432361002088E72369002BB1D00D
:10351000069A079B921BBB41002B15DB5946049171
:1035200001210391494602914146019151462000F3
:103530000091FFF7B5FEB6E700F050FA32003B000D
:1035400012184B41002BE9DA0122034B5242E5E706
:10355000942D0020FFFFFF0FFFFFFF7F10B5144CDD
:103560006368002B04D00A211248FFF729FE10BD22
:103570002300114A1021206800F076FB032000F0A0
:1035800021FA032000F01EFB03200C4900F06AFA28
:10359000FFF73CFB0A4B9C4603232375D0231B06F5
:1035A0001B6860446375074B80006060DC60DAE78D
:1035B000BC100020B42E00203D320010A1330010BA
:1035C00040000034942D002000487047BC100020BB
:1035D000F0B54E464546DE465746E0B585B0019308
:1035E00010AB1B780600039300239946984600927F
:1035F0007268EFF3108B72B61368002BFCD0BFF328
:103600005F8F3568AC7B002C3DD067002B683F197D
:10361000033FDB195A78AA73002A00D1EA73B16814
:10362000474A8C4600980199A21812016244106022
:1036300051600E9991600F99D16042469A705A700C
:103640001A706B7B9A46002B67D022001900A8687D
:103650006B6898472A68002852D0534650465B0052
:103660005344D719033BB870D118D35C002B00D05A
:103670007B7053460C706B7354454FD0F3681B1925
:10368000013B187800E000207368BFF35F8F42466B
:103690001A608BF31088002C4FD04B46002B08D1BA
:1036A0000002204305B0F0BCBB46B246A946A04686
:1036B000F0BD039B002B3ED00E9B00200F99984736
:1036C000030004000D000B4335D000290ADA009AEC
:1036D000019B121BAB4100920193002B0ADB039B61
:1036E000994685E700F07AF924184D410094019538
:1036F000002DF4DA0123134C5B4200930194EEE7B2
:1037000053465B005344033BD3189C70D119D25DE0
:10371000002A00D05A7053460B706C73307D009AAB
:10372000019B00F0E5F981460028A7D02100306810
:1037300000F002FCA2E70020B4E701204042B1E71C
:10374000FFFFFF0FFFFFFF7F407D7047F0B50400D4
:103750000D0006267642F717C64636196F4100B5AA
:1037600084B08F4214D811D000F038F932003B00F9
:10377000121A8B41002B15DC002B3ED020002900B3
:1037800000F060F904B080BCB846F0BD8642EBD9C9
:103790000026002700F022F932003B00121A8B416C
:1037A000002BE9DD002302930193154B32000093B7
:1037B00014483B00FFF70CFF0028DFDB002398468E
:1037C000BC46114A114F7B6A9C4504D8B96A8E42A7
:1037D000D4D99C45D2D11168EFF3108072B60B6832
:1037E000002BFCD0BFF35F8F1368BFF35F8F4146A0
:1037F000196080F3108820BFE5E7002ABED0D1E72A
:1038000071320010BC100020B42E00200040054092
:1038100070B504000D0000F0E1F8001969410029BD
:1038200002DBFFF793FF70BD012001494042F8E73A
:10383000FFFFFF7FF0B5EFF30583CE46474680B527
:1038400005000C0085B0002B12D02C4A0020536AD2
:103850009C4203D8926A0130AA4204D305B0C0BC8E
:10386000B946B046F0BDE01A421E9041C0B2F5E73D
:10387000234E02930193234B0200009330000B0070
:10388000FFF7A6FE031EE0DD20BF7168EFF310878F
:1038900072B60A68002AFCD0BFF35F8FDAB2944692
:1038A0003068427B62451DD0FF221A405100894694
:1038B0000168914488464946414403398978002982
:1038C00013D0F1681B0A88464244013A1278DBB2F1
:1038D0009A420FD07368BFF35F8F00221A6087F39C
:1038E0001088B2E7FF221A40EBE732699342F1D128
:1038F0003161EFE7614600F01FFBEBE70040054058
:10390000BC10002071320010F0B5EFF30582D646EE
:103910004F4646461000C0B51038EFF3108872B617
:10392000214C2368002BFCD0BFF35F8F01231900CB
:1039300081401E4D1F006963AA461D4D29601D4D23
:103940002E78AC463500C5402F402B4209D1BFF33D
:103950005F8F276088F31088E0BCBA46B146A8465E
:10396000F0BD5346144D5F6A83005D59AF420ED3DC
:10397000124A8E439B5862461670BFF35F8F002237
:10398000226088F31088002BE6D09847E4E70C4BC0
:1039900092009C46624413681360BFF35F8F00235C
:1039A000236088F31088D7E7280100D00040054045
:1039B0003C700540F62E0020C02E00202C23002055
:1039C000D03F054010B50100024A0348FFF7A0F8B8
:1039D00010BDC046883D0110EC2E0020034B596AF3
:1039E0000A00986A596A8A42FAD170470040054035
:1039F00070B504000D00124A536A1900966A536AA2
:103A00008B42FAD13000190024184D41AB4211D835
:103A10000ED02B000A494A6A9A42FCD307D1084AC1
:103A200002E0516A994202D1916AA142F9D370BD74
:103A3000A642EED9012301246442E5175B42E9E77F
:103A400000400540064A536A9942FCD807D1044B0E
:103A500002E05A6A914202D19A6A8242F9D37047CF
:103A60000040054070B504000D00EFF3108672B6FB
:103A70001A4A1368002BFCD0BFF35F8F002D1BD0B8
:103A80002000FFF70FF9164981420AD02000FFF706
:103A900011F901212000FFF7D5F80123A340114AB5
:103AA0001360114BA400E550BFF35F8F00220B4B56
:103AB0001A6086F3108870BD0B4BA200D55001220E
:103AC000A2400A4920000B7893430B700449FFF78A
:103AD0000FFA00212000FFF7B5F8E5E7280100D034
:103AE00009390010386005402C230020F62E0020F4
:103AF000F0B54F46D6464646C0B507002C4C616A25
:103B00000D00A66A616AA942FAD18B4208D805D095
:103B10000120E0BCBA46B146A846F0BDB242F7D992
:103B2000EFF3108A72B6234801680029FCD0BFF376
:103B30005F8F0125BD4020491D4C88460978894684
:103B40002943C9B28C46414660460870391D1B485E
:103B5000890065630A51B9000B50216A002029428F
:103B600019D0616A0800A66A616A8142FAD18B4263
:103B700019D801D1B24216D8CC4516D00C4B1F2013
:103B80001D625D6301230740BB400D4A1E38136070
:103B900043464A461A70BFF35F8F0022054B1A60F6
:103BA0008AF31088B5E70020F5E70120F3E7C04667
:103BB00000400540280100D0F62E0020C02E002035
:103BC00080E200E0EFF3108C72B60A490B68002B1C
:103BD000FCD0BFF35F8F01238340074A074813627D
:103BE00002789A430270BFF35F8F00230B608CF35F
:103BF00010887047280100D000400540F62E0020B4
:103C000070B5050014001600002915D00C00002A1C
:103C100012D080686B689847296800280ED073001E
:103C20009B196200033B1219CB18033A9C70881849
:103C30008A5C002A15D10670200070BD63001B1934
:103C40007200033B9219CB18033A9E7088188A5C65
:103C5000002A02D104703400EEE75A700470340078
:103C6000EAE75A700670E7E730B583600023CCB20C
:103C700043730133047342608373C4730D0000689F
:103C8000012C06D9421C0133DBB2137003329C4273
:103C9000F9D1FF2129404B0059180023401803385F
:103CA000437030BDF8B5CE46474606000C0080B5DF
:103CB000002907D04D0003686D18033D5A19577845
:103CC000002F04D12000C0BCB946B046F8BD790031
:103CD000C9190339884643445978894600215970E7
:103CE000517073683A002100806898473368002853
:103CF00014D042469A18947059195B5D002B00D07D
:103D000053700F70270049463000FFF7CBFF390092
:103D100002003000FFF774FF0400D3E7424641463B
:103D20005D19AF709A185B5C002B00D06B7014703B
:103D3000E9E7C046F0B557464546DE464E46E0B593
:103D40000D006B0001685B19DF1E0400C85D83B0C5
:103D50000192CA19002850D043001B18033BCB180E
:103D60005E78B446002E1AD1019E002E42D0E67B2A
:103D7000002E04D073009B19CB18033B5D70A37B0E
:103D8000002B00D1A573E57300282FD100235370B9
:103D900003B0F0BCBB46B246A946A046F0BD7200D7
:103DA0006244033A89184A78904600224A70914644
:103DB0005A70010032002000FFF722FF434682467E
:103DC000002B07D05B0021684344033BCB185A7893
:103DD000002A16D1424651462000FFF711FF216804
:103DE000019BCA19002BC2D10028CFD043001B1859
:103DF000033BCB1800219970C8E7019B002BB6D17B
:103E0000C4E75000801803380918487883464846AC
:103E10004870587041462000FFF7F2FE5946804630
:103E20002000FFF73FFF414602002000FFF7E8FEB9
:103E30008046CFE7F0B557464546DE464E46E0B5EC
:103E400083B00191457B04006B0000685B19DF1EA5
:103E5000C15DC219002952D04B005B18033BC31847
:103E60005E78B446002E1CD1019E002E44D0E67B25
:103E7000002E04D073009B19C318033B5D70A37B15
:103E8000002B00D1A573E573002931D10023280050
:103E90005370617303B0F0BCBB46B246A946A0465E
:103EA000F0BD72006244033A8018427890460022C6
:103EB000427091465A7020003200FFF7A1FE43463F
:103EC0008246002B07D05B0021684344033BCB189C
:103ED0005A78002A17D1424651462000FFF790FE3B
:103EE000019B01002068C219002BC0D10029CDD050
:103EF0004B005B18033BC31800209870C6E7019B7A
:103F0000002BB4D1C2E75000801803380918487854
:103F1000834648464870587041462000FFF770FEBF
:103F2000594680462000FFF7BDFE414602002000B2
:103F3000FFF766FE8046CEE770B5040000292CD05E
:103F4000437B8B422ED00568480040180338281860
:103F50008278002A21D053009B18033BEA5CEE18BC
:103F60008A4202D11BE0002A08D053009B18033B71
:103F7000EB185A788A42F6D142785A70002301220F
:103F8000837043702000FFF7D5FE617B02002000A4
:103F9000FFF736FE6073012000E0002070BD43781B
:103FA0003370EBE701221900FFF7C4FE60730120B4
:103FB000F4E7C04630B50C2083B000F0B9F9FEF745
:103FC00089FD00280ED0994B994A1A605A609A6070
:103FD000DA601A615A619A61DA611A62954A5A6224
:103FE00003B030BD944CA06700F0F6F90122934B6A
:103FF0001A60636C012BFCD10322914B1A608E4A2C
:10400000936B012BFCD1013301218E4A8E48009322
:10401000043300F03DF905238C4A009301218C48BC
:1040200000F036F98B4B5A68FF2A02D880225200E2
:104030005A6080227D4C824B21691201854D1A60A5
:10404000002907D0606901F02DFE431C5800C018FC
:104050000338FDD2E0217F4B02201A6811408022F4
:1040600052012A4311601968484003210140116040
:1040700004219A681142FCD08022802192012A43B7
:1040800009011160802252005A60734B2361734B07
:104090005968FF2900D85A600321684A6F4B1160A4
:1040A00002399A681142FCD0E0201A681040802240
:1040B00052011A4310601868484003210140022051
:1040C000116066498A681042FCD080229201134335
:1040D000802212011A608022614B52004A606361A3
:1040E000604B5968FF2900D85A6080225E4BE16915
:1040F00012015C4D1A60002907D0606901F0D2FD01
:10410000431C5800C0180338FDD2E02255490B6803
:104110001A4080235B012B431A60802380229B017D
:104120002B4312011A608022414B52004A60E36126
:104130004E4B5968FF2900D85A6080224C4B216AA7
:1041400012014A4D1A60002907D0606901F0AAFDEA
:10415000431C5800C0180338FDD2E02243490B68C5
:104160001A4080235B012B431A60802380229B012D
:104170002B4312011A60802380225B004B602C4B82
:10418000D20223623B4B5968914200D25A6080228E
:10419000394B616A1201374D1A60002907D06069F6
:1041A00001F080FD431C5800C0180338FDD2E02206
:1041B00030490B681A4080235B012B431A6080232F
:1041C00080229B012B4312011A608023DB024B608B
:1041D000184B6362294B5A68FF2A02D8802252008A
:1041E0005A608022264BA1691201244D1A600029D1
:1041F00007D0606901F056FD431C5800C018033811
:10420000FDD2E0221D490B681A4080235B012B433D
:104210001A60802380229B012B4312011A608023A5
:104220005B004B600E4BA361DAE6C046AC24002075
:10423000006CDC021BB70000008000403CB0004076
:1042400030B00040002F685900800240008C864743
:1042500000C0024030800040001BB7003C8000409E
:10426000405973075480004054B0004060800040C3
:1042700060B000406C8000406CB00040488000405E
:1042800048B00040014B8000C0587047AC2400206B
:10429000F8B5040021481D0017000E0001F002FDD2
:1042A0000100380001F0FEFC069B29041B031943A2
:1042B0002368002B20DB1A4B1A4DE21853425A4157
:1042C00080235B019C461203174B62441A60174B14
:1042D0001A601700AB689F43FBD1C022231D9201D7
:1042E0001A4321232660A06013602368002BFCDAA8
:1042F0000823E1601360F8BD3F2322681340B342F6
:10430000D9D1A3681B051B0D8342D4D1EE22E368EB
:10431000D20213408B42CED1EDE7C046001BB7005E
:104320000040FDBF00C0004000E0004000F0004041
:104330008023024A9B000343D362704700800540FC
:1043400010B5140080221B4BD2051A6000281AD029
:104350000123194A1843194BDA61194A42401A627B
:10436000596298628022134BD2051A601549164A89
:104370001160E022D2041A60002C07D18022134B76
:1043800012061A6010BD0D4BD861EBE763011B1BD1
:104390009A008023121912015B049A4200D30C4A3E
:1043A0000C4B1A60054B5A608022084BD2051A60EC
:1043B000E8E7C04600B00540D3C007B00080054024
:1043C0002D3FF84FFCFF01000820014000A00540F0
:1043D000FFFFFF00842D0020AA23064A1B01136063
:1043E0002F230549D360054B19605368002BFCDA75
:1043F0007047C0460040024000B0FA000060024032
:104400002C4B2D4A70B51A602C4A2D4B2D491A6041
:1044100014008B689C43FBD12B4D2C4EB54208D227
:10442000013E761BB60808CD984723000134B342FD
:10443000F9D1FFF7BFFD264A214B1A60214A936844
:10444000DB43DB01DD09002BF9D14022214B224C5B
:10445000224E9A675A671A67DA66B44208D223680E
:104460002000002B20D00834FEF7C0FEB442F6D363
:104470001B4E1C4CC022A168300002F005F9A6605A
:10448000FEF7B6FBFEF766FEFFF768F8164C174E10
:10449000B44208D2013E361BB60808CC98472B0020
:1044A00001359E42F9D170BD0834FEF791FEB44249
:1044B000D5D3DDE700E00040BFCDFBFEFE7F3C0032
:1044C00000F0004000C000408C1B00209C1B00201E
:1044D000FFFFFF0100F001407C1B00208C1B00202F
:1044E0000000002000ED00E09C1B0020A41B002029
:1044F00000BEFDE7094A03001068002805D00849FE
:10450000C3188B4207D81360704706480449C31884
:1045100010608B42F7D901204042F5E75029002076
:1045200000000420F82E002010B5FFF7E1FFC04680
:1045300010B50C0082B01900002A0AD0064B019277
:10454000009302002300054801F00CFB0120FFF757
:10455000CFFF034B1A00F2E7AC3D0110BC3D011048
:10456000A04501100FB400B5084883B002F0F0F97F
:10457000049B002B07D005A91800019101F012FB44
:10458000034802F0E5F90120FFF7B2FFEC3D01100E
:104590005C47011010B50148FFF7E4FFFC3D011036
:1045A0009A4200D2885470477047C046F8B55746C3
:1045B0004E464546DE46E0B599460A9B07009A46B8
:1045C0000D9B8846934615000B9E9B0710D10C9BB4
:1045D0009E420DD29D1B14000E005D4422004B46EE
:1045E000013431002020B847A542F7D1B0460B9ED8
:1045F000002E27D0444675195346AA1B013E985DEC
:1046000021004B46B847002EF6D123002C009846D7
:104610000D9B9B070FD55B46E51A0C9BAB420AD955
:104620004646984622004B46310020200135B847C7
:104630000134A845F6D82000F0BCBB46B246A946D6
:10464000A046F8BD2C00E3E7F0B54F464646D646F7
:10465000C0B584B098460EAB1B78129F994694461D
:104660000D9C109B119EBA0725D4002E4BD19C4265
:1046700000D3BFE001223A4092461F2C00D9B8E097
:104680000C9A551E302201E0202C03D001342A550B
:10469000A342F9D85246002A0DD0A6420BD9202CAD
:1046A00044D00C9A551E302201E0202C3ED001341B
:1046B0002A55B442F9D1FA064DD57A053FD4002CDB
:1046C00039D10F9B102B00D179E00F9B022B00D129
:1046D0008AE030230C9A012413704B46002B3FD004
:1046E0002D230C9A135501340C9B624600930397BB
:1046F000434602960194FFF759FF04B0E0BCBA4666
:10470000B146A846F0BD012215003D40AA463A42F6
:104710002FD04A46002A02D10C323A4200D0013E44
:104720009C42BAD21F2CABD9202E27D92024FA06BE
:10473000DAD57A0503D4A3422DD0A6422BD00F9B05
:10474000102B32D0022B20D0202CCDD030220C9B2D
:104750001B191A700134202CC6D04B46002BBFD138
:104760007B070DD43B07BFD520230C9A135501348A
:10477000BAE79C429FD21F2C00D881E720249AE7F9
:104780002B230C9A13550134AEE7202CACD00C9B94
:104790001B1901343AE0631E012C92D00F9A102AA3
:1047A0002AD0022A2FD01C00D0E7BB060ED4202C22
:1047B0009AD00C9B1A19013478231370C4E7BB06F6
:1047C0000DD478230C9A01241370BFE7202C00D15C
:1047D0008AE758220C9B1B191A700134B4E758233E
:1047E0000C9A01241370B1E70C9A60330124137002
:1047F000ACE7202400265EE7023CBA06E9D40C9A16
:1048000012191C00D8E70C9A9246534462221A707F
:104810009AE7C04610B5002800D110BD02F04CF850
:10482000FBE7C0460B0010B5002802D049681B68A2
:10483000984710BDF0B5DE4657464E464546E0B5B2
:104840009BB09B46249B89469846259B0B900C92D7
:104850004046424619009A4601F0E5FC002800D087
:10486000D8E0012240465146774B524201F0D6FC37
:10487000002800D0CEE0012240465146734B524200
:1048800001F0B6FC002800D0C4E00022002340461E
:10489000514601F0ADFC002800D0B9E14246534634
:1048A0000A9209938023289ADB001A400E92289AD4
:1048B0001A4201D1062326930A9A099B1600134334
:1048C00000D0C7E0289B002500261B0500D49BE1F3
:1048D00000230D93269A0D9B9A4200DC9FE1D01A8B
:1048E000431E26938023289ADB001A4300230027C7
:1048F00028920D93279B0024BB4200D9DC1B022386
:10490000289A1A400E92289A134203D07B427B4188
:104910005B421C400D9B002B07D00A9809992A0086
:10492000330001F004FC0A90099100220023404664
:10493000514601F05DFC002805D080200006844629
:10494000099961440991289A414B0B9D13400493A6
:10495000269B0A9A0293099B03940092019349466D
:104960005B4628000C9A00F08BF90400002F62D0FF
:10497000289B220098061F23C0179843631C984663
:1049800049465B466530A8470D9B0025DA179C1801
:10499000DB0F9A465440013F01E0202D13D00AAAB4
:1049A00094461F23200063440A2101355E1901F05B
:1049B00079F93031317020000A2101F073F92600B5
:1049C0000400092EE9D805230693002304930A3333
:1049D0000393534605970B9F029312AB00934246F5
:1049E0005B46494638000195FFF72EFE0E9B0400FA
:1049F000002B20D00C9BC51A279BAB421BD91E0055
:104A000022005B46494620200135B8470134AE42BA
:104A1000F6D810E0289B42460493279B494603930F
:104A2000269B0B9802935346009201935B460C9A87
:104A300000F026F9040020001BB0F0BCBB46B246D3
:104A4000A946A046F0BDC046FFFFEF7FFFFFEFFF86
:104A5000FFF7FFFF734B099F9C467800400D6044B1
:104A600001F0F4FB704A714B01F07BFB704A714B13
:104A700001F058FB3B03704A1B0B1A4304000D0066
:104A8000300011006D4B002201F047FB6C4A6D4B6A
:104A900001F067FB02000B002000290001F042FB3F
:104AA00001F0ECFB0D9001F0D1FB674A674B04006D
:104AB0000D0001F056FB0022654B01F033FB01F0C5
:104AC000DDFB644A0600644B2000290001F049FB2D
:104AD000040030000D000F9601F0B8FB5F4A604BF8
:104AE00001F03FFB02000B002000290001F015FB44
:104AF00002000B0006000F0001F033FB320004003F
:104B00000D003B003000390001F00CFB002210903A
:104B10001191544B2000290001F009FB0022524B57
:104B200001F000FB02000B002000290001F0FFFA59
:104B300000224E4B01F0F6FA02000B002000290083
:104B400001F0F5FA0D008021040032003B00002046
:104B5000C90501F0E2FA02000B002000290001F073
:104B6000E1FA02000B001098119901F0E0FA00221E
:104B7000314B01F0D7FA3E4B0F9C9C466444002217
:104B8000230501F0EEFA05000E0002000B000A9862
:104B9000099901F02DFB00280AD00D9B2800013B4C
:104BA00031000D930022304B01F0C1FA05000E00D8
:104BB000C6270D992B0063318F42BF4128997F4250
:104BC0000437090500D495E6334300D182E6099CF9
:104BD000284A2100284B0A9801F018FB002808D029
:104BE00000222100254B0A9801F002FB002800D08A
:104BF00070E6269B002B00D17CE60E9B5A1E93414B
:104C0000269AD31A269375E6002304270D9371E69E
:104C100043460A9380231B065344099342E600232C
:104C200026935FE601FCFFFFFB799F501344D33FBF
:104C3000B3C8608B288AC63F0000F03F0000F83FF1
:104C400061436F63A787D23F71A379094F930A40ED
:104C50000000E03F1655B5BBB16B0240EF39FAFEDC
:104C6000422EE63F00002C40000024400000184087
:104C7000FF0300002D431CEBE2361A3F80842E41D7
:104C8000F0B54E46DE4657464546E0B597B09946E4
:104C9000209E219F229B8346984607910C923B00C1
:104CA00032003000390001F0BEFA002800D0A9E13E
:104CB000012230003900CA4B524201F099FA002813
:104CC00000D0E1E0012230003900C64B524201F031
:104CD000A5FA002800D0B7E0002230003900C24B0E
:104CE00001F09CFA002800D099E000223000390041
:104CF000BE4B01F07DFA002800D090E00022002396
:104D00003000390001F074FA002800D0B1E000232F
:104D10000D93249B5B0501D40623984608AB9C4663
:104D20001722002430234146624404E00134135525
:104D30000139202C01D00929F8D8884630003900E3
:104D400001F09CFA4346DA00A94B05009B181A684B
:104D50005B680892099301F079FA02000B003000B9
:104D6000390001F0DAF9089A099B01F0FAF90A9082
:104D70000B9101F0A7FA824601F064FA02000B00E1
:104D80000A980B9901F0C9F900229A4B0A900B91ED
:104D900001F044FA002800D1C0E001239C46E2441F
:104DA000504601F04FFA02000B000898099901F0F3
:104DB00025FA002802D000239A4601354346002BED
:104DC0006AD008AB17269C4608956644554614E001
:104DD00001235B4243440A2128009A4600F062FF07
:104DE000013430313719397028000A2100F05AFF98
:104DF000092D00D8D0E0D0460500202CE8D10EAB1C
:104E000098460323249A1340012B00D196E02023D7
:104E1000249A01930392239A434602921EE0249B14
:104E200058460493239B00960197039343460C9A9C
:104E3000029307994B46FFF7FDFC17B0F0BCBB4649
:104E4000B246A946A046F0BD249B5B070ED40322C0
:104E5000694B24990192039123990291009358463A
:104E60004B460C9A0799FFF7A1FBE6E70422634B38
:104E7000EFE73B0032000020002101F04EF9012352
:104E800006000F000D9344E7249B0393239B02939A
:104E9000042301935A4BE1E7280001F0D7F90200FF
:104EA0000B003000390001F038F9524B00220600A7
:104EB0000F0001F09DF90EAB984600280AD10022A0
:104EC000300039004B4B01F0A9F9002802D1EB0763
:104ED00000D50135202C94D008AA94461723280029
:104EE00063440A2101341E1900F0B4FE3031280059
:104EF00031700A2100F0AEFE051EEBD10323249A87
:104F00001340012B1BD0202C00D180E70D9B002BE0
:104F100035D02D224146631C0A5579E700220A98B4
:104F20000B99344B01F064F9002800D046E7534652
:104F3000002B51D101239C46E2443FE72024239BD0
:104F4000002BE0D00D9B002B03D1249A0C3313428D
:104F500002D0239B013B2393239BA342D3D908ABCD
:104F60009C46172230236244202C00D14FE723991E
:104F7000013413558C42C6D0202CF8D147E7249B2E
:104F80005B0724D4249A2300120700D440E7202290
:104F9000414601330A553BE75746089D202C00D176
:104FA0002DE7220030214046002F09D00132B154B4
:104FB000202A00D123E7D3431B191B18002BF5D15E
:104FC0000EAB98462E234146541C8B5482E72B226D
:104FD0004146631C0A551BE7DB0700D4EEE6A9E750
:104FE000FFFFEFFFFFFFEF7F65CDCD4165CDCDC169
:104FF000004001100000E03F083E01100C3E01108F
:10500000183E0110249B0393239B029303230193D7
:10501000004B23E7143E0110F0B5DE464E465746DE
:105020004546E0B59FB01C00289B91460993C94AAC
:10503000C94B8B4608901A60002900D118E2002362
:1050400020789A46002800D11AE226001D005C460E
:105050000AE02A006F1C4B46089D2100A8473D002E
:1050600001363078002870D02528F2D110239B46D5
:10507000083B9A46043B9846023B00219C46721C22
:10508000107816000300203BDBB2102B03D8B34F7F
:105090009B00FB589F460300303B092B32D900236D
:1050A0000A932A2868D0002398462E283ED0030071
:1050B000683BDBB2122B1CD8A94A9B00D3589F46F1
:1050C000012301321943DBE7634601321943D7E775
:1050D000434601321943D3E75B4601321943CFE718
:1050E000534601321943CBE780235B0070781943A4
:1050F00001360300253BDBB2532BAAD8994A9B000B
:10510000D3589F4600270300B800C019013640005D
:10511000C018337830381A00303A0700092AF3D91A
:105120000A901800002398462E28C0D1802370785A
:10513000DB0019430300303B721C092B00D8A1E1AE
:105140002A2800D1B2E11600B1E7A346AA462C00F6
:10515000D14503D801235B424B449A464B46524605
:1051600059460020089DA84720001FB0F0BCBB4650
:10517000B246A946A046F0BD099B40CB0A96002E38
:1051800003DB50780993561C8DE7283801437042A1
:105190000A9009935078561C85E7782800D1DFE102
:1051A000582800D14CE26F2800D14FE3622801D18A
:1051B00000F030FC10230A009A430B92692801D0BA
:1051C00000F0A9FC0A230C934B0500D5D0E10B9A03
:1051D000802311009B0019408B461A4200D0A1E2A7
:1051E000802311005B0019408A461A4200D0B6E3C2
:1051F00013005B0600D5EDE2130009991B0601D4EC
:1052000000F076FC08C91BB2D8171A18424092B2B7
:1052100009919346DA0F1292002B09D180231022B4
:105220000B99DB000B4091430B91002B00D0E4E283
:105230000B9A6123920600D541230EA91F228C46AA
:10524000DBB262440A3B5F461395A34655460C9C6D
:10525000B2460D9316000AE03033DBB201357355C8
:10526000A74200D2EDE2202D00D1EAE207002100A2
:10527000380000F017FDCBB20929EDD90D9A9446FC
:105280006344DBB2EAE780239B0070781943013660
:105290002FE77078682800D1CDE1802301361943CB
:1052A00027E770786C2800D1BFE180235B001943A9
:1052B00001361EE7462800D19BE10722099B049195
:1052C000073393430A9A19000392424602920CC98B
:1052D00008980092019309912A004B462100FFF79C
:1052E000CFFC01360500BCE62A006F1C4B46089D2A
:1052F00021002520A84701363D00B2E68B0700D4E7
:10530000ADE1099B2A009A466B1C9846534601CB97
:1053100021009A46089F4B46C0B2B8470A9B9C465C
:105320006544012B00D886E2089B4746B04626001C
:105330004C4699463A002300013731002020C847E7
:10534000AF42F7D1A1465346340046460993013691
:1053500087E6C046195000105C2D0020203E011049
:10536000643E0110B03E0110099B04CB9B464346AE
:105370000992002B00D1C6E013789C46002B00D187
:10538000BDE34346013B099A0133D0180A9F13003D
:1053900001E0834203D05A780133002AF9D1099AF7
:1053A0000A979B1A0B9380230A00DB001A400C9289
:1053B000194204D00B9B434501D943460B9302236A
:1053C0001A000A400D920B4200D187E16046002886
:1053D00000D168E10C9B002B00D10DE1A844C2462E
:1053E000099B57465B1B9846089BB2462A0026003D
:1053F0004C46994609E023003100551CC8474346F6
:10540000585D002800D126E12A009742F3D1A14639
:105410003D00340056460D9B002B00D043E15B4617
:10542000013609931DE6099B1A0008CA9246002B13
:1054300048D0212211438B460EA884461F21614487
:10544000099500220F27A4460D0002E0202A0CD067
:105450000B003C001C4020003730092C00D80738D6
:105460000132A85419090F2BF0D86446099D32E087
:10547000DC4B2078089300239A46002800D0E4E50E
:10548000002465E6434606000A9F9800C0180132D2
:10549000400080191678030030003038303B09286E
:1054A000F3D93000984616000A9700E6099B0236A9
:1054B00004CB9046D2434046D21710408046099311
:1054C0003078F4E5102208009043113210438346EF
:1054D00000224905B0D55B46069308230593434651
:1054E0000493102303930023029316AB01920093BD
:1054F0002A004B4621000898FFF7A6F853460500FE
:1055000001360993ADE513789C46002B00D1F7E2F4
:1055100002235B4237E7202302009A43472A04D143
:1055200080231B01194302239843452801D12023DE
:1055300019430722099B0491073393430A9A1900E0
:105540000392424602920CC9089800920193099175
:105550002A004B462100FFF76DF90136050080E572
:1055600010230C930C230A009A430B924B0503D58E
:1055700001230B9A9A430B92692800D127E66428ED
:1055800000D124E60B9A802311009B0019408B4622
:105590001A4200D066E1802311005B0019408A4660
:1055A0001A4200D039E213005B0600D53CE113003B
:1055B0001B0600D4A6E2099B04CB1204120C9346EE
:1055C00009935B46002B00D09AE10B9A103311002F
:1055D00099430B91520500D492E100239A460B9B0C
:1055E00006930A9B0593434604930C9B0393002365
:1055F0000CE12023194360E6099B0A9A5B1B98463D
:105600004B4691461F00B2462600089C2A003B00EC
:105610003100A04743460135585D0028F6D14A467F
:105620003400B94656460A92F5E6C0239B00B0788E
:10563000194302365DE5C023B0781943023658E5B8
:105640000C230A009A4314331A43103B0B920C9319
:105650004B058DD496E7A14634005646DBE60A9A00
:10566000012A00D853E26B1E9F18089BB046260003
:105670004C4699462A002300013531002020C847B6
:10568000BD42F7D1A14634004646099B3A0001CB02
:10569000210098467D1C4B46089FC0B2B847434640
:1056A00001360993DDE40B9B0A9AA8469A4200D87A
:1056B000B5E694466544ED1A089B4746B046260079
:1056C0004C4699463A002300013731002020C84754
:1056D000AF42F7D1A14634004646A0E60B9A0A999C
:1056E000531C914200D814E24B199B1A1F00089BCF
:1056F000B24626004C4699462A0023000135310067
:105700002020C847BD42F7D10A9BA14601330B9325
:10571000099B34001B7856469C466046002800D002
:1057200058E67CE60722099B0733934301329446EF
:105730009C4462465F6809921A68FB1710931193A4
:1057400010981199030053400E930B007B400F9368
:1057500094460E9A0F9B121A8B410E920F93FB0FD9
:105760006246129300233A439B463DD00B9A612335
:10577000920600D541230022DBB20EA90A3B8C46DB
:1057800092460D9343461F32624413951596554633
:105790000E9E0F9FA24690460C9C14930CE0303254
:1057A000D2B2434601355A55BB4500D18AE1202D7E
:1057B00000D18AE106000F002200002330003900EA
:1057C00000F0AEFAD2B2092AE9D90D9B9C46624498
:1057D000D2B2E6E7FF23099904C913401A000991E0
:1057E00017E5C046A94500100B9A103311009943E4
:1057F0000B915205BAD500239A460B9B06930A9B40
:105800000593434604930C9B0393129B02935346C8
:10581000019316AB2A00009321004B460898FEF72F
:1058200013FF013605001CE4FF22099B02CB114047
:105830008B460993C5E65346454609930136FFF763
:1058400010FC56465C46AA46139DD6E708230C93E7
:105850000B910B99642800D084E60B9B5B0500D567
:1058600086E6B4E40722099B07339343013294464A
:105870009C44624609921A685B6810009B461300BC
:105880005A46134307D10B9A1033110099430B91D9
:10589000520500D5A1E60B9A6123920600D541235B
:1058A0000022DBB20EA90A3B8C4692460D9343467A
:1058B0001F3262445F461295A34655460400B24625
:1058C00090460C9E13930DE03032D2B24346013520
:1058D0005A550023BB4200D100E1202D00D100E148
:1058E00004000F00320000232000390000F018FAF5
:1058F000D2B2092AE8D90D9B9C466244D2B2E5E7B0
:105900000B9A6123920600D54123DBB20EA90A3B14
:105910001F228C460D93230062445C4612951700AB
:1059200055469B46B2460C9E08E03033DBB201354B
:105930007B55B4420ED3202D0CD004003100200042
:1059400000F0B0F9CBB20929EFD90D9A944663441F
:10595000DBB2ECE756465C46AA46129D3FE6099B41
:105960001A0008CAD91713925A184A409246DA0FF9
:105970001292002B08D1802310220B99DB000B40E0
:1059800091430B91002B2BD10B9A6123920600D5EA
:1059900041230EAA1F279446DBB20A3B0D956744AC
:1059A0005D460993A3465446B2460C9E08E0303348
:1059B000DBB201357B55B4420ED3202D0CD0040050
:1059C0003100200000F06EF9CBB20929EFD9099A15
:1059D00094466344DBB2ECE756465C46AB460D9D0D
:1059E0000B9B2A0006930A9B2100059343460493D0
:1059F0000C9B08980393129B013602935B4601931C
:105A000016AB00934B46FEF71FFE139B0500099350
:105A1000FFF727FB02230C931AE7099B04CB92465E
:105A20001293002A08D1802310220B99DB000B402F
:105A300091430B91002B2BD10B9A6123920600D539
:105A400041230EAA1F279446DBB20A3B0D956744FB
:105A50005D460993A3465446B2460C9E08E0303397
:105A6000DBB201357B55B4420ED3202D0CD004009F
:105A70003100200000F016F9CBB20929EFD9099ABC
:105A800094466344DBB2ECE756465C46AB460D9D5C
:105A90000B9B2A0006930A9B21000593434604931F
:105AA0000C9B08980393002302935B46019316AB6B
:105AB00000934B46FEF7C8FD129B05000993013683
:105AC000FFF7CFFAB44200D871E6149B54460E9605
:105AD0000F97AA469846159E139D8EE6A64200D8BB
