:020000041000EA
:1000000000B5324B212058609868022188439860DF
:10001000D860186158612E4B002199600221596106
:100020000121F02299502B49196001219960352056
:1000300000F044F80222904214D00621196600F024
:1000400034F8196E01211966002018661A6600F04E
:100050002CF8196E196E196E052000F02FF8012189
:100060000842F9D1002199601B49196000215960AB
:100070001A491B48016001219960EB211966A021F2
:10008000196600F012F800219960164914480160C1
:100090000121996001BC002800D000471248134993
:1000A000086003C880F30888084703B5996A0420EC
:1000B0000142FBD001200142F8D103BD02B5186610
:1000C0001866FFF7F2FF186E186E02BD00000240BE
:1000D000000000180000070000035F00212200005C
:1000E000F4000018222000A00001001008ED00E03C
:1000F00000000000000000000000000074B24E7A12
:1001000000200420F7010010C3010010C5010010F9
:10011000C1010010C1010010C1010010C101001097
:10012000C1010010C1010010C1010010C701001081
:10013000C1010010C1010010C9010010CB01001065
:10014000CD010010CD010010CD010010CD01001037
:10015000CD010010CD010010CD010010CD01001027
:10016000CD010010CD010010CD010010CD01001017
:10017000CD010010CD010010CD010010CD01001007
:10018000CD010010CD010010CD010010CD010010F7
:10019000CD010010CD010010CD010010CD010010E7
:1001A000CD010010CD010010CD010010CD010010D7
:1001B000CD010010CD010010CD010010CD010010C7
:1001C00000BE00BE00BE00BE00BE00BEEFF3058054
:1001D000103800BEF2EB8871348201105482011095
:1001E0003402001090A31AE700201F49086006C8D7
:1001F00081F3088810471D48006800282FD10DA4FE
:100200000ECC002902D000F012F8F9E71849194A7B
:10021000002000E001C19142FCD1174988471749ED
:1002200088471749884700BEFDE701C901C29A42C5
:10023000FBD3704754820110C0000020A41B002093
:10024000389D01100000042000000420389D01109A
:10025000001004200010042000000000704709482E
:1002600005F0CAFD0047000008ED00E0000000D0E6
:10027000A81B0020D02E00200946001031190010C4
:10028000314700105756000006005250ABB3605380
:100290008042011006005250861C0302A042011049
:1002A000060052505422A29DA8420110050052504F
:1002B000DE65F468389D0110F8B5C0460448054B6A
:1002C00010B5834203D0044B002B00D0984710BDDB
:1002D000A41B0020A41B00200000000006480749C2
:1002E000091A8B10C90FC91810B5491003D0044B57
:1002F000002B00D0984710BDA41B0020A41B002099
:100300000000000010B5074C2378002B09D1FFF73F
:10031000D5FF054B002B02D0044800E000BF0123AD
:10032000237010BD501E002000000000983E0110F8
:10033000054B10B5002B03D00449054800E000BF71
:10034000FFF7CCFF10BDC04600000000541E002087
:10035000983E0110F8B50600040005000700164B92
:100360003C36436630000BF0A7F8A36C6835943731
:10037000002B04D001223000616E0AF045FE902669
:100380000E4B2800A3510BF097F8636F002B04D09D
:1003900001222800A1590AF037FE094B3800BB6240
:1003A0000BF08AF8FB68002B05D0BC230122380033
:1003B000E1580AF029FEF8BD983E0110A43E011054
:1003C000B43E0110030070B5050000220600193389
:1003D000FF33F0351A70040028000BF06DF8EB685D
:1003E0004D36FF36002B06D08C235B0001222800FF
:1003F000E1580AF009FE230001227533FF331A7019
:1004000030000BF059F8F368002B06D0BA235B00DC
:1004100001223000E1580AF0F7FD70BD70B503000D
:10042000050001221D354533FF33FF351A700400E6
:1004300028000BF041F8EB68002B06D0A2235B00EC
:1004400001222800E1580AF0DFFD70BD70B50500FB
:10045000836B0C4E5A1CC035826311210A4A04007A
:10046000300005F05FFC2800AE620BF025F8EB6869
:10047000002B05D0E82301222800E1580AF0C4FD32
:1004800070BDC04664240020C43E0110F8B5154B71
:100490000500040019000600134A3C3581CA81C1D9
:1004A000636628000BF008F8A36C7936FF36002B42
:1004B00004D001222800616E0AF0A6FD230001226B
:1004C000A133FF331A7030000AF0F6FFF368002BF7
:1004D00006D0D0235B0001223000E1580AF094FDE1
:1004E000F8BDC04650240020D03E0110164AF8B591
:1004F0001100060004000500144B3C3681CB81C17D
:100500001B7830000B7062660AF0D6FFA36CA5352D
:10051000FF35002B04D001223000616E0AF074FD1B
:1005200023000122CD33FF331A7028000AF0C4FFE4
:10053000EB68002B06D0E6235B0001222800E1587F
:100540000AF062FDF8BDC0463C240020D83E0110F0
:10055000BF2070B5C00009F063FB0223EC225B42B0
:1005600083505C3283508832835000235D491032BF
:100570008350083A815004328050483283505A499F
:10058000043283500C328150922404328350012271
:10059000564DA4000251083C055102250434005177
:1005A00048340351043403510C34015104340351D1
:1005B000103405514E4D083C0551032504340051BB
:1005C00048340351043403510C34015104340351B1
:1005D00010340551474D083C0551042504340051A1
:1005E00048340351043403510C3401510434035191
:1005F00010340551404D083C055105250434005187
:1006000048340351043403510C3401510434035170
:1006100010340551394D083C055104340051384C13
:10062000035104340351374C01518821C900435010
:10063000354943509C394418A83144504418334933
:10064000445004314250324942543249435090217F
:10065000890044189A21C900445044182E49445036
:10066000043142502D4942542D494350AA2189005A
:100670004418A321C900445044182A494450043165
:1006800042502949425429494350C4218900441801
:10069000AC21C9004450441825494450043142500B
:1006A0002449425424494350DE2189004418B5218D
:1006B000C9004450441821494450040004314250B8
:1006C0001F49D9344254FF346C3144501D494350C2
:1006D0000C3144181C494450043142501B4A835485
:1006E00070BDC04655030010E43E01104D040010DB
:1006F000C50300108D040010ED0400101D0400104F
:100700002C0400003C0400007C0400005C04000099
:1007100064040000C4040000A4040000AC04000051
:100720000C050000EC040000F40400005405000077
:10073000340500003C0500009C0500007C0500001D
:1007400084050000E4050000C4050000CC0500009D
:100750002823426AD25C083BC2547047202370B5FC
:10076000C35C0400002B3BD12123C35C002B1CD0B5
:100770000CF0AEFF2000B43003001C490B435B07B4
:100780001CD18B1CC31A042B18D94A880B8812045D
:100790001A43CB888D881B042B43026043600B896E
:1007A000283803860AF088FE70BD0CF059FF20003F
:1007B000B43003000E490B435B07E2D0B4232000A2
:1007C0000A888C30E2524A880233E2528A88023325
:1007D000E252CA880233E2520A890233E252E1E766
:1007E0000CF06CFE21230122E254DDE7502D0020A5
:1007F000382D00208A2070B5800009F011FA03001E
:100800002C3343623433836584230065D022C05087
:1008100000239C241E498350083A815004328050A2
:10082000483283501B49043283500C3281500432C9
:100830008350283AFF3A184D64000251083C055194
:100840000434005148340351043403510C34015131
:10085000C8210400490043503C314350C8340C3196
:10086000445044182C3944500431425018394250F5
:100870007C3143500100882331319B00FF31C1504E
:10088000C1182C3BC1500433C250183BC25070BD3C
:1008900051070010E43E01105D0700108823F0B5F9
:1008A000076AC5583433C4583B7D466D83B0002B6E
:1008B0000CD1337D002B1AD12B7D002B28D1237D29
:1008C000002B36D10CF06CFB03B0F0BD002380226E
:1008D00000210020009310330CF0B4FA0123002211
:1008E0000021B86A0CF088F8337D002BE4D0002397
:1008F000802210210020009310330CF0A3FA012372
:1009000010220021B06A0CF077F82B7D002BD6D096
:100910000023802220210020009310330CF092FA53
:10092000012320220021A86A0CF066F8237D002B09
:10093000C8D00023802200933021002010330CF017
:1009400081FA012330220021A06A0CF055F8B9E7A2
:10095000084B10B51A78002A00D010BD01321A7069
:100960000BF0D0FF04480BF0C7FF00200BF0D6FFC0
:10097000F3E7C046C02E002044600110CA2070B5C5
:10098000800009F04DF903002833036234334365D6
:1009900002008023C0649032C0500833C2502C3310
:1009A000C05034320833C2502C33C050F8220023D8
:1009B000B02430498350083A815004328050483284
:1009C00083502D49043283500C32815004328350BD
:1009D000503AFF3A294D64000251083C0551043455
:1009E000005148340351043403510C340151DC21CB
:1009F000040049004350F034483144500C3943500E
:100A00000C3144182C3944500431425004314354C1
:100A100060314350A83C0C31445045182C394550A6
:100A20000431822542500421AD0041517C354351AF
:100A30000C35445146192C3D465104354251183D60
:100A400041517C3543510C35445146192C3D46519A
:100A500004354251183D41517C354351C8239B0018
:100A6000C450C4182C3BC4500433C250183BC1506E
:100A700070BDC04651090010E43E01109D080010F1
:100A800083239B0070B50500C61803000122493579
:100A90007133FF33FF351A70040028000AF00CFD93
:100AA000EB68002B06D0B8235B0001222800E15838
:100AB0000AF0AAFA8D2301229B00E3181A70300075
:100AC0000AF0FAFCF368002B06D08D239B0001226C
:100AD0003000E1580AF098FA70BDC0468F239B00A1
:100AE00070B5C518C83BC35804009B6A2800AB62A8
:100AF0000AF0E2FCEB68002B06D099239B00012250
:100B00002800E1580AF080FA70BDC0469A239B0085
:100B100070B5C518AC3BC35804009B6A2800AB6293
:100B20000AF0CAFCEB68002B06D0A4239B0001222C
:100B30002800E1580AF068FA70BDC046A5239B0062
:100B400070B5C6182C33C518C36A0400B3623000F0
:100B50000AF0B2FCF368002B06D0AF239B00012201
:100B60003000E1580AF050FA616BE06A05F065FD6B
:100B7000A86228000AF0A0FCEB68002B06D0BA237C
:100B80009B0001222800E1580AF03EFA70BDC046E1
:100B9000A5239B0070B5C5182C33C618134B040051
:100BA000C318836101230377C36A2800AB620AF08C
:100BB00083FCEB68002B06D0AF239B0001222800AA
:100BC000E1580AF021FA616BE06A05F036FDB06287
:100BD00030000AF071FCF368002B06D0BA239B00AA
:100BE00001223000E1580AF00FFA70BD3808000009
:100BF000A523F0B5C6469B00C7182C33C6181E4B5C
:100C000000B5C318836101230377836A0400191CAC
:100C1000006A984605F0FDFC184905F0FAFC4146CB
:100C2000051CE062606A05F0F4FC144905F0F1FC73
:100C300020633800BD620AF03FFCFB68002B06D041
:100C4000AF239B0001223800E1580AF0DDF9616B07
:100C5000E06A05F0F2FCB06230000AF02DFCF368A7
:100C6000002B06D0BA239B0001223000E1580AF085
:100C7000CBF980BCB846F0BD380800000000C8427F
:100C800085231B01C31810B583610123037704007A
:100C9000806808F0F7FD05F021FC0022034B05F009
:100CA0004AFB05F023FC606410BDC04665CDCD4114
:100CB00070B50400806808F0E5FD05F00FFC002227
:100CC0001E4B05F038FB05F011FC616C05F09BFC38
:100CD000216B05F0B2FC011CE06A05F094FC0021D8
:100CE000051C05F0E1FC002800D170BDA5239B0088
:100CF000E6183000B5620AF0DFFBF368002B06D07F
:100D0000AF239B0001223000E1580AF07DF9B023A7
:100D1000606B9B00291CE61805F08FFCB062300068
:100D20000AF0CAFBF368002BDFD0BA239B00012234
:100D30003000E1580AF068F9D7E7C04665CDCD41EB
:100D4000F0B5C646AD4800B508F06AFF0300503361
:100D500083643433C3670200A82302214067B8329A
:100D6000C0500833C2502C33C05034320833C25004
:100D70002C33C0504942F833C1505133FF33C218AD
:100D8000A13BFF3BC250C2182C3BC250D6220023CD
:100D9000C82452008350AC3AFF3A64000251F02458
:100DA000A4000519C13CFF3C055105192C3C055117
:100DB000203403511C3C025160340151B4340151C0
:100DC000BE218F4C8900435008394450D32404314C
:100DD000405048314350043143508A49A4000151E6
:100DE00004340351884D10340251083C055102254A
:100DF0000434005148340351043403510C3401517C
:100E00000434035110340551804D083C055103252D
:100E1000043400517E4C7F4F0351043403517E4C07
:100E2000015104340351103405517C4D083C0551E7
:100E30007B4C912500517B4CED0003510434035150
:100E4000794C015182242401041944510425A846F7
:100E500093254646ED004651083D4751734D0136F6
:100E60004051734D435104354351724D4151724DC0
:100E700047199E25ED004751103546516F4E083DEC
:100E800046516F4D072640516E4D43510435435135
:100E90006D4D4151043547510627103547516B4F71
:100EA000083D47516A4D40516A4D43510435435105
:100EB000694D415185252D014719B825ED00475150
:100EC00010354651654E083D4651654D002640514E
:100ED000644D435104354351634D4151C521C9000F
:100EE0004750624900274350BC2189004518CE2154
:100EF000C900455045185E494550043142505D498E
:100F000042545D4943504D39FF3945185931FF313D
:100F100045504518594945500431425058494254AA
:100F20009221C9004518E021C90045505549435058
:100F30000C314518544945500431425053494354EB
:100F4000534943508521C9004518E921C90045503E
:100F500045185049455045460431425018394250D1
:100F60004D494350343945504C4943509F21C900A5
:100F70004518FA21C90045504518494945500431E2
:100F800042501839425047494350B921C9004518C9
:100F90004549455045184549455004314250183996
:100FA0004250020048310C324250414D41494550B7
:100FB0004149424D41180E604F608321090143545D
:100FC0001D4942503E494550043141180E604F6062
:100FD0003C494354083142503B493C4A81503C4AC9
:100FE000821816605760862212018354C360046120
:100FF00044618361037780BCB846F0BD6808000097
:10100000810A0010E43E0110DD0A00100D0B0010F3
:101010000C0400003D0B00101C040000F10B00103C
:101020002C040000740400008404000094040000F8
:10103000DC040000EC04000038080000810C001003
:10104000FC0400004405000054050000B10C001031
:1010500064050000AC050000BC050000910B001009
:10106000CC05000014060000240600006406000001
:10107000440600004C060000AC0600008C06000090
:1010800094060000F4060000D4060000DC06000010
:101090003C0700001C07000084070000C407000094
:1010A000A40700000C08000018080000EC0700006E
:1010B000983E01102408000028080000E83E0110B6
:1010C0003C08000048080000F03E011054080000F1
:1010D00058080000036C9B6A83637047436F9B6AE8
:1010E000C3637047F0B54E46DE4657464546A823D3
:1010F000E0B5C6583433C358070083B080689946BA
:1011000008F0BCFBBA6AFB6A04000D00002B11DD7D
:1011100020002900801A9941002915DC002900D1FE
:101120007AE0BC62FD6203B0F0BCBB46B246A946A1
:10113000A046F0BD002BF4D1002AF2D020002900F7
:10114000801A99410029E9DD88235B009A46B36A39
:10115000BA449B4605F0DCFA324905F06EFA05F018
:10116000E1FA5B463A6B00900191981A05F072F92A
:101170002D4A2E4B05F0F9F800222D4B05F0DBF837
:10118000009A019B05F0D7F805F0B0F94B46796B52
:101190009B6A061C581A994605F05CF9224A234BB3
:1011A00005F0E3F80022224B05F0C5F8009A019BF8
:1011B00005F0C1F805F09AF95B463B634B46311CDC
:1011C0007B638046B86B05F01EFA53469862504622
:1011D0000AF072F95346DB68002B06D09C235B00B3
:1011E00001225046F95809F00FFF3E00F86B4146C6
:1011F00005F009FA4136FF36B06230000AF05CF9BA
:10120000F368002B00D18CE7B4235B00012230008F
:10121000F95809F0F9FE84E7064B984200D880E7B8
:1012200092E7C0465F708930C3718BB665BCB93F29
:10123000008076403F420F00F22070B5800008F039
:10124000EFFC030048330364343343670200A023F8
:10125000C066B032C0500833C2502C33C050343254
:101260000833C2509E222C33C0500B3BFF3B520030
:101270008350303283500023F02436490C3283509F
:10128000083A815004328050483283503249043247
:1012900083500C32815004328350D03AFF3A2F4DA4
:1012A00064000251083C05510225043400514834C1
:1012B0000351043403510C340151043403511034EC
:1012C0000551274D083C0551043400514834035161
:1012D000043403510C340151A82104008900435007
:1012E00071343C314350FF340C31445044182C3994
:1012F00044500431AA24425005000421A4000151A5
:10130000D9357C340351FF350C34055105192C3C7B
:101310000551DE2504340251183C01517C3403513F
:101320002D3CFF3C0419AD00445146192C3D46515B
:1013300004354251183D41517C354351F0239B0007
:10134000C450C4182C3BC4500433C250183BC15085
:1013500070BDC046D5100010E43E0110DD10001035
:10136000E5100010036A70B59C6A0021201C05F08E
:1013700093F9FE21431E9841640064080500890525
:10138000201C05F091F9002805D00748290001220A
:101390000CF098FA70BD0549201C05F04EF905F0D7
:1013A000AFF980B2F2E7C046FF0F000000F07F45C2
:1013B000436D70B59C6A0021201C05F06DF9FE217B
:1013C000431E98416400640805008905201C05F04F
:1013D0006BF9002805D00748290000220CF072FAAA
:1013E00070BD0549201C05F028F905F089F980B287
:1013F000F2E7C046FF0F000000F07F4510B5012066
:101400000CF032FA10BDC046A62070B5800008F07E
:1014100007FC030028330362343343658023C06430
:101420009022C0500023F8242D498350083A81505F
:1014300004328050483283502A49043283500C329F
:10144000815004328350284DE73A0251083C05513F
:1014500002250434005148340351043403510C3440
:1014600001510434035110340551204D083C0551FD
:101470000434005148340351043403510C340151F5
:10148000DC210400490043508834483144500C3971
:1014900043500C3144182C3944500431425004312B
:1014A0004354113C60314350FF3C0C3144504418CC
:1014B0002C3944500431822442500421A4000151AB
:1014C0007C3403510400A42359349B00FF34C450DE
:1014D000C4182C3BC4500433C250183BC15070BDDB
:1014E000FD130010E43E011065130010B11300104D
:1014F000F0B5C646C36A04009E6A816A00B507005B
:10150000301C05F083F88823216A051CA062301C7A
:10151000984605F092F8616A061C281C05F08DF8C3
:10152000011C301C05F072F843466037E05038006B
:1015300009F0C2FFE36E002B05D0434601223800BC
:10154000E15809F061FD80BCB846F0BDA02010B59F
:10155000400008F065FB03003433C3629822002387
:10156000104980658350083A8150043280504832D7
:1015700083500D49043283500C3281500432835021
:101580003C32835002003933FF339032C250C218CC
:101590002C3BC25001220433C250183B0332C250CC
:1015A00010BDC046F1140010E43E0110F0B5C6466F
:1015B0000500060080211F4A040000B5D06884356C
:1015C0000006000F54360130490053680B42FCD12D
:1015D0000138176A0028F8D18021D068154A000424
:1015E000000F7F420130890053680B42FCD1013863
:1015F000536A0028F8D15B423000E767984609F04B
:101600005BFF236E002B04D001223000E16F09F054
:10161000FBFC43462800AB6209F04EFFEB68002B51
:1016200005D0AC2301222800E15809F0EDFC80BC74
:10163000B846F0BD00002050F0B5D6464F464646AD
:101640000025C0B53D4C8AB020003D4907F06EFD35
:101650000223200008220021009507F06FFE0022DF
:101660000121082001F004FB00220121092001F0E2
:10167000FFFA8026F827C02376021B037F0202A907
:10168000102206A89A46049302960397059505F042
:10169000FFF82C4B06A9102202A89946079305F0E3
:1016A000F7F88023DB020593274B20000393802368
:1016B0001B0398460493002202AB002107F096FE1C
:1016C0000122236820001343236001210223009597
:1016D0000B3207F033FE002201210C2001F0C8FA82
:1016E000002201210D2001F0C3FA534602A9102265
:1016F00006A8049302960397059505F0C9F84B4692
:1017000006A9102202A8079305F0C2F8C023DB0245
:1017100005930E4B002203934346012104932000BE
:1017200002AB07F063FE02222368134323600AB072
:10173000E0BCBA46B146A846F0BDC0460000205005
:10174000FC3E011080770100807701088077010C52
:10175000862070B5800008F063FA03002833036226
:10176000C022002394242049C0648350083A815049
:1017700004328050483283501C49043283500C326A
:10178000815004328350183AFF3A194D64000251D7
:10179000083C0551043400514834035104340351CA
:1017A0000C340151C021040049004350B834483181
:1017B00044500C3911344350FF3420394450043123
:1017C000425004314354603143500100842321319D
:1017D0009B00FF31C150C1182C3BC1500433C25093
:1017E000183BC25070BDC04639160010E43E0110CF
:1017F000AD150010F0B5070004000600050087B025
:1018000003A919480BF0C2FC039B5437E367380067
:1018100009F052FE236E8436B435002B04D0012229
:101820003800E16F09F0F0FB049B3000B3620193D4
:1018300009F042FEF368002B05D0AC2301223000F2
:10184000E15809F0E1FB059B2800AB6209F034FE8A
:10185000EB68002B05D0DC2301222800E15809F0B9
:10186000D3FB07B0F0BDC0462C2D0020054B10B5B2
:101870001A78002A00D010BD013203481A700BF00C
:101880003BFCF8E7C12E00202C2D0020922070B5E3
:10189000800008F0C5F9030028330362F02200231A
:1018A000AC242049C0648350083A815004328050EF
:1018B000483283501C49043283500C328150043228
:1018C0008350483AFF3A194D64000251083C0551D3
:1018D0000434005148340351043403510C34015191
:1018E000D821040049004350E834483144500C39B1
:1018F00011344350FF3420394450043142500431F4
:101900004354603143500100902351319B00FF311B
:10191000C150C1182C3BC1500433C250183BC250B7
:1019200070BDC0466D180010E43E0110F5170010A0
:1019300010B50021002009F0F9FE10BD7047C04627
:101940000A4B01211A68002300B589B0069305935C
:1019500004910293019319310633039100930021FE
:101960000133034809F0B6FC09B000BD98210020FE
:10197000C01C0020014B036001207047C01C0020E8
:10198000F0B5DE4657464E464546E0B5A1B0FEF7F7
:10199000DFFDFE4B07009A4601218360FC483E00B4
:1019A00038627962514604230025496EF94AFA4C9F
:1019B000D936FF363A637B63BC62FD620E6000215C
:1019C000B9638D21C9007E1800200021306071604C
:1019D0008E20C0003E18504634607560C66D892068
:1019E000C0003C1800203460EC4C00213851962097
:1019F000C0003C180020206061609720C000804635
:101A0000B84440460025E64C012104604560922020
:101A10000025C0003C187460E24CDD483D512C3478
:101A20003C1920606160A024E400391900250024DD
:101A30000C604D609B24E40039190024B160DA4940
:101A400000257C50A824E400391900240C604D6066
:101A5000A9240025E4003919283C0A604B60391993
:101A6000F160D249D2487D50022168343C1920608F
:101A70006160B221AD24C9007918E4000A604B60AE
:101A80003B1986243361CB4BA400FD50A026802552
:101A90003B1900242D06B6001C605D60BB1968363A
:101AA0001C605D60BB1968361C605D60BB196836E0
:101AB0001C605D60BB1968361C605D60BB191C60F2
:101AC0005D60FEF797FE5346022680468360030062
:101AD000C02076421E5042469E62DE65012313847A
:101AE00043460933FF331C605D609C66DD66FEF78C
:101AF00045FF53468C21836046628665020046504E
:101B0000C020165010005B6EF0325A600300313373
:101B1000FF331C605D609C66DD660290FFF710F984
:101B20005246A22302218260802249425B00C150BA
:101B3000C1645C3B815034328150C1509222534683
:101B4000D2005B6E82189A6000229B4B8263036214
:101B50009A4BC2634362FE239346CA229B0583626B
:101B6000974BD200436300218318002219605A600A
:101B7000CB22D200831800215246060091481860FB
:101B80005960D36DC6220020D200B2185A618E4A25
:101B90000021B05000202C32B21810605160D422C5
:101BA00000218A48D200B21810605160CF22D200C2
:101BB000B2189A6185231B01F218854BF250CC2391
:101BC0009B00F3181C605D60E6239B00F3181C600B
:101BD0005D608023DB00F3181C605D608D23DB00FB
:101BE000F3181C605D609A23DB00F3181C605D60D5
:101BF000A723DB00F3181C605D60B423DB00F3183F
:101C00001C605D60C123DB00F3181C605D605346FF
:101C10003200DB6F0C325B681A60FFF70DFBFC23B0
:101C20009B050362FA2302219B0543625246AC23C3
:101C30004942826041648167C1503433C1500022FF
:101C400000238262C3620263436303005A46B133D6
:101C5000FF338263C2631C605D60862381469B0004
:101C60004B441C605D60A0239B004B441C605D6086
:101C7000FFF7CAFB514653460222816001005242DF
:101C80005B6E426282658830D8600B001130C833C9
:101C9000FF301C605D609C66DD66046045600391FA
:101CA000FFF754FC0100504688604846006A022253
:101CB000086248468C23406A52424862CA500B0070
:101CC0005846D0330A6388621C605D600191FFF75B
:101CD0003DFC534683604B461B6A022203624B461F
:101CE0008C215B6A52424362425002635A468262CE
:101CF0000200D032146055600090FFF729FD514674
:101D00000222816080215242425030314250426270
:101D10005246536E0200B8321A6140321460556068
:101D20009466D56683466832FFF7B0FD52468260FE
:101D3000022280235242C2503033C2503033C2504C
:101D400042625246536E0200E8325A6101000200BC
:101D500029319132FF31FF320C604D6014605560C3
:101D600080250334AD007C513A0004900421032007
:101D700007F038FF0C3578513A000421032007F0B2
:101D800031FF043D7851B93D3A0023E0C01C0020EA
:101D900000F2052A00C817A800E1F5058404000038
:101DA00000CA9A3BCC040000140500005C0500004A
:101DB00000E40B54A405000052B83A41CDCCCC3F0E
:101DC0003333733F809698006C060000404B4C0004
:101DD000B40600000421FF3D032007F003FFAC46DA
:101DE0007934BC446546A446A822BC448123644699
:101DF00094469B00F850BC44056007959A256246BE
:101E0000446009940124AD0082600A927C513A003A
:101E10000421012007F0E6FE9D229200B850042123
:101E20003A00012007F0DEFE9C229200B850042107
:101E30003A00012007F0D6FE9B239B00F850993B07
:101E4000FF3B9C46BC44634603600B93B4230221D2
:101E50009B008A46F9503A000231022007F0C2FE88
:101E6000B7229200B85004213A00022007F0BAFECF
:101E7000B6239B00F8503A000421022007F0B2FE7E
:101E8000B523791DFF319B00F8500C910160B02102
:101E900049008C46BC4461465246643341600D9112
:101EA000FA5004213A00022007F09CFED12189005B
:101EB00078503A000421022007F094FED0239B00C2
:101EC000F8503A000421022007F08CFECF239B003B
:101ED000F850B13BFF3B9C46BC44634603600E9305
:101EE000E823524607999B004160FA5004213A00CA
:101EF000022007F077FEEB239B00F8503A00042104
:101F0000022007F06FFEEA21890078503A00042190
:101F1000022007F067FEDC2252009446E923BC440D
:101F2000624607999B00F8506433026041600F924B
:101F3000FC503A000421012007F054FEFE4B3A0009
:101F4000F8500421012007F04DFE8221C90078508D
:101F50003A000421012007F045FEF84B0022F8501A
:101F600098235B009C46BC44634603601093404644
:101F7000F023C2506833C45042460421012007F0C8
:101F800031FEB22344465B00E0504246042101206A
:101F900007F028FEB0235B00E050424604210120F8
:101FA00007F020FEAE235B00E050A0244444046010
:101FB0001194C0228C240023029864005200035123
:101FC0008350C62350469B003200F050042107F096
:101FD00009FEC9239B00F05032000421022007F0C3
:101FE00001FEC8229200B05004213200022007F006
:101FF000F9FDAE21C72349008C469B00F050B44444
:10200000FC3B61469C46B444634643601393E02323
:10201000016050469B00F05032001291042107F0FD
:10202000E1FDE3218900705032000421022007F015
:10203000D9FDE2239B00F05032000421022007F07A
:10204000D1FD942189008C469622B4445200614609
:102050009446E123B44462469B00F05015924260DE
:102060000122643301601491F250042132000120F6
:1020700007F0B8FDFD239B00F05032000421012041
:1020800007F0B0FDFC239B00F0503200042101203A
:1020900007F0A8FDFB239B00F050713BFF3B9C46E3
:1020A000B4446346036016938A235046DB00320033
:1020B000F050042107F096FDA14B3200F0500421AE
:1020C000022007F08FFD8B23DB00F050320004214B
:1020D000022007F087FDAA2189008C46994BB44461
:1020E0002C31F05063468C46B4446146036005933E
:1020F000972341605046DB0032000691F0500421E6
:1021000007F070FD904B3200F0500421022007F0E0
:1021100069FD9823DB00F05032000421022007F013
:1021200061FD8A4B0699F050059B41600360A42332
:102130000020DB00F050504668333200F05004219C
:1021400007F050FD824B3200F0500421022007F0CE
:1021500049FDB223DB00F05032000421022007F0D9
:1021600041FD7C4B0699F050059B41600360BE2306
:102170005046DB003200F050042107F033FD764B6F
:102180003200F0500421022007F02CFDBF23DB00B9
:10219000F05032000421022007F024FD6F4B069915
:1021A000F050059B41600360CC200023494640006D
:1021B0000B50802148468900435051464A464151C0
:1021C0000231022007F00EFD49460C3548514A46BF
:1021D0000421022007F006FD4946043D48514A46C5
:1021E0000421022007F0FEFC4946043D4851493DC8
:1021F000FF3D4D4405601795AA256D004D4445608F
:102200001895B0220025039B04219D501D51683470
:102210001D51019DC83CAF3A2A5101202A0007F008
:10222000E1FCC4212A006850C039012007F0DAFC23
:10223000C0220421A8502A000120019507F0D2FCF9
:10224000BC2501220199485174310160009819910F
:10225000025104210200012007F0C4FCC421009BAC
:1022600058501A00C039012007F0BCFCC023009967
:10227000C8500A000120042107F0B4FC009B594615
:102280005851743303600025E0201A93A4230D50A5
:1022900055465B00CD505A460421022007F0A2FCAF
:1022A000AA235D465B00E8505A460421022007F04D
:1022B00099FCA8235B00E8505A460421022007F04D
:1022C00091FCA623982168225B00E85059445A44A7
:1022D00088250160426000201B9104996D008A46A8
:1022E00048512C3303301C92C8500A00042107F0D7
:1022F00079FCC22351465B00C8505246042103209A
:1023000007F070FCC022514652008850524604210A
:10231000032007F067FCBE2351465B00C8505246BD
:102320005346683298330491C8310260436081603B
:102330001D921E9314E0C046140400000C0400001B
:102340005C04000054040000C4040000BC0400004D
:10235000940500008C050000FC050000F405000059
:10236000012288238C20FA653F66FA503F502830BE
:102370003A505C333F5128343A51FF5030337A5150
:102380008C34FF505C333A51FF502C342C333A518B
:10239000FF502833FA505C3C0433FF50A2463A51B8
:1023A000883BCC34FF503B5915001F911A60042123
:1023B0003A00B33807F016FC83229200BB58042180
:1023C0001860822080003B583A005D60012007F0D1
:1023D00009FC83229200BB580421586082208000AF
:1023E0003B583A009D608325012007F0FBFBAD00C0
:1023F0007B5902999860089094208C461A68043D95
:102400005B6880006544604415601860A620089AE7
:102410008000604410609C20012280003B58042111
:102420001A6001203A0007F0DDFB02999D228C46DC
:102430009200BB586C32624418600260B6200122E0
:1024400080003B5804211A6001203A0007F0CAFBC3
:10245000B7229200BB5801221860B62080003B587A
:1024600004215A6001203A0007F0BCFBB722920019
:10247000BB584246586099321B68FF321A60E1220D
:10248000D200B3180360D020012280003B58042101
:102490001A6001203A0007F0A5FBD1229200BB5838
:1024A00001221860D02080003B5804215A6001208E
:1024B0003A0007F097FBD1229200BB58F2225860F5
:1024C000D2001B68B2181A600560EA200122800061
:1024D0003B5804211A6001203A0007F083FBEB22ED
:1024E0009200BB5801221860EA2080003B5804216A
:1024F0005A6001203A0007F075FBEB229200BB58AE
:10250000FB225860D2001B68B2181A600560822056
:102510000125C0003B583A001D600421012007F04E
:1025200061FBFE4A0421BB584246E132FF3218608B
:102530000260B4234246B0205B001250BC30F5501C
:1025400036505046C433F5500433F6502C33F55012
:102550000433F6502833F5500433F6502833F55041
:102560000433F6502833F5500433F6503650E53036
:10257000FF30335832001D60012007F033FBC922C1
:102580009200B35804211860C820800033583200EC
:102590005D60012007F026FBC9229200B3585A461D
:1025A0005860D1321B68FF321A60049A8023944627
:1025B0009B0063440360E2208000335832001D60BA
:1025C0000421012007F00EFBE3229200B358543A95
:1025D0004A4418600260FC208000335832001D60BD
:1025E0000421012007F0FEFAFD23E0229B00F358AE
:1025F00092004A44186002608B200124C0003358C6
:10260000824632001C600421012007F0EBFAC44D21
:1026100032007359042118605046335801205C6021
:1026200007F0E0FAAA2273596D3D586092001B68CA
:10263000FF3D4D444A441A6005609820C00033585D
:1026400008921C6032000421012007F0CBFAB54A41
:102650000421B358924618609820C00033583200C5
:102660005C60012007F0BEFA5246B358089A5860E1
:102670001B6804211A600560B220C0003358320084
:102680001C60012007F0AEFAA74A0421B358924615
:102690001860B220C000335832005C60012007F09F
:1026A000A1FA5246B358089A58601B6804211A6070
:1026B0000560BF20C000335832001C60012007F0C5
:1026C00091FA9A4A0421B35892461860BF20C0007C
:1026D000335832005C60012007F084FA5246B35848
:1026E000089A58601B6804211A60982305604846C0
:1026F0005B00C4500433C0502C33C4500433C0506A
:102700009C204A46800013589D251C60012007F03C
:1027100069FA4A46AD005359042118609C20800094
:10272000135801205C6007F05DFA4A465359019D39
:1027300058602A001B68F8321A60009B2A00F833A0
:10274000036080202C5004302D503C302B58C42581
:1027500082461C600421BF3807F044FA019A0399AD
:10276000535982228C461860802392006244026092
:1027700000980421C4500433C05053468246C358C5
:1027800002001C60012007F02DFA534600935B59AC
:102790000399186094238C469B0063440360584659
:1027A000A4231C3D44678067C4504051A8204000CA
:1027B000824658465346C3585A461C60042101209D
:1027C00007F010FAAA235A465B00D3580421186078
:1027D0005346D35801205C6007F004FA5B4654343A
:1027E000FF341B593400586079341B68FF341C6077
:1027F000483404603800D823049CF030A467645146
:10280000E45003004046436238001D30FF300300AF
:102810004046836538003C30030002983A0003626A
:102820002C33436588239432C2502C323433C25047
:102830003800B0234D30FF30B0642C30F0502C30D5
:102840003433F050A5208000331848460364B0208C
:1028500080003318484643678F208000331848466D
:1028600043519A2080003218DC234846C250113070
:10287000FF3003000198039AC3626030106248463B
:10288000009D4130FF30E86230002B00493060335A
:10289000FF305365030058460362DE23832554301E
:1028A0005B00F050AD003030483BF05073192362AC
:1028B0001F4B179C5B6B199D1C609D60189C1A9D9B
:1028C0005C60DD60129C059D1D991C611D62139C5E
:1028D000069D5C615D62149C1C9D19631E999C6140
:1028E0009D62169C1B9D59631F99DC61DD62996393
:1028F000099D0A9A1D640B9D5A649D640C9D07995D
:10290000DD640D9D0F9A1D650E9DD9635D659A6509
:10291000109D1199159ADD6519660BE014040000ED
:102920005C040000C404000094050000FC050000E5
:10293000C01C00205A663B00F133FF33012219000E
:1029400001250023AE4C0A604B606D4208390C60D3
:102950004D609621890079180A604B609421012509
:10296000A84C890079186D420C604D60B025AD000F
:102970007919083D0A604B6079190125A24C6D4216
:102980000C604D60CA25AD0079190A604B60C82102
:1029900089007C1801219D48494220606160E42142
:1029A00089007C180839226063607C1801219848EE
:1029B000494220606160FE2189007C1808398C46FC
:1029C0000125414622606360924C67446D42E031CC
:1029D0003C607D6008398A60CB600F0001218B4824
:1029E00049423860796041464931FF310A604B60A5
:1029F00008390F000121029D8748494238607960FB
:102A000029000931FF310A604B6001217C486F1CAD
:102A1000FF37494238607960290069357131FF31EB
:102A2000FF350A604B602F00C2210125794C6D42B1
:102A300089003C607D60771808393A607B607718C0
:102A400001216F48494238607960DC21890077189C
:102A500008393A607B60771801216B484942386039
:102A60007960F6218900771808393A607B60771819
:102A7000012166484942386079608821C90071188F
:102A80000A604B6087210125614CC90071186D42B5
:102A90000C604D609521C90071180A604B6094214B
:102AA00001255C4CC90071186D420C604D60A2217B
:102AB000C90071180A604B60A1210125564CC9005C
:102AC00071186D420C604D60AF21C90071180A6029
:102AD0004B60AE21C9007418012150484942206062
:102AE0006160BC21C90071180A604B60BB21C9003C
:102AF0007018494601254A4C89316D42FF31046006
:102B0000456008398A60CB600C0001214548494284
:102B1000206061604946F131FF310A604B6008393D
:102B20000C000121404849422060616096218900E3
:102B300049440A604B60942101253C4C890049447A
:102B40006D420C604D60039F012639002C4DA03171
:102B50000A604B60764208390D604E600A674B6729
:102B6000012133487C1CFF344942206061603900F8
:102B70007131FF310A604B6001212E486937FF3700
:102B8000494238607960019F2B483900A8310A60BA
:102B90004B600121A037494238607960009F3C00BA
:102BA000A037A83422606360386079605946D0311C
:102BB0000A604B6008390D604E60012501260498BB
:102BC000104C0A674B676D428C66CD666831411CBC
:102BD000FF310B4D0A604B60764208390D604E6044
:102BE0000125084C6130FF306D420A674B67046075
:102BF000456021B0F0BCBB46B246A946A046F0BD38
:102C00000000FFFF0100FFFF0200FFFF0300FFFFC6
:102C10000400FFFF0500FFFF0600FFFF0700FFFFA6
:102C20000800FFFF0900FFFF0A00FFFF0B00FFFF86
:102C30000D00FFFF0E00FFFF0C00FFFF7047C046B6
:102C4000094A830094464022634410B51C68C000C2
:102C50006240C02414408022520113431C60034B85
:102C60009C466044416010BD04C0014000400140EA
:102C70000A4B80009C4604236044002901D00C23A9
:102C80000821002A00D10B00026853400C221A4090
:102C900080235B01184302607047C04604C00140B6
:102CA0000123D0228340120693629361094A830074
:102CB0009446402263441968C0004A40C021114034
:102CC0008022520113431960034B9C460523604444
:102CD0004360704704C0014000400140024B186847
:102CE0008007C00F7047C04600C00640EFF3108059
:102CF00072B6034A1368002BFCD0BFF35F8F704796
:102D00002C0100D0BFF35F8F0022024B1A6080F3CA
:102D1000108870472C0100D070B5EFF3108C72B69C
:102D20000D4D2B68002BFCD0BFF35F8F0724CB0821
:102D3000C618C05C01230C40A3401C0004400342A1
:102D400007D103433370BFF35F8F2C608CF310887F
:102D500070BD100001F00AFD2C0100D0F8B5474607
:102D6000CE46884680B5EFF3108C72B6214D2C68A4
:102D7000002CFCD0BFF35F8F9A422CD8D4080727D1
:102D8000055D061901241740BC402C421FD00721C5
:102D90000127894609E0D408055D06194C4639002B
:102DA0001440A1400C00294211D001329342F2D2CA
:102DB00001204042BFF35F8F00220E4B1A608CF35C
:102DC000108800280FDBC0BCB946B046F8BD2C43C4
:102DD00010003470EEE7BFF35F8F00232B608CF39D
:102DE0001088012040424346002BECD0089801F0A7
:102DF000BDFCC0462C0100D00021044B044ABFF3A7
:102E00005F8F02C39342FAD17047C046000100D0E1
:102E1000800100D0044A1078431CDBB2172B00D984
:102E2000102313707047C0467010002000B5054B8A
:102E300083B00100009318221F230348FFF78EFF81
:102E400003B000BD343F01108024002001238340E3
:102E5000002904D0034A1360034A13607047034AF1
:102E60001360FBE780E200E000E100E080E100E0C9
:102E700001238340014A13607047C04600E200E02E
:102E8000084B10309B688000C358002B07D0064ABF
:102E900000209B1A2F229A424041C0B27047002066
:102EA000FCE7C04600ED00E074100020024B10303B
:102EB0009B688000C058704700ED00E070B50D00C1
:102EC000EFF3108672B60F4A1368002BFCD0BFF3E5
:102ED0005F8F0D4B10309B6884001B590B4A934247
:102EE00003D09D4201D001F059FC074B9B681D5156
:102EF000BFF35F8FBFF35F8F0022024B1A6086F330
:102F0000108870BD240100D000ED00E0CD0100105C
:102F1000F0B557464E46DE464546E0B585B006005C
:102F200002911700EFF3108B72B6674A1368002BFB
:102F3000FCD0BFF35F8F0025644B5D579A46002D90
:102F400000DAA4E06B00624C03935B199B00984687
:102F5000A146C1444B4652469B79103613705D4BD7
:102F6000B2009B68019299580B1B2F2B34D95A4BF6
:102F7000994200D0A4E0039B584A9C46584B6544B4
:102F8000AD006353434602336519E418554B0121E4
:102F9000043B1B1B1B055B0D13436B80524BEF71F6
:102FA000AB80FF23AB71029BAB604B460B43190018
:102FB000484B019A9B689950BFF35F8FBFF35F8FB7
:102FC0000022414B1A608BF3108805B0F0BCBB4661
:102FD000B246A946A046F0BD01200A008243D3793B
:102FE000BB422FD845464E46130040491B1B5B4150
:102FF0005943090D3A4B63533A4B02356519043B6B
:103000005B1B1B05354D5B0D2B4373800426B446BB
:10301000E0444444131F1B1B4C46A17102991B053D
:10302000A16049465B0D2B43A380314BE7710143FF
:103030001360BDE75800C01880002018C679BE4252
:103040002BD902000623D356002BF3DA101D82463B
:103050002848804604267642B446E14450464E460F
:10306000361A3005400D824656461C489571064377
:103070009680039A944665441D4AAD006419226007
:103080004246A371029BA280E771A36090E701F022
:1030900085FB002553465D5754E7101D82469088F6
:1030A0004005001584464046D44466460430201846
:1030B000301AE0260005400D360230438046C9E74D
:1030C00001F06CFB57E7C046240100D0C82E002059
:1030D0007410002000ED00E0CD01001000E0FFFFC3
:1030E00000A1FFFFA410002001BDFFFFAAAA00005D
:1030F0000148804701BD0000F0B5DE4657464E4608
:103100004546E0B50C0083B0EFF3108972B6584A1B
:103110001368002BFCD0BFF35F8F564B9A680300F7
:1031200010339F00D559544A9046954232D0A5425B
:1031300043D0524EAA1B2F2A2CD8012282409246FD
:1031400051464F4A12681140019151464D4A116053
:10315000BFF35F8FEFF305829346002A33D101233B
:103160002A009A4393689C4208D177E04B005B1891
:103170009B00F3189968A1422AD01A0006215156E3
:103180000029F3DA019B002B19D052463E4B1A60FE
:103190003B4B1A60374B9B68DD51BFF35F8FBFF32A
:1031A0005F8F0022324B1A6089F3108803B0F0BCA5
:1031B000BB46B246A946A046F0BD1500EAE7524616
:1031C000304B1A60E6E79342C9D001F0E7FAC6E750
:1031D00006215956002921DB4A0050188000341876
:1031E0008046A0689860E079D871062020569871D2
:1031F000002824DBA488F01A64052415444400192F
:10320000E0240005400D24022043988052181F4BF3
:103210009200B6181A781970B271B3E759460029AE
:103220000FD1FF3191711A49918018490A789A712A
:10323000184A9B1B5B415A43120D0A70A2E71648BD
:10324000E3E7164A1649D21A083A5002400D0143E4
:103250009980144952080A43DA8093E706215156AF
:1032600013000029B8DA5A46002AEAD14546DCE7BD
:10327000240100D000ED00E0CD010010741000200A
:1032800000E100E080E100E080E200E0C82E0020E4
:1032900001BDFFFFAAAA000001BD0000AE10002082
:1032A00000F0FFFF00F8FFFF70B5EFF30581012488
:1032B0000443EFF3108C72B6214A1368002BFCD044
:1032C000BFF35F8F1F4B05001F4AED1A6D416A4324
:1032D000120D1E4D8900AE6852B27658A6421CD01F
:1032E0000621595691421CD012215956914222D0A2
:1032F0001E215956914220D02A2159560324914229
:1033000010D0134B19781A708171BFF35F8F0022B0
:103310000B4B1A608CF3108870BDAB680D4C5C5081
:10332000EFE700246100091989005B18FF219971FA
:1033300009499980E5E70124F4E70224F2E7C04651
:10334000240100D074100020AAAA000000ED00E0C3
:10335000C82E0020CD01001001BDFFFF054B064A1D
:103360001360064A136053609360D3601361536126
:10337000936170478080808000E400E004E400E016
:1033800000B5074B83B001000093002205230548D8
:10339000FFF7E4FC002801DB1F23181A03B000BD6F
:1033A000503F0110CF2E002070B504000E00150014
:1033B000FFF730FD0100200000F006F8A680E58050
:1033C000BFF35F8F70BDC046024B9C4661448900CD
:1033D000016070474000003410B50400FFF71AFD8B
:1033E00001002000FFF7F0FFFF232371BFF35F8F81
:1033F00010BDC04610B50400FFF70CFD0100200011
:10340000FFF7E2FFFF23A380BFF35F8F10BDC0462D
:1034100010B504000120FFF709FD044B9C466044F1
:1034200080002060BFF35F8F10BDC04640000034B5
:10343000034B9C46614489000160BFF35F8F704776
:103440004000003483680B4810B5844661446244F0
:10345000090112019A18591854684B6801209C42BE
:1034600001D802D00020C0B210BD12680B689A4289
:10347000F9D8F7E7FFFFFF0F0A4B1968EFF3108049
:1034800072B60A68002AFCD0BFF35F8F1B68BFF3D7
:103490005F8F00221A6080F3108840BF0020002157
:1034A0007047C0468C2E0020F8B557464E4645461C
:1034B000DE46E0B599460CAB1C780DAB1B780600D8
:1034C00090469A460768002C11D1BC7B002C42D054
:1034D00065003B682D19033D59194B78BB73002BD0
:1034E00000D1FB7300238B704B700B7004E0650000
:1034F0003B682D19033D5919B2682A4B9446424640
:10350000E3181B0163441A604A465A600A9A9A609B
:103510000B9ADA6000238B704B700B707B7B9B46A1
:10352000002B2BD022005946B8687B6898473A6830
:10353000002816D05B4658465B005B445519033B98
:10354000A870D118D35C002B00D06B705B460C7058
:103550007B73A34513D0F0BCBB46B246A946A04638
:10356000F8BD5B465B005B44033BD3189C7051196C
:10357000525D002A00D05A705B460B707C73424645
:103580004B46307D00F0B8FB051E06D05346002B9D
:1035900003D12100306800F0D3FD0E9B002BDAD060
:1035A0001D70D8E7FFFFFF0FF0B5DE4657464E46C9
:1035B00045460023E0B58BB00893674B8200D45892
:1035C00000239B46099000F00DFB626806000F0087
:1035D000EFF3108572B61368002BFCD0BFF35F8F3A
:1035E00023689C465B7B9946002B00D169E0A2686A
:1035F0005A4B90464B441B01984443461A685B68FB
:1036000010001900801BB941002900DC63E0099813
:1036100000F072FB002300229846002306920793D5
:1036200000239A466368BFF35F8F5A461A6085F39A
:1036300010885346002B08D10028C4D10BB0F0BC31
:10364000BB46B246A946A046F0BD089B41461802BB
:103650004B461843D047626806000F00EFF3108511
:1036600072B61368002BFCD0BFF35F8F002F50DBC6
:1036700033003B4302D02369002B61D12368D97BFF
:10368000002907D04A00521819688C4649466244FE
:10369000033A51709A7B002A01D14A469A734A46EE
:1036A000DA734B46E168013BCA5C0132CA545B469F
:1036B00023616368BFF35F8F5A461A6085F31088F1
:1036C00081E70023002298460023069207930023F7
:1036D00000209A46A6E7002902D1002800D096E7EC
:1036E0000021604600F0AAFC43461A685B68069217
:1036F000079343469B689A464346DB689846E368CF
:103700004B44013B1B7808931B02034323610020B9
:1037100088E72369002BB1D0069A079B921BBB4117
:10372000002B15DB59460491012103914946029172
:1037300041460191514620000091FFF7B5FEB6E7E2
:1037400000F050FA32003B0012184B41002BE9DA2E
:103750000122034B5242E5E76C2D0020FFFFFF0FD3
:10376000FFFFFF7F10B5144C6368002B04D00A21C3
:103770001248FFF729FE10BD2300114A10212068CE
:1037800000F076FB032000F021FA032000F01EFB7E
:1037900003200C4900F06AFAFFF73CFB0A4B9C46F9
:1037A00003232375D0231B061B6860446375074BF6
:1037B00080006060DC60DAE7BC1000208C2E002006
:1037C00045340010A9350010400000346C2D002055
:1037D00000487047BC100020F0B54E464546DE4616
:1037E0005746E0B585B0019310AB1B7806000393F4
:1037F00000239946984600927268EFF3108B72B6D8
:103800001368002BFCD0BFF35F8F3568AC7B002CB6
:103810003DD067002B683F19033FDB195A78AA7324
:10382000002A00D1EA73B168474A8C460098019992
:10383000A21812016244106051600E9991600F99B4
:10384000D16042469A705A701A706B7B9A46002B70
:1038500067D022001900A8686B6898472A6800287A
:1038600052D0534650465B005344D719033BB870BF
:10387000D118D35C002B00D07B7053460C706B7357
:1038800054454FD0F3681B19013B187800E0002025
:103890007368BFF35F8F42461A608BF31088002C69
:1038A0004FD04B46002B08D10002204305B0F0BC9E
:1038B000BB46B246A946A046F0BD039B002B3ED0B6
:1038C0000E9B00200F999847030004000D000B4346
:1038D00035D000290ADA009A019B121BAB410092F5
:1038E0000193002B0ADB039B994685E700F07AF9E8
:1038F00024184D4100940195002DF4DA0123134C56
:103900005B4200930194EEE753465B005344033B54
:10391000D3189C70D119D25D002A00D05A7053463A
:103920000B706C73307D009A019B00F0E5F98146C5
:103930000028A7D02100306800F002FCA2E7002098
:10394000B4E701204042B1E7FFFFFF0FFFFFFF7F19
:10395000407D7047F0B504000D0006267642F7174B
:10396000C64636196F4100B584B08F4214D811D0C5
:1039700000F038F932003B00121A8B41002B15DCA5
:10398000002B3ED02000290000F060F904B080BC7C
:10399000B846F0BD8642EBD90026002700F022F998
:1039A00032003B00121A8B41002BE9DD0023029309
:1039B0000193154B3200009314483B00FFF70CFFB6
:1039C0000028DFDB00239846BC46114A114F7B6A72
:1039D0009C4504D8B96A8E42D4D99C45D2D111688D
:1039E000EFF3108072B60B68002BFCD0BFF35F8F33
:1039F0001368BFF35F8F4146196080F3108820BFC2
:103A0000E5E7002ABED0D1E779340010BC100020D1
:103A10008C2E00200040054070B504000D0000F021
:103A2000E1F800196941002902DBFFF793FF70BD3F
:103A3000012001494042F8E7FFFFFF7FF0B5EFF3B7
:103A40000583CE46474680B505000C0085B0002BA7
:103A500012D02C4A0020536A9C4203D8926A01304B
:103A6000AA4204D305B0C0BCB946B046F0BDE01AC6
:103A7000421E9041C0B2F5E7234E02930193234BBF
:103A80000200009330000B00FFF7A6FE031EE0DDEE
:103A900020BF7168EFF3108772B60A68002AFCD065
:103AA000BFF35F8FDAB294463068427B62451DD027
:103AB000FF221A40510089460168914488464946D0
:103AC000414403398978002913D0F1681B0A8846DC
:103AD0004244013A1278DBB29A420FD07368BFF3C6
:103AE0005F8F00221A6087F31088B2E7FF221A4026
:103AF000EBE732699342F1D13161EFE7614600F0C3
:103B00001FFBEBE700400540BC100020793400109B
:103B1000F0B5EFF30582D6464F4646461000C0B5D5
:103B20001038EFF3108872B6214C2368002BFCD0BC
:103B3000BFF35F8F0123190081401E4D1F00696391
:103B4000AA461D4D29601D4D2E78AC463500C54056
:103B50002F402B4209D1BFF35F8F276088F3108875
:103B6000E0BCBA46B146A846F0BD5346144D5F6A64
:103B700083005D59AF420ED3124A8E439B58624672
:103B80001670BFF35F8F0022226088F31088002B2D
:103B9000E6D09847E4E70C4B92009C4662441368D9
:103BA0001360BFF35F8F0023236088F31088D7E78B
:103BB000280100D0004005403C700540CE2E00207A
:103BC000982E00202C230020D03F054010B5010086
:103BD000024A0348FFF7A0F810BDC046783F011025
:103BE000C42E0020034B596A0A00986A596A8A4217
:103BF000FAD170470040054070B504000D00124A2C
:103C0000536A1900966A536A8B42FAD13000190040
:103C100024184D41AB4211D80ED02B000A494A6AF4
:103C20009A42FCD307D1084A02E0516A994202D174
:103C3000916AA142F9D370BDA642EED901230124B5
:103C40006442E5175B42E9E700400540064A536AD3
:103C50009942FCD807D1044B02E05A6A914202D142
:103C60009A6A8242F9D370470040054070B504005B
:103C70000D00EFF3108672B61A4A1368002BFCD0C1
:103C8000BFF35F8F002D1BD02000FFF70FF91649FF
:103C900081420AD02000FFF711F901212000FFF72F
:103CA000D5F80123A340114A1360114BA400E5503D
:103CB000BFF35F8F00220B4B1A6086F3108870BD34
:103CC0000B4BA200D5500122A2400A4920000B78DC
:103CD00093430B700449FFF70FFA00212000FFF710
:103CE000B5F8E5E7280100D0113B00103860054029
:103CF0002C230020CE2E0020F0B54F46D646464657
:103D0000C0B507002C4C616A0D00A66A616AA94221
:103D1000FAD18B4208D805D00120E0BCBA46B146A2
:103D2000A846F0BDB242F7D9EFF3108A72B6234825
:103D300001680029FCD0BFF35F8F0125BD402049F9
:103D40001D4C8846097889462943C9B28C464146AC
:103D500060460870391D1B48890065630A51B90027
:103D60000B50216A0020294219D0616A0800A66A16
:103D7000616A8142FAD18B4219D801D1B24216D878
:103D8000CC4516D00C4B1F201D625D6301230740FC
:103D9000BB400D4A1E38136043464A461A70BFF3B3
:103DA0005F8F0022054B1A608AF31088B5E7002068
:103DB000F5E70120F3E7C04600400540280100D0A8
:103DC000CE2E0020982E002080E200E0EFF3108C31
:103DD00072B60A490B68002BFCD0BFF35F8F01233A
:103DE0008340074A0748136202789A430270BFF380
:103DF0005F8F00230B608CF310887047280100D080
:103E000000400540CE2E002070B5050014001600BD
:103E1000002915D00C00002A12D080686B689847E2
:103E2000296800280ED073009B196200033B121909
:103E3000CB18033A9C7088188A5C002A15D106704A
:103E4000200070BD63001B197200033B9219CB1850
:103E5000033A9E7088188A5C002A02D104703400EC
:103E6000EEE75A7004703400EAE75A700670E7E72C
:103E700030B583600023CCB24373013304734260D6
:103E80008373C4730D000068012C06D9421C0133F2
:103E9000DBB2137003329C42F9D1FF2129404B0061
:103EA0005918002340180338437030BDF8B5CE468A
:103EB000474606000C0080B5002907D04D00036876
:103EC0006D18033D5A195778002F04D12000C0BC4B
:103ED000B946B046F8BD7900C9190339884643444C
:103EE0005978894600215970517073683A00210051
:103EF000806898473368002814D042469A18947016
:103F000059195B5D002B00D053700F702700494694
:103F10003000FFF7CBFF390002003000FFF774FFDD
:103F20000400D3E7424641465D19AF709A185B5CC6
:103F3000002B00D06B701470E9E7C046F0B557460F
:103F40004546DE464E46E0B50D006B0001685B1944
:103F5000DF1E0400C85D83B00192CA19002850D04A
:103F600043001B18033BCB185E78B446002E1AD1D1
:103F7000019E002E42D0E67B002E04D073009B19D8
:103F8000CB18033B5D70A37B002B00D1A573E573B9
:103F900000282FD10023537003B0F0BCBB46B246BB
:103FA000A946A046F0BD72006244033A89184A78D7
:103FB000904600224A7091465A700100320020005B
:103FC000FFF722FF43468246002B07D05B002168A3
:103FD0004344033BCB185A78002A16D14246514637
:103FE0002000FFF711FF2168019BCA19002BC2D1E5
:103FF0000028CFD043001B18033BCB180021997039
:10400000C8E7019B002BB6D1C4E7500080180338E5
:104010000918487883464846487058704146200041
:10402000FFF7F2FE594680462000FFF73FFF41466A
:1040300002002000FFF7E8FE8046CFE7F0B55746C4
:104040004546DE464E46E0B583B00191457B04000F
:104050006B0000685B19DF1EC15DC219002952D0D8
:104060004B005B18033BC3185E78B446002E1CD18E
:10407000019E002E44D0E67B002E04D073009B19D5
:10408000C318033B5D70A37B002B00D1A573E573C0
:10409000002931D1002328005370617303B0F0BCB4
:1040A000BB46B246A946A046F0BD72006244033A40
:1040B0008018427890460022427091465A70200043
:1040C0003200FFF7A1FE43468246002B07D05B007B
:1040D00021684344033BCB185A78002A17D1424643
:1040E00051462000FFF790FE019B01002068C21995
:1040F000002BC0D10029CDD04B005B18033BC31867
:1041000000209870C6E7019B002BB4D1C2E7500095
:104110008018033809184878834648464870587014
:1041200041462000FFF770FE594680462000FFF709
:10413000BDFE414602002000FFF766FE8046CEE746
:1041400070B5040000292CD0437B8B422ED005682B
:1041500048004018033828188278002A21D05300DC
:104160009B18033BEA5CEE188A4202D11BE0002A4E
:1041700008D053009B18033BEB185A788A42F6D1BB
:1041800042785A7000230122837043702000FFF7A9
:10419000D5FE617B02002000FFF736FE6073012030
:1041A00000E0002070BD43783370EBE70122190076
:1041B000FFF7C4FE60730120F4E7C04630B50C2061
:1041C00083B000F0B9F9FEF789FD00280ED0994BB5
:1041D000994A1A605A609A60DA601A615A619A6163
:1041E000DA611A62954A5A6203B030BD944CA067F6
:1041F00000F0F6F90122934B1A60636C012BFCD19D
:104200000322914B1A608E4A936B012BFCD1013330
:1042100001218E4A8E480093043300F03DF90523B6
:104220008C4A009301218C4800F036F98B4B5A6878
:10423000FF2A02D8802252005A6080227D4C824B95
:1042400021691201854D1A60002907D0606901F0CB
:104250002DFE431C5800C0180338FDD2E0217F4BCF
:1042600002201A681140802252012A431160196805
:10427000484003210140116004219A681142FCD09A
:104280008022802192012A4309011160802252007C
:104290005A60734B2361734B5968FF2900D85A60E9
:1042A0000321684A6F4B116002399A681142FCD0B1
:1042B000E0201A681040802252011A4310601868EA
:1042C0004840032101400220116066498A6810427B
:1042D000FCD0802292011343802212011A608022B6
:1042E000614B52004A606361604B5968FF2900D8F6
:1042F0005A6080225E4BE16912015C4D1A60002910
:1043000007D0606901F0D2FD431C5800C018033883
:10431000FDD2E02255490B681A4080235B012B43F4
:104320001A60802380229B012B4312011A60802295
:10433000414B52004A60E3614E4B5968FF2900D857
:104340005A6080224C4B216A12014A4D1A600029A2
:1043500007D0606901F0AAFD431C5800C01803385B
:10436000FDD2E02243490B681A4080235B012B43B6
:104370001A60802380229B012B4312011A60802344
:1043800080225B004B602C4BD20223623B4B59686E
:10439000914200D25A608022394B616A1201374D36
:1043A0001A60002907D0606901F080FD431C5800A5
:1043B000C0180338FDD2E02230490B681A40802330
:1043C0005B012B431A60802380229B012B43120147
:1043D0001A608023DB024B60184B6362294B5A68DA
:1043E000FF2A02D8802252005A608022264BA169FF
:1043F0001201244D1A60002907D0606901F056FDB2
:10440000431C5800C0180338FDD2E0221D490B6838
:104410001A4080235B012B431A60802380229B017A
:104420002B4312011A6080235B004B600E4BA3618B
:10443000DAE6C04684240020006CDC021BB70000D2
:10444000008000403CB0004030B00040002F685970
:1044500000800240008C864700C00240308000404F
:10446000001BB7003C800040405973075480004057
:1044700054B000406080004060B000406C8000405C
:104480006CB000404880004048B00040014B8000C4
:10449000C058704784240020F8B5040021481D004E
:1044A00017000E0001F002FD0100380001F0FEFCD3
:1044B000069B29041B0319432368002B20DB1A4B9E
:1044C0001A4DE21853425A4180235B019C46120365
:1044D000174B62441A60174B1A601700AB689F4372
:1044E000FBD1C022231D92011A4321232660A06024
:1044F00013602368002BFCDA0823E1601360F8BD29
:104500003F2322681340B342D9D1A3681B051B0D7A
:104510008342D4D1EE22E368D20213408B42CED143
:10452000EDE7C046001BB7000040FDBF00C00040E3
:1045300000E0004000F000408023024A9B0003435B
:10454000D36270470080054010B5140080221B4BD9
:10455000D2051A6000281AD00123194A1843194BB2
:10456000DA61194A42401A62596298628022134BFA
:10457000D2051A601549164A1160E022D2041A6069
:10458000002C07D18022134B12061A6010BD0D4B70
:10459000D861EBE763011B1B9A00802312191201FB
:1045A0005B049A4200D30C4A0C4B1A60054B5A60CC
:1045B0008022084BD2051A60E8E7C04600B00540EB
:1045C000D3C007B0008005402D3FF84FFCFF01002D
:1045D0000820014000A00540FFFFFF005C2D0020E7
:1045E000AA23064A1B0113602F230549D360054BFC
:1045F00019605368002BFCDA7047C0460040024047
:1046000000B0FA00006002402C4B2D4A70B51A60D1
:104610002C4A2D4B2D491A6014008B689C43FBD10A
:104620002B4D2C4EB54208D2013E761BB60808CD64
:10463000984723000134B342F9D1FFF7BFFD264A62
:10464000214B1A60214A9368DB43DB01DD09002B13
:10465000F9D14022214B224C224E9A675A671A67A1
:10466000DA66B44208D223682000002B20D0083438
:10467000FEF7C0FEB442F6D31B4E1C4CC022A1680C
:10468000300002F005F9A660FEF7B6FBFEF766FE05
:10469000FFF768F8164C174EB44208D2013E361B9D
:1046A000B60808CC98472B0001359E42F9D170BD61
:1046B0000834FEF791FEB442D5D3DDE700E00040B8
:1046C000BFCDFBFEFE7F3C0000F0004000C000407C
:1046D0008C1B00209C1B0020FFFFFF0100F001400D
:1046E0007C1B00208C1B00200000002000ED00E05F
:1046F0009C1B0020A41B002000BEFDE7094A03000C
:104700001068002805D00849C3188B4207D81360E9
:10471000704706480449C31810608B42F7D901203E
:104720004042F5E72829002000000420D02E002078
:1047300010B5FFF7E1FFC04610B50C0082B01900BC
:10474000002A0AD0064B019200930200230005487C
:1047500001F00CFB0120FFF7CFFF034B1A00F2E73B
:104760009C3F0110AC3F0110904701100FB400B501
:10477000084883B002F0F0F9049B002B07D005A98C
:104780001800019101F012FB034802F0E5F9012045
:10479000FFF7B2FFDC3F01104C49011010B5014892
:1047A000FFF7E4FFEC3F01109A4200D288547047B3
:1047B0007047C046F8B557464E464546DE46E0B51A
:1047C00099460A9B07009A460D9B8846934615001A
:1047D0000B9E9B0710D10C9B9E420DD29D1B14007B
:1047E0000E005D4422004B46013431002020B847C2
:1047F000A542F7D1B0460B9E002E27D0444675192E
:104800005346AA1B013E985D21004B46B847002E37
:10481000F6D123002C0098460D9B9B070FD55B46D5
:10482000E51A0C9BAB420AD94646984622004B46F5
:10483000310020200135B8470134A845F6D82000C2
:10484000F0BCBB46B246A946A046F8BD2C00E3E743
:10485000F0B54F464646D646C0B584B098460EAB36
:104860001B78129F994694460D9C109B119EBA0787
:1048700025D4002E4BD19C4200D3BFE001223A4008
:1048800092461F2C00D9B8E00C9A551E302201E048
:10489000202C03D001342A55A342F9D85246002ACD
:1048A0000DD0A6420BD9202C44D00C9A551E302294
:1048B00001E0202C3ED001342A55B442F9D1FA0649
:1048C0004DD57A053FD4002C39D10F9B102B00D148
:1048D00079E00F9B022B00D18AE030230C9A01244F
:1048E00013704B46002B3FD02D230C9A13550134E7
:1048F0000C9B624600930397434602960194FFF790
:1049000059FF04B0E0BCBA46B146A846F0BD01224A
:1049100015003D40AA463A422FD04A46002A02D10D
:104920000C323A4200D0013E9C42BAD21F2CABD985
:10493000202E27D92024FA06DAD57A0503D4A342FB
:104940002DD0A6422BD00F9B102B32D0022B20D083
:10495000202CCDD030220C9B1B191A700134202C36
:10496000C6D04B46002BBFD17B070DD43B07BFD52C
:1049700020230C9A13550134BAE79C429FD21F2C76
:1049800000D881E720249AE72B230C9A1355013491
:10499000AEE7202CACD00C9B1B1901343AE0631E0F
:1049A000012C92D00F9A102A2AD0022A2FD01C0054
:1049B000D0E7BB060ED4202C9AD00C9B1A190134D8
:1049C00078231370C4E7BB060DD478230C9A012416
:1049D0001370BFE7202C00D18AE758220C9B1B19CB
:1049E0001A700134B4E758230C9A01241370B1E70C
:1049F0000C9A603301241370ACE7202400265EE794
:104A0000023CBA06E9D40C9A12191C00D8E70C9A99
:104A10009246534462221A709AE7C04610B50028A5
:104A200000D110BD02F04CF8FBE7C0460B0010B5FA
:104A3000002802D049681B68984710BDF0B5DE46D3
:104A400057464E464546E0B59BB09B46249B89465B
:104A50009846259B0B900C924046424619009A4678
:104A600001F0E5FC002800D0D8E001224046514684
:104A7000774B524201F0D6FC002800D0CEE0012254
:104A800040465146734B524201F0B6FC002800D01C
:104A9000C4E0002200234046514601F0ADFC00284E
:104AA00000D0B9E1424653460A9209938023289ADE
:104AB000DB001A400E92289A1A4201D1062326934F
:104AC0000A9A099B1600134300D0C7E0289B0025D3
:104AD00000261B0500D49BE100230D93269A0D9B15
:104AE0009A4200DC9FE1D01A431E26938023289A25
:104AF000DB001A430023002728920D93279B0024F4
:104B0000BB4200D9DC1B0223289A1A400E92289A35
:104B1000134203D07B427B415B421C400D9B002B28
:104B200007D00A9809992A00330001F004FC0A9082
:104B30000991002200234046514601F05DFC002807
:104B400005D0802000068446099961440991289A7D
:104B5000414B0B9D13400493269B0A9A0293099B99
:104B600003940092019349465B4628000C9A00F09A
:104B70008BF90400002F62D0289B220098061F2387
:104B8000C0179843631C984649465B466530A84762
:104B90000D9B0025DA179C18DB0F9A465440013F05
:104BA00001E0202D13D00AAA94461F23200063445D
:104BB0000A2101355E1901F079F930313170200098
:104BC0000A2101F073F926000400092EE9D8052313
:104BD0000693002304930A330393534605970B9FD0
:104BE000029312AB009342465B464946380001955A
:104BF000FFF72EFE0E9B0400002B20D00C9BC51A45
:104C0000279BAB421BD91E0022005B464946202051
:104C10000135B8470134AE42F6D810E0289B424631
:104C20000493279B49460393269B0B980293534674
:104C3000009201935B460C9A00F026F904002000D4
:104C40001BB0F0BCBB46B246A946A046F0BDC0466C
:104C5000FFFFEF7FFFFFEFFFFFF7FFFF734B099FA2
:104C60009C467800400D604401F0F4FB704A714BA3
:104C700001F07BFB704A714B01F058FB3B03704A1B
:104C80001B0B1A4304000D00300011006D4B002275
:104C900001F047FB6C4A6D4B01F067FB02000B0013
:104CA0002000290001F042FB01F0ECFB0D9001F027
:104CB000D1FB674A674B04000D0001F056FB002250
:104CC000654B01F033FB01F0DDFB644A0600644BE9
:104CD0002000290001F049FB040030000D000F9670
:104CE00001F0B8FB5F4A604B01F03FFB02000B0094
:104CF0002000290001F015FB02000B0006000F0048
:104D000001F033FB320004000D003B00300039009D
:104D100001F00CFB002210901191544B200029004F
:104D200001F009FB0022524B01F000FB02000B00D6
:104D30002000290001F0FFFA00224E4B01F0F6FAA4
:104D400002000B002000290001F0F5FA0D0080217F
:104D5000040032003B000020C90501F0E2FA020025
:104D60000B002000290001F0E1FA02000B0010986E
:104D7000119901F0E0FA0022314B01F0D7FA3E4BD5
:104D80000F9C9C4664440022230501F0EEFA0500C6
:104D90000E0002000B000A98099901F02DFB002873
:104DA0000AD00D9B2800013B31000D930022304BAF
:104DB00001F0C1FA05000E00C6270D992B006331E2
:104DC0008F42BF4128997F420437090500D495E6F8
:104DD000334300D182E6099C284A2100284B0A98D7
:104DE00001F018FB002808D000222100254B0A986A
:104DF00001F002FB002800D070E6269B002B00D1BA
:104E00007CE60E9B5A1E9341269AD31A269375E68A
:104E1000002304270D9371E643460A9380231B0663
:104E20005344099342E6002326935FE601FCFFFF0B
:104E3000FB799F501344D33FB3C8608B288AC63F89
:104E40000000F03F0000F83F61436F63A787D23F47
:104E500071A379094F930A400000E03F1655B5BB96
:104E6000B16B0240EF39FAFE422EE63F00002C40C3
:104E70000000244000001840FF0300002D431CEBFD
:104E8000E2361A3F80842E41F0B54E46DE46574644
:104E90004546E0B597B09946209E219F229B8346C8
:104EA000984607910C923B0032003000390001F027
:104EB000BEFA002800D0A9E1012230003900CA4B17
:104EC000524201F099FA002800D0E1E001223000BE
:104ED0003900C64B524201F0A5FA002800D0B7E0D5
:104EE000002230003900C24B01F09CFA002800D0AB
:104EF00099E0002230003900BE4B01F07DFA002815
:104F000000D090E0002200233000390001F074FA54
:104F1000002800D0B1E000230D93249B5B0501D451
:104F20000623984608AB9C461722002430234146AE
:104F3000624404E0013413550139202C01D00929C1
:104F4000F8D888463000390001F09CFA4346DA0070
:104F5000A94B05009B181A685B680892099301F039
:104F600079FA02000B003000390001F0DAF9089AF2
:104F7000099B01F0FAF90A900B9101F0A7FA824619
:104F800001F064FA02000B000A980B9901F0C9F9CC
:104F900000229A4B0A900B9101F044FA002800D1AC
:104FA000C0E001239C46E244504601F04FFA020063
:104FB0000B000898099901F025FA002802D0002377
:104FC0009A4601354346002B6AD008AB17269C460B
:104FD00008956644554614E001235B4243440A2188
:104FE00028009A4600F062FF0134303137193970D9
:104FF00028000A2100F05AFF092D00D8D0E0D04641
:105000000500202CE8D10EAB98460323249A1340C8
:10501000012B00D196E02023249A01930392239A36
:10502000434602921EE0249B58460493239B00961D
:105030000197039343460C9A029307994B46FFF757
:10504000FDFC17B0F0BCBB46B246A946A046F0BD79
:10505000249B5B070ED40322694B24990192039190
:1050600023990291009358464B460C9A0799FFF7F3
:10507000A1FBE6E70422634BEFE73B003200002090
:10508000002101F04EF9012306000F000D9344E7C3
:10509000249B0393239B0293042301935A4BE1E740
:1050A000280001F0D7F902000B003000390001F0B0
:1050B00038F9524B002206000F0001F09DF90EABAB
:1050C000984600280AD10022300039004B4B01F0ED
:1050D000A9F9002802D1EB0700D50135202C94D086
:1050E00008AA94461723280063440A2101341E1994
:1050F00000F0B4FE3031280031700A2100F0AEFE1D
:10510000051EEBD10323249A1340012B1BD0202C26
:1051100000D180E70D9B002B35D02D224146631C2A
:105120000A5579E700220A980B99344B01F064F98B
:10513000002800D046E75346002B51D101239C465E
:10514000E2443FE72024239B002BE0D00D9B002B63
:1051500003D1249A0C33134202D0239B013B2393A7
:10516000239BA342D3D908AB9C4617223023624429
:10517000202C00D14FE72399013413558C42C6D01F
:10518000202CF8D147E7249B5B0724D4249A2300E2
:10519000120700D440E72022414601330A553BE77D
:1051A0005746089D202C00D12DE722003021404693
:1051B000002F09D00132B154202A00D123E7D34374
:1051C0001B191B18002BF5D10EAB98462E23414618
:1051D000541C8B5482E72B224146631C0A551BE763
:1051E000DB0700D4EEE6A9E7FFFFEFFFFFFFEF7F4D
:1051F00065CDCD4165CDCDC1F04101100000E03F4E
:10520000F83F0110FC3F011008400110249B03935C
:10521000239B029303230193004B23E704400110D7
:10522000F0B5DE464E4657464546E0B59FB01C00F9
:10523000289B91460993C94AC94B8B4608901A602E
:10524000002900D118E2002320789A46002800D1D6
:105250001AE226001D005C460AE02A006F1C4B463D
:10526000089D2100A8473D0001363078002870D005
:105270002528F2D110239B46083B9A46043B9846CA
:10528000023B00219C46721C107816000300203B54
:10529000DBB2102B03D8B34F9B00FB589F46030093
:1052A000303B092B32D900230A932A2868D00023E7
:1052B00098462E283ED00300683BDBB2122B1CD848
:1052C000A94A9B00D3589F46012301321943DBE7CB
:1052D000634601321943D7E7434601321943D3E706
:1052E0005B4601321943CFE7534601321943CBE7FE
:1052F00080235B007078194301360300253BDBB245
:10530000532BAAD8994A9B00D3589F4600270300E5
:10531000B800C01901364000C018337830381A0080
:10532000303A0700092AF3D90A901800002398465A
:105330002E28C0D180237078DB0019430300303B56
:10534000721C092B00D8A1E12A2800D1B2E1160075
:10535000B1E7A346AA462C00D14503D801235B42FE
:105360004B449A464B46524659460020089DA84752
:1053700020001FB0F0BCBB46B246A946A046F0BD17
:10538000099B40CB0A96002E03DB50780993561CEC
:105390008DE72838014370420A9009935078561CD3
:1053A00085E7782800D1DFE1582800D14CE26F284A
:1053B00000D14FE3622801D100F030FC10230A0035
:1053C0009A430B92692801D000F0A9FC0A230C93A0
:1053D0004B0500D5D0E10B9A802311009B001940AA
:1053E0008B461A4200D0A1E2802311005B001940D5
:1053F0008A461A4200D0B6E313005B0600D5EDE200
:10540000130009991B0601D400F076FC08C91BB2F1
:10541000D8171A18424092B209919346DA0F1292A5
:10542000002B09D1802310220B99DB000B40914304
:105430000B91002B00D0E4E20B9A6123920600D579
:1054400041230EA91F228C46DBB262440A3B5F4611
:105450001395A34655460C9CB2460D9316000AE0E0
:105460003033DBB201357355A74200D2EDE2202D77
:1054700000D1EAE207002100380000F017FDCBB2AE
:105480000929EDD90D9A94466344DBB2EAE78023FB
:105490009B007078194301362FE77078682800D197
:1054A000CDE180230136194327E770786C2800D1BD
:1054B000BFE180235B00194301361EE7462800D177
:1054C0009BE10722099B0491073393430A9A190031
:1054D0000392424602920CC90898009201930991E6
:1054E0002A004B462100FFF7CFFC01360500BCE641
:1054F0002A006F1C4B46089D21002520A847013635
:105500003D00B2E68B0700D4ADE1099B2A009A4624
:105510006B1C9846534601CB21009A46089F4B4688
:10552000C0B2B8470A9B9C466544012B00D886E26E
:10553000089B4746B04626004C4699463A00230051
:10554000013731002020C847AF42F7D1A14653466A
:10555000340046460993013687E6C04621520010C2
:10556000342D00201040011054400110A0400110C3
:10557000099B04CB9B4643460992002B00D1C6E011
:1055800013789C46002B00D1BDE34346013B099AAA
:105590000133D0180A9F130001E0834203D05A78E8
:1055A0000133002AF9D1099A0A979B1A0B93802399
:1055B0000A00DB001A400C92194204D00B9B4345B1
:1055C00001D943460B9302231A000A400D920B4265
:1055D00000D187E16046002800D168E10C9B002BD8
:1055E00000D10DE1A844C246099B57465B1B984673
:1055F000089BB2462A0026004C46994609E0230043
:105600003100551CC8474346585D002800D126E1AB
:105610002A009742F3D1A1463D00340056460D9B27
:10562000002B00D043E15B46013609931DE6099B40
:105630001A0008CA9246002B48D0212211438B46FB
:105640000EA884461F216144099500220F27A44615
:105650000D0002E0202A0CD00B003C001C40200072
:105660003730092C00D807380132A85419090F2BFC
:10567000F0D86446099D32E0DC4B20780893002383
:105680009A46002800D0E4E5002465E6434606007B
:105690000A9F9800C0180132400080191678030054
:1056A00030003038303B0928F3D9300098461600D6
:1056B0000A9700E6099B023604CB9046D243404647
:1056C000D2171040804609933078F4E51022080084
:1056D000904311321043834600224905B0D55B4602
:1056E0000693082305934346049310230393002352
:1056F000029316AB019200932A004B4621000898B2
:10570000FFF7A6F85346050001360993ADE5137877
:105710009C46002B00D1F7E202235B4237E72023AF
:1057200002009A43472A04D180231B011943022314
:105730009843452801D1202319430722099B04914E
:10574000073393430A9A19000392424602920CC906
:1057500008980092019309912A004B462100FFF717
:105760006DF90136050080E510230C930C230A0027
:105770009A430B924B0503D501230B9A9A430B9244
:10578000692800D127E6642800D124E60B9A8023FB
:1057900011009B0019408B461A4200D066E180231D
:1057A00011005B0019408A461A4200D039E213000A
:1057B0005B0600D53CE113001B0600D4A6E2099B62
:1057C00004CB1204120C934609935B46002B00D0C5
:1057D0009AE10B9A1033110099430B91520500D4B2
:1057E00092E100239A460B9B06930A9B059343463E
:1057F00004930C9B039300230CE12023194360E6E0
:10580000099B0A9A5B1B98464B4691461F00B2467D
:105810002600089C2A003B003100A0474346013582
:10582000585D0028F6D14A463400B94656460A92D9
:10583000F5E6C0239B00B078194302365DE5C0232E
:10584000B0781943023658E50C230A009A43143302
:105850001A43103B0B920C934B058DD496E7A1464F
:1058600034005646DBE60A9A012A00D853E26B1E42
:105870009F18089BB04626004C4699462A002300F4
:10588000013531002020C847BD42F7D1A146340080
:105890004646099B3A0001CB210098467D1C4B46A9
:1058A000089FC0B2B847434601360993DDE40B9B1D
:1058B0000A9AA8469A4200D8B5E694466544ED1A7D
:1058C000089B4746B04626004C4699463A002300BE
:1058D000013731002020C847AF42F7D1A14634003C
:1058E0004646A0E60B9A0A99531C914200D814E24E
:1058F0004B199B1A1F00089BB24626004C4699463E
:105900002A002300013531002020C847BD42F7D1CD
:105910000A9BA14601330B93099B34001B78564622
:105920009C466046002800D058E67CE60722099B8A
:1059300007339343013294469C4462465F68099260
:105940001A68FB1710931193109811990300534094
:105950000E930B007B400F9394460E9A0F9B121AE6
:105960008B410E920F93FB0F6246129300233A4332
:105970009B463DD00B9A6123920600D5412300221D
:10598000DBB20EA90A3B8C4692460D9343461F326A
:1059900062441395159655460E9E0F9FA24690465B
:1059A0000C9C14930CE03032D2B2434601355A5568
:1059B000BB4500D18AE1202D00D18AE106000F000D
:1059C000220000233000390000F0AEFAD2B2092ADA
:1059D000E9D90D9B9C466244D2B2E6E7FF230999C0
:1059E00004C913401A00099117E5C046B1470010D9
:1059F0000B9A1033110099430B915205BAD500232D
:105A00009A460B9B06930A9B0593434604930C9B73
:105A10000393129B02935346019316AB2A00009303
:105A200021004B460898FEF713FF013605001CE4E1
:105A3000FF22099B02CB11408B460993C5E65346D2
:105A4000454609930136FFF710FC56465C46AA46C8
:105A5000139DD6E708230C930B910B99642800D073
:105A600084E60B9B5B0500D586E6B4E40722099B20
:105A700007339343013294469C44624609921A6864
:105A80005B6810009B4613005A46134307D10B9ADC
:105A90001033110099430B91520500D5A1E60B9AE2
:105AA0006123920600D541230022DBB20EA90A3BF6
:105AB0008C4692460D9343461F3262445F461295D0
:105AC000A34655460400B24690460C9E13930DE043
:105AD0003032D2B2434601355A550023BB4200D181
