:020000041000EA
:1000000000B5324B212058609868022188439860DF
:10001000D860186158612E4B002199600221596106
:100020000121F02299502B49196001219960352056
:1000300000F044F80222904214D00621196600F024
:1000400034F8196E01211966002018661A6600F04E
:100050002CF8196E196E196E052000F02FF8012189
:100060000842F9D1002199601B49196000215960AB
:100070001A491B48016001219960EB211966A021F2
:10008000196600F012F800219960164914480160C1
:100090000121996001BC002800D000471248134993
:1000A000086003C880F30888084703B5996A0420EC
:1000B0000142FBD001200142F8D103BD02B5186610
:1000C0001866FFF7F2FF186E186E02BD00000240BE
:1000D000000000180000070000035F00212200005C
:1000E000F4000018222000A00001001008ED00E03C
:1000F00000000000000000000000000074B24E7A12
:1001000000200420F7010010C3010010C5010010F9
:10011000C1010010C1010010C1010010C101001097
:10012000C1010010C1010010C1010010C701001081
:10013000C1010010C1010010C9010010CB01001065
:10014000CD010010CD010010CD010010CD01001037
:10015000CD010010CD010010CD010010CD01001027
:10016000CD010010CD010010CD010010CD01001017
:10017000CD010010CD010010CD010010CD01001007
:10018000CD010010CD010010CD010010CD010010F7
:10019000CD010010CD010010CD010010CD010010E7
:1001A000CD010010CD010010CD010010CD010010D7
:1001B000CD010010CD010010CD010010CD010010C7
:1001C00000BE00BE00BE00BE00BE00BEEFF3058054
:1001D000103800BEF2EB8871648901108489011027
:1001E0003402001090A31AE700201F49086006C8D7
:1001F00081F3088810471D48006800282FD10DA4FE
:100200000ECC002902D000F012F8F9E71849194A7B
:10021000002000E001C19142FCD1174988471749ED
:1002200088471749884700BEFDE701C901C29A42C5
:10023000FBD3704784890110C0000020A41B00205C
:1002400068A40110000004200000042068A401102C
:10025000001004200010042000000000704709482E
:1002600006F01EF90047000008ED00E0000000D095
:10027000A81B0020BC2E0020B14C0010A91E0010AD
:10028000D94D00105756000006005250ABB36053D2
:10029000B049011006005250861C0302D0490110DB
:1002A000060052505422A29DD84901100500525018
:1002B000DE65F46868A40110F8B5C0460448054B33
:1002C00010B5834203D0044B002B00D0984710BDDB
:1002D000A41B0020A41B00200000000006480749C2
:1002E000091A8B10C90FC91810B5491003D0044B57
:1002F000002B00D0984710BDA41B0020A41B002099
:100300000000000010B5074C2378002B09D1FFF73F
:10031000D5FF054B002B02D0044800E000BF0123AD
:10032000237010BD501E0020000000004845011041
:10033000054B10B5002B03D00449054800E000BF71
:10034000FFF7CCFF10BDC04600000000541E002087
:1003500048450110836B013383637047F8B506008D
:10036000040005000700164B3C36436630000BF0D6
:10037000FDFBA36C68359437002B04D001223000BC
:10038000616E0BF09BF990260E4B2800A3510BF0E9
:10039000EDFB636F002B04D001222800A1590BF064
:1003A0008DF9094B3800BB620BF0E0FBFB68002BBA
:1003B00005D0BC2301223800E1580BF07FF9F8BDCD
:1003C000484501105445011064450110FC23F0B567
:1003D000D6464F4646465B009846BD3BFF3B9A4695
:1003E0002C3399460400C0B5070005002C4E82440A
:1003F00046668044814450460BF0B8FBA36C3D3701
:10040000FF379435002B04D001225046616E0BF06B
:1004100055F990234846E6509A460BF0A7FB636FC8
:10042000002B05D0534601224846E1580BF046F90F
:100430002800AE620BF09AFBEB68002B05D0BC23C2
:1004400001222800E1580BF039F9882300229B0093
:10045000E3181A7040460BF089FB4346DB68002B1B
:1004600006D088239B0001224046E1580BF026F974
:10047000230001226533FF331A7038000BF076FB3E
:10048000FB68002B06D0B2235B0001223800E15844
:100490000BF014F9E0BCBA46B146A846F0BDC04620
:1004A000C04E0110892301229B0070B5C518283366
:1004B000C3181A70040028000BF058FBEB68002BDF
:1004C00006D093239B0001222800E1580BF0F6F898
:1004D00070BDC04670B5836B84B00293F023C358DF
:1004E00005000400986A06F077FC0C4E009001911C
:1004F000C03511210A4A300005F068FF2800AE62BD
:100500000BF034FBEB68002B05D0E8230122280018
:10051000E1580BF0D3F804B070BDC0463C24002075
:1005200074450110F0B5DE4657464E4645469423C5
:10053000FA22E0B59B00C558374952008946698DBB
:10054000E93B8A428941FF3B9A46593383B0FF33E6
:1005500049429846EB8D0191A98D9A429B418A426E
:1005600092415242040006000700112182445B427E
:1005700000928044294A484605F028FF90234A46C5
:100580005046E2509B460BF0F1FA636F693695379F
:10059000FF36FF37002B05D05B4601225046E1585D
:1005A0000BF08CF81E4806F031FE4246EB8D4046BB
:1005B00013850BF0DBFA4346DB68002B06D0F423EF
:1005C0005B0001224046E1580BF078F8AB8D380013
:1005D0003B850BF0CBFAFB68002B06D0DE235B00DB
:1005E00001223800E1580BF069F86B8D300033853B
:1005F0000BF0BCFAF368002B06D0C8235B00012285
:100600003000E1580BF05AF803B0F0BCBB46B246DC
:10061000A946A046F0BDC0465024002088450110E0
:1006200098450110D72070B5C00009F053FE022193
:10063000EC234942C1500533FF33C1508933FF33A6
:10064000C2189C235B00C250C2182C3BC250962299
:1006500000238824520083502C3AFF3A6400025150
:100660009134FF3401519621C9004418A621890014
:10067000445044182C394450203143501C394250C6
:10068000534C4031435008394450C1240431405048
:1006900048314350043143504E49A40001510434C1
:1006A00003514D4D10340251083C055102250434CC
:1006B000005148340351043403510C3401510434C3
:1006C000035110340551454D083C055103250434B0
:1006D000005148340351043403510C3401510434A3
:1006E0000351103405513E4D083C05510425043496
:1006F00000513C4C0351043403513B4C0151043430
:10070000035110340551394D083C05510525384C2D
:100710000051384C035104340351374C0151043417
:10072000035110340551354D083C0551344C0051EE
:10073000344C035104340351334C0151A221C900FC
:100740004350324943500539FF3944181131FF31C4
:10075000445044182E494450043142502D494254CB
:100760002D494350C42189004418B421C900445084
:1007700044182A49445004314250294942542949D5
:100780004350FD39FF394418BD21C9004450441875
:10079000254944500431425024494254244943508D
:1007A000244942542449435024494254AA218900EF
:1007B0004418D621C9004450214943500C314418F3
:1007C00020494450043142501F4A835470BDC046F2
:1007D0005D030010A045011055030010D504001062
:1007E000CD0300102C0400003C040000A504001000
:1007F0004C04000094040000A4040000250500102F
:10080000B4040000FC0400000C0500004C050000CE
:100810002C0500003405000094050000740500005C
:100820007C050000DC050000BC050000C4050000DC
:10083000240600000C060000640600004C060000C0
:10084000A4060000840600008C0600002823426AEB
:10085000D25C083BC2547047202370B5C35C0400CF
:10086000002B3BD12123C35C002B1CD00DF08AFA56
:100870002000B43003001C490B435B071CD18B1CC8
:10088000C31A042B18D94A880B8812041A43CB8840
:100890008D881B042B43026043600B892838038634
:1008A0000BF064F970BD0DF035FA2000B430030090
:1008B0000E490B435B07E2D0B42320000A888C303A
:1008C000E2524A880233E2528A880233E252CA88EC
:1008D0000233E2520A890233E252E1E70DF048F9AD
:1008E00021230122E254DDE73C2D0020242D0020AD
:1008F0008A2070B5800009F0EDFC03002C334362C0
:100900003433836584230065D022C05000239C24A7
:100910001E498350083A8150043280504832835037
:100920001B49043283500C32815004328350283AE0
:10093000FF3A184D64000251083C0551043400513F
:1009400048340351043403510C340151C8210400CC
:10095000490043503C314350C8340C314450441892
:100960002C39445004314250183942507C314350A4
:100970000100882331319B00FF31C150C1182C3B4D
:10098000C1500433C250183BC25070BD4D08001016
:10099000A0450110590800108823F0B5076AC55812
:1009A0003433C4583B7D466D83B0002B0CD1337D6E
:1009B000002B1AD12B7D002B28D1237D002B36D183
:1009C0000CF048FE03B0F0BD00238022002100207F
:1009D000009310330CF090FD012300220021B86A2F
:1009E0000CF064FB337D002BE4D000238022102127
:1009F0000020009310330CF07FFD01231022002112
:100A0000B06A0CF053FB2B7D002BD6D00023802244
:100A100020210020009310330CF06EFD01232022D2
:100A20000021A86A0CF042FB237D002BC8D00023D4
:100A3000802200933021002010330CF05DFD012353
:100A400030220021A06A0CF031FBB9E7084B10B549
:100A50001A78002A00D010BD01321A700CF0ACFADE
:100A600004480CF0A3FA00200CF0B2FAF3E7C046F9
:100A7000AC2E002074670110CA2070B5800009F008
:100A800029FC0300283303623433436502008023CA
:100A9000C0649032C0500833C2502C33C05034323E
:100AA0000833C2502C33C050F8220023B024304900
:100AB0008350083A815004328050483283502D4987
:100AC000043283500C32815004328350503AFF3A42
:100AD000294D64000251083C05510434005148344A
:100AE0000351043403510C340151DC21040049004A
:100AF0004350F034483144500C3943500C314418C1
:100B00002C39445004314250043143546031435035
:100B1000A83C0C31445045182C39455004318225ED
:100B200042500421AD0041517C3543510C354451B4
:100B300046192C3D465104354251183D41517C35F2
:100B400043510C35445146192C3D46510435425110
:100B5000183D41517C354351C8239B00C450C418F3
:100B60002C3BC4500433C250183BC15070BDC0462A
:100B70004D0A0010A045011099090010A5239B0003
:100B800070B50500C61803000122D135F933FF33D3
:100B9000FF351A70040028000AF0E8FFEB68002B0C
:100BA00006D0FC235B0001222800E1580AF086FDF4
:100BB000AF2301229B00E3181A7030000AF0D6FF21
:100BC000F368002B06D0AF239B0001223000E158D0
:100BD0000AF074FD70BDC046BC239B0070B5C518FB
:100BE000AC3BC35804009B6A2800AB620AF0BEFF0E
:100BF000EB68002B06D0C6239B0001222800E15899
:100C00000AF05CFD70BDC046C7239B0070B5C618D6
:100C10002C33C518C36A0400B36230000AF0A6FF83
:100C2000F368002B06D0D1239B0001223000E1584D
:100C30000AF044FD616BE06A06F053F8A8622800F0
:100C40000AF094FFEB68002B06D0DC239B00012206
:100C50002800E1580AF032FD70BDC046C7239B0052
:100C600070B5C5182C33C6189C231B01C3188361AB
:100C700001230377C36A0400AB6228000AF076FF01
:100C8000EB68002B06D0D1239B0001222800E158FD
:100C90000AF014FD616BE06A06F023F8B0623000E0
:100CA0000AF064FFF368002B06D0DC239B000122CE
:100CB0003000E1580AF002FD70BDC046C7239B001A
:100CC000F0B5C7182C33C6189C23C6461B01C318A1
:100CD00000B5836101230377836A0400191C006A4D
:100CE000984605F0EAFF184905F0E7FF4146051C64
:100CF000E062606A05F0E1FF134905F0DEFF206362
:100D00003800BD620AF032FFFB68002B06D0D12309
:100D10009B0001223800E1580AF0D0FC616BE06AC8
:100D200005F0DFFFB06230000AF020FFF368002B0F
:100D300006D0DC239B0001223000E1580AF0BEFC03
:100D400080BCB846F0BDC0460000C842FE23F0B5E6
:100D5000C64606005B00C758C833C518BB6A00B555
:100D60000400AB6228000AF001FFEB68A136FF36F1
:100D7000002B06D0BB239B0001222800E1580AF07B
:100D80009DFCA06809F0D8F805F0FCFE00221B4B82
:100D900005F025FE05F0FEFE051CB86A05F0E8FF2B
:100DA000A16B05F084FFE16B8046281C05F07FFFF6
:100DB000011C404605F081FF06F00EF8104A114B69
:100DC00005F027FE104B002205F009FE05F0E2FEBB
:100DD000B06230000AF0CAFEF368002B06D0E423AC
:100DE0005B0001223000E1580AF068FCB86AE56354
:100DF00005F0BEFFA06380BCB846F0BD65CDCD4117
:100E0000C3718BB665BCB93F00807640094B10B505
:100E1000C3188361012303770400806809F08CF80C
:100E200005F0B0FE0022044B05F0D9FD05F0B2FE3E
:100E3000606610BDD809000065CDCD4170B50400D5
:100E4000806809F079F805F09DFE00221E4B05F040
:100E5000C6FD05F09FFE616E05F029FF216B05F0D0
:100E600040FF011CE06A05F022FF0021051C05F08F
:100E700075FF002800D170BDC7239B00E618300025
:100E8000B5620AF073FEF368002B06D0D1239B00F5
:100E900001223000E1580AF011FCD223606B9B0064
:100EA000291CE61805F01DFFB06230000AF05EFE56
:100EB000F368002BDFD0DC239B0001223000E158D7
:100EC0000AF0FCFBD7E7C04665CDCD419C23F0B5C9
:100ED000C258DE4657464E4645463433C158343331
:100EE0000400C358C720E0B5800081462C308246FC
:100EF000206C9BB01792189119931390128DA144F6
:100F00001092821A9346626CA2441492098D521A6E
:100F10000E92A26C159116921B8D1193D31A0F93FA
:100F20005423E55A5D452BDA584605F021FF0E9B08
:100F30009D422BDAE76C0F9B011C381C9D4200DBA5
:100F40002CE105F0CEFE236D061C98465B46D817B3
:100F5000C01AC00FDB0FC01A0E9B584305F008FFE4
:100F6000414605F0BEFE051C0F9805F001FF1290EA
:100F70000E9805F0FDFE414605F0B3FE804625E0E3
:100F800000239B460E9B00209D42D3DB0F9B9D427E
:100F900000DAEDE0E76C391C05F0A3FE236D0021BB
:100FA000061C181C984605F09CFE002105F099FED1
:100FB0000021051C404605F094FE002105F091FE3D
:100FC00000231293002380460F930E93291C301C9C
:100FD00005F070FE1299061C381C05F082FE414691
:100FE00005F068FEA36D051C9846109B434500DB89
:100FF000F7E04246D01A05F0BBFE391C05F071FE41
:101000007B4905F06EFE011C301C05F053FE061CEA
:10101000119B434500DBDEE04246D01A05F0A8FEF6
:10102000391C05F05EFE724905F05BFE011C281CB0
:1010300005F040FE051C216EE06A05F052FE7300CB
:101040005B0812936B005B08191C9846071C05F09F
:1010500085FE431E984112990D90381C05F07EFEC6
:10106000431E98410C90381C05F0B6FE0A900B9177
:10107000281C05F0B1FE08900991301C05F0ACFE6B
:101080000F9B0690079105930E9B149A04935B4661
:101090000393119B13990293159B56480193109B40
:1010A0000093169B06F006FAE36A216E181C9B4615
:1010B00005F017FE071C011C129805F041FE0028E0
:1010C0000AD1301C002105F049FE3E1C002803D146
:1010D00080231B069C4666444046391C05F030FEC2
:1010E00000280AD1281C002105F038FE3D1C0028EC
:1010F00003D180231B069C466544311C584605F0ED
:10110000D9FD4B46986248460AF030FD4B46DB68F5
:10111000002B06D0D1239B0001224846E1580AF05B
:10112000CDFA616BE06A05F0DCFD291C05F0C2FD1B
:101130005346986250460AF019FD5346DB68002B6F
:1011400006D0DC239B0001225046E1580AF0B6FA93
:10115000179B1B8D2364189B1B8D6364199B1B8D30
:10116000A3641BB0F0BCBB46B246A946A046F0BD86
:10117000E76C011C381C05F0B4FD0021061C206D35
:1011800005F0AFFD002105F0ACFD051C0F9805F042
:10119000EFFD0023A84612900E9317E705F0A1FD7E
:1011A000236D061C98465B46D817C01AC00FDB0F8C
:1011B000C01A0E9B584305F0DBFD414605F091FD3A
:1011C0000021051C404605F08CFD002312930023EE
:1011D00080460F93FAE6E06D834200DC2BE7C01AED
:1011E0001CE7E06D834200DC12E7C01A03E7C0464B
:1011F000CDCCCC3DA4450110F0B59F20C6460001E2
:1012000000B509F067F80300703383660200942389
:101210000221C050A4320833C2502C33C0503432A3
:101220000833C2502C33C05034320833C2502C33F0
:10123000C05034320833C2502C33C05034320833DB
:10124000C2502C33C0504942F833C1505133FF33A0
:10125000C218A13BFF3BC250C2182C3BC2508D228A
:1012600000239200862483500122A4000251892485
:10127000E4000519C13CFF3C055105192C3C055102
:10128000203403511C3C025160340151B4340151EB
:10129000E021A54C8900435008394450F52404311D
:1012A00040504831435004314350A049A4000151FB
:1012B00004340351103402519D4D083C055104344F
:1012C00000519C4C8A250351043403519A4C9B4E87
:1012D0000151043403510224ED004451083D4651AC
:1012E0000326974D04274051964DA046435104359F
:1012F0004351954D03344151043543511035465106
:10130000924E083D4651A226914DF6004051914D16
:10131000435104354351904D4151904D45198551EC
:10132000103687518E4F083E87518E4EAF27805121
:101330008D4EFF008351043683518C4E81519C2683
:1013400036018619C6511037C451894C083FC45123
:101350000624884FC051884FC3510437C351874F6B
:10136000C1510437C6511037C451854C083FC45190
:10137000844F854CC051854FC3510437C351844FAE
:10138000C1510437C651CB260727F6008751814F3C
:10139000083E8751804ED6278051804EFF008351F2
:1013A000043683517E4E815106190824C6511037E8
:1013B000C4517C4C083FC4517B4F4446C0517B4FC5
:1013C000C3510437C3517A4FC151E321C90046507C
:1013D00078494350DE2189004618EC21C900465067
:1013E0004618754946500431425074494254744974
:1013F00043504D39FF3946185931FF314650461890
:1014000070494650043142506F494254A321C900EB
:101410004618FE21C90046506C4943500C3146180D
:101420006B494650043142506A4943546A4943501B
:101430009621C900461869494650461868494650E1
:101440000431425018394250664988264350B02131
:10145000C9004118360181518719634E8751634E87
:101460008251183E8451624E8351624E81518719D8
:10147000614E875104368251604E00278451604E80
:1014800083510C3681515F49861946505E490026CA
:101490004250183944505D494350BD21C900441899
:1014A0005B49445044185B494450043142505A4906
:1014B00042505A494350D721C90044189A21090182
:1014C00044504418564944505649574C42501839D4
:1014D0004250020021490C324250544944500431D8
:1014E00041180E604F605249524C435408314250EB
:1014F00051494450514941180E604F609D210901E6
:101500004354214942504E4A4E4981500432821878
:10151000166057604C4A835405614561C36083611E
:10152000037780BCB846F0BD7D0B0010A0450110CC
:101530004D0D00102C0400003C040000D90B0010DD
:101540004C04000094040000A4040000BD0C001032
:10155000B4040000FC0400000C050000A809000011
:10156000090C00101C050000640500007405000053
:10157000CD0E001084050000CC050000DC05000045
:101580000D0E0010EC050000D80900003406000024
:10159000440600003D0E0010540600009C060000AA
:1015A000AC0600005D0C0010BC0600000407000043
:1015B0001407000054070000340700003C07000037
:1015C0009C0700007C07000084070000E40700007F
:1015D000C4070000CC0700002C08000038080000F9
:1015E0000C080000740800005408000058080000AF
:1015F000BC080000C80800009C0800008808000023
:1016000004090000E4080000E80800004C0900009C
:10161000580900002C090000180900009409000076
:10162000740900007809000048450110AC09000069
:10163000B80900001C460110C4090000C8090000D8
:10164000DC09000024460110E8090000036C9B6AD5
:1016500083637047436F9B6AC3637047F0B54E4620
:10166000DE4657464546A823E0B5C6583433C3582E
:10167000070083B08068994608F05AFCBA6AFB6A92
:1016800004000D00002B11DD20002900801A994173
:10169000002915DC002900D17AE0BC62FD6203B0AC
:1016A000F0BCBB46B246A946A046F0BD002BF4D123
:1016B000002AF2D020002900801A99410029E9DD92
:1016C00088235B009A46B36ABA449B4605F07AFBCE
:1016D000324905F006FB05F07FFB5B463A6B009054
:1016E0000191981A05F00AFA2D4A2E4B05F091F94E
:1016F00000222D4B05F073F9009A019B05F06FF95C
:1017000005F048FA4B46796B9B6A061C581A9946B5
:1017100005F0F4F9224A234B05F07BF90022224B15
:1017200005F05DF9009A019B05F059F905F032FAD0
:101730005B463B634B46311C7B638046B86B05F0D0
:10174000B6FA5346986250460AF010FA5346DB68E0
:10175000002B06D09C235B0001225046F95809F06B
:10176000ADFF3E00F86B414605F0A1FA4136FF3669
:10177000B06230000AF0FAF9F368002B00D18CE770
:10178000B4235B0001223000F95809F097FF84E789
:10179000064B984200D880E792E7C0465F708930D8
:1017A000C3718BB665BCB93F008076403F420F00E5
:1017B000F22070B5800008F08DFD0300483303640B
:1017C000343343670200A023C066B032C0500833F0
:1017D000C2502C33C05034320833C2509E222C33B6
:1017E000C0500B3BFF3B52008350303283500023EC
:1017F000F02436490C328350083A8150043280502C
:10180000483283503249043283500C3281500432C2
:101810008350D03AFF3A2F4D64000251083C0551E5
:1018200002250434005148340351043403510C346C
:1018300001510434035110340551274D083C055122
:101840000434005148340351043403510C34015121
:10185000A82104008900435071343C314350FF34C7
:101860000C31445044182C3944500431AA244250BD
:1018700005000421A4000151D9357C340351FF3502
:101880000C34055105192C3C0551DE250434025158
:10189000183C01517C3403512D3CFF3C0419AD0030
:1018A000445146192C3D465104354251183D415191
:1018B0007C354351F0239B00C450C4182C3BC450CA
:1018C0000433C250183BC15070BDC0464D160010C5
:1018D000A0450110551600105D160010036A70B582
:1018E0009C6A0021201C05F031FAFE21431E98411C
:1018F0006400640805008905201C05F02FFA002803
:1019000005D00748290001220CF036FB70BD0549BF
:10191000201C05F0E6F905F04DFA80B2F2E7C0466A
:10192000FF0F000000F07F45436D70B59C6A0021F9
:10193000201C05F00BFAFE21431E98416400640848
:1019400005008905201C05F009FA002805D0074884
:10195000290000220CF010FB70BD0549201C05F089
:10196000C0F905F027FA80B2F2E7C046FF0F000089
:1019700000F07F4510B501200CF0D0FA10BDC04634
:10198000A62070B5800008F0A5FC03002833036290
:10199000343343658023C0649022C0500023F82470
:1019A0002D498350083A8150043280504832835088
:1019B0002A49043283500C32815004328350284D1E
:1019C000E73A0251083C05510225043400514834DD
:1019D0000351043403510C340151043403511034C5
:1019E0000551204D083C0551043400514834035141
:1019F000043403510C340151DC21040049004350EC
:101A00008834483144500C3943500C3144182C3937
:101A100044500431425004314354113C603143502E
:101A2000FF3C0C31445044182C394450043182247A
:101A300042500421A40001517C3403510400A4232A
:101A400059349B00FF34C450C4182C3BC450043399
:101A5000C250183BC15070BD75190010A04501104F
:101A6000DD18001029190010F0B5C646C36A04003D
:101A70009E6A816A00B50700301C05F01BF98823B7
:101A8000216A051CA062301C984605F02AF9616A9B
:101A9000061C281C05F025F9011C301C05F00AF96C
:101AA00043466037E05038000AF060F8E36E002BE0
:101AB00005D0434601223800E15809F0FFFD80BC03
:101AC000B846F0BDA02010B5400008F003FC0300AC
:101AD0003433C36298220023104980658350083A4A
:101AE000815004328050483283500D490432835073
:101AF0000C328150043283503C328350020039331F
:101B0000FF339032C250C2182C3BC2500122043322
:101B1000C250183B0332C25010BDC046691A0010B3
:101B2000A0450110F0B5C6460500060080211F4AF9
:101B3000040000B5D06884350006000F543601302B
:101B4000490053680B42FCD10138176A0028F8D1CC
:101B50008021D068154A0004000F7F4201308900BF
:101B600053680B42FCD10138536A0028F8D15B421C
:101B70003000E767984609F0F9FF236E002B04D088
:101B800001223000E16F09F099FD43462800AB6265
:101B900009F0ECFFEB68002B05D0AC2301222800F4
:101BA000E15809F08BFD80BCB846F0BD0000205024
:101BB000F0B5D6464F4646460025C0B53D4C8AB0E6
:101BC00020003D4907F00CFE0223200008220021DE
:101BD000009507F00DFF00220121082001F09CFB79
:101BE00000220121092001F097FB8026F827C0235D
:101BF00076021B037F0202A9102206A89A460493CC
:101C000002960397059505F09DF92C4B06A9102225
:101C100002A89946079305F095F98023DB02059306
:101C2000274B2000039380231B0398460493002234
:101C300002AB002107F034FF012223682000134388
:101C400023600121022300950B3207F0D1FE002210
:101C500001210C2001F060FB002201210D2001F088
:101C60005BFB534602A9102206A804930296039731
:101C7000059505F067F94B4606A9102202A80793BF
:101C800005F060F9C023DB0205930E4B002203939D
:101C9000434601210493200002AB07F001FF02221A
:101CA0002368134323600AB0E0BCBA46B146A84695
:101CB000F0BDC04600002050304601108077010082
:101CC000807701088077010C862070B5800008F0CD
:101CD00001FB030028330362C0220023942420491F
:101CE000C0648350083A8150043280504832835097
:101CF0001C49043283500C32815004328350183A0C
:101D0000FF3A194D64000251083C0551043400515A
:101D100048340351043403510C340151C0210400F0
:101D200049004350B834483144500C3911344350C1
:101D3000FF3420394450043142500431435460315F
:101D400043500100842321319B00FF31C150C11851
:101D50002C3BC1500433C250183BC25070BDC0462A
:101D6000B11B0010A0450110251B0010F0B50700A5
:101D700004000600050087B003A919480BF060FDB8
:101D8000039B5437E367380009F0F0FE236E843676
:101D9000B435002B04D001223800E16F09F08EFC2D
:101DA000049B3000B362019309F0E0FEF368002B5E
:101DB00005D0AC2301223000E15809F07FFC059BDF
:101DC0002800AB6209F0D2FEEB68002B05D0DC23C3
:101DD00001222800E15809F071FC07B0F0BDC046AF
:101DE000182D0020054B10B51A78002A00D010BD20
:101DF000013203481A700BF0D9FCF8E7AD2E002031
:101E0000182D0020922070B5800008F063FA0300BE
:101E100028330362F0220023AC242049C06483509D
:101E2000083A815004328050483283501C490432B1
:101E300083500C32815004328350483AFF3A194D96
:101E400064000251083C05510434005148340351E8
:101E5000043403510C340151D8210400490043508B
:101E6000E834483144500C3911344350FF342039A0
:101E70004450043142500431435460314350010016
:101E8000902351319B00FF31C150C1182C3BC150F0
:101E90000433C250183BC25070BDC046E51D00104F
:101EA000A04501106D1D001010B50021002009F0A3
:101EB00097FF10BD7047C0460A4B01211A680023E6
:101EC00000B589B0069305930491029301931A31EA
:101ED00006330391009300210133034809F054FDB8
:101EE00009B000BD98210020C01C0020014B0360F8
:101EF00001207047C01C0020F0B5DE4657464E4614
:101F00004546E0B5A5B0FEF78DFBFE4B07008360AC
:101F10009A460423FC4A01213A637B63AA239B006F
:101F2000FE18534600255B6EF848F94C386279621A
:101F3000BC62FD621E600023BB63A723DB00FE18AA
:101F40000022002332607360A823DB00FE18534692
:101F500034607560DE6DA3230025DB00FC180022D1
:101F600000233460EB4C3D512C343C1922606360FB
:101F7000B124E400A046B84443460025E64C0022C4
:101F80001C605D60AC240025E4003C197460E34CE7
:101F900000233D512C343C1920606160BA24E400D8
:101FA0003C1922606360B524E4003C19B460DC4C49
:101FB000D54B3A512C343C1920606160C321042474
:101FC000C90079180B604C60BE21C9007918F16016
:101FD000D449D5487A5024317C18032120606160AF
:101FE000CB210424C84BC90079180B604C60C62172
:101FF000C9007B18BA2180250024842033619126F2
:10200000CA4B89002D06FA507B1868311C605D6050
:102010007B1868311C605D60C0007B181C605D60CF
:10202000F6003B181C605D60BB191C605D609E2360
:10203000DB00FB181C605D60FEF75AFC8046010067
:102040005046022688600123C02076420E508E62E0
:10205000CE650B840931FF310C604D608C66CD6616
:102060006831FEF709FD514681608C214662866524
:1020700002004650C02016505046436E1000F03209
:102080005A6003003133FF331C605D609C66DD667F
:102090000290FFF7B1F85146E623816002215B0010
:1020A0004942C1502D3BFF3BC166C1503433C15042
:1020B0003433C1503433C15034330600C150A322ED
:1020C0005046D200436EB2189A60994B0A2233628E
:1020D000984B002173628023DB05B362FE239B05CE
:1020E00073630023B363F3639B46934B9348F3649A
:1020F00033655423F252AF23B4225B00B265F3651B
:102100008F4B00223366E823DB00F31819605A6016
:10211000E9230021DB00F31818605960E4225346DC
:102120000020DB6DD200B2185A61864A0021B050FF
:1021300000202C32B21810605160F2220021824837
:10214000D200B21810605160ED22D200B2189A612C
:102150007E4BF2187E4BF250EE229200B31868329A
:102160001C605D60B31868321C605D60B318683233
:102170001C605D60B31868321C605D60B318683223
:102180001C605D60B31868321C605D60B318683213
:102190001C605D60B31868321C605D60B318524605
:1021A0001C605D60D36F32005B680C321A60FFF711
:1021B000FFFA53468360FC239B050362FA23022146
:1021C0009B054362AC22E023494241648167815010
:1021D000C150002200238262C36202634363020093
:1021E0005946B132FF328163C16314605560862263
:1021F000814692004A4414605560A02292004A44ED
:1022000014605560FFF7BCFB5246826002225242C6
:102210004262826552460100536E8830D8600B00DE
:10222000C8339C66DD661C605D6068339C66DD6655
:102230000391FFF747FC0100504688604846006A5A
:102240000222086248468C23406A52424862CA50C1
:102250000B005846D0330A6388621C605D600091B1
:10226000FFF730FC514681604946096A022201624B
:102270004946496A524241628C2103004250594604
:10228000D033026381621C605D600190FFF71CFD2A
:1022900052468260022280215242425030314250E6
:1022A00042625246536E0200B8321A6140321460E4
:1022B00055609466D56683466832FFF7A3FD5246A3
:1022C0008260022280235242C2500100B02060335B
:1022D0000A50CA504A625246536E0A00E8325A61A6
:1022E0000B002933FF331C605D609C66DD66B42300
:1022F00003259B00FD503A000491B7250421AD3819
:1023000028E0C046C01C002000C817A800F2052A1B
:1023100000E1F5055405000000CA9A3B9C05000049
:10232000E40500002C06000000D6117E6C060000BB
:1023300052B83A41CDCCCC3F52499D398096980055
:10234000CDCCCC3D5C070000404B4C00D8090000D0
:10235000A407000007F0A0FFAD0078513A00042167
:10236000032007F099FF043D78513A0004215034CE
:10237000032007F091FFA4462C34BC446546B523E6
:10238000A4469B00BC442C34F85009950560654672
:10239000A446BC446446E8224560846008950A94DB
:1023A0000025012464339200FD500421BC5001201B
:1023B0003A00EB2507F070FFAD0078513A00042198
:1023C000012007F069FF043D78513A000421012003
:1023D00007F062FFE92189007850D4218C468122E0
:1023E000BC4461460523D20001600B91BB5004211F
:1023F0003A00052007F050FFFE4D3A0078510421C5
:10240000052007F049FF043D78513A0004210520DA
:1024100007F042FFF84BA821F85083239B009C460D
:102420004900BC4463468C46BC446146099A03603B
:1024300082600C930A9A089B4160C36002618E20FF
:10244000C0003C503A000D910120042107F024FF08
:10245000EA4A0421B8503A00012007F01DFF8F21FD
:10246000C90078503A000421012007F015FFE44B21
:102470003A00F8508E239B009C46BC4463460360A0
:102480009B200E930423C0003B500421042007F03E
:1024900003FFDC4B3A00F8500421042007F0FCFE57
:1024A0009C21C9008A4678503A000421042007F094
:1024B000F3FE089BD449002278500360BE235B00E2
:1024C0009C46D421BC446346490043600F938C462C
:1024D000EA23BC445B0061469C46BC446346816081
:1024E000C36011934046F023C2506833C450424643
:1024F00010910120042107F0CFFE42466434FF34DE
:1025000010510421012007F0C7FE4246043C10513F
:102510000421012007F0C0FE4246043C1051BC3C9F
:102520004444046012948C240023029864000351F4
:1025300068340351E8237F3CFF3C9B00F450320099
:102540000421022007F0A8FEEB229200B0500421E3
:102550003200022007F0A0FEEA229200B0500421CF
:102560003200022007F098FEF22252009446E9233E
:10257000B44462469B00F05013920260AA2292007B
:102580009446B4446246426014928122D200B45010
:1025900004213200022007F07FFE964A0421B05049
:1025A0003200022007F078FE320070510421022030
:1025B00007F072FE904ADA21B050353AFF3A94465D
:1025C0004900B44462468C460260B44415928E229F
:1025D00061460123D20041601691B35004213200BC
:1025E000012007F059FE854A0421B0503200012035
:1025F00007F052FE8F21C9007050320004210120E3
:1026000007F04AFE7E4A0421B050713AFF3A9446E0
:10261000B4446246026017929B22D200B45002205A
:10262000320007F039FE774A0421B0503200022010
:1026300007F032FE53463200F0500421022007F02A
:102640002BFECC239B009C466F4AB4442C33B050E5
:1026500062469C46B4446146E533FF330260416004
:102660000592F450320006910220042107F014FE76
:10267000664B3200F0500421022007F00DFEA92322
:10268000DB00F05032000421022007F005FE604B11
:10269000059A0699F0506433026041603200F450AC
:1026A0000421022007F0F8FD5A4B3200F0500421BB
:1026B000022007F0F1FDB623DB00F05032000421C8
:1026C000022007F0E9FD059A534B0699F05002608D
:1026D000002264334160F2506833F4503200042128
:1026E000022007F0D9FD4D4B3200F05004210220AA
:1026F00007F0D2FDD023DB00F0503200042102208D
:1027000007F0CAFD464B0599F050069B01604360F7
:10271000DC23DB00F45032000421022007F0BCFD72
:10272000404B3200F0500421022007F0B5FDDD23BC
:10273000DB00F05032000421022007F0ADFD3A4BDF
:102740000599F050069B01604360CC234846002267
:102750005B00C2506833C2506833C4504A460421FB
:10276000022007F099FD9D234A469B00D05004218A
:10277000022007F091FD9C234A469B00D050042183
:10278000022007F089FD9B234A469B00D050AA21D6
:102790009222490052004A444944026041608C2020
:1027A00000231991B0211892039A400053501350FE
:1027B0006830135000980133083143500200B43997
:1027C000012007F069FDC423009A0421D0500120A4
:1027D00007F062FDC021009A5050BC39012007F07B
:1027E0005BFDBC21009A01235050B8217432026075
:1027F0001CE0C046140400000C0400007C0400002F
:1028000074040000E4040000DC0400004C05000037
:1028100044050000B4050000AC050000840600007B
:102820007C060000EC060000E406000001981A9205
:1028300043500200B439012007F02EFDC423019A51
:102840000421D050012007F027FDC021019B5850E2
:102850001A00BC39012007F01FFDBC21019B5A461C
:1028600058507433036059461B93E02000230B50EB
:102870004933FF33CC500220042107F00DFDAA2379
:102880005C465B00E0505A460421022007F004FD3C
:10289000A8235B00E0505A460421022007F0FCFC0C
:1028A000A6235B00E05098245C4404601C946824D8
:1028B00000215C44446003201D94049C3C3BE15097
:1028C00068332200E050043107F0E6FCC2235B00CD
:1028D000E05022000421032007F0DEFC2300C02486
:1028E000640018511A00042103201C0007F0D4FCD6
:1028F000BE235B00E0502300210068330360012207
:102900001E93983104948823C834416084608C20DD
:102910002094B824FA653F66FA502C333F50FA50A1
:10292000543030333F513A50FF503533FF33FA5073
:102930007C300433FF503A5004303F502C33E430A5
:102940003A50FF50C03BFA500433FF502833FA503E
:102950000433FF502833FA5094300433FF503B586F
:102960001F911A6004213A00012007F095FCB7235B
:102970009B00FB5801221860B62080003B580421C0
:102980005A6001203A0007F087FCB7239B00FB58F0
:1029900001225860B62080003B5804219A60012033
:1029A0003A0007F079FCB7239B00FB580299986026
:1029B000239082208C461A68800060441060219029
:1029C00094205B688000604418600790A620239ADA
:1029D0008000604410602290EA20012280003B5871
:1029E00004211A6001203A0007F056FCEB239B00FB
:1029F000FB5802991860B8238C4601229B0063445F
:102A000003607B5904211A6001203A0007F044FC5E
:102A10000122FE4B0421FB58B73C18607B59012072
:102A20005A603A0007F038FC0122F84B0421FB58A9
:102A300058607B5901209A603A0007F02DFC012272
:102A4000F24B0421FB5898607B590120DA603A0070
:102A500007F022FC0122ED4B0421FB58D8607B5982
:102A600001201A613A0007F017FC4146E74B993103
:102A7000FB58FF311A6818611160FF215A68C900BC
:102A8000711811609A682199DB6811600799012219
:102A90001960229B042103608F20C0003B58012055
:102AA0001A603A0007F0F8FBD94A0421BB5801220A
:102AB00018604346E133FF33036050463B58012022
:102AC0001A603A0007F0E8FBD24A0421BB58012201
:102AD000186050463B5801205A603A0007F0DCFB72
:102AE000CC4A0421BB580122586050463B58012073
:102AF0009A603A0007F0D0FBC64A0421BB58012275
:102B0000986050463B580120DA603A0007F0C4FB59
:102B1000C04A0799BB581A68D860116084215A6866
:102B2000090171181160BC499B6872181A608D23E5
:102B30001B01F318036001224346AC201A500430F5
:102B40001B50B0301B5860381A6004214246FF38D1
:102B500007F0A2FBB22342465B00D3580421186061
:102B600096239B00FB180360F823EA205B00F450D7
:102B70000433F650C033F4500433F6502C33F45081
:102B80000433F6502833F4500433F6502833F4500D
:102B90000433F6502833F4500433F650AD3BFF3B7A
:102BA000F45080000433F650335832001C6001208A
:102BB00007F072FBEB229200B35804211860EA2060
:102BC0008000335832005C60012007F065FBEB2287
:102BD0009200B3585A465860D1321B68FF321A60CF
:102BE000049B80229C469200735962440260042137
:102BF00032001C60012007F04FFB844B3200F35879
:102C000004211860735901205C6007F045FB7F4D7B
:102C100032007359DC3D58601B684D441D603D0017
:102C2000F83505608F20C0003358E0251C60042172
:102C3000012007F031FB764AAD00B3584D441860CF
:102C400005605046335832001C600421012007F013
:102C500023FB704D320073590421186050463358DD
:102C600001205C6007F018FBAA227359F53D5860FB
:102C700092001B68FF3D4D444A441A600560A9203C
:102C8000C000335807921C6032000421012007F075
:102C900003FB624B32009A46F35804211860A920C6
:102CA000C000335801205C6007F0F6FA5346F35831
:102CB000079A58601B6804211A600560B620C0009E
:102CC000335832001C60012007F0E6FA544B320002
:102CD0009A46F35804211860B620C00033580120EA
:102CE0005C6007F0D9FA5346F358079A58601B689E
:102CF00004211A600560D020C000335832001C60E7
:102D0000012007F0C9FA474B32009A46F3580421D4
:102D10001860D020C000335801205C6007F0BCFA76
:102D20005346F358079A58601B6804211A600560DF
:102D3000DD20C000335832001C60012007F0ACFADF
:102D4000394B32009A46F35804211860DD20C00048
:102D5000335801205C6007F09FFA5346F358079AF6
:102D600058601B6804211A609823056048465B0080
:102D7000C4500433C050B0204D4640002C500430A5
:102D80002D500D30FF3082464846554643594A463D
:102D90001C60012007F080FA4B4604355B594A4617
:102DA000186048465346C35804215C60012007F070
:102DB00073FA4B465B59009D58602A001B68F83235
:102DC0001A60019A0421F832026080228420AC50FB
:102DD0002D503C302B582A00C42582461C60BF3839
:102DE00007F05AFA009A039953598C4618608223C7
:102DF0009B00634403608022842301980421845053
:102E0000C05053468246C35802000FE0140400002D
:102E10007C040000E4040000880800004C05000069
:102E2000B405000084060000EC0600001C600120D0
:102E300007F032FA039953468C4601935B598D355E
:102E4000FF35654418600560A4235846A8254467EB
:102E50008067C4504051A8204000824658465346DF
:102E6000C3585A461C600421012007F015FAAA2312
:102E70005A465B00D358042118605346D3580120AA
:102E80005C6007F009FA5B465434FF341B59AC34DC
:102E900058601B68321948341A60331903603800CF
:102EA000D823049CF930FF30A4676451E450030038
:102EB00040464362892080003B1840468365942346
:102EC0008C309B00F85038003C30030002980362BD
:102ED0002C3343652C331A008823C2503B00C03387
:102EE0001A00BC23C25038009C233D30FF30B0662E
:102EF0002C30F0502C303433F0502C303433F05030
:102F00003000A130FF30143BF850C7208000331848
:102F100048460364D2208000331848464367B120F6
:102F20008000331848464351BC2080003218DC230F
:102F30004846C250009A11301300FF30D062039A05
:102F400060333030136203000198C3620300300025
:102F5000D1306033FF30536503005846036254306C
:102F600003009120800033505846FE2384305B00DC
:102F7000F050A520800033182362C74B1A9D5B6B6D
:102F800018989D601B9D1860DD601998059D58601C
:102F90001D621398069D18615D6214981D9D58610D
:102FA0009D6215981C9D9861DD6217981E9DD861E1
:102FB0001D631F99089D59631D640B9D20999D6495
:102FC0000C9D9963DD6409990D9DD9631D650A996E
:102FD0000E9D59645D6512990F9D59669D65169900
:102FE000109D9966DD65B021119D01241D660025A7
:102FF000012289007B1808391C605D607B18A74995
:10300000524219605A60CA2189007B1808391C6035
:103010005D607B180121A248494218605960E42391
:103020009B00FB181C605D60E22301219D489B0012
:10303000FB18494218605960FE239B00FB18FC21D5
:103040001C605D600123984A890079185B420A6020
:103050004B608C238B21DB00FB18C9001C605D607A
:103060007B180121914849421860596099239822A0
:10307000DB00FB18D2001C605D60944601238C4A83
:1030800067445B423A607B6043464246E0331C60E3
:103090005D604132083B186059601C675D67FF3214
:1030A00001231000029F834A5B42026043603B00A1
:1030B00001220933FF331C605D6078497B1CFF33BC
:1030C000524219605A6001227B496937FF375242E8
:1030D0001C675D6739607A60E4270122BF00F3193D
:1030E0006E49083F1C605D605242F31970371960E9
:1030F0005A60F3191C605D600123704A083FF7199C
:103100005B423A607B608C270122FF00F31965491E
:10311000083F1C605D605242F319703719605A60B5
:10312000F3190121674661481C605D604942F3194B
:1031300018605960012101227037F3195D48083F7A
:103140001C605D604942F319703718605960F319CB
:103150005949083F1C605D605242F319703719608D
:103160005A60F3191C605D600123554A083FF1194C
:103170005B4270370A604B60F3191C605D6001238D
:10318000504A083FF1195B4270370A604B60F319EF
:103190001C605D600123083FF0194B4A4F465B42BB
:1031A0000260436001238937484AFF373C607D60F5
:1031B0005B42083F3A607B600123454A70373C60C0
:1031C0007D605B42083F3A607B609627BF004F44BA
:1031D0003C607D609427012303983E4ABF004F4422
:1031E0005B423A607B60030001272C4EA0331C60D9
:1031F0005D607F42083B1E605F601C675D67012366
:10320000354A411CFF315B420A604B6003000200FB
:103210007133FF3369321C605D60FF32012310009F
:103220002E4A5B4202604360009A1300A8331C6080
:103230005D60A03201231000294A5B4202604360B6
:1032400001980100A030A8310C604D60026043601D
:103250005B460122D0331C605D601149083B049835
:103260001E605F601C675D6752429966DA6668336C
:10327000431CFF3361301C605D60FF30083B1E6003
:103280005F601C675D670160426025B0F0BCBB46B3
:10329000B246A946A046F0BDC01C00200000FFFFBA
:1032A0000100FFFF0300FFFF0400FFFF0500FFFF19
:1032B0000700FFFF0600FFFF0800FFFF0200FFFFFF
:1032C0000900FFFF0A00FFFF0B00FFFF0C00FFFFDC
:1032D0000D00FFFF0E00FFFF1000FFFF1100FFFFBA
:1032E0000F00FFFF7047C046094A83009446402202
:1032F000634410B51C68C0006240C02414408022A2
:10330000520113431C60034B9C466044416010BD56
:1033100004C00140004001400A4B80009C46042349
:103320006044002901D00C230821002A00D10B00A1
:10333000026853400C221A4080235B01184302604C
:103340007047C04604C001400123D02283401206CA
:1033500093629361094A830094464022634419684A
:10336000C0004A40C021114080225201134319601D
:10337000034B9C46052360444360704704C00140F2
:1033800000400140024B18688007C00F7047C046DC
:1033900000C00640EFF3108072B6034A1368002B9A
:1033A000FCD0BFF35F8F70472C0100D0BFF35F8F5D
:1033B0000022024B1A6080F3108870472C0100D065
:1033C00070B5EFF3108C72B60D4D2B68002BFCD04E
:1033D000BFF35F8F0724CB08C618C05C01230C40E5
:1033E000A3401C000440034207D103433370BFF3E2
:1033F0005F8F2C608CF3108870BD100001F00AFD07
:103400002C0100D0F8B54746CE46884680B5EFF38C
:10341000108C72B6214D2C68002CFCD0BFF35F8F4E
:103420009A422CD8D4080727055D061901241740B5
:10343000BC402C421FD007210127894609E0D4084F
:10344000055D06194C4639001440A1400C00294284
:1034500011D001329342F2D201204042BFF35F8F7C
:1034600000220E4B1A608CF3108800280FDBC0BCC2
:10347000B946B046F8BD2C4310003470EEE7BFF3F8
:103480005F8F00232B608CF310880120404243465D
:10349000002BECD0089801F0BDFCC0462C0100D0F8
:1034A0000021044B044ABFF35F8F02C39342FAD159
:1034B0007047C046000100D0800100D0044A107857
:1034C000431CDBB2172B00D9102313707047C04682
:1034D0007010002000B5054B83B001000093182246
:1034E0001F230348FFF78EFF03B000BD684601109D
:1034F0006C24002001238340002904D0034A136078
:10350000034A13607047034A1360FBE780E200E060
:1035100000E100E080E100E001238340014A136004
:103520007047C04600E200E0084B10309B68800006
:10353000C358002B07D0064A00209B1A2F229A421C
:103540004041C0B270470020FCE7C04600ED00E0FB
:1035500074100020024B10309B688000C0587047E8
:1035600000ED00E070B50D00EFF3108672B60F4A63
:103570001368002BFCD0BFF35F8F0D4B10309B689E
:1035800084001B590B4A934203D09D4201D001F0A5
:1035900059FC074B9B681D51BFF35F8FBFF35F8FD3
:1035A0000022024B1A6086F3108870BD240100D0FF
:1035B00000ED00E0CD010010F0B557464E46DE4666
:1035C0004546E0B585B0060002911700EFF3108B79
:1035D00072B6674A1368002BFCD0BFF35F8F0025DB
:1035E000644B5D579A46002D00DAA4E06B00624CF4
:1035F00003935B199B009846A146C1444B46524633
:103600009B79103613705D4BB2009B6801929958FC
:103610000B1B2F2B34D95A4B994200D0A4E0039BAB
:10362000584A9C46584B6544AD00635343460233A9
:103630006519E418554B0121043B1B1B1B055B0D51
:1036400013436B80524BEF71AB80FF23AB71029B36
:10365000AB604B460B431900484B019A9B6899504D
:10366000BFF35F8FBFF35F8F0022414B1A608BF374
:10367000108805B0F0BCBB46B246A946A046F0BDD6
:1036800001200A008243D379BB422FD845464E46DB
:10369000130040491B1B5B415943090D3A4B6353CF
:1036A0003A4B02356519043B5B1B1B05354D5B0D21
:1036B0002B4373800426B446E0444444131F1B1B71
:1036C0004C46A17102991B05A16049465B0D2B4335
:1036D000A380314BE77101431360BDE75800C01868
:1036E00080002018C679BE422BD902000623D3568B
:1036F000002BF3DA101D82462848804604267642C5
:10370000B446E14450464E46361A3005400D8246D6
:1037100056461C48957106439680039A9446654424
:103720001D4AAD00641922604246A371029BA2802B
:10373000E771A36090E701F085FB002553465D57D4
:1037400054E7101D82469088400500158446404687
:10375000D444664604302018301AE0260005400D97
:10376000360230438046C9E701F06CFB57E7C0469C
:10377000240100D0B42E00207410002000ED00E0E1
:10378000CD01001000E0FFFF00A1FFFFA41000200A
:1037900001BDFFFFAAAA00000148804701BD00004B
:1037A000F0B5DE4657464E464546E0B50C0083B0C0
:1037B000EFF3108972B6584A1368002BFCD0BFF3A0
:1037C0005F8F564B9A68030010339F00D559544AB7
:1037D0009046954232D0A54243D0524EAA1B2F2A82
:1037E0002CD801228240924651464F4A126811401D
:1037F000019151464D4A1160BFF35F8FEFF305828F
:103800009346002A33D101232A009A4393689C42AD
:1038100008D177E04B005B189B00F3189968A14230
:103820002AD01A00062151560029F3DA019B002BF9
:1038300019D052463E4B1A603B4B1A60374B9B687F
:10384000DD51BFF35F8FBFF35F8F0022324B1A60F1
:1038500089F3108803B0F0BCBB46B246A946A04627
:10386000F0BD1500EAE75246304B1A60E6E7934296
:10387000C9D001F0E7FAC6E706215956002921DB35
:103880004A005018800034188046A0689860E0799B
:10389000D871062020569871002824DBA488F01ADD
:1038A0006405241544440019E0240005400D240259
:1038B0002043988052181F4B9200B6181A7819703E
:1038C000B271B3E7594600290FD1FF3191711A49FE
:1038D000918018490A789A71184A9B1B5B415A4398
:1038E000120D0A70A2E71648E3E7164A1649D21AE3
:1038F000083A5002400D01439980144952080A4386
:10390000DA8093E70621515613000029B8DA5A46A7
:10391000002AEAD14546DCE7240100D000ED00E0B2
:10392000CD0100107410002000E100E080E100E013
:1039300080E200E0B42E002001BDFFFFAAAA000033
:1039400001BD0000AE10002000F0FFFF00F8FFFFF7
:1039500070B5EFF3058101240443EFF3108C72B6C8
:10396000214A1368002BFCD0BFF35F8F1F4B05006B
:103970001F4AED1A6D416A43120D1E4D8900AE6853
:1039800052B27658A6421CD00621595691421CD0FC
:1039900012215956914222D01E215956914220D0CF
:1039A0002A2159560324914210D0134B19781A70CA
:1039B0008171BFF35F8F00220B4B1A608CF310886C
:1039C00070BDAB680D4C5C50EFE700246100091935
:1039D00089005B18FF21997109499980E5E7012465
:1039E000F4E70224F2E7C046240100D0741000205E
:1039F000AAAA000000ED00E0B42E0020CD010010C6
:103A000001BDFFFF054B064A1360064A1360536071
:103A10009360D360136153619361704780808080AD
:103A200000E400E004E400E000B5074B83B00100CF
:103A30000093002205230548FFF7E4FC002801DB82
:103A40001F23181A03B000BD84460110BB2E0020AE
:103A500070B504000E001500FFF730FD01002000D6
:103A600000F006F8A680E580BFF35F8F70BDC0460A
:103A7000024B9C466144890001607047400000345D
:103A800010B50400FFF71AFD01002000FFF7F0FF5A
:103A9000FF232371BFF35F8F10BDC04610B5040034
:103AA000FFF70CFD01002000FFF7E2FFFF23A380DA
:103AB000BFF35F8F10BDC04610B504000120FFF7B3
:103AC00009FD044B9C46604480002060BFF35F8F7B
:103AD00010BDC04640000034034B9C466144890041
:103AE0000160BFF35F8F70474000003483680B486C
:103AF00010B5844661446244090112019A185918AC
:103B000054684B6801209C4201D802D00020C0B20A
:103B100010BD12680B689A42F9D8F7E7FFFFFF0F54
:103B20000A4B1968EFF3108072B60A68002AFCD0BD
:103B3000BFF35F8F1B68BFF35F8F00221A6080F3B3
:103B4000108840BF002000217047C046782E00201A
:103B5000F8B557464E464546DE46E0B599460CABAD
:103B60001C780DAB1B78060090469A460768002C1F
:103B700011D1BC7B002C42D065003B682D19033D60
:103B800059194B78BB73002B00D1FB7300238B704A
:103B90004B700B7004E065003B682D19033D59190B
:103BA000B2682A4B94464246E3181B0163441A60EC
:103BB0004A465A600A9A9A600B9ADA6000238B7020
:103BC0004B700B707B7B9B46002B2BD02200594601
:103BD000B8687B6898473A68002816D05B46584614
:103BE0005B005B445519033BA870D118D35C002BD4
:103BF00000D06B705B460C707B73A34513D0F0BC98
:103C0000BB46B246A946A046F8BD5B465B005B4496
:103C1000033BD3189C705119525D002A00D05A7092
:103C20005B460B707C7342464B46307D00F0B8FB20
:103C3000051E06D05346002B03D12100306800F04A
:103C4000D3FD0E9B002BDAD01D70D8E7FFFFFF0FCE
:103C5000F0B5DE4657464E4645460023E0B58BB0EC
:103C60000893674B8200D45800239B46099000F0CC
:103C70000DFB626806000F00EFF3108572B6136843
:103C8000002BFCD0BFF35F8F23689C465B7B99467B
:103C9000002B00D169E0A2685A4B90464B441B01AF
:103CA000984443461A685B6810001900801BB941AC
:103CB000002900DC63E0099800F072FB0023002279
:103CC000984600230692079300239A466368BFF341
:103CD0005F8F5A461A6085F310885346002B08D12F
:103CE0000028C4D10BB0F0BCBB46B246A946A046E2
:103CF000F0BD089B414618024B461843D047626806
:103D000006000F00EFF3108572B61368002BFCD08D
:103D1000BFF35F8F002F50DB33003B4302D023699A
:103D2000002B61D12368D97B002907D04A005218A3
:103D300019688C4649466244033A51709A7B002ABE
:103D400001D14A469A734A46DA734B46E168013B11
:103D5000CA5C0132CA545B4623616368BFF35F8F5C
:103D60005A461A6085F3108881E70023002298469E
:103D7000002306920793002300209A46A6E7002915
:103D800002D1002800D096E70021604600F0AAFC8E
:103D900043461A685B680692079343469B689A46B7
:103DA0004346DB689846E3684B44013B1B78089325
:103DB0001B0203432361002088E72369002BB1D055
:103DC000069A079B921BBB41002B15DB59460491B9
:103DD000012103914946029141460191514620003B
:103DE0000091FFF7B5FEB6E700F050FA32003B0055
:103DF00012184B41002BE9DA0122034B5242E5E74E
:103E0000582D0020FFFFFF0FFFFFFF7F10B5144C60
:103E10006368002B04D00A211248FFF729FE10BD69
:103E20002300114A1021206800F076FB032000F0E7
:103E300021FA032000F01EFB03200C4900F06AFA6F
:103E4000FFF73CFB0A4B9C4603232375D0231B063C
:103E50001B6860446375074B80006060DC60DAE7D4
:103E6000BC100020782E0020ED3A0010513C0010CC
:103E700040000034582D002000487047BC1000203E
:103E8000F0B54E464546DE465746E0B585B001934F
:103E900010AB1B78060003930023994698460092C6
:103EA0007268EFF3108B72B61368002BFCD0BFF36F
:103EB0005F8F3568AC7B002C3DD067002B683F19C5
:103EC000033FDB195A78AA73002A00D1EA73B1685C
:103ED000474A8C4600980199A2181201624410606A
:103EE00051600E9991600F99D16042469A705A7054
:103EF0001A706B7B9A46002B67D022001900A868C5
:103F00006B6898472A68002852D0534650465B0099
:103F10005344D719033BB870D118D35C002B00D0A1
:103F20007B7053460C706B7354454FD0F3681B196C
:103F3000013B187800E000207368BFF35F8F4246B2
:103F40001A608BF31088002C4FD04B46002B08D101
:103F50000002204305B0F0BCBB46B246A946A046CD
:103F6000F0BD039B002B3ED00E9B00200F9998477D
:103F7000030004000D000B4335D000290ADA009A33
:103F8000019B121BAB4100920193002B0ADB039BA8
:103F9000994685E700F07AF924184D41009401957F
:103FA000002DF4DA0123134C5B4200930194EEE7F9
:103FB00053465B005344033BD3189C70D119D25D28
:103FC000002A00D05A7053460B706C73307D009AF3
:103FD000019B00F0E5F981460028A7D02100306858
:103FE00000F002FCA2E70020B4E701204042B1E764
:103FF000FFFFFF0FFFFFFF7F407D7047F0B504001C
:104000000D0006267642F717C64636196F4100B5F1
:1040100084B08F4214D811D000F038F932003B0040
:10402000121A8B41002B15DC002B3ED020002900FA
:1040300000F060F904B080BCB846F0BD8642EBD910
:104040000026002700F022F932003B00121A8B41B3
:10405000002BE9DD002302930193154B32000093FE
:1040600014483B00FFF70CFF0028DFDB00239846D5
:10407000BC46114A114F7B6A9C4504D8B96A8E42EE
:10408000D4D99C45D2D11168EFF3108072B60B6879
:10409000002BFCD0BFF35F8F1368BFF35F8F4146E7
:1040A000196080F3108820BFE5E7002ABED0D1E771
:1040B000213B0010BC100020782E0020004005405D
:1040C00070B504000D0000F0E1F800196941002905
:1040D00002DBFFF793FF70BD012001494042F8E782
:1040E000FFFFFF7FF0B5EFF30583CE46474680B56F
:1040F00005000C0085B0002B12D02C4A0020536A1A
:104100009C4203D8926A0130AA4204D305B0C0BCD5
:10411000B946B046F0BDE01A421E9041C0B2F5E784
:10412000234E02930193234B0200009330000B00B7
:10413000FFF7A6FE031EE0DD20BF7168EFF31087D6
:1041400072B60A68002AFCD0BFF35F8FDAB29446D9
:104150003068427B62451DD0FF221A4051008946DB
:1041600001689144884649464144033989780029C9
:1041700013D0F1681B0A88464244013A1278DBB238
:104180009A420FD07368BFF35F8F00221A6087F3E3
:104190001088B2E7FF221A40EBE732699342F1D16F
:1041A0003161EFE7614600F01FFBEBE7004005409F
:1041B000BC100020213B0010F0B5EFF30582D6467D
:1041C0004F4646461000C0B51038EFF3108872B65F
:1041D000214C2368002BFCD0BFF35F8F0123190013
:1041E00081401E4D1F006963AA461D4D29601D4D6B
:1041F0002E78AC463500C5402F402B4209D1BFF385
:104200005F8F276088F31088E0BCBA46B146A846A5
:10421000F0BD5346144D5F6A83005D59AF420ED323
:10422000124A8E439B5862461670BFF35F8F00227E
:10423000226088F31088002BE6D09847E4E70C4B07
:1042400092009C46624413681360BFF35F8F0023A3
:10425000236088F31088D7E7280100D0004005408C
:104260003C700540BA2E0020842E00202C23002014
:10427000D03F054010B50100024A0348FFF7A0F8FF
:1042800010BDC046A8460110B02E0020034B596A4D
:104290000A00986A596A8A42FAD17047004005407C
:1042A00070B504000D00124A536A1900966A536AE9
:1042B0008B42FAD13000190024184D41AB4211D87D
:1042C0000ED02B000A494A6A9A42FCD307D1084A09
:1042D00002E0516A994202D1916AA142F9D370BDBC
:1042E000A642EED9012301246442E5175B42E9E7C7
:1042F00000400540064A536A9942FCD807D1044B56
:1043000002E05A6A914202D19A6A8242F9D3704716
:104310000040054070B504000D00EFF3108672B642
:104320001A4A1368002BFCD0BFF35F8F002D1BD0FF
:104330002000FFF70FF9164981420AD02000FFF74D
:1043400011F901212000FFF7D5F80123A340114AFC
:104350001360114BA400E550BFF35F8F00220B4B9D
:104360001A6086F3108870BD0B4BA200D550012255
:10437000A2400A4920000B7893430B700449FFF7D1
:104380000FFA00212000FFF7B5F8E5E7280100D07B
:10439000B9410010386005402C230020BA2E0020BF
:1043A000F0B54F46D6464646C0B507002C4C616A6C
:1043B0000D00A66A616AA942FAD18B4208D805D0DD
:1043C0000120E0BCBA46B146A846F0BDB242F7D9DA
:1043D000EFF3108A72B6234801680029FCD0BFF3BE
:1043E0005F8F0125BD4020491D4C884609788946CC
:1043F0002943C9B28C46414660460870391D1B48A6
:10440000890065630A51B9000B50216A00202942D6
:1044100019D0616A0800A66A616A8142FAD18B42AA
:1044200019D801D1B24216D8CC4516D00C4B1F205A
:104430001D625D6301230740BB400D4A1E381360B7
:1044400043464A461A70BFF35F8F0022054B1A603D
:104450008AF31088B5E70020F5E70120F3E7C046AE
:1044600000400540280100D0BA2E0020842E0020F4
:1044700080E200E0EFF3108C72B60A490B68002B63
:10448000FCD0BFF35F8F01238340074A07481362C4
:1044900002789A430270BFF35F8F00230B608CF3A6
:1044A00010887047280100D000400540BA2E002037
:1044B00070B5050014001600002915D00C00002A64
:1044C00012D080686B689847296800280ED0730066
:1044D0009B196200033B1219CB18033A9C70881891
:1044E0008A5C002A15D10670200070BD63001B197C
:1044F0007200033B9219CB18033A9E7088188A5CAD
:10450000002A02D104703400EEE75A7004703400BF
:10451000EAE75A700670E7E730B583600023CCB253
:1045200043730133047342608373C4730D000068E6
:10453000012C06D9421C0133DBB2137003329C42BA
:10454000F9D1FF2129404B005918002340180338A6
:10455000437030BDF8B5CE46474606000C0080B526
:10456000002907D04D0003686D18033D5A1957788C
:10457000002F04D12000C0BCB946B046F8BD790078
:10458000C91903398846434459788946002159702E
:10459000517073683A00210080689847336800289A
:1045A00014D042469A18947059195B5D002B00D0C4
:1045B00053700F70270049463000FFF7CBFF3900DA
:1045C00002003000FFF774FF0400D3E74246414683
:1045D0005D19AF709A185B5C002B00D06B70147083
:1045E000E9E7C046F0B557464546DE464E46E0B5DB
:1045F0000D006B0001685B19DF1E0400C85D83B00D
:104600000192CA19002850D043001B18033BCB1855
:104610005E78B446002E1AD1019E002E42D0E67B71
:10462000002E04D073009B19CB18033B5D70A37B55
:10463000002B00D1A573E57300282FD10023537000
:1046400003B0F0BCBB46B246A946A046F0BD72001E
:104650006244033A89184A78904600224A7091468B
:104660005A70010032002000FFF722FF43468246C5
:10467000002B07D05B0021684344033BCB185A78DA
:10468000002A16D1424651462000FFF711FF21684B
:10469000019BCA19002BC2D10028CFD043001B18A0
:1046A000033BCB1800219970C8E7019B002BB6D1C2
:1046B000C4E75000801803380918487883464846F4
:1046C0004870587041462000FFF7F2FE5946804678
:1046D0002000FFF73FFF414602002000FFF7E8FE01
:1046E0008046CFE7F0B557464546DE464E46E0B534
:1046F00083B00191457B04006B0000685B19DF1EED
:10470000C15DC219002952D04B005B18033BC3188E
:104710005E78B446002E1CD1019E002E44D0E67B6C
:10472000002E04D073009B19C318033B5D70A37B5C
:10473000002B00D1A573E573002931D10023280097
:104740005370617303B0F0BCBB46B246A946A046A5
:10475000F0BD72006244033A80184278904600220D
:10476000427091465A7020003200FFF7A1FE434686
:104770008246002B07D05B0021684344033BCB18E3
:104780005A78002A17D1424651462000FFF790FE82
:10479000019B01002068C219002BC0D10029CDD097
:1047A0004B005B18033BC31800209870C6E7019BC1
:1047B000002BB4D1C2E7500080180338091848789C
:1047C000834648464870587041462000FFF770FE07
:1047D000594680462000FFF7BDFE414602002000FA
:1047E000FFF766FE8046CEE770B5040000292CD0A6
:1047F000437B8B422ED005684800401803382818A8
:104800008278002A21D053009B18033BEA5CEE1803
:104810008A4202D11BE0002A08D053009B18033BB8
:10482000EB185A788A42F6D142785A700023012256
:10483000837043702000FFF7D5FE617B02002000EB
:10484000FFF736FE6073012000E0002070BD437862
:104850003370EBE701221900FFF7C4FE60730120FB
:10486000F4E7C04630B50C2083B000F0B9F9FEF78C
:1048700089FD00280ED0994B994A1A605A609A60B7
:10488000DA601A615A619A61DA611A62954A5A626B
:1048900003B030BD944CA06700F0F6F90122934BB1
:1048A0001A60636C012BFCD10322914B1A608E4A73
:1048B000936B012BFCD1013301218E4A8E4800936A
:1048C000043300F03DF905238C4A009301218C4804
:1048D00000F036F98B4B5A68FF2A02D8802252002A
:1048E0005A6080227D4C824B21691201854D1A60ED
:1048F000002907D0606901F02DFE431C5800C01844
:104900000338FDD2E0217F4B02201A68114080223B
:1049100052012A4311601968484003210140116087
:1049200004219A681142FCD08022802192012A43FE
:1049300009011160802252005A60734B2361734B4E
:104940005968FF2900D85A600321684A6F4B1160EB
:1049500002399A681142FCD0E0201A681040802287
:1049600052011A4310601868484003210140022098
:10497000116066498A681042FCD08022920113437C
:10498000802212011A608022614B52004A606361EA
:10499000604B5968FF2900D85A6080225E4BE1695C
:1049A00012015C4D1A60002907D0606901F0D2FD48
:1049B000431C5800C0180338FDD2E02255490B684B
:1049C0001A4080235B012B431A60802380229B01C5
:1049D0002B4312011A608022414B52004A60E3616E
:1049E0004E4B5968FF2900D85A6080224C4B216AEF
:1049F00012014A4D1A60002907D0606901F0AAFD32
:104A0000431C5800C0180338FDD2E02243490B680C
:104A10001A4080235B012B431A60802380229B0174
:104A20002B4312011A60802380225B004B602C4BC9
:104A3000D20223623B4B5968914200D25A608022D5
:104A4000394B616A1201374D1A60002907D060693D
:104A500001F080FD431C5800C0180338FDD2E0224D
:104A600030490B681A4080235B012B431A60802376
:104A700080229B012B4312011A608023DB024B60D2
:104A8000184B6362294B5A68FF2A02D880225200D1
:104A90005A608022264BA1691201244D1A60002918
:104AA00007D0606901F056FD431C5800C018033858
:104AB000FDD2E0221D490B681A4080235B012B4385
:104AC0001A60802380229B012B4312011A608023ED
:104AD0005B004B600E4BA361DAE6C04670240020F9
:104AE000006CDC021BB70000008000403CB00040BE
:104AF00030B00040002F685900800240008C86478B
:104B000000C0024030800040001BB7003C800040E5
:104B1000405973075480004054B00040608000400A
:104B200060B000406C8000406CB0004048800040A5
:104B300048B00040014B8000C058704770240020EE
:104B4000F8B5040021481D0017000E0001F002FD19
:104B50000100380001F0FEFC069B29041B031943E9
:104B60002368002B20DB1A4B1A4DE21853425A419E
:104B700080235B019C461203174B62441A60174B5B
:104B80001A601700AB689F43FBD1C022231D92011E
:104B90001A4321232660A06013602368002BFCDAEF
:104BA0000823E1601360F8BD3F2322681340B3423D
:104BB000D9D1A3681B051B0D8342D4D1EE22E36833
:104BC000D20213408B42CED1EDE7C046001BB700A6
:104BD0000040FDBF00C0004000E0004000F0004089
:104BE0008023024A9B000343D36270470080054044
:104BF00010B5140080221B4BD2051A6000281AD071
:104C00000123194A1843194BDA61194A42401A62C2
:104C1000596298628022134BD2051A601549164AD0
:104C20001160E022D2041A60002C07D18022134BBD
:104C300012061A6010BD0D4BD861EBE763011B1B18
:104C40009A008023121912015B049A4200D30C4A85
:104C50000C4B1A60054B5A608022084BD2051A6033
:104C6000E8E7C04600B00540D3C007B0008005406B
:104C70002D3FF84FFCFF01000820014000A0054037
:104C8000FFFFFF00482D0020AA23064A1B011360E6
:104C90002F230549D360054B19605368002BFCDABC
:104CA0007047C0460040024000B0FA000060024079
:104CB0002C4B2D4A70B51A602C4A2D4B2D491A6089
:104CC00014008B689C43FBD12B4D2C4EB54208D26F
:104CD000013E761BB60808CD984723000134B34245
:104CE000F9D1FFF7BFFD264A214B1A60214A93688C
:104CF000DB43DB01DD09002BF9D14022214B224CA3
:104D0000224E9A675A671A67DA66B44208D2236855
:104D10002000002B20D00834FEF7C0FEB442F6D3AA
:104D20001B4E1C4CC022A168300002F00BF9A6609B
:104D3000FEF7B6FBFEF766FEFFF768F8164C174E57
:104D4000B44208D2013E361BB60808CC98472B0067
:104D500001359E42F9D170BD0834FEF791FEB44290
:104D6000D5D3DDE700E00040BFCDFBFEFE7F3C0079
:104D700000F0004000C000408C1B00209C1B002065
:104D8000FFFFFF0100F001407C1B00208C1B002076
:104D90000000002000ED00E09C1B0020A41B002070
:104DA00000BEFDE7094A03001068002805D0084945
:104DB000C3188B4207D81360704706480449C318CC
:104DC00010608B42F7D901204042F5E714290020FA
:104DD00000000420BC2E002010B5FFF7E1FFC04604
:104DE00010B50C0082B01900002A0AD0064B0192BF
:104DF000009302002300054801F00CFB0120FFF79F
:104E0000CFFF034B1A00F2E7CC460110DC4601103D
:104E1000C04E01100FB400B5084883B002F0F6F997
:104E2000049B002B07D005A91800019101F012FB8B
:104E3000034802F0EBF90120FFF7B2FF0C47011025
:104E40001846011010B50148FFF7E4FF1C47011098
:104E50009A4200D2885470477047C046F8B557460A
:104E60004E464546DE46E0B599460A9B07009A46FF
:104E70000D9B8846934615000B9E9B0710D10C9BFB
:104E80009E420DD29D1B14000E005D4422004B4635
:104E9000013431002020B847A542F7D1B0460B9E1F
:104EA000002E27D0444675195346AA1B013E985D33
:104EB00021004B46B847002EF6D123002C0098461F
:104EC0000D9B9B070FD55B46E51A0C9BAB420AD99D
:104ED0004646984622004B46310020200135B8470F
:104EE0000134A845F6D82000F0BCBB46B246A9461E
:104EF000A046F8BD2C00E3E7F0B54F464646D6463F
:104F0000C0B584B098460EAB1B78129F9946944664
:104F10000D9C109B119EBA0725D4002E4BD19C42AC
:104F200000D3BFE001223A4092461F2C00D9B8E0DE
:104F30000C9A551E302201E0202C03D001342A5552
:104F4000A342F9D85246002A0DD0A6420BD9202CF4
:104F500044D00C9A551E302201E0202C3ED0013462
:104F60002A55B442F9D1FA064DD57A053FD4002C22
:104F700039D10F9B102B00D179E00F9B022B00D170
:104F80008AE030230C9A012413704B46002B3FD04B
:104F90002D230C9A135501340C9B62460093039702
:104FA000434602960194FFF759FF04B0E0BCBA46AD
:104FB000B146A846F0BD012215003D40AA463A423E
:104FC0002FD04A46002A02D10C323A4200D0013E8C
:104FD0009C42BAD21F2CABD9202E27D92024FA0606
:104FE000DAD57A0503D4A3422DD0A6422BD00F9B4D
:104FF000102B32D0022B20D0202CCDD030220C9B75
:105000001B191A700134202CC6D04B46002BBFD17F
:105010007B070DD43B07BFD520230C9A13550134D1
:10502000BAE79C429FD21F2C00D881E720249AE740
:105030002B230C9A13550134AEE7202CACD00C9BDB
:105040001B1901343AE0631E012C92D00F9A102AEA
:105050002AD0022A2FD01C00D0E7BB060ED4202C69
:105060009AD00C9B1A19013478231370C4E7BB063D
:105070000DD478230C9A01241370BFE7202C00D1A3
:105080008AE758220C9B1B191A700134B4E7582385
:105090000C9A01241370B1E70C9A60330124137049
:1050A000ACE7202400265EE7023CBA06E9D40C9A5D
:1050B00012191C00D8E70C9A9246534462221A70C7
:1050C0009AE7C04610B5002800D110BD02F052F892
:1050D000FBE7C0460B0010B5002802D049681B68EA
:1050E000984710BDF0B5DE4657464E464546E0B5FA
:1050F0009BB09B46249B89469846259B0B900C921F
:105100004046424619009A4601F0E5FC002800D0CE
:10511000D8E0012240465146774B524201F0D6FC7E
:10512000002800D0CEE0012240465146734B524247
:1051300001F0B6FC002800D0C4E000220023404665
:10514000514601F0ADFC002800D0B9E1424653467B
:105150000A9209938023289ADB001A400E92289A1B
:105160001A4201D1062326930A9A099B160013437B
:1051700000D0C7E0289B002500261B0500D49BE13A
:1051800000230D93269A0D9B9A4200DC9FE1D01AD2
:10519000431E26938023289ADB001A43002300270E
:1051A00028920D93279B0024BB4200D9DC1B0223CD
:1051B000289A1A400E92289A134203D07B427B41D0
:1051C0005B421C400D9B002B07D00A9809992A00CE
:1051D000330001F004FC0A900991002200234046AC
:1051E000514601F05DFC002805D080200006844671
:1051F000099961440991289A414B0B9D13400493EE
:10520000269B0A9A0293099B0394009201934946B4
:105210005B4628000C9A00F08BF90400002F62D046
:10522000289B220098061F23C0179843631C9846AA
:1052300049465B466530A8470D9B0025DA179C1848
:10524000DB0F9A465440013F01E0202D13D00AAAFB
:1052500094461F23200063440A2101355E1901F0A2
:1052600079F93031317020000A2101F073F92600FC
:105270000400092EE9D805230693002304930A337A
:105280000393534605970B9F029312AB009342463C
:105290005B46494638000195FFF72EFE0E9B040041
:1052A000002B20D00C9BC51A279BAB421BD91E009C
:1052B00022005B46494620200135B8470134AE4202
:1052C000F6D810E0289B42460493279B4946039357
:1052D000269B0B9802935346009201935B460C9ACF
:1052E00000F026F9040020001BB0F0BCBB46B2461B
:1052F000A946A046F0BDC046FFFFEF7FFFFFEFFFCE
:10530000FFF7FFFF734B099F9C467800400D6044F8
:1053100001F0F4FB704A714B01F07BFB704A714B5A
:1053200001F058FB3B03704A1B0B1A4304000D00AD
:10533000300011006D4B002201F047FB6C4A6D4BB1
:1053400001F067FB02000B002000290001F042FB86
:1053500001F0ECFB0D9001F0D1FB674A674B0400B4
:105360000D0001F056FB0022654B01F033FB01F00C
:10537000DDFB644A0600644B2000290001F049FB74
:10538000040030000D000F9601F0B8FB5F4A604B3F
:1053900001F03FFB02000B002000290001F015FB8B
:1053A00002000B0006000F0001F033FB3200040086
:1053B0000D003B003000390001F00CFB0022109082
:1053C0001191544B2000290001F009FB0022524B9F
:1053D00001F000FB02000B002000290001F0FFFAA1
:1053E00000224E4B01F0F6FA02000B0020002900CB
:1053F00001F0F5FA0D008021040032003B0000208E
:10540000C90501F0E2FA02000B002000290001F0BA
:10541000E1FA02000B001098119901F0E0FA002265
:10542000314B01F0D7FA3E4B0F9C9C46644400225E
:10543000230501F0EEFA05000E0002000B000A98A9
:10544000099901F02DFB00280AD00D9B2800013B93
:1054500031000D930022304B01F0C1FA05000E001F
:10546000C6270D992B0063318F42BF4128997F4297
:105470000437090500D495E6334300D182E6099C40
:10548000284A2100284B0A9801F018FB002808D070
:1054900000222100254B0A9801F002FB002800D0D1
:1054A00070E6269B002B00D17CE60E9B5A1E934192
:1054B000269AD31A269375E6002304270D9371E6E6
:1054C00043460A9380231B065344099342E6002374
:1054D00026935FE601FCFFFFFB799F501344D33F07
:1054E000B3C8608B288AC63F0000F03F0000F83F39
:1054F00061436F63A787D23F71A379094F930A4035
:105500000000E03F1655B5BBB16B0240EF39FAFE23
:10551000422EE63F00002C400000244000001840CE
:10552000FF0300002D431CEBE2361A3F80842E411E
:10553000F0B54E46DE4657464546E0B597B099462B
:10554000209E219F229B8346984607910C923B0008
:1055500032003000390001F0BEFA002800D0A9E185
:10556000012230003900CA4B524201F099FA00285A
:1055700000D0E1E0012230003900C64B524201F078
:10558000A5FA002800D0B7E0002230003900C24B55
:1055900001F09CFA002800D099E000223000390088
:1055A000BE4B01F07DFA002800D090E000220023DD
:1055B0003000390001F074FA002800D0B1E0002377
:1055C0000D93249B5B0501D40623984608AB9C46AB
:1055D0001722002430234146624404E0013413556D
:1055E0000139202C01D00929F8D88846300039002B
:1055F00001F09CFA4346DA00A94B05009B181A6893
:105600005B680892099301F079FA02000B00300000
:10561000390001F0DAF9089A099B01F0FAF90A90C9
:105620000B9101F0A7FA824601F064FA02000B0028
:105630000A980B9901F0C9F900229A4B0A900B9134
:1056400001F044FA002800D1C0E001239C46E24466
:10565000504601F04FFA02000B000898099901F03A
:1056600025FA002802D000239A4601354346002B34
:105670006AD008AB17269C4608956644554614E048
:1056800001235B4243440A2128009A4600F062FF4E
:10569000013430313719397028000A2100F05AFFDF
:1056A000092D00D8D0E0D0460500202CE8D10EAB63
:1056B00098460323249A1340012B00D196E020231F
:1056C000249A01930392239A434602921EE0249B5C
:1056D00058460493239B00960197039343460C9AE4
:1056E000029307994B46FFF7FDFC17B0F0BCBB4691
:1056F000B246A946A046F0BD249B5B070ED4032208
:10570000694B249901920391239902910093584681
:105710004B460C9A0799FFF7A1FBE6E70422634B7F
:10572000EFE73B0032000020002101F04EF9012399
:1057300006000F000D9344E7249B0393239B0293E1
:10574000042301935A4BE1E7280001F0D7F9020046
:105750000B003000390001F038F9524B00220600EE
:105760000F0001F09DF90EAB984600280AD10022E7
:10577000300039004B4B01F0A9F9002802D1EB07AA
:1057800000D50135202C94D008AA94461723280070
:1057900063440A2101341E1900F0B4FE30312800A0
:1057A00031700A2100F0AEFE051EEBD10323249ACE
:1057B0001340012B1BD0202C00D180E70D9B002B28
:1057C00035D02D224146631C0A5579E700220A98FC
:1057D0000B99344B01F064F9002800D046E753469A
:1057E000002B51D101239C46E2443FE72024239B18
:1057F000002BE0D00D9B002B03D1249A0C331342D5
:1058000002D0239B013B2393239BA342D3D908AB14
:105810009C46172230236244202C00D14FE7239965
:10582000013413558C42C6D0202CF8D147E7249B75
:105830005B0724D4249A2300120700D440E72022D7
:10584000414601330A553BE75746089D202C00D1BD
:105850002DE7220030214046002F09D00132B154FB
:10586000202A00D123E7D3431B191B18002BF5D1A5
:105870000EAB98462E234146541C8B5482E72B22B4
:105880004146631C0A551BE7DB0700D4EEE6A9E797
:10589000FFFFEFFFFFFFEF7F65CDCD4165CDCDC1B0
:1058A000204901100000E03F284701102C4701105B
:1058B00038470110249B0393239B029303230193F6
:1058C000004B23E734470110F0B5DE464E465746FD
:1058D0004546E0B59FB01C00289B91460993C94AF4
:1058E000C94B8B4608901A60002900D118E20023AA
:1058F00020789A46002800D11AE226001D005C4656
:105900000AE02A006F1C4B46089D2100A8473D0075
:1059100001363078002870D02528F2D110239B461C
:10592000083B9A46043B9846023B00219C46721C69
:10593000107816000300203BDBB2102B03D8B34FC6
:105940009B00FB589F460300303B092B32D90023B4
:105950000A932A2868D0002398462E283ED00300B8
:10596000683BDBB2122B1CD8A94A9B00D3589F4638
:10597000012301321943DBE7634601321943D7E7BC
:10598000434601321943D3E75B4601321943CFE75F
:10599000534601321943CBE780235B0070781943EB
:1059A00001360300253BDBB2532BAAD8994A9B0052
:1059B000D3589F4600270300B800C01901364000A5
:1059C000C018337830381A00303A0700092AF3D962
:1059D0000A901800002398462E28C0D180237078A2
:1059E000DB0019430300303B721C092B00D8A1E1F6
:1059F0002A2800D1B2E11600B1E7A346AA462C003E
:105A0000D14503D801235B424B449A464B4652464C
:105A100059460020089DA84720001FB0F0BCBB4697
:105A2000B246A946A046F0BD099B40CB0A96002E7F
:105A300003DB50780993561C8DE7283801437042E8
:105A40000A9009935078561C85E7782800D1DFE149
:105A5000582800D14CE26F2800D14FE3622801D1D1
:105A600000F030FC10230A009A430B92692801D001
:105A700000F0A9FC0A230C934B0500D5D0E10B9A4A
:105A8000802311009B0019408B461A4200D0A1E2EE
:105A9000802311005B0019408A461A4200D0B6E309
:105AA00013005B0600D5EDE2130009991B0601D433
:105AB00000F076FC08C91BB2D8171A18424092B2FF
:105AC00009919346DA0F1292002B09D180231022FC
:105AD0000B99DB000B4091430B91002B00D0E4E2CB
